Component: ARM Compiler 5.06 update 7 (build 960) Tool: armlink [4d3601]

==============================================================================

Section Cross References

    startup_stm32f767xx.o(STACK) refers (Special) to heapauxi.o(.text) for __use_two_region_memory
    startup_stm32f767xx.o(HEAP) refers (Special) to heapauxi.o(.text) for __use_two_region_memory
    startup_stm32f767xx.o(RESET) refers (Special) to heapauxi.o(.text) for __use_two_region_memory
    startup_stm32f767xx.o(RESET) refers to startup_stm32f767xx.o(STACK) for __initial_sp
    startup_stm32f767xx.o(RESET) refers to startup_stm32f767xx.o(.text) for Reset_Handler
    startup_stm32f767xx.o(RESET) refers to stm32f7xx_it.o(i.NMI_Handler) for NMI_Handler
    startup_stm32f767xx.o(RESET) refers to stm32f7xx_it.o(i.HardFault_Handler) for HardFault_Handler
    startup_stm32f767xx.o(RESET) refers to stm32f7xx_it.o(i.MemManage_Handler) for MemManage_Handler
    startup_stm32f767xx.o(RESET) refers to stm32f7xx_it.o(i.BusFault_Handler) for BusFault_Handler
    startup_stm32f767xx.o(RESET) refers to stm32f7xx_it.o(i.UsageFault_Handler) for UsageFault_Handler
    startup_stm32f767xx.o(RESET) refers to stm32f7xx_it.o(i.SVC_Handler) for SVC_Handler
    startup_stm32f767xx.o(RESET) refers to stm32f7xx_it.o(i.DebugMon_Handler) for DebugMon_Handler
    startup_stm32f767xx.o(RESET) refers to stm32f7xx_it.o(i.PendSV_Handler) for PendSV_Handler
    startup_stm32f767xx.o(RESET) refers to stm32f7xx_it.o(i.SysTick_Handler) for SysTick_Handler
    startup_stm32f767xx.o(RESET) refers to stm32f7xx_it.o(i.TIM3_IRQHandler) for TIM3_IRQHandler
    startup_stm32f767xx.o(.text) refers (Special) to heapauxi.o(.text) for __use_two_region_memory
    startup_stm32f767xx.o(.text) refers to system_stm32f7xx.o(i.SystemInit) for SystemInit
    startup_stm32f767xx.o(.text) refers to __main.o(!!!main) for __main
==============================================================================

Removing Unused input sections from the image.

    Removing main.o(.rev16_text), (4 bytes).
    Removing main.o(.revsh_text), (4 bytes).
    Removing main.o(.rrx_text), (6 bytes).
    Removing gpio.o(.rev16_text), (4 bytes).
    Removing gpio.o(.revsh_text), (4 bytes).
    Removing gpio.o(.rrx_text), (6 bytes).
    Removing adc.o(.rev16_text), (4 bytes).
    Removing adc.o(.revsh_text), (4 bytes).
    Removing adc.o(.rrx_text), (6 bytes).
    Removing adc.o(i.HAL_ADC_MspDeInit), (40 bytes).
    Removing dma2d.o(.rev16_text), (4 bytes).
    Removing dma2d.o(.revsh_text), (4 bytes).
    Removing dma2d.o(.rrx_text), (6 bytes).
    Removing dma2d.o(i.HAL_DMA2D_MspDeInit), (28 bytes).
    Removing fmc.o(.rev16_text), (4 bytes).
    Removing fmc.o(.revsh_text), (4 bytes).
    Removing fmc.o(.rrx_text), (6 bytes).
    Removing fmc.o(i.HAL_SDRAM_MspDeInit), (108 bytes).
==============================================================================

Image Symbol Table

    Local Symbols

    Symbol Name                              Value     Ov Type        Size  Object(Section)

    ../Core/Src/adc.c                        0x00000000   Number         0  adc.o ABSOLUTE
    ../Core/Src/dma2d.c                      0x00000000   Number         0  dma2d.o ABSOLUTE
    ../Core/Src/fmc.c                        0x00000000   Number         0  fmc.o ABSOLUTE
    ../Core/Src/gpio.c                       0x00000000   Number         0  gpio.o ABSOLUTE
    ../Core/Src/ltdc.c                       0x00000000   Number         0  ltdc.o ABSOLUTE
    ../Core/Src/main.c                       0x00000000   Number         0  main.o ABSOLUTE
    ../Core/Src/stm32f7xx_hal_msp.c          0x00000000   Number         0  stm32f7xx_hal_msp.o ABSOLUTE
    ../Core/Src/stm32f7xx_it.c               0x00000000   Number         0  stm32f7xx_it.o ABSOLUTE
    ../Core/Src/system_stm32f7xx.c           0x00000000   Number         0  system_stm32f7xx.o ABSOLUTE
    ../Core/Src/tim.c                        0x00000000   Number         0  tim.o ABSOLUTE
    ../Drivers/STM32F7xx_HAL_Driver/Src/stm32f7xx_hal.c 0x00000000   Number         0  stm32f7xx_hal.o ABSOLUTE
    ../Drivers/STM32F7xx_HAL_Driver/Src/stm32f7xx_hal_adc.c 0x00000000   Number         0  stm32f7xx_hal_adc.o ABSOLUTE
    ../Drivers/STM32F7xx_HAL_Driver/Src/stm32f7xx_hal_adc_ex.c 0x00000000   Number         0  stm32f7xx_hal_adc_ex.o ABSOLUTE
    ../Drivers/STM32F7xx_HAL_Driver/Src/stm32f7xx_hal_cortex.c 0x00000000   Number         0  stm32f7xx_hal_cortex.o ABSOLUTE
    ../Drivers/STM32F7xx_HAL_Driver/Src/stm32f7xx_hal_dma.c 0x00000000   Number         0  stm32f7xx_hal_dma.o ABSOLUTE
    ../Drivers/STM32F7xx_HAL_Driver/Src/stm32f7xx_hal_dma2d.c 0x00000000   Number         0  stm32f7xx_hal_dma2d.o ABSOLUTE
    ../Drivers/STM32F7xx_HAL_Driver/Src/stm32f7xx_hal_dma_ex.c 0x00000000   Number         0  stm32f7xx_hal_dma_ex.o ABSOLUTE
    ../Drivers/STM32F7xx_HAL_Driver/Src/stm32f7xx_hal_dsi.c 0x00000000   Number         0  stm32f7xx_hal_dsi.o ABSOLUTE
    ../Drivers/STM32F7xx_HAL_Driver/Src/stm32f7xx_hal_exti.c 0x00000000   Number         0  stm32f7xx_hal_exti.o ABSOLUTE
    ../Drivers/STM32F7xx_HAL_Driver/Src/stm32f7xx_hal_flash.c 0x00000000   Number         0  stm32f7xx_hal_flash.o ABSOLUTE
    ../Drivers/STM32F7xx_HAL_Driver/Src/stm32f7xx_hal_flash_ex.c 0x00000000   Number         0  stm32f7xx_hal_flash_ex.o ABSOLUTE
    ../Drivers/STM32F7xx_HAL_Driver/Src/stm32f7xx_hal_gpio.c 0x00000000   Number         0  stm32f7xx_hal_gpio.o ABSOLUTE
    ../Drivers/STM32F7xx_HAL_Driver/Src/stm32f7xx_hal_ltdc.c 0x00000000   Number         0  stm32f7xx_hal_ltdc.o ABSOLUTE
    ../Drivers/STM32F7xx_HAL_Driver/Src/stm32f7xx_hal_ltdc_ex.c 0x00000000   Number         0  stm32f7xx_hal_ltdc_ex.o ABSOLUTE
    ../Drivers/STM32F7xx_HAL_Driver/Src/stm32f7xx_hal_pwr.c 0x00000000   Number         0  stm32f7xx_hal_pwr.o ABSOLUTE
    ../Drivers/STM32F7xx_HAL_Driver/Src/stm32f7xx_hal_pwr_ex.c 0x00000000   Number         0  stm32f7xx_hal_pwr_ex.o ABSOLUTE
    ../Drivers/STM32F7xx_HAL_Driver/Src/stm32f7xx_hal_rcc.c 0x00000000   Number         0  stm32f7xx_hal_rcc.o ABSOLUTE
    ../Drivers/STM32F7xx_HAL_Driver/Src/stm32f7xx_hal_rcc_ex.c 0x00000000   Number         0  stm32f7xx_hal_rcc_ex.o ABSOLUTE
    ../Drivers/STM32F7xx_HAL_Driver/Src/stm32f7xx_hal_sdram.c 0x00000000   Number         0  stm32f7xx_hal_sdram.o ABSOLUTE
    ../Drivers/STM32F7xx_HAL_Driver/Src/stm32f7xx_hal_tim.c 0x00000000   Number         0  stm32f7xx_hal_tim.o ABSOLUTE
    ../Drivers/STM32F7xx_HAL_Driver/Src/stm32f7xx_hal_tim_ex.c 0x00000000   Number         0  stm32f7xx_hal_tim_ex.o ABSOLUTE
    ../Drivers/STM32F7xx_HAL_Driver/Src/stm32f7xx_ll_fmc.c 0x00000000   Number         0  stm32f7xx_ll_fmc.o ABSOLUTE
    ../clib/angel/boardlib.s                 0x00000000   Number         0  boardshut.o ABSOLUTE
    ../clib/angel/boardlib.s                 0x00000000   Number         0  boardinit1.o ABSOLUTE
    ../clib/angel/boardlib.s                 0x00000000   Number         0  boardinit2.o ABSOLUTE
    ../clib/angel/boardlib.s                 0x00000000   Number         0  boardinit3.o ABSOLUTE
    ../clib/angel/dczerorl2.s                0x00000000   Number         0  __dczerorl2.o ABSOLUTE
    ../clib/angel/handlers.s                 0x00000000   Number         0  __scatter_zi.o ABSOLUTE
    ../clib/angel/kernel.s                   0x00000000   Number         0  __rtentry4.o ABSOLUTE
    ../clib/angel/kernel.s                   0x00000000   Number         0  rtexit.o ABSOLUTE
    ../clib/angel/kernel.s                   0x00000000   Number         0  rtexit2.o ABSOLUTE
    ../clib/angel/kernel.s                   0x00000000   Number         0  __rtentry.o ABSOLUTE
    ../clib/angel/kernel.s                   0x00000000   Number         0  __rtentry2.o ABSOLUTE
    ../clib/angel/rt.s                       0x00000000   Number         0  rt_div0.o ABSOLUTE
    ../clib/angel/rt.s                       0x00000000   Number         0  aeabi_ldiv0_sigfpe.o ABSOLUTE
    ../clib/angel/rt.s                       0x00000000   Number         0  aeabi_ldiv0.o ABSOLUTE
    ../clib/angel/rt.s                       0x00000000   Number         0  rt_raise.o ABSOLUTE
    ../clib/angel/rt.s                       0x00000000   Number         0  rt_locale.o ABSOLUTE
    ../clib/angel/rt.s                       0x00000000   Number         0  rt_locale_intlibspace.o ABSOLUTE
    ../clib/angel/scatter.s                  0x00000000   Number         0  __scatter.o ABSOLUTE
    ../clib/angel/startup.s                  0x00000000   Number         0  __main.o ABSOLUTE
    ../clib/angel/sys.s                      0x00000000   Number         0  libspace.o ABSOLUTE
    ../clib/angel/sys.s                      0x00000000   Number         0  use_no_semi.o ABSOLUTE
    ../clib/angel/sys.s                      0x00000000   Number         0  indicate_semi.o ABSOLUTE
    ../clib/angel/sys.s                      0x00000000   Number         0  sys_stackheap_outer.o ABSOLUTE
    ../clib/angel/sysapp.c                   0x00000000   Number         0  sys_exit.o ABSOLUTE
    ../clib/angel/sysapp.c                   0x00000000   Number         0  sys_wrch.o ABSOLUTE
    ../clib/angel/sysapp.c                   0x00000000   Number         0  sys_command.o ABSOLUTE
    ../clib/armsys.c                         0x00000000   Number         0  no_argv.o ABSOLUTE
    ../clib/armsys.c                         0x00000000   Number         0  _get_argv_nomalloc.o ABSOLUTE
    ../clib/armsys.c                         0x00000000   Number         0  argv_veneer.o ABSOLUTE
    ../clib/armsys.c                         0x00000000   Number         0  argv_veneer.o ABSOLUTE
    ../clib/bigflt.c                         0x00000000   Number         0  bigflt0.o ABSOLUTE
    ../clib/btod.s                           0x00000000   Number         0  btod.o ABSOLUTE
    ../clib/heapalloc.c                      0x00000000   Number         0  hrguard.o ABSOLUTE
    ../clib/heapaux.c                        0x00000000   Number         0  heapauxi.o ABSOLUTE
    ../clib/libinit.s                        0x00000000   Number         0  libinit2.o ABSOLUTE
    ../clib/libinit.s                        0x00000000   Number         0  libshutdown.o ABSOLUTE
    ../clib/libinit.s                        0x00000000   Number         0  libinit.o ABSOLUTE
    ../clib/libinit.s                        0x00000000   Number         0  libshutdown2.o ABSOLUTE
    ../clib/locale.s                         0x00000000   Number         0  lc_numeric_c.o ABSOLUTE
    ../clib/longlong.s                       0x00000000   Number         0  lludiv10.o ABSOLUTE
    ../clib/longlong.s                       0x00000000   Number         0  lludivv7m.o ABSOLUTE
    ../clib/memcpset.s                       0x00000000   Number         0  aeabi_memset.o ABSOLUTE
    ../clib/memcpset.s                       0x00000000   Number         0  rt_memclr_w.o ABSOLUTE
    ../clib/memcpset.s                       0x00000000   Number         0  strcmpv7m_pel.o ABSOLUTE
    ../clib/memcpset.s                       0x00000000   Number         0  rt_memcpy_v6.o ABSOLUTE
    ../clib/memcpset.s                       0x00000000   Number         0  rt_memcpy_w.o ABSOLUTE
    ../clib/memcpset.s                       0x00000000   Number         0  rt_memclr.o ABSOLUTE
    ../clib/misc.s                           0x00000000   Number         0  printf_stubs.o ABSOLUTE
    ../clib/printf.c                         0x00000000   Number         0  _printf_fp_dec.o ABSOLUTE
    ../clib/printf.c                         0x00000000   Number         0  __printf_flags.o ABSOLUTE
    ../clib/printf.c                         0x00000000   Number         0  _printf_intcommon.o ABSOLUTE
    ../clib/printf.c                         0x00000000   Number         0  __printf_nopercent.o ABSOLUTE
    ../clib/printf.c                         0x00000000   Number         0  _printf_char_common.o ABSOLUTE
    ../clib/printf.c                         0x00000000   Number         0  __printf_flags_wp.o ABSOLUTE
    ../clib/printf.c                         0x00000000   Number         0  _sputc.o ABSOLUTE
    ../clib/printf.c                         0x00000000   Number         0  _printf_fp_infnan.o ABSOLUTE
    ../clib/printf.c                         0x00000000   Number         0  _printf_dec.o ABSOLUTE
    ../clib/printf.c                         0x00000000   Number         0  _printf_str.o ABSOLUTE
    ../clib/printf.c                         0x00000000   Number         0  __printf_ss.o ABSOLUTE
    ../clib/printf.c                         0x00000000   Number         0  __printf.o ABSOLUTE
    ../clib/printf.c                         0x00000000   Number         0  noretval__2sprintf.o ABSOLUTE
    ../clib/printf.c                         0x00000000   Number         0  __2sprintf.o ABSOLUTE
    ../clib/printf.c                         0x00000000   Number         0  _printf_char.o ABSOLUTE
    ../clib/printf.c                         0x00000000   Number         0  _printf_pad.o ABSOLUTE
    ../clib/printf.c                         0x00000000   Number         0  __printf_ss_wp.o ABSOLUTE
    ../clib/printf.c                         0x00000000   Number         0  __printf_flags_ss.o ABSOLUTE
    ../clib/printf.c                         0x00000000   Number         0  __printf_wp.o ABSOLUTE
    ../clib/printf.c                         0x00000000   Number         0  __printf_flags_ss_wp.o ABSOLUTE
    ../clib/printf_percent.s                 0x00000000   Number         0  _printf_d.o ABSOLUTE
    ../clib/printf_percent.s                 0x00000000   Number         0  _printf_percent_end.o ABSOLUTE
    ../clib/printf_percent.s                 0x00000000   Number         0  _printf_percent.o ABSOLUTE
    ../clib/printf_percent.s                 0x00000000   Number         0  _printf_f.o ABSOLUTE
    ../clib/printf_percent.s                 0x00000000   Number         0  _printf_c.o ABSOLUTE
    ../clib/signal.c                         0x00000000   Number         0  defsig_rtmem_outer.o ABSOLUTE
    ../clib/signal.c                         0x00000000   Number         0  defsig_general.o ABSOLUTE
    ../clib/signal.c                         0x00000000   Number         0  __raise.o ABSOLUTE
    ../clib/signal.c                         0x00000000   Number         0  defsig_fpe_inner.o ABSOLUTE
    ../clib/signal.c                         0x00000000   Number         0  defsig_exit.o ABSOLUTE
    ../clib/signal.c                         0x00000000   Number         0  defsig_fpe_formal.o ABSOLUTE
    ../clib/signal.c                         0x00000000   Number         0  defsig_fpe_outer.o ABSOLUTE
    ../clib/signal.c                         0x00000000   Number         0  defsig_segv_inner.o ABSOLUTE
    ../clib/signal.c                         0x00000000   Number         0  defsig_other.o ABSOLUTE
    ../clib/signal.c                         0x00000000   Number         0  defsig_cppl_inner.o ABSOLUTE
    ../clib/signal.c                         0x00000000   Number         0  defsig_pvfn_inner.o ABSOLUTE
    ../clib/signal.c                         0x00000000   Number         0  defsig_stak_inner.o ABSOLUTE
    ../clib/signal.c                         0x00000000   Number         0  defsig_rtmem_inner.o ABSOLUTE
    ../clib/signal.c                         0x00000000   Number         0  defsig_rtred_inner.o ABSOLUTE
    ../clib/signal.c                         0x00000000   Number         0  defsig_abrt_inner.o ABSOLUTE
    ../clib/signal.c                         0x00000000   Number         0  defsig_rtmem_formal.o ABSOLUTE
    ../clib/signal.s                         0x00000000   Number         0  defsig.o ABSOLUTE
    ../clib/stdlib.c                         0x00000000   Number         0  exit.o ABSOLUTE
    ../clib/string.c                         0x00000000   Number         0  strcpy.o ABSOLUTE
    ../clib/string.c                         0x00000000   Number         0  strlen.o ABSOLUTE
    ../fplib/fpinit.s                        0x00000000   Number         0  fpinit.o ABSOLUTE
    ../fplib/istatus.s                       0x00000000   Number         0  istatus.o ABSOLUTE
    ../fplib/printf1.s                       0x00000000   Number         0  printf1.o ABSOLUTE
    ../fplib/usenofp.s                       0x00000000   Number         0  usenofp.o ABSOLUTE
    ../mathlib/fpclassify.c                  0x00000000   Number         0  fpclassify.o ABSOLUTE
    ..\Core\Src\adc.c                        0x00000000   Number         0  adc.o ABSOLUTE
    ..\Core\Src\dma2d.c                      0x00000000   Number         0  dma2d.o ABSOLUTE
    ..\Core\Src\fmc.c                        0x00000000   Number         0  fmc.o ABSOLUTE
    ..\Core\Src\gpio.c                       0x00000000   Number         0  gpio.o ABSOLUTE
    ..\Core\Src\ltdc.c                       0x00000000   Number         0  ltdc.o ABSOLUTE
    ..\Core\Src\main.c                       0x00000000   Number         0  main.o ABSOLUTE
    ..\Core\Src\stm32f7xx_hal_msp.c          0x00000000   Number         0  stm32f7xx_hal_msp.o ABSOLUTE
    ..\Core\Src\stm32f7xx_it.c               0x00000000   Number         0  stm32f7xx_it.o ABSOLUTE
    ..\Core\Src\system_stm32f7xx.c           0x00000000   Number         0  system_stm32f7xx.o ABSOLUTE
    ..\Core\Src\tim.c                        0x00000000   Number         0  tim.o ABSOLUTE
    ..\Drivers\STM32F7xx_HAL_Driver\Src\stm32f7xx_hal.c 0x00000000   Number         0  stm32f7xx_hal.o ABSOLUTE
    ..\Drivers\STM32F7xx_HAL_Driver\Src\stm32f7xx_hal_adc.c 0x00000000   Number         0  stm32f7xx_hal_adc.o ABSOLUTE
    ..\Drivers\STM32F7xx_HAL_Driver\Src\stm32f7xx_hal_adc_ex.c 0x00000000   Number         0  stm32f7xx_hal_adc_ex.o ABSOLUTE
    ..\Drivers\STM32F7xx_HAL_Driver\Src\stm32f7xx_hal_cortex.c 0x00000000   Number         0  stm32f7xx_hal_cortex.o ABSOLUTE
    ..\Drivers\STM32F7xx_HAL_Driver\Src\stm32f7xx_hal_dma.c 0x00000000   Number         0  stm32f7xx_hal_dma.o ABSOLUTE
    ..\Drivers\STM32F7xx_HAL_Driver\Src\stm32f7xx_hal_dma2d.c 0x00000000   Number         0  stm32f7xx_hal_dma2d.o ABSOLUTE
    ..\Drivers\STM32F7xx_HAL_Driver\Src\stm32f7xx_hal_dma_ex.c 0x00000000   Number         0  stm32f7xx_hal_dma_ex.o ABSOLUTE
    ..\Drivers\STM32F7xx_HAL_Driver\Src\stm32f7xx_hal_dsi.c 0x00000000   Number         0  stm32f7xx_hal_dsi.o ABSOLUTE
    ..\Drivers\STM32F7xx_HAL_Driver\Src\stm32f7xx_hal_exti.c 0x00000000   Number         0  stm32f7xx_hal_exti.o ABSOLUTE
    ..\Drivers\STM32F7xx_HAL_Driver\Src\stm32f7xx_hal_flash.c 0x00000000   Number         0  stm32f7xx_hal_flash.o ABSOLUTE
    ..\Drivers\STM32F7xx_HAL_Driver\Src\stm32f7xx_hal_flash_ex.c 0x00000000   Number         0  stm32f7xx_hal_flash_ex.o ABSOLUTE
    ..\Drivers\STM32F7xx_HAL_Driver\Src\stm32f7xx_hal_gpio.c 0x00000000   Number         0  stm32f7xx_hal_gpio.o ABSOLUTE
    ..\Drivers\STM32F7xx_HAL_Driver\Src\stm32f7xx_hal_ltdc.c 0x00000000   Number         0  stm32f7xx_hal_ltdc.o ABSOLUTE
    ..\Drivers\STM32F7xx_HAL_Driver\Src\stm32f7xx_hal_ltdc_ex.c 0x00000000   Number         0  stm32f7xx_hal_ltdc_ex.o ABSOLUTE
    ..\Drivers\STM32F7xx_HAL_Driver\Src\stm32f7xx_hal_pwr.c 0x00000000   Number         0  stm32f7xx_hal_pwr.o ABSOLUTE
    ..\Drivers\STM32F7xx_HAL_Driver\Src\stm32f7xx_hal_pwr_ex.c 0x00000000   Number         0  stm32f7xx_hal_pwr_ex.o ABSOLUTE
    ..\Drivers\STM32F7xx_HAL_Driver\Src\stm32f7xx_hal_rcc.c 0x00000000   Number         0  stm32f7xx_hal_rcc.o ABSOLUTE
    ..\Drivers\STM32F7xx_HAL_Driver\Src\stm32f7xx_hal_rcc_ex.c 0x00000000   Number         0  stm32f7xx_hal_rcc_ex.o ABSOLUTE
    ..\Drivers\STM32F7xx_HAL_Driver\Src\stm32f7xx_hal_sdram.c 0x00000000   Number         0  stm32f7xx_hal_sdram.o ABSOLUTE
    ..\Drivers\STM32F7xx_HAL_Driver\Src\stm32f7xx_hal_tim.c 0x00000000   Number         0  stm32f7xx_hal_tim.o ABSOLUTE
    ..\Drivers\STM32F7xx_HAL_Driver\Src\stm32f7xx_hal_tim_ex.c 0x00000000   Number         0  stm32f7xx_hal_tim_ex.o ABSOLUTE
    ..\Drivers\STM32F7xx_HAL_Driver\Src\stm32f7xx_ll_fmc.c 0x00000000   Number         0  stm32f7xx_ll_fmc.o ABSOLUTE
    ..\GUIApp\demo.c                         0x00000000   Number         0  demo.o ABSOLUTE
    ..\GUIApp\img_bubble_pattern.c           0x00000000   Number         0  img_bubble_pattern.o ABSOLUTE
    ..\GUI\lvgl\src\lv_core\lv_disp.c        0x00000000   Number         0  lv_disp.o ABSOLUTE
    ..\GUI\lvgl\src\lv_core\lv_group.c       0x00000000   Number         0  lv_group.o ABSOLUTE
    ..\GUI\lvgl\src\lv_core\lv_indev.c       0x00000000   Number         0  lv_indev.o ABSOLUTE
    ..\GUI\lvgl\src\lv_core\lv_obj.c         0x00000000   Number         0  lv_obj.o ABSOLUTE
    ..\GUI\lvgl\src\lv_core\lv_refr.c        0x00000000   Number         0  lv_refr.o ABSOLUTE
    ..\GUI\lvgl\src\lv_core\lv_style.c       0x00000000   Number         0  lv_style.o ABSOLUTE
    ..\GUI\lvgl\src\lv_draw\lv_draw.c        0x00000000   Number         0  lv_draw.o ABSOLUTE
    ..\GUI\lvgl\src\lv_draw\lv_draw_arc.c    0x00000000   Number         0  lv_draw_arc.o ABSOLUTE
    ..\GUI\lvgl\src\lv_draw\lv_draw_basic.c  0x00000000   Number         0  lv_draw_basic.o ABSOLUTE
    ..\GUI\lvgl\src\lv_draw\lv_draw_img.c    0x00000000   Number         0  lv_draw_img.o ABSOLUTE
    ..\GUI\lvgl\src\lv_draw\lv_draw_label.c  0x00000000   Number         0  lv_draw_label.o ABSOLUTE
    ..\GUI\lvgl\src\lv_draw\lv_draw_line.c   0x00000000   Number         0  lv_draw_line.o ABSOLUTE
    ..\GUI\lvgl\src\lv_draw\lv_draw_rect.c   0x00000000   Number         0  lv_draw_rect.o ABSOLUTE
    ..\GUI\lvgl\src\lv_draw\lv_draw_triangle.c 0x00000000   Number         0  lv_draw_triangle.o ABSOLUTE
    ..\GUI\lvgl\src\lv_draw\lv_img_cache.c   0x00000000   Number         0  lv_img_cache.o ABSOLUTE
    ..\GUI\lvgl\src\lv_draw\lv_img_decoder.c 0x00000000   Number         0  lv_img_decoder.o ABSOLUTE
    ..\GUI\lvgl\src\lv_font\lv_font.c        0x00000000   Number         0  lv_font.o ABSOLUTE
    ..\GUI\lvgl\src\lv_font\lv_font_fmt_txt.c 0x00000000   Number         0  lv_font_fmt_txt.o ABSOLUTE
    ..\GUI\lvgl\src\lv_font\lv_font_roboto_12.c 0x00000000   Number         0  lv_font_roboto_12.o ABSOLUTE
    ..\GUI\lvgl\src\lv_font\lv_font_roboto_16.c 0x00000000   Number         0  lv_font_roboto_16.o ABSOLUTE
    ..\GUI\lvgl\src\lv_font\lv_font_roboto_22.c 0x00000000   Number         0  lv_font_roboto_22.o ABSOLUTE
    ..\GUI\lvgl\src\lv_font\lv_font_roboto_28.c 0x00000000   Number         0  lv_font_roboto_28.o ABSOLUTE
    ..\GUI\lvgl\src\lv_font\lv_font_unscii_8.c 0x00000000   Number         0  lv_font_unscii_8.o ABSOLUTE
    ..\GUI\lvgl\src\lv_hal\lv_hal_disp.c     0x00000000   Number         0  lv_hal_disp.o ABSOLUTE
    ..\GUI\lvgl\src\lv_hal\lv_hal_indev.c    0x00000000   Number         0  lv_hal_indev.o ABSOLUTE
    ..\GUI\lvgl\src\lv_hal\lv_hal_tick.c     0x00000000   Number         0  lv_hal_tick.o ABSOLUTE
    ..\GUI\lvgl\src\lv_misc\lv_anim.c        0x00000000   Number         0  lv_anim.o ABSOLUTE
    ..\GUI\lvgl\src\lv_misc\lv_area.c        0x00000000   Number         0  lv_area.o ABSOLUTE
    ..\GUI\lvgl\src\lv_misc\lv_async.c       0x00000000   Number         0  lv_async.o ABSOLUTE
    ..\GUI\lvgl\src\lv_misc\lv_circ.c        0x00000000   Number         0  lv_circ.o ABSOLUTE
    ..\GUI\lvgl\src\lv_misc\lv_color.c       0x00000000   Number         0  lv_color.o ABSOLUTE
    ..\GUI\lvgl\src\lv_misc\lv_fs.c          0x00000000   Number         0  lv_fs.o ABSOLUTE
    ..\GUI\lvgl\src\lv_misc\lv_gc.c          0x00000000   Number         0  lv_gc.o ABSOLUTE
    ..\GUI\lvgl\src\lv_misc\lv_ll.c          0x00000000   Number         0  lv_ll.o ABSOLUTE
    ..\GUI\lvgl\src\lv_misc\lv_log.c         0x00000000   Number         0  lv_log.o ABSOLUTE
    ..\GUI\lvgl\src\lv_misc\lv_math.c        0x00000000   Number         0  lv_math.o ABSOLUTE
    ..\GUI\lvgl\src\lv_misc\lv_mem.c         0x00000000   Number         0  lv_mem.o ABSOLUTE
    ..\GUI\lvgl\src\lv_misc\lv_task.c        0x00000000   Number         0  lv_task.o ABSOLUTE
    ..\GUI\lvgl\src\lv_misc\lv_templ.c       0x00000000   Number         0  lv_templ.o ABSOLUTE
    ..\GUI\lvgl\src\lv_misc\lv_txt.c         0x00000000   Number         0  lv_txt.o ABSOLUTE
    ..\GUI\lvgl\src\lv_misc\lv_utils.c       0x00000000   Number         0  lv_utils.o ABSOLUTE
    ..\GUI\lvgl\src\lv_objx\lv_arc.c         0x00000000   Number         0  lv_arc.o ABSOLUTE
    ..\GUI\lvgl\src\lv_objx\lv_bar.c         0x00000000   Number         0  lv_bar.o ABSOLUTE
    ..\GUI\lvgl\src\lv_objx\lv_btn.c         0x00000000   Number         0  lv_btn.o ABSOLUTE
    ..\GUI\lvgl\src\lv_objx\lv_btnm.c        0x00000000   Number         0  lv_btnm.o ABSOLUTE
    ..\GUI\lvgl\src\lv_objx\lv_cb.c          0x00000000   Number         0  lv_cb.o ABSOLUTE
    ..\GUI\lvgl\src\lv_objx\lv_chart.c       0x00000000   Number         0  lv_chart.o ABSOLUTE
    ..\GUI\lvgl\src\lv_objx\lv_cont.c        0x00000000   Number         0  lv_cont.o ABSOLUTE
    ..\GUI\lvgl\src\lv_objx\lv_ddlist.c      0x00000000   Number         0  lv_ddlist.o ABSOLUTE
    ..\GUI\lvgl\src\lv_objx\lv_gauge.c       0x00000000   Number         0  lv_gauge.o ABSOLUTE
    ..\GUI\lvgl\src\lv_objx\lv_img.c         0x00000000   Number         0  lv_img.o ABSOLUTE
    ..\GUI\lvgl\src\lv_objx\lv_imgbtn.c      0x00000000   Number         0  lv_imgbtn.o ABSOLUTE
    ..\GUI\lvgl\src\lv_objx\lv_kb.c          0x00000000   Number         0  lv_kb.o ABSOLUTE
    ..\GUI\lvgl\src\lv_objx\lv_label.c       0x00000000   Number         0  lv_label.o ABSOLUTE
    ..\GUI\lvgl\src\lv_objx\lv_line.c        0x00000000   Number         0  lv_line.o ABSOLUTE
    ..\GUI\lvgl\src\lv_objx\lv_list.c        0x00000000   Number         0  lv_list.o ABSOLUTE
    ..\GUI\lvgl\src\lv_objx\lv_lmeter.c      0x00000000   Number         0  lv_lmeter.o ABSOLUTE
    ..\GUI\lvgl\src\lv_objx\lv_mbox.c        0x00000000   Number         0  lv_mbox.o ABSOLUTE
    ..\GUI\lvgl\src\lv_objx\lv_objx_templ.c  0x00000000   Number         0  lv_objx_templ.o ABSOLUTE
    ..\GUI\lvgl\src\lv_objx\lv_page.c        0x00000000   Number         0  lv_page.o ABSOLUTE
    ..\GUI\lvgl\src\lv_objx\lv_preload.c     0x00000000   Number         0  lv_preload.o ABSOLUTE
    ..\GUI\lvgl\src\lv_objx\lv_roller.c      0x00000000   Number         0  lv_roller.o ABSOLUTE
    ..\GUI\lvgl\src\lv_objx\lv_slider.c      0x00000000   Number         0  lv_slider.o ABSOLUTE
    ..\GUI\lvgl\src\lv_objx\lv_spinbox.c     0x00000000   Number         0  lv_spinbox.o ABSOLUTE
    ..\GUI\lvgl\src\lv_objx\lv_sw.c          0x00000000   Number         0  lv_sw.o ABSOLUTE
    ..\GUI\lvgl\src\lv_objx\lv_ta.c          0x00000000   Number         0  lv_ta.o ABSOLUTE
    ..\GUI\lvgl\src\lv_objx\lv_table.c       0x00000000   Number         0  lv_table.o ABSOLUTE
    ..\GUI\lvgl\src\lv_objx\lv_tabview.c     0x00000000   Number         0  lv_tabview.o ABSOLUTE
    ..\GUI\lvgl\src\lv_objx\lv_tileview.c    0x00000000   Number         0  lv_tileview.o ABSOLUTE
    ..\GUI\lvgl\src\lv_objx\lv_win.c         0x00000000   Number         0  lv_win.o ABSOLUTE
    ..\GUI\lvgl\src\lv_themes\lv_theme.c     0x00000000   Number         0  lv_theme.o ABSOLUTE
    ..\GUI\lvgl_driver\lv_port_disp.c        0x00000000   Number         0  lv_port_disp.o ABSOLUTE
    ..\GUI\lvgl_driver\lv_port_indev.c       0x00000000   Number         0  lv_port_indev.o ABSOLUTE
    ..\HARDWARE\my_fonts.c                   0x00000000   Number         0  my_fonts.o ABSOLUTE
    ..\HARDWARE\my_key.c                     0x00000000   Number         0  my_key.o ABSOLUTE
    ..\HARDWARE\my_lcd.c                     0x00000000   Number         0  my_lcd.o ABSOLUTE
    ..\HARDWARE\my_ltdc.c                    0x00000000   Number         0  my_ltdc.o ABSOLUTE
    ..\HARDWARE\my_sdram.c                   0x00000000   Number         0  my_sdram.o ABSOLUTE
    ..\\GUIApp\\demo.c                       0x00000000   Number         0  demo.o ABSOLUTE
    ..\\GUI\\lvgl_driver\\lv_port_disp.c     0x00000000   Number         0  lv_port_disp.o ABSOLUTE
    ..\\GUI\\lvgl_driver\\lv_port_indev.c    0x00000000   Number         0  lv_port_indev.o ABSOLUTE
    ..\\HARDWARE\\my_key.c                   0x00000000   Number         0  my_key.o ABSOLUTE
    ..\\HARDWARE\\my_lcd.c                   0x00000000   Number         0  my_lcd.o ABSOLUTE
    ..\\HARDWARE\\my_ltdc.c                  0x00000000   Number         0  my_ltdc.o ABSOLUTE
    ..\\HARDWARE\\my_sdram.c                 0x00000000   Number         0  my_sdram.o ABSOLUTE
    dc.s                                     0x00000000   Number         0  dc.o ABSOLUTE
    startup_stm32f767xx.s                    0x00000000   Number         0  startup_stm32f767xx.o ABSOLUTE
    RESET                                    0x08000000   Section      504  startup_stm32f767xx.o(RESET)
    !!!main                                  0x080001f8   Section        8  __main.o(!!!main)
    !!!scatter                               0x08000200   Section       52  __scatter.o(!!!scatter)
    !!dczerorl2                              0x08000234   Section       90  __dczerorl2.o(!!dczerorl2)
    !!handler_zi                             0x08000290   Section       28  __scatter_zi.o(!!handler_zi)
    .ARM.Collect$$_printf_percent$$00000000  0x080002ac   Section        0  _printf_percent.o(.ARM.Collect$$_printf_percent$$00000000)
    .ARM.Collect$$_printf_percent$$00000009  0x080002ac   Section        6  _printf_d.o(.ARM.Collect$$_printf_percent$$00000009)
    .ARM.Collect$$_printf_percent$$00000013  0x080002b2   Section        6  _printf_c.o(.ARM.Collect$$_printf_percent$$00000013)
    .ARM.Collect$$_printf_percent$$00000017  0x080002b8   Section        4  _printf_percent_end.o(.ARM.Collect$$_printf_percent$$00000017)
    .ARM.Collect$$libinit$$00000000          0x080002bc   Section        2  libinit.o(.ARM.Collect$$libinit$$00000000)
    .ARM.Collect$$libinit$$00000001          0x080002be   Section        4  libinit2.o(.ARM.Collect$$libinit$$00000001)
    .ARM.Collect$$libinit$$00000004          0x080002c2   Section        0  libinit2.o(.ARM.Collect$$libinit$$00000004)
    .ARM.Collect$$libinit$$0000000A          0x080002c2   Section        0  libinit2.o(.ARM.Collect$$libinit$$0000000A)
    .ARM.Collect$$libinit$$0000000C          0x080002c2   Section        0  libinit2.o(.ARM.Collect$$libinit$$0000000C)
    .ARM.Collect$$libinit$$0000000E          0x080002c2   Section        0  libinit2.o(.ARM.Collect$$libinit$$0000000E)
    .ARM.Collect$$libinit$$00000011          0x080002c2   Section        0  libinit2.o(.ARM.Collect$$libinit$$00000011)
    .ARM.Collect$$libinit$$00000013          0x080002c2   Section        0  libinit2.o(.ARM.Collect$$libinit$$00000013)
    .ARM.Collect$$libinit$$00000015          0x080002c2   Section        0  libinit2.o(.ARM.Collect$$libinit$$00000015)
    .ARM.Collect$$libinit$$00000017          0x080002c2   Section        0  libinit2.o(.ARM.Collect$$libinit$$00000017)
    .ARM.Collect$$libinit$$00000019          0x080002c2   Section        0  libinit2.o(.ARM.Collect$$libinit$$00000019)
    .ARM.Collect$$libinit$$0000001B          0x080002c2   Section        0  libinit2.o(.ARM.Collect$$libinit$$0000001B)
    .ARM.Collect$$libinit$$0000001D          0x080002c2   Section        0  libinit2.o(.ARM.Collect$$libinit$$0000001D)
    .ARM.Collect$$libinit$$0000001F          0x080002c2   Section        0  libinit2.o(.ARM.Collect$$libinit$$0000001F)
    .ARM.Collect$$libinit$$00000021          0x080002c2   Section        0  libinit2.o(.ARM.Collect$$libinit$$00000021)
    .ARM.Collect$$libinit$$00000023          0x080002c2   Section        0  libinit2.o(.ARM.Collect$$libinit$$00000023)
    .ARM.Collect$$libinit$$00000025          0x080002c2   Section        0  libinit2.o(.ARM.Collect$$libinit$$00000025)
    .ARM.Collect$$libinit$$0000002C          0x080002c2   Section        0  libinit2.o(.ARM.Collect$$libinit$$0000002C)
    .ARM.Collect$$libinit$$0000002E          0x080002c2   Section        0  libinit2.o(.ARM.Collect$$libinit$$0000002E)
    .ARM.Collect$$libinit$$00000030          0x080002c2   Section        0  libinit2.o(.ARM.Collect$$libinit$$00000030)
    .ARM.Collect$$libinit$$00000032          0x080002c2   Section        0  libinit2.o(.ARM.Collect$$libinit$$00000032)
    .ARM.Collect$$libinit$$00000033          0x080002c2   Section        2  libinit2.o(.ARM.Collect$$libinit$$00000033)
    .ARM.Collect$$libshutdown$$00000000      0x080002c4   Section        2  libshutdown.o(.ARM.Collect$$libshutdown$$00000000)
    .ARM.Collect$$libshutdown$$00000002      0x080002c6   Section        0  libshutdown2.o(.ARM.Collect$$libshutdown$$00000002)
    .ARM.Collect$$libshutdown$$00000004      0x080002c6   Section        0  libshutdown2.o(.ARM.Collect$$libshutdown$$00000004)
    .ARM.Collect$$libshutdown$$00000006      0x080002c6   Section        0  libshutdown2.o(.ARM.Collect$$libshutdown$$00000006)
    .ARM.Collect$$libshutdown$$00000009      0x080002c6   Section        0  libshutdown2.o(.ARM.Collect$$libshutdown$$00000009)
    .ARM.Collect$$libshutdown$$0000000C      0x080002c6   Section        0  libshutdown2.o(.ARM.Collect$$libshutdown$$0000000C)
    .ARM.Collect$$libshutdown$$0000000E      0x080002c6   Section        0  libshutdown2.o(.ARM.Collect$$libshutdown$$0000000E)
    .ARM.Collect$$libshutdown$$00000011      0x080002c6   Section        0  libshutdown2.o(.ARM.Collect$$libshutdown$$00000011)
    .ARM.Collect$$libshutdown$$00000012      0x080002c6   Section        2  libshutdown2.o(.ARM.Collect$$libshutdown$$00000012)
    .ARM.Collect$$rtentry$$00000000          0x080002c8   Section        0  __rtentry.o(.ARM.Collect$$rtentry$$00000000)
    .ARM.Collect$$rtentry$$00000002          0x080002c8   Section        0  __rtentry2.o(.ARM.Collect$$rtentry$$00000002)
    .ARM.Collect$$rtentry$$00000004          0x080002c8   Section        6  __rtentry4.o(.ARM.Collect$$rtentry$$00000004)
    .ARM.Collect$$rtentry$$00000009          0x080002ce   Section        0  __rtentry2.o(.ARM.Collect$$rtentry$$00000009)
    .ARM.Collect$$rtentry$$0000000A          0x080002ce   Section        4  __rtentry2.o(.ARM.Collect$$rtentry$$0000000A)
    .ARM.Collect$$rtentry$$0000000C          0x080002d2   Section        0  __rtentry2.o(.ARM.Collect$$rtentry$$0000000C)
    .ARM.Collect$$rtentry$$0000000D          0x080002d2   Section        8  __rtentry2.o(.ARM.Collect$$rtentry$$0000000D)
    .ARM.Collect$$rtexit$$00000000           0x080002da   Section        2  rtexit.o(.ARM.Collect$$rtexit$$00000000)
    .ARM.Collect$$rtexit$$00000002           0x080002dc   Section        0  rtexit2.o(.ARM.Collect$$rtexit$$00000002)
    .ARM.Collect$$rtexit$$00000003           0x080002dc   Section        4  rtexit2.o(.ARM.Collect$$rtexit$$00000003)
    .ARM.Collect$$rtexit$$00000004           0x080002e0   Section        6  rtexit2.o(.ARM.Collect$$rtexit$$00000004)
    .text                                    0x080002e8   Section       64  startup_stm32f767xx.o(.text)
    $v0                                      0x080002e8   Number         0  startup_stm32f767xx.o(.text)
    .text                                    0x08000328   Section      238  lludivv7m.o(.text)
    .text                                    0x08000418   Section        0  noretval__2sprintf.o(.text)
    .text                                    0x08000440   Section        0  _printf_str.o(.text)
    .text                                    0x08000494   Section        0  _printf_dec.o(.text)
    .text                                    0x0800050c   Section        0  __printf_flags_ss_wp.o(.text)
    .text                                    0x08000694   Section        0  strcpy.o(.text)
    .text                                    0x080006dc   Section        0  strlen.o(.text)
    .text                                    0x0800071a   Section      138  rt_memcpy_v6.o(.text)
    .text                                    0x080007a4   Section      100  rt_memcpy_w.o(.text)
    .text                                    0x08000808   Section       16  aeabi_memset.o(.text)
    .text                                    0x08000818   Section       68  rt_memclr.o(.text)
    .text                                    0x0800085c   Section       78  rt_memclr_w.o(.text)
    .text                                    0x080008ac   Section      104  strcmpv7m_pel.o(.text)
    .text                                    0x08000914   Section        0  heapauxi.o(.text)
    .text                                    0x0800091a   Section        0  _printf_intcommon.o(.text)
    .text                                    0x080009cc   Section        0  _printf_char_common.o(.text)
    _printf_input_char                       0x080009cd   Thumb Code    10  _printf_char_common.o(.text)
    .text                                    0x080009fc   Section        0  _sputc.o(.text)
    .text                                    0x08000a06   Section        0  _printf_char.o(.text)
    .text                                    0x08000a34   Section        8  libspace.o(.text)
    .text                                    0x08000a3c   Section       74  sys_stackheap_outer.o(.text)
    .text                                    0x08000a86   Section        0  exit.o(.text)
    .text                                    0x08000a98   Section        0  sys_exit.o(.text)
    .text                                    0x08000aa4   Section        2  use_no_semi.o(.text)
    .text                                    0x08000aa6   Section        0  indicate_semi.o(.text)
    i.ADC_Init                               0x08000aa8   Section        0  stm32f7xx_hal_adc.o(i.ADC_Init)
    ADC_Init                                 0x08000aa9   Thumb Code   298  stm32f7xx_hal_adc.o(i.ADC_Init)
    i.BusFault_Handler                       0x08000be0   Section        0  stm32f7xx_it.o(i.BusFault_Handler)
    i.DebugMon_Handler                       0x08000be2   Section        0  stm32f7xx_it.o(i.DebugMon_Handler)
    i.Error_Handler                          0x08000be4   Section        0  main.o(i.Error_Handler)
    i.FMC_SDRAM_Init                         0x08000be8   Section        0  stm32f7xx_ll_fmc.o(i.FMC_SDRAM_Init)
    i.FMC_SDRAM_ProgramRefreshRate           0x08000c52   Section        0  stm32f7xx_ll_fmc.o(i.FMC_SDRAM_ProgramRefreshRate)
    i.FMC_SDRAM_SendCommand                  0x08000c64   Section        0  stm32f7xx_ll_fmc.o(i.FMC_SDRAM_SendCommand)
    i.FMC_SDRAM_Timing_Init                  0x08000c8c   Section        0  stm32f7xx_ll_fmc.o(i.FMC_SDRAM_Timing_Init)
    i.Get_Adc                                0x08000d3c   Section        0  adc.o(i.Get_Adc)
    i.Get_Adc_Average                        0x08000d70   Section        0  adc.o(i.Get_Adc_Average)
    i.HAL_ADC_ConfigChannel                  0x08000d98   Section        0  stm32f7xx_hal_adc.o(i.HAL_ADC_ConfigChannel)
    i.HAL_ADC_GetValue                       0x08000f58   Section        0  stm32f7xx_hal_adc.o(i.HAL_ADC_GetValue)
    i.HAL_ADC_Init                           0x08000f5e   Section        0  stm32f7xx_hal_adc.o(i.HAL_ADC_Init)
    i.HAL_ADC_MspInit                        0x08000fb4   Section        0  adc.o(i.HAL_ADC_MspInit)
    i.HAL_ADC_PollForConversion              0x08001014   Section        0  stm32f7xx_hal_adc.o(i.HAL_ADC_PollForConversion)
    i.HAL_ADC_Start                          0x080010bc   Section        0  stm32f7xx_hal_adc.o(i.HAL_ADC_Start)
    i.HAL_DMA2D_ConfigLayer                  0x080011b0   Section        0  stm32f7xx_hal_dma2d.o(i.HAL_DMA2D_ConfigLayer)
    i.HAL_DMA2D_Init                         0x08001268   Section        0  stm32f7xx_hal_dma2d.o(i.HAL_DMA2D_Init)
    i.HAL_DMA2D_MspInit                      0x080012d8   Section        0  dma2d.o(i.HAL_DMA2D_MspInit)
    i.HAL_Delay                              0x08001300   Section        0  stm32f7xx_hal.o(i.HAL_Delay)
    i.HAL_FMC_MspInit                        0x08001324   Section        0  fmc.o(i.HAL_FMC_MspInit)
    HAL_FMC_MspInit                          0x08001325   Thumb Code   132  fmc.o(i.HAL_FMC_MspInit)
    i.HAL_GPIO_Init                          0x080013c4   Section        0  stm32f7xx_hal_gpio.o(i.HAL_GPIO_Init)
    i.HAL_GPIO_ReadPin                       0x0800160c   Section        0  stm32f7xx_hal_gpio.o(i.HAL_GPIO_ReadPin)
    i.HAL_GPIO_WritePin                      0x08001616   Section        0  stm32f7xx_hal_gpio.o(i.HAL_GPIO_WritePin)
    i.HAL_GetTick                            0x08001620   Section        0  stm32f7xx_hal.o(i.HAL_GetTick)
    i.HAL_IncTick                            0x0800162c   Section        0  stm32f7xx_hal.o(i.HAL_IncTick)
    i.HAL_Init                               0x0800163c   Section        0  stm32f7xx_hal.o(i.HAL_Init)
    i.HAL_InitTick                           0x08001654   Section        0  stm32f7xx_hal.o(i.HAL_InitTick)
    i.HAL_LTDC_ConfigLayer                   0x08001694   Section        0  stm32f7xx_hal_ltdc.o(i.HAL_LTDC_ConfigLayer)
    i.HAL_LTDC_EnableDither                  0x080016e8   Section        0  stm32f7xx_hal_ltdc.o(i.HAL_LTDC_EnableDither)
    i.HAL_LTDC_Init                          0x08001720   Section        0  stm32f7xx_hal_ltdc.o(i.HAL_LTDC_Init)
    i.HAL_LTDC_MspInit                       0x08001818   Section        0  ltdc.o(i.HAL_LTDC_MspInit)
    i.HAL_LTDC_Reload                        0x08001918   Section        0  stm32f7xx_hal_ltdc.o(i.HAL_LTDC_Reload)
    i.HAL_MspInit                            0x08001950   Section        0  stm32f7xx_hal_msp.o(i.HAL_MspInit)
    i.HAL_NVIC_EnableIRQ                     0x08001980   Section        0  stm32f7xx_hal_cortex.o(i.HAL_NVIC_EnableIRQ)
    i.HAL_NVIC_SetPriority                   0x0800199c   Section        0  stm32f7xx_hal_cortex.o(i.HAL_NVIC_SetPriority)
    i.HAL_NVIC_SetPriorityGrouping           0x080019dc   Section        0  stm32f7xx_hal_cortex.o(i.HAL_NVIC_SetPriorityGrouping)
    i.HAL_PWREx_EnableOverDrive              0x08001a00   Section        0  stm32f7xx_hal_pwr_ex.o(i.HAL_PWREx_EnableOverDrive)
    i.HAL_RCCEx_PeriphCLKConfig              0x08001a6c   Section        0  stm32f7xx_hal_rcc_ex.o(i.HAL_RCCEx_PeriphCLKConfig)
    i.HAL_RCC_ClockConfig                    0x08001fa8   Section        0  stm32f7xx_hal_rcc.o(i.HAL_RCC_ClockConfig)
    i.HAL_RCC_GetSysClockFreq                0x080020d8   Section        0  stm32f7xx_hal_rcc.o(i.HAL_RCC_GetSysClockFreq)
    i.HAL_RCC_OscConfig                      0x0800213c   Section        0  stm32f7xx_hal_rcc.o(i.HAL_RCC_OscConfig)
    i.HAL_SDRAM_Init                         0x080024d4   Section        0  stm32f7xx_hal_sdram.o(i.HAL_SDRAM_Init)
    i.HAL_SDRAM_MspInit                      0x08002516   Section        0  fmc.o(i.HAL_SDRAM_MspInit)
    i.HAL_SDRAM_ProgramRefreshRate           0x0800251a   Section        0  stm32f7xx_hal_sdram.o(i.HAL_SDRAM_ProgramRefreshRate)
    i.HAL_SDRAM_SendCommand                  0x08002548   Section        0  stm32f7xx_hal_sdram.o(i.HAL_SDRAM_SendCommand)
    i.HAL_SYSTICK_Config                     0x08002584   Section        0  stm32f7xx_hal_cortex.o(i.HAL_SYSTICK_Config)
    i.HAL_TIMEx_Break2Callback               0x080025aa   Section        0  stm32f7xx_hal_tim_ex.o(i.HAL_TIMEx_Break2Callback)
    i.HAL_TIMEx_BreakCallback                0x080025ac   Section        0  stm32f7xx_hal_tim_ex.o(i.HAL_TIMEx_BreakCallback)
    i.HAL_TIMEx_CommutCallback               0x080025ae   Section        0  stm32f7xx_hal_tim_ex.o(i.HAL_TIMEx_CommutCallback)
    i.HAL_TIMEx_MasterConfigSynchronization  0x080025b0   Section        0  stm32f7xx_hal_tim_ex.o(i.HAL_TIMEx_MasterConfigSynchronization)
    i.HAL_TIM_Base_Init                      0x08002654   Section        0  stm32f7xx_hal_tim.o(i.HAL_TIM_Base_Init)
    i.HAL_TIM_Base_MspInit                   0x080026b8   Section        0  tim.o(i.HAL_TIM_Base_MspInit)
    i.HAL_TIM_Base_Start_IT                  0x080026f4   Section        0  stm32f7xx_hal_tim.o(i.HAL_TIM_Base_Start_IT)
    i.HAL_TIM_ConfigClockSource              0x08002780   Section        0  stm32f7xx_hal_tim.o(i.HAL_TIM_ConfigClockSource)
    i.HAL_TIM_IC_CaptureCallback             0x08002860   Section        0  stm32f7xx_hal_tim.o(i.HAL_TIM_IC_CaptureCallback)
    i.HAL_TIM_IRQHandler                     0x08002862   Section        0  stm32f7xx_hal_tim.o(i.HAL_TIM_IRQHandler)
    i.HAL_TIM_OC_DelayElapsedCallback        0x080029e4   Section        0  stm32f7xx_hal_tim.o(i.HAL_TIM_OC_DelayElapsedCallback)
    i.HAL_TIM_PWM_PulseFinishedCallback      0x080029e6   Section        0  stm32f7xx_hal_tim.o(i.HAL_TIM_PWM_PulseFinishedCallback)
    i.HAL_TIM_PeriodElapsedCallback          0x080029e8   Section        0  tim.o(i.HAL_TIM_PeriodElapsedCallback)
    i.HAL_TIM_TriggerCallback                0x080029ee   Section        0  stm32f7xx_hal_tim.o(i.HAL_TIM_TriggerCallback)
    i.HardFault_Handler                      0x080029f0   Section        0  stm32f7xx_it.o(i.HardFault_Handler)
    i.KEY0Scan                               0x080029f2   Section        0  my_key.o(i.KEY0Scan)
    i.KEY1Scan                               0x08002a02   Section        0  my_key.o(i.KEY1Scan)
    i.KEY2Scan                               0x08002a16   Section        0  my_key.o(i.KEY2Scan)
    i.KEY3Scan                               0x08002a2a   Section        0  my_key.o(i.KEY3Scan)
    i.KEY_Scan                               0x08002a40   Section        0  my_key.o(i.KEY_Scan)
    i.LCD_Init2                              0x08002b1c   Section        0  my_lcd.o(i.LCD_Init2)
    i.LCD_SetLayer                           0x08002b34   Section        0  my_lcd.o(i.LCD_SetLayer)
    i.LTDC_Color_Fill                        0x08002b64   Section        0  my_lcd.o(i.LTDC_Color_Fill)
    i.LTDC_SetConfig                         0x08002bf8   Section        0  stm32f7xx_hal_ltdc.o(i.LTDC_SetConfig)
    LTDC_SetConfig                           0x08002bf9   Thumb Code   464  stm32f7xx_hal_ltdc.o(i.LTDC_SetConfig)
    i.MX_ADC1_Init                           0x08002dc8   Section        0  adc.o(i.MX_ADC1_Init)
    i.MX_DMA2D_Init                          0x08002e2c   Section        0  dma2d.o(i.MX_DMA2D_Init)
    i.MX_FMC_Init                            0x08002e70   Section        0  fmc.o(i.MX_FMC_Init)
    i.MX_GPIO_Init                           0x08002edc   Section        0  gpio.o(i.MX_GPIO_Init)
    i.MX_LTDC_Init                           0x08002fe4   Section        0  ltdc.o(i.MX_LTDC_Init)
    i.MX_TIM3_Init                           0x080030b4   Section        0  tim.o(i.MX_TIM3_Init)
    i.MemManage_Handler                      0x08003120   Section        0  stm32f7xx_it.o(i.MemManage_Handler)
    i.My_LTDC_Init                           0x08003122   Section        0  my_ltdc.o(i.My_LTDC_Init)
    i.NMI_Handler                            0x08003130   Section        0  stm32f7xx_it.o(i.NMI_Handler)
    i.PendSV_Handler                         0x08003132   Section        0  stm32f7xx_it.o(i.PendSV_Handler)
    i.SDRAM_Init                             0x08003134   Section        0  my_sdram.o(i.SDRAM_Init)
    i.SDRAM_Initialization_Sequence          0x08003148   Section        0  my_sdram.o(i.SDRAM_Initialization_Sequence)
    i.SDRAM_Send_Cmd                         0x08003194   Section        0  my_sdram.o(i.SDRAM_Send_Cmd)
    i.SVC_Handler                            0x080031cc   Section        0  stm32f7xx_it.o(i.SVC_Handler)
    i.SysTick_Handler                        0x080031ce   Section        0  stm32f7xx_it.o(i.SysTick_Handler)
    i.SystemClock_Config                     0x080031d4   Section        0  main.o(i.SystemClock_Config)
    i.SystemInit                             0x08003274   Section        0  system_stm32f7xx.o(i.SystemInit)
    i.TIM3_IRQHandler                        0x08003284   Section        0  stm32f7xx_it.o(i.TIM3_IRQHandler)
    i.TIM_Base_SetConfig                     0x08003290   Section        0  stm32f7xx_hal_tim.o(i.TIM_Base_SetConfig)
    i.TIM_ETR_SetConfig                      0x0800335c   Section        0  stm32f7xx_hal_tim.o(i.TIM_ETR_SetConfig)
    i.TIM_ITRx_SetConfig                     0x0800336e   Section        0  stm32f7xx_hal_tim.o(i.TIM_ITRx_SetConfig)
    TIM_ITRx_SetConfig                       0x0800336f   Thumb Code    16  stm32f7xx_hal_tim.o(i.TIM_ITRx_SetConfig)
    i.TIM_TI1_ConfigInputStage               0x0800337e   Section        0  stm32f7xx_hal_tim.o(i.TIM_TI1_ConfigInputStage)
    TIM_TI1_ConfigInputStage                 0x0800337f   Thumb Code    34  stm32f7xx_hal_tim.o(i.TIM_TI1_ConfigInputStage)
    i.TIM_TI2_ConfigInputStage               0x080033a0   Section        0  stm32f7xx_hal_tim.o(i.TIM_TI2_ConfigInputStage)
    TIM_TI2_ConfigInputStage                 0x080033a1   Thumb Code    36  stm32f7xx_hal_tim.o(i.TIM_TI2_ConfigInputStage)
    i.UsageFault_Handler                     0x080033c4   Section        0  stm32f7xx_it.o(i.UsageFault_Handler)
    i.__NVIC_SetPriority                     0x080033c6   Section        0  stm32f7xx_hal_cortex.o(i.__NVIC_SetPriority)
    __NVIC_SetPriority                       0x080033c7   Thumb Code    34  stm32f7xx_hal_cortex.o(i.__NVIC_SetPriority)
    i._is_digit                              0x080033e8   Section        0  __printf_wp.o(i._is_digit)
    i.allocate_btn_areas_and_controls        0x080033f8   Section        0  lv_btnm.o(i.allocate_btn_areas_and_controls)
    allocate_btn_areas_and_controls          0x080033f9   Thumb Code   122  lv_btnm.o(i.allocate_btn_areas_and_controls)
    i.anim_ready_handler                     0x08003478   Section        0  lv_anim.o(i.anim_ready_handler)
    anim_ready_handler                       0x08003479   Thumb Code   112  lv_anim.o(i.anim_ready_handler)
    i.anim_task                              0x080034f0   Section        0  lv_anim.o(i.anim_task)
    anim_task                                0x080034f1   Thumb Code   140  lv_anim.o(i.anim_task)
    i.antialias_get_opa_circ                 0x08003584   Section        0  lv_draw_rect.o(i.antialias_get_opa_circ)
    antialias_get_opa_circ                   0x08003585   Thumb Code    56  lv_draw_rect.o(i.antialias_get_opa_circ)
    i.button_read                            0x080035c0   Section        0  lv_port_indev.o(i.button_read)
    button_read                              0x080035c1   Thumb Code    88  lv_port_indev.o(i.button_read)
    i.delete_children                        0x0800361c   Section        0  lv_obj.o(i.delete_children)
    delete_children                          0x0800361d   Thumb Code   180  lv_obj.o(i.delete_children)
    i.demo_create                            0x080036d0   Section        0  demo.o(i.demo_create)
    i.disp_flush                             0x08003844   Section        0  lv_port_disp.o(i.disp_flush)
    disp_flush                               0x08003845   Thumb Code    42  lv_port_disp.o(i.disp_flush)
    i.edge_flash_anim                        0x0800386e   Section        0  lv_page.o(i.edge_flash_anim)
    edge_flash_anim                          0x0800386f   Thumb Code    22  lv_page.o(i.edge_flash_anim)
    i.edge_flash_anim_end                    0x08003884   Section        0  lv_page.o(i.edge_flash_anim_end)
    edge_flash_anim_end                      0x08003885   Thumb Code    30  lv_page.o(i.edge_flash_anim_end)
    i.ent_get_next                           0x080038a4   Section        0  lv_mem.o(i.ent_get_next)
    ent_get_next                             0x080038a5   Thumb Code    30  lv_mem.o(i.ent_get_next)
    i.ent_trunc                              0x080038c8   Section        0  lv_mem.o(i.ent_trunc)
    ent_trunc                                0x080038c9   Thumb Code    66  lv_mem.o(i.ent_trunc)
    i.focus_next_core                        0x0800390a   Section        0  lv_group.o(i.focus_next_core)
    focus_next_core                          0x0800390b   Thumb Code   204  lv_group.o(i.focus_next_core)
    i.get_button_from_point                  0x080039d6   Section        0  lv_btnm.o(i.get_button_from_point)
    get_button_from_point                    0x080039d7   Thumb Code   124  lv_btnm.o(i.get_button_from_point)
    i.get_button_width                       0x08003a52   Section        0  lv_btnm.o(i.get_button_width)
    get_button_width                         0x08003a53   Thumb Code    10  lv_btnm.o(i.get_button_width)
    i.get_glyph_dsc_id                       0x08003a5c   Section        0  lv_font_fmt_txt.o(i.get_glyph_dsc_id)
    get_glyph_dsc_id                         0x08003a5d   Thumb Code   280  lv_font_fmt_txt.o(i.get_glyph_dsc_id)
    i.get_kern_value                         0x08003b78   Section        0  lv_font_fmt_txt.o(i.get_kern_value)
    get_kern_value                           0x08003b79   Thumb Code   134  lv_font_fmt_txt.o(i.get_kern_value)
    i.hex_char_to_num                        0x08003c08   Section        0  lv_draw_label.o(i.hex_char_to_num)
    hex_char_to_num                          0x08003c09   Thumb Code    64  lv_draw_label.o(i.hex_char_to_num)
    i.indev_drag                             0x08003c48   Section        0  lv_indev.o(i.indev_drag)
    indev_drag                               0x08003c49   Thumb Code   478  lv_indev.o(i.indev_drag)
    i.indev_drag_throw                       0x08003e2c   Section        0  lv_indev.o(i.indev_drag_throw)
    indev_drag_throw                         0x08003e2d   Thumb Code   408  lv_indev.o(i.indev_drag_throw)
    i.indev_encoder_proc                     0x08003fc8   Section        0  lv_indev.o(i.indev_encoder_proc)
    indev_encoder_proc                       0x08003fc9   Thumb Code   734  lv_indev.o(i.indev_encoder_proc)
    i.indev_keypad_proc                      0x080042ac   Section        0  lv_indev.o(i.indev_keypad_proc)
    indev_keypad_proc                        0x080042ad   Thumb Code   494  lv_indev.o(i.indev_keypad_proc)
    i.indev_proc_press                       0x080044a0   Section        0  lv_indev.o(i.indev_proc_press)
    indev_proc_press                         0x080044a1   Thumb Code   610  lv_indev.o(i.indev_proc_press)
    i.indev_proc_release                     0x08004708   Section        0  lv_indev.o(i.indev_proc_release)
    indev_proc_release                       0x08004709   Thumb Code   450  lv_indev.o(i.indev_proc_release)
    i.indev_proc_reset_query_handler         0x080048d0   Section        0  lv_indev.o(i.indev_proc_reset_query_handler)
    indev_proc_reset_query_handler           0x080048d1   Thumb Code    54  lv_indev.o(i.indev_proc_reset_query_handler)
    i.indev_reset_check                      0x0800490c   Section        0  lv_indev.o(i.indev_reset_check)
    indev_reset_check                        0x0800490d   Thumb Code    20  lv_indev.o(i.indev_reset_check)
    i.indev_search_obj                       0x08004924   Section        0  lv_indev.o(i.indev_search_obj)
    indev_search_obj                         0x08004925   Thumb Code    98  lv_indev.o(i.indev_search_obj)
    i.invalidate_button_area                 0x08004986   Section        0  lv_btnm.o(i.invalidate_button_area)
    invalidate_button_area                   0x08004987   Thumb Code   108  lv_btnm.o(i.invalidate_button_area)
    i.kern_pair_16_compare                   0x080049f2   Section        0  lv_font_fmt_txt.o(i.kern_pair_16_compare)
    kern_pair_16_compare                     0x080049f3   Thumb Code    20  lv_font_fmt_txt.o(i.kern_pair_16_compare)
    i.kern_pair_8_compare                    0x08004a06   Section        0  lv_font_fmt_txt.o(i.kern_pair_8_compare)
    kern_pair_8_compare                      0x08004a07   Thumb Code    20  lv_font_fmt_txt.o(i.kern_pair_8_compare)
    i.list_btn_batteryevent_handler          0x08004a1c   Section        0  demo.o(i.list_btn_batteryevent_handler)
    list_btn_batteryevent_handler            0x08004a1d   Thumb Code   228  demo.o(i.list_btn_batteryevent_handler)
    i.list_btn_event_handler                 0x08004b20   Section        0  demo.o(i.list_btn_event_handler)
    list_btn_event_handler                   0x08004b21   Thumb Code     2  demo.o(i.list_btn_event_handler)
    i.list_create                            0x08004b24   Section        0  demo.o(i.list_create)
    list_create                              0x08004b25   Thumb Code   396  demo.o(i.list_create)
    i.lv_anim_core_init                      0x08004d4c   Section        0  lv_anim.o(i.lv_anim_core_init)
    i.lv_anim_create                         0x08004d7c   Section        0  lv_anim.o(i.lv_anim_create)
    i.lv_anim_del                            0x08004dc8   Section        0  lv_anim.o(i.lv_anim_del)
    i.lv_anim_path_linear                    0x08004e28   Section        0  lv_anim.o(i.lv_anim_path_linear)
    i.lv_anim_speed_to_time                  0x08004e4e   Section        0  lv_anim.o(i.lv_anim_speed_to_time)
    i.lv_area_get_height                     0x08004e74   Section        0  lv_page.o(i.lv_area_get_height)
    lv_area_get_height                       0x08004e75   Thumb Code    12  lv_page.o(i.lv_area_get_height)
    i.lv_area_get_size                       0x08004e80   Section        0  lv_area.o(i.lv_area_get_size)
    i.lv_area_get_width                      0x08004e9e   Section        0  lv_draw_label.o(i.lv_area_get_width)
    lv_area_get_width                        0x08004e9f   Thumb Code    12  lv_draw_label.o(i.lv_area_get_width)
    i.lv_area_get_width                      0x08004eaa   Section        0  lv_page.o(i.lv_area_get_width)
    lv_area_get_width                        0x08004eab   Thumb Code    12  lv_page.o(i.lv_area_get_width)
    i.lv_area_intersect                      0x08004eb6   Section        0  lv_area.o(i.lv_area_intersect)
    i.lv_area_is_in                          0x08004f08   Section        0  lv_area.o(i.lv_area_is_in)
    i.lv_area_is_on                          0x08004f42   Section        0  lv_area.o(i.lv_area_is_on)
    i.lv_area_is_point_on                    0x08004f7a   Section        0  lv_area.o(i.lv_area_is_point_on)
    i.lv_area_join                           0x08004fac   Section        0  lv_area.o(i.lv_area_join)
    i.lv_area_set                            0x08004ff0   Section        0  lv_area.o(i.lv_area_set)
    i.lv_area_set_height                     0x08004ffe   Section        0  lv_area.o(i.lv_area_set_height)
    i.lv_area_set_pos                        0x08005008   Section        0  lv_area.o(i.lv_area_set_pos)
    i.lv_area_set_width                      0x08005036   Section        0  lv_area.o(i.lv_area_set_width)
    i.lv_btn_create                          0x08005040   Section        0  lv_btn.o(i.lv_btn_create)
    i.lv_btn_design                          0x08005154   Section        0  lv_btn.o(i.lv_btn_design)
    lv_btn_design                            0x08005155   Thumb Code    28  lv_btn.o(i.lv_btn_design)
    i.lv_btn_get_state                       0x08005174   Section        0  lv_btn.o(i.lv_btn_get_state)
    i.lv_btn_get_toggle                      0x08005182   Section        0  lv_btn.o(i.lv_btn_get_toggle)
    i.lv_btn_set_state                       0x08005190   Section        0  lv_btn.o(i.lv_btn_set_state)
    i.lv_btn_set_style                       0x080051bc   Section        0  lv_btn.o(i.lv_btn_set_style)
    i.lv_btn_signal                          0x08005200   Section        0  lv_btn.o(i.lv_btn_signal)
    lv_btn_signal                            0x08005201   Thumb Code   350  lv_btn.o(i.lv_btn_signal)
    i.lv_btnm_clear_btn_ctrl                 0x0800536c   Section        0  lv_btnm.o(i.lv_btnm_clear_btn_ctrl)
    i.lv_btnm_clear_btn_ctrl_all             0x08005398   Section        0  lv_btnm.o(i.lv_btnm_clear_btn_ctrl_all)
    i.lv_btnm_create                         0x080053c4   Section        0  lv_btnm.o(i.lv_btnm_create)
    i.lv_btnm_design                         0x080054f8   Section        0  lv_btnm.o(i.lv_btnm_design)
    lv_btnm_design                           0x080054f9   Thumb Code   606  lv_btnm.o(i.lv_btnm_design)
    i.lv_btnm_get_active_btn                 0x08005760   Section        0  lv_btnm.o(i.lv_btnm_get_active_btn)
    i.lv_btnm_get_btn_ctrl                   0x0800576a   Section        0  lv_btnm.o(i.lv_btnm_get_btn_ctrl)
    i.lv_btnm_get_map_array                  0x0800578c   Section        0  lv_btnm.o(i.lv_btnm_get_map_array)
    i.lv_btnm_get_style                      0x08005796   Section        0  lv_btnm.o(i.lv_btnm_get_style)
    i.lv_btnm_set_btn_ctrl                   0x080057d0   Section        0  lv_btnm.o(i.lv_btnm_set_btn_ctrl)
    i.lv_btnm_set_map                        0x080057fc   Section        0  lv_btnm.o(i.lv_btnm_set_map)
    i.lv_btnm_set_style                      0x08005a10   Section        0  lv_btnm.o(i.lv_btnm_set_style)
    i.lv_btnm_signal                         0x08005a54   Section        0  lv_btnm.o(i.lv_btnm_signal)
    lv_btnm_signal                           0x08005a55   Thumb Code   870  lv_btnm.o(i.lv_btnm_signal)
    i.lv_circ_cont                           0x08005dc8   Section        0  lv_circ.o(i.lv_circ_cont)
    i.lv_circ_init                           0x08005ddc   Section        0  lv_circ.o(i.lv_circ_init)
    i.lv_circ_next                           0x08005dec   Section        0  lv_circ.o(i.lv_circ_next)
    i.lv_color_hex                           0x08005e1c   Section        0  demo.o(i.lv_color_hex)
    lv_color_hex                             0x08005e1d   Thumb Code    24  demo.o(i.lv_color_hex)
    i.lv_color_make                          0x08005e34   Section        0  lv_style.o(i.lv_color_make)
    lv_color_make                            0x08005e35   Thumb Code    32  lv_style.o(i.lv_color_make)
    i.lv_color_make                          0x08005e54   Section        0  demo.o(i.lv_color_make)
    lv_color_make                            0x08005e55   Thumb Code    32  demo.o(i.lv_color_make)
    i.lv_color_mix                           0x08005e74   Section        0  lv_draw_basic.o(i.lv_color_mix)
    lv_color_mix                             0x08005e75   Thumb Code    84  lv_draw_basic.o(i.lv_color_mix)
    i.lv_color_mix                           0x08005ec8   Section        0  lv_draw_rect.o(i.lv_color_mix)
    lv_color_mix                             0x08005ec9   Thumb Code    84  lv_draw_rect.o(i.lv_color_mix)
    i.lv_cont_create                         0x08005f1c   Section        0  lv_cont.o(i.lv_cont_create)
    i.lv_cont_get_fit_left                   0x08005fd4   Section        0  lv_cont.o(i.lv_cont_get_fit_left)
    i.lv_cont_get_fit_top                    0x08005fe2   Section        0  lv_cont.o(i.lv_cont_get_fit_top)
    i.lv_cont_get_layout                     0x08005ff0   Section        0  lv_cont.o(i.lv_cont_get_layout)
    i.lv_cont_layout_center                  0x08005ffe   Section        0  lv_cont.o(i.lv_cont_layout_center)
    lv_cont_layout_center                    0x08005fff   Thumb Code   198  lv_cont.o(i.lv_cont_layout_center)
    i.lv_cont_layout_col                     0x080060c4   Section        0  lv_cont.o(i.lv_cont_layout_col)
    lv_cont_layout_col                       0x080060c5   Thumb Code   154  lv_cont.o(i.lv_cont_layout_col)
    i.lv_cont_layout_grid                    0x08006160   Section        0  lv_cont.o(i.lv_cont_layout_grid)
    lv_cont_layout_grid                      0x08006161   Thumb Code   246  lv_cont.o(i.lv_cont_layout_grid)
    i.lv_cont_layout_pretty                  0x08006256   Section        0  lv_cont.o(i.lv_cont_layout_pretty)
    lv_cont_layout_pretty                    0x08006257   Thumb Code   528  lv_cont.o(i.lv_cont_layout_pretty)
    i.lv_cont_layout_row                     0x08006466   Section        0  lv_cont.o(i.lv_cont_layout_row)
    lv_cont_layout_row                       0x08006467   Thumb Code   152  lv_cont.o(i.lv_cont_layout_row)
    i.lv_cont_refr_autofit                   0x08006500   Section        0  lv_cont.o(i.lv_cont_refr_autofit)
    lv_cont_refr_autofit                     0x08006501   Thumb Code   676  lv_cont.o(i.lv_cont_refr_autofit)
    i.lv_cont_refr_layout                    0x080067a4   Section        0  lv_cont.o(i.lv_cont_refr_layout)
    lv_cont_refr_layout                      0x080067a5   Thumb Code   114  lv_cont.o(i.lv_cont_refr_layout)
    i.lv_cont_set_fit2                       0x08006816   Section        0  lv_list.o(i.lv_cont_set_fit2)
    lv_cont_set_fit2                         0x08006817   Thumb Code    14  lv_list.o(i.lv_cont_set_fit2)
    i.lv_cont_set_fit2                       0x08006824   Section        0  lv_tabview.o(i.lv_cont_set_fit2)
    lv_cont_set_fit2                         0x08006825   Thumb Code    14  lv_tabview.o(i.lv_cont_set_fit2)
    i.lv_cont_set_fit4                       0x08006832   Section        0  lv_cont.o(i.lv_cont_set_fit4)
    i.lv_cont_set_layout                     0x08006896   Section        0  lv_cont.o(i.lv_cont_set_layout)
    i.lv_cont_signal                         0x080068c0   Section        0  lv_cont.o(i.lv_cont_signal)
    lv_cont_signal                           0x080068c1   Thumb Code   130  lv_cont.o(i.lv_cont_signal)
    i.lv_disp_buf_init                       0x08006950   Section        0  lv_hal_disp.o(i.lv_disp_buf_init)
    i.lv_disp_drv_init                       0x08006970   Section        0  lv_hal_disp.o(i.lv_disp_drv_init)
    i.lv_disp_drv_register                   0x080069ac   Section        0  lv_hal_disp.o(i.lv_disp_drv_register)
    i.lv_disp_flush_ready                    0x08006a58   Section        0  lv_hal_disp.o(i.lv_disp_flush_ready)
    i.lv_disp_get_antialiasing               0x08006a64   Section        0  lv_hal_disp.o(i.lv_disp_get_antialiasing)
    i.lv_disp_get_buf                        0x08006a7c   Section        0  lv_hal_disp.o(i.lv_disp_get_buf)
    i.lv_disp_get_default                    0x08006a80   Section        0  lv_hal_disp.o(i.lv_disp_get_default)
    i.lv_disp_get_hor_res                    0x08006a8c   Section        0  lv_hal_disp.o(i.lv_disp_get_hor_res)
    i.lv_disp_get_inv_buf_size               0x08006ab0   Section        0  lv_hal_disp.o(i.lv_disp_get_inv_buf_size)
    i.lv_disp_get_layer_sys                  0x08006aba   Section        0  lv_disp.o(i.lv_disp_get_layer_sys)
    i.lv_disp_get_layer_top                  0x08006aca   Section        0  lv_disp.o(i.lv_disp_get_layer_top)
    i.lv_disp_get_scr_act                    0x08006ada   Section        0  lv_disp.o(i.lv_disp_get_scr_act)
    i.lv_disp_get_ver_res                    0x08006aec   Section        0  lv_hal_disp.o(i.lv_disp_get_ver_res)
    i.lv_disp_is_double_buf                  0x08006b10   Section        0  lv_hal_disp.o(i.lv_disp_is_double_buf)
    i.lv_disp_is_true_double_buf             0x08006b22   Section        0  lv_hal_disp.o(i.lv_disp_is_true_double_buf)
    i.lv_disp_pop_from_inv_buf               0x08006b46   Section        0  lv_hal_disp.o(i.lv_disp_pop_from_inv_buf)
    i.lv_disp_refr_task                      0x08006b60   Section        0  lv_refr.o(i.lv_disp_refr_task)
    i.lv_draw_aa_get_opa                     0x08006c6c   Section        0  lv_draw.o(i.lv_draw_aa_get_opa)
    i.lv_draw_cont_radius_corr               0x08006ca0   Section        0  lv_draw_rect.o(i.lv_draw_cont_radius_corr)
    lv_draw_cont_radius_corr                 0x08006ca1   Thumb Code    58  lv_draw_rect.o(i.lv_draw_cont_radius_corr)
    i.lv_draw_fill                           0x08006cda   Section        0  lv_draw_basic.o(i.lv_draw_fill)
    i.lv_draw_free_buf                       0x08006d4c   Section        0  lv_draw.o(i.lv_draw_free_buf)
    i.lv_draw_get_buf                        0x08006d6c   Section        0  lv_draw.o(i.lv_draw_get_buf)
    i.lv_draw_img                            0x08006da8   Section        0  lv_draw_img.o(i.lv_draw_img)
    i.lv_draw_label                          0x08006e04   Section        0  lv_draw_label.o(i.lv_draw_label)
    i.lv_draw_letter                         0x08007240   Section        0  lv_draw_basic.o(i.lv_draw_letter)
    i.lv_draw_map                            0x08007500   Section        0  lv_draw_basic.o(i.lv_draw_map)
    i.lv_draw_px                             0x080077a8   Section        0  lv_draw_basic.o(i.lv_draw_px)
    i.lv_draw_rect                           0x08007850   Section        0  lv_draw_rect.o(i.lv_draw_rect)
    i.lv_draw_rect_border_corner             0x080078ea   Section        0  lv_draw_rect.o(i.lv_draw_rect_border_corner)
    lv_draw_rect_border_corner               0x080078eb   Thumb Code  2664  lv_draw_rect.o(i.lv_draw_rect_border_corner)
    i.lv_draw_rect_border_straight           0x08008352   Section        0  lv_draw_rect.o(i.lv_draw_rect_border_straight)
    lv_draw_rect_border_straight             0x08008353   Thumb Code   968  lv_draw_rect.o(i.lv_draw_rect_border_straight)
    i.lv_draw_rect_main_corner               0x0800871a   Section        0  lv_draw_rect.o(i.lv_draw_rect_main_corner)
    lv_draw_rect_main_corner                 0x0800871b   Thumb Code  2086  lv_draw_rect.o(i.lv_draw_rect_main_corner)
    i.lv_draw_rect_main_mid                  0x08008f40   Section        0  lv_draw_rect.o(i.lv_draw_rect_main_mid)
    lv_draw_rect_main_mid                    0x08008f41   Thumb Code   308  lv_draw_rect.o(i.lv_draw_rect_main_mid)
    i.lv_draw_shadow                         0x08009074   Section        0  lv_draw_rect.o(i.lv_draw_shadow)
    lv_draw_shadow                           0x08009075   Thumb Code   162  lv_draw_rect.o(i.lv_draw_shadow)
    i.lv_draw_shadow_bottom                  0x08009116   Section        0  lv_draw_rect.o(i.lv_draw_shadow_bottom)
    lv_draw_shadow_bottom                    0x08009117   Thumb Code   530  lv_draw_rect.o(i.lv_draw_shadow_bottom)
    i.lv_draw_shadow_full                    0x08009328   Section        0  lv_draw_rect.o(i.lv_draw_shadow_full)
    lv_draw_shadow_full                      0x08009329   Thumb Code   814  lv_draw_rect.o(i.lv_draw_shadow_full)
    i.lv_draw_shadow_full_straight           0x08009658   Section        0  lv_draw_rect.o(i.lv_draw_shadow_full_straight)
    lv_draw_shadow_full_straight             0x08009659   Thumb Code   350  lv_draw_rect.o(i.lv_draw_shadow_full_straight)
    i.lv_event_get_data                      0x080097b8   Section        0  lv_obj.o(i.lv_event_get_data)
    i.lv_event_mark_deleted                  0x080097c4   Section        0  lv_obj.o(i.lv_event_mark_deleted)
    lv_event_mark_deleted                    0x080097c5   Thumb Code    24  lv_obj.o(i.lv_event_mark_deleted)
    i.lv_event_send                          0x080097e0   Section        0  lv_obj.o(i.lv_event_send)
    i.lv_event_send_func                     0x080097fc   Section        0  lv_obj.o(i.lv_event_send_func)
    i.lv_font_get_bitmap_fmt_txt             0x08009870   Section        0  lv_font_fmt_txt.o(i.lv_font_get_bitmap_fmt_txt)
    i.lv_font_get_glyph_bitmap               0x08009890   Section        0  lv_font.o(i.lv_font_get_glyph_bitmap)
    i.lv_font_get_glyph_dsc                  0x08009894   Section        0  lv_font.o(i.lv_font_get_glyph_dsc)
    i.lv_font_get_glyph_dsc_fmt_txt          0x0800989e   Section        0  lv_font_fmt_txt.o(i.lv_font_get_glyph_dsc_fmt_txt)
    i.lv_font_get_glyph_width                0x08009906   Section        0  lv_font.o(i.lv_font_get_glyph_width)
    i.lv_group_add_obj                       0x0800991c   Section        0  lv_group.o(i.lv_group_add_obj)
    i.lv_group_focus_next                    0x08009974   Section        0  lv_group.o(i.lv_group_focus_next)
    i.lv_group_focus_obj                     0x08009984   Section        0  lv_group.o(i.lv_group_focus_obj)
    i.lv_group_focus_prev                    0x08009a20   Section        0  lv_group.o(i.lv_group_focus_prev)
    i.lv_group_get_click_focus               0x08009a30   Section        0  lv_group.o(i.lv_group_get_click_focus)
    i.lv_group_get_editing                   0x08009a3e   Section        0  lv_group.o(i.lv_group_get_editing)
    i.lv_group_get_focused                   0x08009a4c   Section        0  lv_group.o(i.lv_group_get_focused)
    i.lv_group_init                          0x08009a5c   Section        0  lv_group.o(i.lv_group_init)
    i.lv_group_mod_style                     0x08009a68   Section        0  lv_group.o(i.lv_group_mod_style)
    i.lv_group_refocus                       0x08009a8e   Section        0  lv_group.o(i.lv_group_refocus)
    lv_group_refocus                         0x08009a8f   Thumb Code    50  lv_group.o(i.lv_group_refocus)
    i.lv_group_remove_obj                    0x08009ac0   Section        0  lv_group.o(i.lv_group_remove_obj)
    i.lv_group_send_data                     0x08009b3c   Section        0  lv_group.o(i.lv_group_send_data)
    i.lv_group_set_editing                   0x08009b62   Section        0  lv_group.o(i.lv_group_set_editing)
    i.lv_img_cache_invalidate_src            0x08009ba8   Section        0  lv_img_cache.o(i.lv_img_cache_invalidate_src)
    i.lv_img_cache_open                      0x08009bfc   Section        0  lv_img_cache.o(i.lv_img_cache_open)
    i.lv_img_cache_set_size                  0x08009cf8   Section        0  lv_img_cache.o(i.lv_img_cache_set_size)
    i.lv_img_color_format_get_px_size        0x08009d5c   Section        0  lv_draw_img.o(i.lv_img_color_format_get_px_size)
    i.lv_img_color_format_has_alpha          0x08009d90   Section        0  lv_draw_img.o(i.lv_img_color_format_has_alpha)
    i.lv_img_color_format_is_chroma_keyed    0x08009db6   Section        0  lv_draw_img.o(i.lv_img_color_format_is_chroma_keyed)
    i.lv_img_create                          0x08009dd0   Section        0  lv_img.o(i.lv_img_create)
    i.lv_img_decoder_built_in_close          0x08009ea0   Section        0  lv_img_decoder.o(i.lv_img_decoder_built_in_close)
    i.lv_img_decoder_built_in_info           0x08009ebe   Section        0  lv_img_decoder.o(i.lv_img_decoder_built_in_info)
    i.lv_img_decoder_built_in_line_alpha     0x08009f1c   Section        0  lv_img_decoder.o(i.lv_img_decoder_built_in_line_alpha)
    lv_img_decoder_built_in_line_alpha       0x08009f1d   Thumb Code   352  lv_img_decoder.o(i.lv_img_decoder_built_in_line_alpha)
    i.lv_img_decoder_built_in_line_indexed   0x0800a094   Section        0  lv_img_decoder.o(i.lv_img_decoder_built_in_line_indexed)
    lv_img_decoder_built_in_line_indexed     0x0800a095   Thumb Code   292  lv_img_decoder.o(i.lv_img_decoder_built_in_line_indexed)
    i.lv_img_decoder_built_in_open           0x0800a1b8   Section        0  lv_img_decoder.o(i.lv_img_decoder_built_in_open)
    i.lv_img_decoder_built_in_read_line      0x0800a290   Section        0  lv_img_decoder.o(i.lv_img_decoder_built_in_read_line)
    i.lv_img_decoder_close                   0x0800a2ee   Section        0  lv_img_decoder.o(i.lv_img_decoder_close)
    i.lv_img_decoder_create                  0x0800a300   Section        0  lv_img_decoder.o(i.lv_img_decoder_create)
    i.lv_img_decoder_get_info                0x0800a31c   Section        0  lv_img_decoder.o(i.lv_img_decoder_get_info)
    i.lv_img_decoder_init                    0x0800a360   Section        0  lv_img_decoder.o(i.lv_img_decoder_init)
    i.lv_img_decoder_open                    0x0800a398   Section        0  lv_img_decoder.o(i.lv_img_decoder_open)
    i.lv_img_decoder_read_line               0x0800a408   Section        0  lv_img_decoder.o(i.lv_img_decoder_read_line)
    i.lv_img_design                          0x0800a430   Section        0  lv_img.o(i.lv_img_design)
    lv_img_design                            0x0800a431   Thumb Code   342  lv_img.o(i.lv_img_design)
    i.lv_img_draw_core                       0x0800a588   Section        0  lv_draw_img.o(i.lv_img_draw_core)
    lv_img_draw_core                         0x0800a589   Thumb Code   336  lv_draw_img.o(i.lv_img_draw_core)
    i.lv_img_get_auto_size                   0x0800a6dc   Section        0  lv_img.o(i.lv_img_get_auto_size)
    i.lv_img_get_src                         0x0800a6ea   Section        0  lv_img.o(i.lv_img_get_src)
    i.lv_img_set_src                         0x0800a6f4   Section        0  lv_img.o(i.lv_img_set_src)
    i.lv_img_signal                          0x0800a80c   Section        0  lv_img.o(i.lv_img_signal)
    lv_img_signal                            0x0800a80d   Thumb Code   126  lv_img.o(i.lv_img_signal)
    i.lv_img_src_get_type                    0x0800a898   Section        0  lv_draw_img.o(i.lv_img_src_get_type)
    i.lv_indev_drv_init                      0x0800a8bc   Section        0  lv_hal_indev.o(i.lv_indev_drv_init)
    i.lv_indev_drv_register                  0x0800a8e0   Section        0  lv_hal_indev.o(i.lv_indev_drv_register)
    i.lv_indev_get_act                       0x0800a93c   Section        0  lv_indev.o(i.lv_indev_get_act)
    i.lv_indev_get_next                      0x0800a948   Section        0  lv_hal_indev.o(i.lv_indev_get_next)
    i.lv_indev_get_obj_act                   0x0800a95c   Section        0  lv_indev.o(i.lv_indev_get_obj_act)
    i.lv_indev_get_point                     0x0800a968   Section        0  lv_indev.o(i.lv_indev_get_point)
    i.lv_indev_get_type                      0x0800a984   Section        0  lv_indev.o(i.lv_indev_get_type)
    i.lv_indev_get_vect                      0x0800a98c   Section        0  lv_indev.o(i.lv_indev_get_vect)
    i.lv_indev_init                          0x0800a9ac   Section        0  lv_indev.o(i.lv_indev_init)
    i.lv_indev_is_dragging                   0x0800a9b2   Section        0  lv_indev.o(i.lv_indev_is_dragging)
    i.lv_indev_read                          0x0800a9ce   Section        0  lv_hal_indev.o(i.lv_indev_read)
    i.lv_indev_read_task                     0x0800aa00   Section        0  lv_indev.o(i.lv_indev_read_task)
    i.lv_indev_reset                         0x0800ab20   Section        0  lv_indev.o(i.lv_indev_reset)
    i.lv_indev_reset_long_press              0x0800ab4a   Section        0  lv_indev.o(i.lv_indev_reset_long_press)
    i.lv_indev_set_button_points             0x0800ab6a   Section        0  lv_indev.o(i.lv_indev_set_button_points)
    i.lv_init                                0x0800ab74   Section        0  lv_obj.o(i.lv_init)
    i.lv_inv_area                            0x0800abc8   Section        0  lv_refr.o(i.lv_inv_area)
    i.lv_label_create                        0x0800ac7c   Section        0  lv_label.o(i.lv_label_create)
    i.lv_label_design                        0x0800adf8   Section        0  lv_label.o(i.lv_label_design)
    lv_label_design                          0x0800adf9   Thumb Code   506  lv_label.o(i.lv_label_design)
    i.lv_label_dot_tmp_free                  0x0800aff2   Section        0  lv_label.o(i.lv_label_dot_tmp_free)
    lv_label_dot_tmp_free                    0x0800aff3   Thumb Code    36  lv_label.o(i.lv_label_dot_tmp_free)
    i.lv_label_get_align                     0x0800b016   Section        0  lv_label.o(i.lv_label_get_align)
    i.lv_label_get_body_draw                 0x0800b024   Section        0  lv_label.o(i.lv_label_get_body_draw)
    i.lv_label_get_letter_on                 0x0800b034   Section        0  lv_label.o(i.lv_label_get_letter_on)
    i.lv_label_get_long_mode                 0x0800b190   Section        0  lv_label.o(i.lv_label_get_long_mode)
    i.lv_label_get_recolor                   0x0800b19e   Section        0  lv_label.o(i.lv_label_get_recolor)
    i.lv_label_get_text                      0x0800b1ac   Section        0  lv_label.o(i.lv_label_get_text)
    i.lv_label_refr_text                     0x0800b1b8   Section        0  lv_label.o(i.lv_label_refr_text)
    lv_label_refr_text                       0x0800b1b9   Thumb Code   816  lv_label.o(i.lv_label_refr_text)
    i.lv_label_revert_dots                   0x0800b504   Section        0  lv_label.o(i.lv_label_revert_dots)
    lv_label_revert_dots                     0x0800b505   Thumb Code   102  lv_label.o(i.lv_label_revert_dots)
    i.lv_label_set_align                     0x0800b570   Section        0  lv_label.o(i.lv_label_set_align)
    i.lv_label_set_body_draw                 0x0800b596   Section        0  lv_label.o(i.lv_label_set_body_draw)
    i.lv_label_set_dot_tmp                   0x0800b5c2   Section        0  lv_label.o(i.lv_label_set_dot_tmp)
    lv_label_set_dot_tmp                     0x0800b5c3   Thumb Code    86  lv_label.o(i.lv_label_set_dot_tmp)
    i.lv_label_set_long_mode                 0x0800b618   Section        0  lv_label.o(i.lv_label_set_long_mode)
    i.lv_label_set_offset_x                  0x0800b6a4   Section        0  lv_label.o(i.lv_label_set_offset_x)
    lv_label_set_offset_x                    0x0800b6a5   Thumb Code    22  lv_label.o(i.lv_label_set_offset_x)
    i.lv_label_set_offset_y                  0x0800b6ba   Section        0  lv_label.o(i.lv_label_set_offset_y)
    lv_label_set_offset_y                    0x0800b6bb   Thumb Code    22  lv_label.o(i.lv_label_set_offset_y)
    i.lv_label_set_recolor                   0x0800b6d0   Section        0  lv_label.o(i.lv_label_set_recolor)
    i.lv_label_set_static_text               0x0800b6f6   Section        0  lv_label.o(i.lv_label_set_static_text)
    i.lv_label_set_text                      0x0800b72a   Section        0  lv_label.o(i.lv_label_set_text)
    i.lv_label_signal                        0x0800b798   Section        0  lv_label.o(i.lv_label_signal)
    lv_label_signal                          0x0800b799   Thumb Code   230  lv_label.o(i.lv_label_signal)
    i.lv_list_add_btn                        0x0800b890   Section        0  lv_list.o(i.lv_list_add_btn)
    i.lv_list_btn_signal                     0x0800b9c4   Section        0  lv_list.o(i.lv_list_btn_signal)
    lv_list_btn_signal                       0x0800b9c5   Thumb Code   288  lv_list.o(i.lv_list_btn_signal)
    i.lv_list_create                         0x0800bae8   Section        0  lv_list.o(i.lv_list_create)
    i.lv_list_get_anim_time                  0x0800bc88   Section        0  lv_list.o(i.lv_list_get_anim_time)
    lv_list_get_anim_time                    0x0800bc89   Thumb Code     4  lv_list.o(i.lv_list_get_anim_time)
    i.lv_list_get_btn_img                    0x0800bc8c   Section        0  lv_list.o(i.lv_list_get_btn_img)
    i.lv_list_get_btn_label                  0x0800bcd8   Section        0  lv_list.o(i.lv_list_get_btn_label)
    i.lv_list_get_btn_selected               0x0800bd28   Section        0  lv_list.o(i.lv_list_get_btn_selected)
    i.lv_list_get_btn_text                   0x0800bd34   Section        0  lv_list.o(i.lv_list_get_btn_text)
    i.lv_list_get_next_btn                   0x0800bd4c   Section        0  lv_list.o(i.lv_list_get_next_btn)
    i.lv_list_get_prev_btn                   0x0800bd7a   Section        0  lv_list.o(i.lv_list_get_prev_btn)
    i.lv_list_is_list_btn                    0x0800bda8   Section        0  lv_list.o(i.lv_list_is_list_btn)
    lv_list_is_list_btn                      0x0800bda9   Thumb Code    48  lv_list.o(i.lv_list_is_list_btn)
    i.lv_list_set_btn_selected               0x0800bde0   Section        0  lv_list.o(i.lv_list_set_btn_selected)
    i.lv_list_set_style                      0x0800be44   Section        0  lv_list.o(i.lv_list_set_style)
    i.lv_list_signal                         0x0800bee4   Section        0  lv_list.o(i.lv_list_signal)
    lv_list_signal                           0x0800bee5   Thumb Code   438  lv_list.o(i.lv_list_signal)
    i.lv_ll_chg_list                         0x0800c0a8   Section        0  lv_ll.o(i.lv_ll_chg_list)
    i.lv_ll_get_head                         0x0800c110   Section        0  lv_ll.o(i.lv_ll_get_head)
    i.lv_ll_get_next                         0x0800c11c   Section        0  lv_ll.o(i.lv_ll_get_next)
    i.lv_ll_get_prev                         0x0800c12e   Section        0  lv_ll.o(i.lv_ll_get_prev)
    i.lv_ll_get_tail                         0x0800c13e   Section        0  lv_ll.o(i.lv_ll_get_tail)
    i.lv_ll_init                             0x0800c14a   Section        0  lv_ll.o(i.lv_ll_init)
    i.lv_ll_ins_head                         0x0800c15e   Section        0  lv_ll.o(i.lv_ll_ins_head)
    i.lv_ll_ins_prev                         0x0800c19a   Section        0  lv_ll.o(i.lv_ll_ins_prev)
    i.lv_ll_ins_tail                         0x0800c200   Section        0  lv_ll.o(i.lv_ll_ins_tail)
    i.lv_ll_is_empty                         0x0800c242   Section        0  lv_ll.o(i.lv_ll_is_empty)
    i.lv_ll_move_before                      0x0800c254   Section        0  lv_ll.o(i.lv_ll_move_before)
    i.lv_ll_rem                              0x0800c2b4   Section        0  lv_ll.o(i.lv_ll_rem)
    i.lv_mem_alloc                           0x0800c32c   Section        0  lv_mem.o(i.lv_mem_alloc)
    i.lv_mem_free                            0x0800c388   Section        0  lv_mem.o(i.lv_mem_free)
    i.lv_mem_get_size                        0x0800c3dc   Section        0  lv_mem.o(i.lv_mem_get_size)
    i.lv_mem_init                            0x0800c3f8   Section        0  lv_mem.o(i.lv_mem_init)
    i.lv_mem_realloc                         0x0800c418   Section        0  lv_mem.o(i.lv_mem_realloc)
    i.lv_obj_align                           0x0800c46c   Section        0  lv_obj.o(i.lv_obj_align)
    i.lv_obj_align_origo                     0x0800c678   Section        0  lv_obj.o(i.lv_obj_align_origo)
    i.lv_obj_allocate_ext_attr               0x0800c794   Section        0  lv_obj.o(i.lv_obj_allocate_ext_attr)
    i.lv_obj_clean                           0x0800c7a2   Section        0  lv_obj.o(i.lv_obj_clean)
    i.lv_obj_clear_protect                   0x0800c7c8   Section        0  lv_obj.o(i.lv_obj_clear_protect)
    i.lv_obj_create                          0x0800c7d4   Section        0  lv_obj.o(i.lv_obj_create)
    i.lv_obj_del                             0x0800ca20   Section        0  lv_obj.o(i.lv_obj_del)
    i.lv_obj_design                          0x0800caf8   Section        0  lv_obj.o(i.lv_obj_design)
    lv_obj_design                            0x0800caf9   Thumb Code   168  lv_obj.o(i.lv_obj_design)
    i.lv_obj_get_auto_realign                0x0800cba0   Section        0  lv_obj.o(i.lv_obj_get_auto_realign)
    i.lv_obj_get_child                       0x0800cbaa   Section        0  lv_obj.o(i.lv_obj_get_child)
    i.lv_obj_get_child_back                  0x0800cbb8   Section        0  lv_obj.o(i.lv_obj_get_child_back)
    i.lv_obj_get_click                       0x0800cbc6   Section        0  lv_obj.o(i.lv_obj_get_click)
    i.lv_obj_get_coords                      0x0800cbd0   Section        0  lv_obj.o(i.lv_obj_get_coords)
    i.lv_obj_get_design_cb                   0x0800cbda   Section        0  lv_obj.o(i.lv_obj_get_design_cb)
    i.lv_obj_get_disp                        0x0800cbe0   Section        0  lv_obj.o(i.lv_obj_get_disp)
    i.lv_obj_get_drag                        0x0800cc24   Section        0  lv_obj.o(i.lv_obj_get_drag)
    i.lv_obj_get_drag_dir                    0x0800cc2e   Section        0  lv_obj.o(i.lv_obj_get_drag_dir)
    i.lv_obj_get_drag_parent                 0x0800cc38   Section        0  lv_obj.o(i.lv_obj_get_drag_parent)
    i.lv_obj_get_drag_throw                  0x0800cc42   Section        0  lv_obj.o(i.lv_obj_get_drag_throw)
    i.lv_obj_get_ext_attr                    0x0800cc4c   Section        0  lv_obj.o(i.lv_obj_get_ext_attr)
    i.lv_obj_get_group                       0x0800cc50   Section        0  lv_obj.o(i.lv_obj_get_group)
    i.lv_obj_get_height                      0x0800cc54   Section        0  lv_obj.o(i.lv_obj_get_height)
    i.lv_obj_get_height_fit                  0x0800cc60   Section        0  lv_obj.o(i.lv_obj_get_height_fit)
    i.lv_obj_get_hidden                      0x0800cc7c   Section        0  lv_obj.o(i.lv_obj_get_hidden)
    i.lv_obj_get_opa_scale                   0x0800cc88   Section        0  lv_obj.o(i.lv_obj_get_opa_scale)
    i.lv_obj_get_parent                      0x0800cca4   Section        0  lv_obj.o(i.lv_obj_get_parent)
    i.lv_obj_get_screen                      0x0800cca8   Section        0  lv_obj.o(i.lv_obj_get_screen)
    i.lv_obj_get_signal_cb                   0x0800ccb4   Section        0  lv_obj.o(i.lv_obj_get_signal_cb)
    i.lv_obj_get_style                       0x0800ccb8   Section        0  lv_obj.o(i.lv_obj_get_style)
    i.lv_obj_get_type                        0x0800cd14   Section        0  lv_obj.o(i.lv_obj_get_type)
    i.lv_obj_get_width                       0x0800cd68   Section        0  lv_obj.o(i.lv_obj_get_width)
    i.lv_obj_get_width_fit                   0x0800cd74   Section        0  lv_obj.o(i.lv_obj_get_width_fit)
    i.lv_obj_get_x                           0x0800cd90   Section        0  lv_obj.o(i.lv_obj_get_x)
    i.lv_obj_get_y                           0x0800cd9c   Section        0  lv_obj.o(i.lv_obj_get_y)
    i.lv_obj_invalidate                      0x0800cda8   Section        0  lv_obj.o(i.lv_obj_invalidate)
    i.lv_obj_is_focused                      0x0800ce4c   Section        0  lv_obj.o(i.lv_obj_is_focused)
    i.lv_obj_is_protected                    0x0800ce64   Section        0  lv_obj.o(i.lv_obj_is_protected)
    i.lv_obj_move_foreground                 0x0800ce70   Section        0  lv_obj.o(i.lv_obj_move_foreground)
    i.lv_obj_realign                         0x0800cea8   Section        0  lv_obj.o(i.lv_obj_realign)
    i.lv_obj_refresh_ext_draw_pad            0x0800cece   Section        0  lv_obj.o(i.lv_obj_refresh_ext_draw_pad)
    i.lv_obj_refresh_style                   0x0800ceea   Section        0  lv_obj.o(i.lv_obj_refresh_style)
    i.lv_obj_set_click                       0x0800cf06   Section        0  lv_obj.o(i.lv_obj_set_click)
    i.lv_obj_set_design_cb                   0x0800cf14   Section        0  lv_obj.o(i.lv_obj_set_design_cb)
    i.lv_obj_set_drag                        0x0800cf18   Section        0  lv_obj.o(i.lv_obj_set_drag)
    i.lv_obj_set_drag_parent                 0x0800cf34   Section        0  lv_obj.o(i.lv_obj_set_drag_parent)
    i.lv_obj_set_drag_throw                  0x0800cf42   Section        0  lv_obj.o(i.lv_obj_set_drag_throw)
    i.lv_obj_set_event_cb                    0x0800cf50   Section        0  lv_obj.o(i.lv_obj_set_event_cb)
    i.lv_obj_set_height                      0x0800cf54   Section        0  lv_obj.o(i.lv_obj_set_height)
    i.lv_obj_set_hidden                      0x0800cf6a   Section        0  lv_obj.o(i.lv_obj_set_hidden)
    i.lv_obj_set_parent                      0x0800cfa2   Section        0  lv_obj.o(i.lv_obj_set_parent)
    i.lv_obj_set_pos                         0x0800d006   Section        0  lv_obj.o(i.lv_obj_set_pos)
    i.lv_obj_set_protect                     0x0800d088   Section        0  lv_obj.o(i.lv_obj_set_protect)
    i.lv_obj_set_signal_cb                   0x0800d094   Section        0  lv_obj.o(i.lv_obj_set_signal_cb)
    i.lv_obj_set_size                        0x0800d098   Section        0  lv_obj.o(i.lv_obj_set_size)
    i.lv_obj_set_style                       0x0800d118   Section        0  lv_obj.o(i.lv_obj_set_style)
    i.lv_obj_set_width                       0x0800d12c   Section        0  lv_obj.o(i.lv_obj_set_width)
    i.lv_obj_set_x                           0x0800d144   Section        0  lv_obj.o(i.lv_obj_set_x)
    i.lv_obj_set_y                           0x0800d15c   Section        0  lv_obj.o(i.lv_obj_set_y)
    i.lv_obj_signal                          0x0800d174   Section        0  lv_obj.o(i.lv_obj_signal)
    lv_obj_signal                            0x0800d175   Thumb Code    82  lv_obj.o(i.lv_obj_signal)
    i.lv_page_create                         0x0800d1d0   Section        0  lv_page.o(i.lv_page_create)
    i.lv_page_design                         0x0800d3a4   Section        0  lv_page.o(i.lv_page_design)
    lv_page_design                           0x0800d3a5   Thumb Code   524  lv_page.o(i.lv_page_design)
    i.lv_page_focus                          0x0800d5b4   Section        0  lv_page.o(i.lv_page_focus)
    i.lv_page_get_anim_time                  0x0800d770   Section        0  lv_page.o(i.lv_page_get_anim_time)
    i.lv_page_get_scrl                       0x0800d77a   Section        0  lv_page.o(i.lv_page_get_scrl)
    i.lv_page_get_scrl_width                 0x0800d784   Section        0  lv_page.o(i.lv_page_get_scrl_width)
    lv_page_get_scrl_width                   0x0800d785   Thumb Code    14  lv_page.o(i.lv_page_get_scrl_width)
    i.lv_page_get_style                      0x0800d792   Section        0  lv_page.o(i.lv_page_get_style)
    i.lv_page_glue_obj                       0x0800d7c6   Section        0  lv_page.o(i.lv_page_glue_obj)
    i.lv_page_on_edge                        0x0800d7dc   Section        0  lv_page.o(i.lv_page_on_edge)
    i.lv_page_sb_refresh                     0x0800d85e   Section        0  lv_page.o(i.lv_page_sb_refresh)
    lv_page_sb_refresh                       0x0800d85f   Thumb Code   866  lv_page.o(i.lv_page_sb_refresh)
    i.lv_page_scroll_hor                     0x0800dbc0   Section        0  lv_page.o(i.lv_page_scroll_hor)
    i.lv_page_scroll_ver                     0x0800dc14   Section        0  lv_page.o(i.lv_page_scroll_ver)
    i.lv_page_scrollable_signal              0x0800dc68   Section        0  lv_page.o(i.lv_page_scrollable_signal)
    lv_page_scrollable_signal                0x0800dc69   Thumb Code  1066  lv_page.o(i.lv_page_scrollable_signal)
    i.lv_page_set_anim_time                  0x0800e092   Section        0  lv_page.o(i.lv_page_set_anim_time)
    i.lv_page_set_sb_mode                    0x0800e09e   Section        0  lv_page.o(i.lv_page_set_sb_mode)
    i.lv_page_set_style                      0x0800e0ea   Section        0  lv_page.o(i.lv_page_set_style)
    i.lv_page_signal                         0x0800e154   Section        0  lv_page.o(i.lv_page_signal)
    lv_page_signal                           0x0800e155   Thumb Code   546  lv_page.o(i.lv_page_signal)
    i.lv_page_start_edge_flash               0x0800e384   Section        0  lv_page.o(i.lv_page_start_edge_flash)
    i.lv_port_disp_init                      0x0800e3e8   Section        0  lv_port_disp.o(i.lv_port_disp_init)
    i.lv_port_indev_init                     0x0800e430   Section        0  lv_port_indev.o(i.lv_port_indev_init)
    i.lv_refr_area                           0x0800e464   Section        0  lv_refr.o(i.lv_refr_area)
    lv_refr_area                             0x0800e465   Thumb Code   290  lv_refr.o(i.lv_refr_area)
    i.lv_refr_area_part                      0x0800e58c   Section        0  lv_refr.o(i.lv_refr_area_part)
    lv_refr_area_part                        0x0800e58d   Thumb Code   100  lv_refr.o(i.lv_refr_area_part)
    i.lv_refr_areas                          0x0800e5f4   Section        0  lv_refr.o(i.lv_refr_areas)
    lv_refr_areas                            0x0800e5f5   Thumb Code    70  lv_refr.o(i.lv_refr_areas)
    i.lv_refr_get_disp_refreshing            0x0800e640   Section        0  lv_refr.o(i.lv_refr_get_disp_refreshing)
    i.lv_refr_get_top_obj                    0x0800e64c   Section        0  lv_refr.o(i.lv_refr_get_top_obj)
    lv_refr_get_top_obj                      0x0800e64d   Thumb Code   100  lv_refr.o(i.lv_refr_get_top_obj)
    i.lv_refr_init                           0x0800e6b0   Section        0  lv_refr.o(i.lv_refr_init)
    i.lv_refr_join_area                      0x0800e6b4   Section        0  lv_refr.o(i.lv_refr_join_area)
    lv_refr_join_area                        0x0800e6b5   Thumb Code   192  lv_refr.o(i.lv_refr_join_area)
    i.lv_refr_obj                            0x0800e778   Section        0  lv_refr.o(i.lv_refr_obj)
    lv_refr_obj                              0x0800e779   Thumb Code   212  lv_refr.o(i.lv_refr_obj)
    i.lv_refr_obj_and_children               0x0800e84c   Section        0  lv_refr.o(i.lv_refr_obj_and_children)
    lv_refr_obj_and_children                 0x0800e84d   Thumb Code    70  lv_refr.o(i.lv_refr_obj_and_children)
    i.lv_refr_vdb_flush                      0x0800e898   Section        0  lv_refr.o(i.lv_refr_vdb_flush)
    lv_refr_vdb_flush                        0x0800e899   Thumb Code    74  lv_refr.o(i.lv_refr_vdb_flush)
    i.lv_scrl_design                         0x0800e8e8   Section        0  lv_page.o(i.lv_scrl_design)
    lv_scrl_design                           0x0800e8e9   Thumb Code   138  lv_page.o(i.lv_scrl_design)
    i.lv_style_copy                          0x0800e978   Section        0  lv_style.o(i.lv_style_copy)
    i.lv_style_init                          0x0800e980   Section        0  lv_style.o(i.lv_style_init)
    i.lv_tabview_add_tab                     0x0800ee9c   Section        0  lv_tabview.o(i.lv_tabview_add_tab)
    i.lv_tabview_clean                       0x0800f0d0   Section        0  lv_tabview.o(i.lv_tabview_clean)
    i.lv_tabview_create                      0x0800f0e0   Section        0  lv_tabview.o(i.lv_tabview_create)
    i.lv_tabview_get_anim_time               0x0800f344   Section        0  lv_tabview.o(i.lv_tabview_get_anim_time)
    i.lv_tabview_get_sliding                 0x0800f34e   Section        0  lv_tabview.o(i.lv_tabview_get_sliding)
    i.lv_tabview_get_style                   0x0800f35c   Section        0  lv_tabview.o(i.lv_tabview_get_style)
    i.lv_tabview_get_tab                     0x0800f3a8   Section        0  lv_tabview.o(i.lv_tabview_get_tab)
    i.lv_tabview_get_tab_act                 0x0800f3d6   Section        0  lv_tabview.o(i.lv_tabview_get_tab_act)
    i.lv_tabview_set_style                   0x0800f3e0   Section        0  lv_tabview.o(i.lv_tabview_set_style)
    i.lv_tabview_set_tab_act                 0x0800f480   Section        0  lv_tabview.o(i.lv_tabview_set_tab_act)
    i.lv_tabview_signal                      0x0800f684   Section        0  lv_tabview.o(i.lv_tabview_signal)
    lv_tabview_signal                        0x0800f685   Thumb Code   306  lv_tabview.o(i.lv_tabview_signal)
    i.lv_task_core_init                      0x0800f7c8   Section        0  lv_task.o(i.lv_task_core_init)
    i.lv_task_create                         0x0800f7e4   Section        0  lv_task.o(i.lv_task_create)
    i.lv_task_create_basic                   0x0800f80c   Section        0  lv_task.o(i.lv_task_create_basic)
    i.lv_task_del                            0x0800f888   Section        0  lv_task.o(i.lv_task_del)
    i.lv_task_exec                           0x0800f8b8   Section        0  lv_task.o(i.lv_task_exec)
    lv_task_exec                             0x0800f8b9   Thumb Code    64  lv_task.o(i.lv_task_exec)
    i.lv_task_handler                        0x0800f8fc   Section        0  lv_task.o(i.lv_task_handler)
    i.lv_task_ready                          0x0800f9d0   Section        0  lv_task.o(i.lv_task_ready)
    i.lv_task_set_prio                       0x0800f9e4   Section        0  lv_task.o(i.lv_task_set_prio)
    i.lv_theme_get_current                   0x0800fa3c   Section        0  lv_theme.o(i.lv_theme_get_current)
    i.lv_tick_elaps                          0x0800fa50   Section        0  lv_hal_tick.o(i.lv_tick_elaps)
    i.lv_tick_get                            0x0800fa5c   Section        0  lv_hal_tick.o(i.lv_tick_get)
    i.lv_tick_inc                            0x0800fa70   Section        0  lv_hal_tick.o(i.lv_tick_inc)
    i.lv_txt_get_next_line                   0x0800fa84   Section        0  lv_txt.o(i.lv_txt_get_next_line)
    i.lv_txt_get_size                        0x0800fb7c   Section        0  lv_txt.o(i.lv_txt_get_size)
    i.lv_txt_get_width                       0x0800fc2c   Section        0  lv_txt.o(i.lv_txt_get_width)
    i.lv_txt_is_cmd                          0x0800fcb4   Section        0  lv_txt.o(i.lv_txt_is_cmd)
    i.lv_txt_utf8_get_byte_id                0x0800fcf0   Section        0  lv_txt.o(i.lv_txt_utf8_get_byte_id)
    lv_txt_utf8_get_byte_id                  0x0800fcf1   Thumb Code    38  lv_txt.o(i.lv_txt_utf8_get_byte_id)
    i.lv_txt_utf8_get_char_id                0x0800fd1c   Section        0  lv_txt.o(i.lv_txt_utf8_get_char_id)
    lv_txt_utf8_get_char_id                  0x0800fd1d   Thumb Code    36  lv_txt.o(i.lv_txt_utf8_get_char_id)
    i.lv_txt_utf8_get_length                 0x0800fd44   Section        0  lv_txt.o(i.lv_txt_utf8_get_length)
    lv_txt_utf8_get_length                   0x0800fd45   Thumb Code    36  lv_txt.o(i.lv_txt_utf8_get_length)
    i.lv_txt_utf8_next                       0x0800fd6c   Section        0  lv_txt.o(i.lv_txt_utf8_next)
    lv_txt_utf8_next                         0x0800fd6d   Thumb Code   152  lv_txt.o(i.lv_txt_utf8_next)
    i.lv_txt_utf8_prev                       0x0800fe04   Section        0  lv_txt.o(i.lv_txt_utf8_prev)
    lv_txt_utf8_prev                         0x0800fe05   Thumb Code    66  lv_txt.o(i.lv_txt_utf8_prev)
    i.lv_txt_utf8_size                       0x0800fe4c   Section        0  lv_txt.o(i.lv_txt_utf8_size)
    lv_txt_utf8_size                         0x0800fe4d   Thumb Code    46  lv_txt.o(i.lv_txt_utf8_size)
    i.lv_utils_bsearch                       0x0800fe7c   Section        0  lv_utils.o(i.lv_utils_bsearch)
    i.main                                   0x0800fec8   Section        0  main.o(i.main)
    i.make_one_button_toggled                0x0800ff06   Section        0  lv_btnm.o(i.make_one_button_toggled)
    make_one_button_toggled                  0x0800ff07   Thumb Code    42  lv_btnm.o(i.make_one_button_toggled)
    i.node_set_next                          0x0800ff30   Section        0  lv_ll.o(i.node_set_next)
    node_set_next                            0x0800ff31   Thumb Code    34  lv_ll.o(i.node_set_next)
    i.node_set_prev                          0x0800ff52   Section        0  lv_ll.o(i.node_set_prev)
    node_set_prev                            0x0800ff53   Thumb Code    32  lv_ll.o(i.node_set_prev)
    i.obj_to_foreground                      0x0800ff74   Section        0  lv_group.o(i.obj_to_foreground)
    obj_to_foreground                        0x0800ff75   Thumb Code    42  lv_group.o(i.obj_to_foreground)
    i.refresh_children_position              0x0800ff9e   Section        0  lv_obj.o(i.refresh_children_position)
    refresh_children_position                0x0800ff9f   Thumb Code    68  lv_obj.o(i.refresh_children_position)
    i.refresh_children_style                 0x0800ffe2   Section        0  lv_obj.o(i.refresh_children_style)
    refresh_children_style                   0x0800ffe3   Thumb Code    52  lv_obj.o(i.refresh_children_style)
    i.scrl_def_event_cb                      0x08010016   Section        0  lv_page.o(i.scrl_def_event_cb)
    scrl_def_event_cb                        0x08010017   Thumb Code    60  lv_page.o(i.scrl_def_event_cb)
    i.sw_color_fill                          0x08010054   Section        0  lv_draw_basic.o(i.sw_color_fill)
    sw_color_fill                            0x08010055   Thumb Code   314  lv_draw_basic.o(i.sw_color_fill)
    i.tab_btnm_event_cb                      0x0801018e   Section        0  lv_tabview.o(i.tab_btnm_event_cb)
    tab_btnm_event_cb                        0x0801018f   Thumb Code    88  lv_tabview.o(i.tab_btnm_event_cb)
    i.tabpage_press_lost_handler             0x080101e8   Section        0  lv_tabview.o(i.tabpage_press_lost_handler)
    tabpage_press_lost_handler               0x080101e9   Thumb Code   188  lv_tabview.o(i.tabpage_press_lost_handler)
    i.tabpage_pressed_handler                0x080102a4   Section        0  lv_tabview.o(i.tabpage_pressed_handler)
    tabpage_pressed_handler                  0x080102a5   Thumb Code    24  lv_tabview.o(i.tabpage_pressed_handler)
    i.tabpage_pressing_handler               0x080102bc   Section        0  lv_tabview.o(i.tabpage_pressing_handler)
    tabpage_pressing_handler                 0x080102bd   Thumb Code   340  lv_tabview.o(i.tabpage_pressing_handler)
    i.tabpage_scrl_signal                    0x08010410   Section        0  lv_tabview.o(i.tabpage_scrl_signal)
    tabpage_scrl_signal                      0x08010411   Thumb Code    96  lv_tabview.o(i.tabpage_scrl_signal)
    i.tabpage_signal                         0x08010474   Section        0  lv_tabview.o(i.tabpage_signal)
    tabpage_signal                           0x08010475   Thumb Code    90  lv_tabview.o(i.tabpage_signal)
    i.tabview_realign                        0x080104d4   Section        0  lv_tabview.o(i.tabview_realign)
    tabview_realign                          0x080104d5   Thumb Code   868  lv_tabview.o(i.tabview_realign)
    i.unicode_list_compare                   0x0801083c   Section        0  lv_font_fmt_txt.o(i.unicode_list_compare)
    unicode_list_compare                     0x0801083d   Thumb Code     8  lv_font_fmt_txt.o(i.unicode_list_compare)
    i.write_create                           0x08010844   Section        0  demo.o(i.write_create)
    write_create                             0x08010845   Thumb Code   152  demo.o(i.write_create)
    x$fpl$fpinit                             0x080108fc   Section       10  fpinit.o(x$fpl$fpinit)
    $v0                                      0x080108fc   Number         0  fpinit.o(x$fpl$fpinit)
    .constdata                               0x08010906   Section       16  system_stm32f7xx.o(.constdata)
    .constdata                               0x08010918   Section       22  lv_style.o(.constdata)
    .constdata                               0x0801092e   Section        1  lv_draw.o(.constdata)
    seg1                                     0x0801092e   Data           1  lv_draw.o(.constdata)
    .constdata                               0x0801092f   Section        2  lv_draw.o(.constdata)
    seg2                                     0x0801092f   Data           2  lv_draw.o(.constdata)
    .constdata                               0x08010931   Section        3  lv_draw.o(.constdata)
    seg3                                     0x08010931   Data           3  lv_draw.o(.constdata)
    .constdata                               0x08010934   Section        4  lv_draw.o(.constdata)
    seg4                                     0x08010934   Data           4  lv_draw.o(.constdata)
    .constdata                               0x08010938   Section        5  lv_draw.o(.constdata)
    seg5                                     0x08010938   Data           5  lv_draw.o(.constdata)
    .constdata                               0x0801093d   Section        6  lv_draw.o(.constdata)
    seg6                                     0x0801093d   Data           6  lv_draw.o(.constdata)
    .constdata                               0x08010943   Section        7  lv_draw.o(.constdata)
    seg7                                     0x08010943   Data           7  lv_draw.o(.constdata)
    .constdata                               0x0801094a   Section        8  lv_draw.o(.constdata)
    seg8                                     0x0801094a   Data           8  lv_draw.o(.constdata)
    .constdata                               0x08010952   Section       17  lv_draw_rect.o(.constdata)
    opa_map2                                 0x08010952   Data           2  lv_draw_rect.o(.constdata)
    opa_map3                                 0x08010954   Data           3  lv_draw_rect.o(.constdata)
    opa_map4                                 0x08010957   Data           4  lv_draw_rect.o(.constdata)
    opa_map8                                 0x0801095b   Data           8  lv_draw_rect.o(.constdata)
    .constdata                               0x08010963   Section     9106  lv_font_roboto_16.o(.constdata)
    gylph_bitmap                             0x08010963   Data        9106  lv_font_roboto_16.o(.constdata)
    .constdata                               0x08012cf8   Section       40  lv_font_roboto_16.o(.constdata)
    cmaps                                    0x08012cf8   Data          40  lv_font_roboto_16.o(.constdata)
    .constdata                               0x08012d20   Section        2  lv_hal_disp.o(.constdata)
    .constdata                               0x08012d22   Section       16  lv_port_indev.o(.constdata)
    btn_points                               0x08012d22   Data          16  lv_port_indev.o(.constdata)
    .constdata                               0x08012d34   Section       14  demo.o(.constdata)
    .constdata                               0x08012d42   Section    224640  img_bubble_pattern.o(.constdata)
    .constdata                               0x08049ac2   Section       17  __printf_flags_ss_wp.o(.constdata)
    maptable                                 0x08049ac2   Data          17  __printf_flags_ss_wp.o(.constdata)
    .conststring                             0x08049ad4   Section       41  lv_btnm.o(.conststring)
    .data                                    0x20000000   Section        8  fmc.o(.data)
    FMC_Initialized                          0x20000000   Data           4  fmc.o(.data)
    FMC_DeInitialized                        0x20000004   Data           4  fmc.o(.data)
    .data                                    0x20000008   Section       12  stm32f7xx_hal.o(.data)
    .data                                    0x20000014   Section        4  system_stm32f7xx.o(.data)
    .data                                    0x20000018   Section        1  my_key.o(.data)
    key_up                                   0x20000018   Data           1  my_key.o(.data)
    .data                                    0x2000001c   Section        8  lv_indev.o(.data)
    indev_obj_act                            0x2000001c   Data           4  lv_indev.o(.data)
    indev_act                                0x20000020   Data           4  lv_indev.o(.data)
    .data                                    0x20000024   Section       12  lv_obj.o(.data)
    lv_initialized                           0x20000024   Data           1  lv_obj.o(.data)
    event_temp_data_head                     0x20000028   Data           4  lv_obj.o(.data)
    event_act_data                           0x2000002c   Data           4  lv_obj.o(.data)
    .data                                    0x20000030   Section        8  lv_refr.o(.data)
    px_num                                   0x20000030   Data           4  lv_refr.o(.data)
    disp_refr                                0x20000034   Data           4  lv_refr.o(.data)
    .data                                    0x20000038   Section       36  lv_draw.o(.data)
    draw_buf_size                            0x20000038   Data           4  lv_draw.o(.data)
    seg_map                                  0x2000003c   Data          32  lv_draw.o(.data)
    .data                                    0x2000005c   Section        2  lv_img_cache.o(.data)
    entry_cnt                                0x2000005c   Data           2  lv_img_cache.o(.data)
    .data                                    0x20000060   Section     1168  lv_font_roboto_16.o(.data)
    glyph_dsc                                0x20000060   Data        1168  lv_font_roboto_16.o(.data)
    .data                                    0x200004f0   Section      100  lv_font_roboto_16.o(.data)
    unicode_list_1                           0x200004f0   Data         100  lv_font_roboto_16.o(.data)
    .data                                    0x20000554   Section      146  lv_font_roboto_16.o(.data)
    kern_left_class_mapping                  0x20000554   Data         146  lv_font_roboto_16.o(.data)
    .data                                    0x200005e6   Section      146  lv_font_roboto_16.o(.data)
    kern_right_class_mapping                 0x200005e6   Data         146  lv_font_roboto_16.o(.data)
    .data                                    0x20000678   Section     1400  lv_font_roboto_16.o(.data)
    kern_class_values                        0x20000678   Data        1400  lv_font_roboto_16.o(.data)
    .data                                    0x20000bf0   Section       16  lv_font_roboto_16.o(.data)
    kern_classes                             0x20000bf0   Data          16  lv_font_roboto_16.o(.data)
    .data                                    0x20000c00   Section       28  lv_font_roboto_16.o(.data)
    font_dsc                                 0x20000c00   Data          28  lv_font_roboto_16.o(.data)
    .data                                    0x20000c1c   Section       16  lv_font_roboto_16.o(.data)
    .data                                    0x20000c2c   Section        4  lv_hal_disp.o(.data)
    disp_def                                 0x20000c2c   Data           4  lv_hal_disp.o(.data)
    .data                                    0x20000c30   Section        8  lv_hal_tick.o(.data)
    tick_irq_flag                            0x20000c30   Data           1  lv_hal_tick.o(.data)
    sys_time                                 0x20000c34   Data           4  lv_hal_tick.o(.data)
    .data                                    0x20000c38   Section        8  lv_anim.o(.data)
    anim_list_changed                        0x20000c38   Data           1  lv_anim.o(.data)
    last_task_run                            0x20000c3c   Data           4  lv_anim.o(.data)
    .data                                    0x20000c40   Section        4  lv_gc.o(.data)
    .data                                    0x20000c44   Section        4  lv_gc.o(.data)
    .data                                    0x20000c48   Section        4  lv_gc.o(.data)
    .data                                    0x20000c4c   Section        8  lv_mem.o(.data)
    work_mem                                 0x20000c4c   Data           4  lv_mem.o(.data)
    zero_mem                                 0x20000c50   Data           4  lv_mem.o(.data)
    .data                                    0x20000c54   Section       20  lv_task.o(.data)
    lv_task_run                              0x20000c54   Data           1  lv_task.o(.data)
    idle_last                                0x20000c55   Data           1  lv_task.o(.data)
    task_handler_mutex                       0x20000c56   Data           1  lv_task.o(.data)
    task_deleted                             0x20000c57   Data           1  lv_task.o(.data)
    task_created                             0x20000c58   Data           1  lv_task.o(.data)
    idle_period_start                        0x20000c5c   Data           4  lv_task.o(.data)
    handler_start                            0x20000c60   Data           4  lv_task.o(.data)
    busy_time                                0x20000c64   Data           4  lv_task.o(.data)
    .data                                    0x20000c68   Section       16  lv_txt.o(.data)
    .data                                    0x20000c78   Section        4  lv_txt.o(.data)
    .data                                    0x20000c7c   Section        4  lv_txt.o(.data)
    .data                                    0x20000c80   Section        8  lv_btn.o(.data)
    ancestor_signal                          0x20000c80   Data           4  lv_btn.o(.data)
    ancestor_design                          0x20000c84   Data           4  lv_btn.o(.data)
    .data                                    0x20000c88   Section       36  lv_btnm.o(.data)
    ancestor_design_f                        0x20000c88   Data           4  lv_btnm.o(.data)
    ancestor_signal                          0x20000c8c   Data           4  lv_btnm.o(.data)
    lv_btnm_def_map                          0x20000c90   Data          28  lv_btnm.o(.data)
    .data                                    0x20000cac   Section        4  lv_cont.o(.data)
    ancestor_signal                          0x20000cac   Data           4  lv_cont.o(.data)
    .data                                    0x20000cb0   Section        4  lv_img.o(.data)
    ancestor_signal                          0x20000cb0   Data           4  lv_img.o(.data)
    .data                                    0x20000cb4   Section        4  lv_label.o(.data)
    ancestor_signal                          0x20000cb4   Data           4  lv_label.o(.data)
    .data                                    0x20000cb8   Section       20  lv_list.o(.data)
    img_signal                               0x20000cb8   Data           4  lv_list.o(.data)
    label_signal                             0x20000cbc   Data           4  lv_list.o(.data)
    ancestor_page_signal                     0x20000cc0   Data           4  lv_list.o(.data)
    ancestor_btn_signal                      0x20000cc4   Data           4  lv_list.o(.data)
    last_clicked_btn                         0x20000cc8   Data           4  lv_list.o(.data)
    .data                                    0x20000ccc   Section        8  lv_page.o(.data)
    ancestor_design                          0x20000ccc   Data           4  lv_page.o(.data)
    ancestor_signal                          0x20000cd0   Data           4  lv_page.o(.data)
    .data                                    0x20000cd4   Section       16  lv_tabview.o(.data)
    tab_def                                  0x20000cd4   Data           4  lv_tabview.o(.data)
    ancestor_signal                          0x20000cd8   Data           4  lv_tabview.o(.data)
    page_signal                              0x20000cdc   Data           4  lv_tabview.o(.data)
    page_scrl_signal                         0x20000ce0   Data           4  lv_tabview.o(.data)
    .data                                    0x20000ce4   Section        8  lv_port_indev.o(.data)
    last_btn                                 0x20000ce4   Data           1  lv_port_indev.o(.data)
    .data                                    0x20000cec   Section        1  lv_theme.o(.data)
    inited                                   0x20000cec   Data           1  lv_theme.o(.data)
    .data                                    0x20000cf0   Section       12  img_bubble_pattern.o(.data)
    .bss                                     0x20000cfc   Section       72  adc.o(.bss)
    .bss                                     0x20000d44   Section       88  dma2d.o(.bss)
    .bss                                     0x20000d9c   Section       52  fmc.o(.bss)
    .bss                                     0x20000dd0   Section      168  ltdc.o(.bss)
    .bss                                     0x20000e78   Section       76  tim.o(.bss)
    .bss                                     0x20000ec4   Section       20  my_lcd.o(.bss)
    .bss                                     0x20000ed8   Section      780  lv_style.o(.bss)
    .bss                                     0x200011e4   Section       12  lv_gc.o(.bss)
    .bss                                     0x200011f0   Section       12  lv_gc.o(.bss)
    .bss                                     0x200011fc   Section       12  lv_gc.o(.bss)
    .bss                                     0x20001208   Section       12  lv_gc.o(.bss)
    .bss                                     0x20001214   Section       12  lv_gc.o(.bss)
    .bss                                     0x20001220   Section       12  lv_gc.o(.bss)
    .bss                                     0x2000122c   Section    16384  lv_mem.o(.bss)
    work_mem_int                             0x2000122c   Data       16384  lv_mem.o(.bss)
    .bss                                     0x2000522c   Section    307228  lv_port_disp.o(.bss)
    disp_buf_3                               0x2000522c   Data          28  lv_port_disp.o(.bss)
    buf3_1                                   0x20005248   Data       153600  lv_port_disp.o(.bss)
    buf3_2                                   0x2002aa48   Data       153600  lv_port_disp.o(.bss)
    .bss                                     0x20050248   Section     6152  lv_theme.o(.bss)
    th_styles                                0x20050248   Data        5760  lv_theme.o(.bss)
    current_theme                            0x200518c8   Data         392  lv_theme.o(.bss)
    .bss                                     0x20051a50   Section      300  demo.o(.bss)
    style_tv_btn_bg                          0x20051a50   Data          60  demo.o(.bss)
    style_tv_btn_rel                         0x20051a8c   Data          60  demo.o(.bss)
    style_tv_btn_pr                          0x20051ac8   Data          60  demo.o(.bss)
    style_btn_rel                            0x20051b04   Data          60  demo.o(.bss)
    style_btn_pr                             0x20051b40   Data          60  demo.o(.bss)
    .bss                                     0x20051b7c   Section       96  libspace.o(.bss)
    HEAP                                     0x20051be0   Section      512  startup_stm32f767xx.o(HEAP)
    Heap_Mem                                 0x20051be0   Data         512  startup_stm32f767xx.o(HEAP)
    STACK                                    0x20051de0   Section     1024  startup_stm32f767xx.o(STACK)
    Stack_Mem                                0x20051de0   Data        1024  startup_stm32f767xx.o(STACK)
    __initial_sp                             0x200521e0   Data           0  startup_stm32f767xx.o(STACK)

    Global Symbols

    Symbol Name                              Value     Ov Type        Size  Object(Section)

    BuildAttributes$$THM_ISAv4$E$P$D$K$B$S$7EM$VFPv5_D16$PE$PLD8$A:L22UL41UL21$X:L11$S22US41US21$IEEE1$IW$USESV6$~STKCKD$USESV7$~SHL$OTIME$ROPI$IEEEJ$EBA8$UX$STANDARDLIB$REQ8$PRES8$EABIv2 0x00000000   Number         0  anon$$obj.o ABSOLUTE
    __ARM_use_no_argv                        0x00000000   Number         0  main.o ABSOLUTE
    _printf_flags                            0x00000000   Number         0  printf_stubs.o ABSOLUTE
    _printf_return_value                     0x00000000   Number         0  printf_stubs.o ABSOLUTE
    _printf_sizespec                         0x00000000   Number         0  printf_stubs.o ABSOLUTE
    _printf_widthprec                        0x00000000   Number         0  printf_stubs.o ABSOLUTE
    __ARM_exceptions_init                     - Undefined Weak Reference
    __alloca_initialize                       - Undefined Weak Reference
    __arm_fini_                               - Undefined Weak Reference
    __arm_preinit_                            - Undefined Weak Reference
    __cpp_initialize__aeabi_                  - Undefined Weak Reference
    __cxa_finalize                            - Undefined Weak Reference
    __sigvec_lookup                           - Undefined Weak Reference
    _atexit_init                              - Undefined Weak Reference
    _call_atexit_fns                          - Undefined Weak Reference
    _clock_init                               - Undefined Weak Reference
    _fp_trap_init                             - Undefined Weak Reference
    _fp_trap_shutdown                         - Undefined Weak Reference
    _get_lc_collate                           - Undefined Weak Reference
    _get_lc_ctype                             - Undefined Weak Reference
    _get_lc_monetary                          - Undefined Weak Reference
    _get_lc_time                              - Undefined Weak Reference
    _getenv_init                              - Undefined Weak Reference
    _handle_redirection                       - Undefined Weak Reference
    _init_alloc                               - Undefined Weak Reference
    _init_user_alloc                          - Undefined Weak Reference
    _initio                                   - Undefined Weak Reference
    _printf_mbtowc                            - Undefined Weak Reference
    _printf_truncate_signed                   - Undefined Weak Reference
    _printf_truncate_unsigned                 - Undefined Weak Reference
    _rand_init                                - Undefined Weak Reference
    _signal_finish                            - Undefined Weak Reference
    _signal_init                              - Undefined Weak Reference
    _terminate_alloc                          - Undefined Weak Reference
    _terminate_user_alloc                     - Undefined Weak Reference
    _terminateio                              - Undefined Weak Reference
    __Vectors_Size                           0x000001f8   Number         0  startup_stm32f767xx.o ABSOLUTE
    __Vectors                                0x08000000   Data           4  startup_stm32f767xx.o(RESET)
    __Vectors_End                            0x080001f8   Data           0  startup_stm32f767xx.o(RESET)
    __main                                   0x080001f9   Thumb Code     8  __main.o(!!!main)
    __scatterload                            0x08000201   Thumb Code     0  __scatter.o(!!!scatter)
    __scatterload_rt2                        0x08000201   Thumb Code    44  __scatter.o(!!!scatter)
    __scatterload_rt2_thumb_only             0x08000201   Thumb Code     0  __scatter.o(!!!scatter)
    __scatterload_null                       0x0800020f   Thumb Code     0  __scatter.o(!!!scatter)
    __decompress                             0x08000235   Thumb Code    90  __dczerorl2.o(!!dczerorl2)
    __decompress1                            0x08000235   Thumb Code     0  __dczerorl2.o(!!dczerorl2)
    __scatterload_zeroinit                   0x08000291   Thumb Code    28  __scatter_zi.o(!!handler_zi)
    _printf_d                                0x080002ad   Thumb Code     0  _printf_d.o(.ARM.Collect$$_printf_percent$$00000009)
    _printf_percent                          0x080002ad   Thumb Code     0  _printf_percent.o(.ARM.Collect$$_printf_percent$$00000000)
    _printf_c                                0x080002b3   Thumb Code     0  _printf_c.o(.ARM.Collect$$_printf_percent$$00000013)
    _printf_percent_end                      0x080002b9   Thumb Code     0  _printf_percent_end.o(.ARM.Collect$$_printf_percent$$00000017)
    __rt_lib_init                            0x080002bd   Thumb Code     0  libinit.o(.ARM.Collect$$libinit$$00000000)
    __rt_lib_init_fp_1                       0x080002bf   Thumb Code     0  libinit2.o(.ARM.Collect$$libinit$$00000001)
    __rt_lib_init_alloca_1                   0x080002c3   Thumb Code     0  libinit2.o(.ARM.Collect$$libinit$$0000002E)
    __rt_lib_init_argv_1                     0x080002c3   Thumb Code     0  libinit2.o(.ARM.Collect$$libinit$$0000002C)
    __rt_lib_init_atexit_1                   0x080002c3   Thumb Code     0  libinit2.o(.ARM.Collect$$libinit$$0000001B)
    __rt_lib_init_clock_1                    0x080002c3   Thumb Code     0  libinit2.o(.ARM.Collect$$libinit$$00000021)
    __rt_lib_init_cpp_1                      0x080002c3   Thumb Code     0  libinit2.o(.ARM.Collect$$libinit$$00000032)
    __rt_lib_init_exceptions_1               0x080002c3   Thumb Code     0  libinit2.o(.ARM.Collect$$libinit$$00000030)
    __rt_lib_init_fp_trap_1                  0x080002c3   Thumb Code     0  libinit2.o(.ARM.Collect$$libinit$$0000001F)
    __rt_lib_init_getenv_1                   0x080002c3   Thumb Code     0  libinit2.o(.ARM.Collect$$libinit$$00000023)
    __rt_lib_init_heap_1                     0x080002c3   Thumb Code     0  libinit2.o(.ARM.Collect$$libinit$$0000000A)
    __rt_lib_init_lc_collate_1               0x080002c3   Thumb Code     0  libinit2.o(.ARM.Collect$$libinit$$00000011)
    __rt_lib_init_lc_ctype_1                 0x080002c3   Thumb Code     0  libinit2.o(.ARM.Collect$$libinit$$00000013)
    __rt_lib_init_lc_monetary_1              0x080002c3   Thumb Code     0  libinit2.o(.ARM.Collect$$libinit$$00000015)
    __rt_lib_init_lc_numeric_1               0x080002c3   Thumb Code     0  libinit2.o(.ARM.Collect$$libinit$$00000017)
    __rt_lib_init_lc_time_1                  0x080002c3   Thumb Code     0  libinit2.o(.ARM.Collect$$libinit$$00000019)
    __rt_lib_init_preinit_1                  0x080002c3   Thumb Code     0  libinit2.o(.ARM.Collect$$libinit$$00000004)
    __rt_lib_init_rand_1                     0x080002c3   Thumb Code     0  libinit2.o(.ARM.Collect$$libinit$$0000000E)
    __rt_lib_init_return                     0x080002c3   Thumb Code     0  libinit2.o(.ARM.Collect$$libinit$$00000033)
    __rt_lib_init_signal_1                   0x080002c3   Thumb Code     0  libinit2.o(.ARM.Collect$$libinit$$0000001D)
    __rt_lib_init_stdio_1                    0x080002c3   Thumb Code     0  libinit2.o(.ARM.Collect$$libinit$$00000025)
    __rt_lib_init_user_alloc_1               0x080002c3   Thumb Code     0  libinit2.o(.ARM.Collect$$libinit$$0000000C)
    __rt_lib_shutdown                        0x080002c5   Thumb Code     0  libshutdown.o(.ARM.Collect$$libshutdown$$00000000)
    __rt_lib_shutdown_cpp_1                  0x080002c7   Thumb Code     0  libshutdown2.o(.ARM.Collect$$libshutdown$$00000004)
    __rt_lib_shutdown_fini_1                 0x080002c7   Thumb Code     0  libshutdown2.o(.ARM.Collect$$libshutdown$$00000002)
    __rt_lib_shutdown_fp_trap_1              0x080002c7   Thumb Code     0  libshutdown2.o(.ARM.Collect$$libshutdown$$00000009)
    __rt_lib_shutdown_heap_1                 0x080002c7   Thumb Code     0  libshutdown2.o(.ARM.Collect$$libshutdown$$00000011)
    __rt_lib_shutdown_return                 0x080002c7   Thumb Code     0  libshutdown2.o(.ARM.Collect$$libshutdown$$00000012)
    __rt_lib_shutdown_signal_1               0x080002c7   Thumb Code     0  libshutdown2.o(.ARM.Collect$$libshutdown$$0000000C)
    __rt_lib_shutdown_stdio_1                0x080002c7   Thumb Code     0  libshutdown2.o(.ARM.Collect$$libshutdown$$00000006)
    __rt_lib_shutdown_user_alloc_1           0x080002c7   Thumb Code     0  libshutdown2.o(.ARM.Collect$$libshutdown$$0000000E)
    __rt_entry                               0x080002c9   Thumb Code     0  __rtentry.o(.ARM.Collect$$rtentry$$00000000)
    __rt_entry_presh_1                       0x080002c9   Thumb Code     0  __rtentry2.o(.ARM.Collect$$rtentry$$00000002)
    __rt_entry_sh                            0x080002c9   Thumb Code     0  __rtentry4.o(.ARM.Collect$$rtentry$$00000004)
    __rt_entry_li                            0x080002cf   Thumb Code     0  __rtentry2.o(.ARM.Collect$$rtentry$$0000000A)
    __rt_entry_postsh_1                      0x080002cf   Thumb Code     0  __rtentry2.o(.ARM.Collect$$rtentry$$00000009)
    __rt_entry_main                          0x080002d3   Thumb Code     0  __rtentry2.o(.ARM.Collect$$rtentry$$0000000D)
    __rt_entry_postli_1                      0x080002d3   Thumb Code     0  __rtentry2.o(.ARM.Collect$$rtentry$$0000000C)
    __rt_exit                                0x080002db   Thumb Code     0  rtexit.o(.ARM.Collect$$rtexit$$00000000)
    __rt_exit_ls                             0x080002dd   Thumb Code     0  rtexit2.o(.ARM.Collect$$rtexit$$00000003)
    __rt_exit_prels_1                        0x080002dd   Thumb Code     0  rtexit2.o(.ARM.Collect$$rtexit$$00000002)
    __rt_exit_exit                           0x080002e1   Thumb Code     0  rtexit2.o(.ARM.Collect$$rtexit$$00000004)
    Reset_Handler                            0x080002e9   Thumb Code     8  startup_stm32f767xx.o(.text)
    ADC_IRQHandler                           0x08000303   Thumb Code     0  startup_stm32f767xx.o(.text)
    CAN1_RX0_IRQHandler                      0x08000303   Thumb Code     0  startup_stm32f767xx.o(.text)
    CAN1_RX1_IRQHandler                      0x08000303   Thumb Code     0  startup_stm32f767xx.o(.text)
    CAN1_SCE_IRQHandler                      0x08000303   Thumb Code     0  startup_stm32f767xx.o(.text)
    CAN1_TX_IRQHandler                       0x08000303   Thumb Code     0  startup_stm32f767xx.o(.text)
    CAN2_RX0_IRQHandler                      0x08000303   Thumb Code     0  startup_stm32f767xx.o(.text)
    CAN2_RX1_IRQHandler                      0x08000303   Thumb Code     0  startup_stm32f767xx.o(.text)
    CAN2_SCE_IRQHandler                      0x08000303   Thumb Code     0  startup_stm32f767xx.o(.text)
    CAN2_TX_IRQHandler                       0x08000303   Thumb Code     0  startup_stm32f767xx.o(.text)
    CAN3_RX0_IRQHandler                      0x08000303   Thumb Code     0  startup_stm32f767xx.o(.text)
    CAN3_RX1_IRQHandler                      0x08000303   Thumb Code     0  startup_stm32f767xx.o(.text)
    CAN3_SCE_IRQHandler                      0x08000303   Thumb Code     0  startup_stm32f767xx.o(.text)
    CAN3_TX_IRQHandler                       0x08000303   Thumb Code     0  startup_stm32f767xx.o(.text)
    CEC_IRQHandler                           0x08000303   Thumb Code     0  startup_stm32f767xx.o(.text)
    DCMI_IRQHandler                          0x08000303   Thumb Code     0  startup_stm32f767xx.o(.text)
    DFSDM1_FLT0_IRQHandler                   0x08000303   Thumb Code     0  startup_stm32f767xx.o(.text)
    DFSDM1_FLT1_IRQHandler                   0x08000303   Thumb Code     0  startup_stm32f767xx.o(.text)
    DFSDM1_FLT2_IRQHandler                   0x08000303   Thumb Code     0  startup_stm32f767xx.o(.text)
    DFSDM1_FLT3_IRQHandler                   0x08000303   Thumb Code     0  startup_stm32f767xx.o(.text)
    DMA1_Stream0_IRQHandler                  0x08000303   Thumb Code     0  startup_stm32f767xx.o(.text)
    DMA1_Stream1_IRQHandler                  0x08000303   Thumb Code     0  startup_stm32f767xx.o(.text)
    DMA1_Stream2_IRQHandler                  0x08000303   Thumb Code     0  startup_stm32f767xx.o(.text)
    DMA1_Stream3_IRQHandler                  0x08000303   Thumb Code     0  startup_stm32f767xx.o(.text)
    DMA1_Stream4_IRQHandler                  0x08000303   Thumb Code     0  startup_stm32f767xx.o(.text)
    DMA1_Stream5_IRQHandler                  0x08000303   Thumb Code     0  startup_stm32f767xx.o(.text)
    DMA1_Stream6_IRQHandler                  0x08000303   Thumb Code     0  startup_stm32f767xx.o(.text)
    DMA1_Stream7_IRQHandler                  0x08000303   Thumb Code     0  startup_stm32f767xx.o(.text)
    DMA2D_IRQHandler                         0x08000303   Thumb Code     0  startup_stm32f767xx.o(.text)
    DMA2_Stream0_IRQHandler                  0x08000303   Thumb Code     0  startup_stm32f767xx.o(.text)
    DMA2_Stream1_IRQHandler                  0x08000303   Thumb Code     0  startup_stm32f767xx.o(.text)
    DMA2_Stream2_IRQHandler                  0x08000303   Thumb Code     0  startup_stm32f767xx.o(.text)
    DMA2_Stream3_IRQHandler                  0x08000303   Thumb Code     0  startup_stm32f767xx.o(.text)
    DMA2_Stream4_IRQHandler                  0x08000303   Thumb Code     0  startup_stm32f767xx.o(.text)
    DMA2_Stream5_IRQHandler                  0x08000303   Thumb Code     0  startup_stm32f767xx.o(.text)
    DMA2_Stream6_IRQHandler                  0x08000303   Thumb Code     0  startup_stm32f767xx.o(.text)
    DMA2_Stream7_IRQHandler                  0x08000303   Thumb Code     0  startup_stm32f767xx.o(.text)
    ETH_IRQHandler                           0x08000303   Thumb Code     0  startup_stm32f767xx.o(.text)
    ETH_WKUP_IRQHandler                      0x08000303   Thumb Code     0  startup_stm32f767xx.o(.text)
    EXTI0_IRQHandler                         0x08000303   Thumb Code     0  startup_stm32f767xx.o(.text)
    EXTI15_10_IRQHandler                     0x08000303   Thumb Code     0  startup_stm32f767xx.o(.text)
    EXTI1_IRQHandler                         0x08000303   Thumb Code     0  startup_stm32f767xx.o(.text)
    EXTI2_IRQHandler                         0x08000303   Thumb Code     0  startup_stm32f767xx.o(.text)
    EXTI3_IRQHandler                         0x08000303   Thumb Code     0  startup_stm32f767xx.o(.text)
    EXTI4_IRQHandler                         0x08000303   Thumb Code     0  startup_stm32f767xx.o(.text)
    EXTI9_5_IRQHandler                       0x08000303   Thumb Code     0  startup_stm32f767xx.o(.text)
    FLASH_IRQHandler                         0x08000303   Thumb Code     0  startup_stm32f767xx.o(.text)
    FMC_IRQHandler                           0x08000303   Thumb Code     0  startup_stm32f767xx.o(.text)
    FPU_IRQHandler                           0x08000303   Thumb Code     0  startup_stm32f767xx.o(.text)
    I2C1_ER_IRQHandler                       0x08000303   Thumb Code     0  startup_stm32f767xx.o(.text)
    I2C1_EV_IRQHandler                       0x08000303   Thumb Code     0  startup_stm32f767xx.o(.text)
    I2C2_ER_IRQHandler                       0x08000303   Thumb Code     0  startup_stm32f767xx.o(.text)
    I2C2_EV_IRQHandler                       0x08000303   Thumb Code     0  startup_stm32f767xx.o(.text)
    I2C3_ER_IRQHandler                       0x08000303   Thumb Code     0  startup_stm32f767xx.o(.text)
    I2C3_EV_IRQHandler                       0x08000303   Thumb Code     0  startup_stm32f767xx.o(.text)
    I2C4_ER_IRQHandler                       0x08000303   Thumb Code     0  startup_stm32f767xx.o(.text)
    I2C4_EV_IRQHandler                       0x08000303   Thumb Code     0  startup_stm32f767xx.o(.text)
    JPEG_IRQHandler                          0x08000303   Thumb Code     0  startup_stm32f767xx.o(.text)
    LPTIM1_IRQHandler                        0x08000303   Thumb Code     0  startup_stm32f767xx.o(.text)
    LTDC_ER_IRQHandler                       0x08000303   Thumb Code     0  startup_stm32f767xx.o(.text)
    LTDC_IRQHandler                          0x08000303   Thumb Code     0  startup_stm32f767xx.o(.text)
    MDIOS_IRQHandler                         0x08000303   Thumb Code     0  startup_stm32f767xx.o(.text)
    OTG_FS_IRQHandler                        0x08000303   Thumb Code     0  startup_stm32f767xx.o(.text)
    OTG_FS_WKUP_IRQHandler                   0x08000303   Thumb Code     0  startup_stm32f767xx.o(.text)
    OTG_HS_EP1_IN_IRQHandler                 0x08000303   Thumb Code     0  startup_stm32f767xx.o(.text)
    OTG_HS_EP1_OUT_IRQHandler                0x08000303   Thumb Code     0  startup_stm32f767xx.o(.text)
    OTG_HS_IRQHandler                        0x08000303   Thumb Code     0  startup_stm32f767xx.o(.text)
    OTG_HS_WKUP_IRQHandler                   0x08000303   Thumb Code     0  startup_stm32f767xx.o(.text)
    PVD_IRQHandler                           0x08000303   Thumb Code     0  startup_stm32f767xx.o(.text)
    QUADSPI_IRQHandler                       0x08000303   Thumb Code     0  startup_stm32f767xx.o(.text)
    RCC_IRQHandler                           0x08000303   Thumb Code     0  startup_stm32f767xx.o(.text)
    RNG_IRQHandler                           0x08000303   Thumb Code     0  startup_stm32f767xx.o(.text)
    RTC_Alarm_IRQHandler                     0x08000303   Thumb Code     0  startup_stm32f767xx.o(.text)
    RTC_WKUP_IRQHandler                      0x08000303   Thumb Code     0  startup_stm32f767xx.o(.text)
    SAI1_IRQHandler                          0x08000303   Thumb Code     0  startup_stm32f767xx.o(.text)
    SAI2_IRQHandler                          0x08000303   Thumb Code     0  startup_stm32f767xx.o(.text)
    SDMMC1_IRQHandler                        0x08000303   Thumb Code     0  startup_stm32f767xx.o(.text)
    SDMMC2_IRQHandler                        0x08000303   Thumb Code     0  startup_stm32f767xx.o(.text)
    SPDIF_RX_IRQHandler                      0x08000303   Thumb Code     0  startup_stm32f767xx.o(.text)
    SPI1_IRQHandler                          0x08000303   Thumb Code     0  startup_stm32f767xx.o(.text)
    SPI2_IRQHandler                          0x08000303   Thumb Code     0  startup_stm32f767xx.o(.text)
    SPI3_IRQHandler                          0x08000303   Thumb Code     0  startup_stm32f767xx.o(.text)
    SPI4_IRQHandler                          0x08000303   Thumb Code     0  startup_stm32f767xx.o(.text)
    SPI5_IRQHandler                          0x08000303   Thumb Code     0  startup_stm32f767xx.o(.text)
    SPI6_IRQHandler                          0x08000303   Thumb Code     0  startup_stm32f767xx.o(.text)
    TAMP_STAMP_IRQHandler                    0x08000303   Thumb Code     0  startup_stm32f767xx.o(.text)
    TIM1_BRK_TIM9_IRQHandler                 0x08000303   Thumb Code     0  startup_stm32f767xx.o(.text)
    TIM1_CC_IRQHandler                       0x08000303   Thumb Code     0  startup_stm32f767xx.o(.text)
    TIM1_TRG_COM_TIM11_IRQHandler            0x08000303   Thumb Code     0  startup_stm32f767xx.o(.text)
    TIM1_UP_TIM10_IRQHandler                 0x08000303   Thumb Code     0  startup_stm32f767xx.o(.text)
    TIM2_IRQHandler                          0x08000303   Thumb Code     0  startup_stm32f767xx.o(.text)
    TIM4_IRQHandler                          0x08000303   Thumb Code     0  startup_stm32f767xx.o(.text)
    TIM5_IRQHandler                          0x08000303   Thumb Code     0  startup_stm32f767xx.o(.text)
    TIM6_DAC_IRQHandler                      0x08000303   Thumb Code     0  startup_stm32f767xx.o(.text)
    TIM7_IRQHandler                          0x08000303   Thumb Code     0  startup_stm32f767xx.o(.text)
    TIM8_BRK_TIM12_IRQHandler                0x08000303   Thumb Code     0  startup_stm32f767xx.o(.text)
    TIM8_CC_IRQHandler                       0x08000303   Thumb Code     0  startup_stm32f767xx.o(.text)
    TIM8_TRG_COM_TIM14_IRQHandler            0x08000303   Thumb Code     0  startup_stm32f767xx.o(.text)
    TIM8_UP_TIM13_IRQHandler                 0x08000303   Thumb Code     0  startup_stm32f767xx.o(.text)
    UART4_IRQHandler                         0x08000303   Thumb Code     0  startup_stm32f767xx.o(.text)
    UART5_IRQHandler                         0x08000303   Thumb Code     0  startup_stm32f767xx.o(.text)
    UART7_IRQHandler                         0x08000303   Thumb Code     0  startup_stm32f767xx.o(.text)
    UART8_IRQHandler                         0x08000303   Thumb Code     0  startup_stm32f767xx.o(.text)
    USART1_IRQHandler                        0x08000303   Thumb Code     0  startup_stm32f767xx.o(.text)
    USART2_IRQHandler                        0x08000303   Thumb Code     0  startup_stm32f767xx.o(.text)
    USART3_IRQHandler                        0x08000303   Thumb Code     0  startup_stm32f767xx.o(.text)
    USART6_IRQHandler                        0x08000303   Thumb Code     0  startup_stm32f767xx.o(.text)
    WWDG_IRQHandler                          0x08000303   Thumb Code     0  startup_stm32f767xx.o(.text)
    __user_initial_stackheap                 0x08000305   Thumb Code     0  startup_stm32f767xx.o(.text)
    __aeabi_uldivmod                         0x08000329   Thumb Code     0  lludivv7m.o(.text)
    _ll_udiv                                 0x08000329   Thumb Code   238  lludivv7m.o(.text)
    __2sprintf                               0x08000419   Thumb Code    34  noretval__2sprintf.o(.text)
    _printf_str                              0x08000441   Thumb Code    82  _printf_str.o(.text)
    _printf_int_dec                          0x08000495   Thumb Code   104  _printf_dec.o(.text)
    __printf                                 0x0800050d   Thumb Code   388  __printf_flags_ss_wp.o(.text)
    strcpy                                   0x08000695   Thumb Code    72  strcpy.o(.text)
    strlen                                   0x080006dd   Thumb Code    62  strlen.o(.text)
    __aeabi_memcpy                           0x0800071b   Thumb Code     0  rt_memcpy_v6.o(.text)
    __rt_memcpy                              0x0800071b   Thumb Code   138  rt_memcpy_v6.o(.text)
    _memcpy_lastbytes                        0x08000781   Thumb Code     0  rt_memcpy_v6.o(.text)
    __aeabi_memcpy4                          0x080007a5   Thumb Code     0  rt_memcpy_w.o(.text)
    __aeabi_memcpy8                          0x080007a5   Thumb Code     0  rt_memcpy_w.o(.text)
    __rt_memcpy_w                            0x080007a5   Thumb Code   100  rt_memcpy_w.o(.text)
    _memcpy_lastbytes_aligned                0x080007ed   Thumb Code     0  rt_memcpy_w.o(.text)
    __aeabi_memset                           0x08000809   Thumb Code    16  aeabi_memset.o(.text)
    __aeabi_memclr                           0x08000819   Thumb Code     0  rt_memclr.o(.text)
    __rt_memclr                              0x08000819   Thumb Code    68  rt_memclr.o(.text)
    _memset                                  0x0800081d   Thumb Code     0  rt_memclr.o(.text)
    __aeabi_memclr4                          0x0800085d   Thumb Code     0  rt_memclr_w.o(.text)
    __aeabi_memclr8                          0x0800085d   Thumb Code     0  rt_memclr_w.o(.text)
    __rt_memclr_w                            0x0800085d   Thumb Code    78  rt_memclr_w.o(.text)
    _memset_w                                0x08000861   Thumb Code     0  rt_memclr_w.o(.text)
    strcmp                                   0x080008ad   Thumb Code   104  strcmpv7m_pel.o(.text)
    __use_two_region_memory                  0x08000915   Thumb Code     2  heapauxi.o(.text)
    __rt_heap_escrow$2region                 0x08000917   Thumb Code     2  heapauxi.o(.text)
    __rt_heap_expand$2region                 0x08000919   Thumb Code     2  heapauxi.o(.text)
    _printf_int_common                       0x0800091b   Thumb Code   178  _printf_intcommon.o(.text)
    _printf_char_common                      0x080009d7   Thumb Code    32  _printf_char_common.o(.text)
    _sputc                                   0x080009fd   Thumb Code    10  _sputc.o(.text)
    _printf_cs_common                        0x08000a07   Thumb Code    20  _printf_char.o(.text)
    _printf_char                             0x08000a1b   Thumb Code    16  _printf_char.o(.text)
    _printf_string                           0x08000a2b   Thumb Code     8  _printf_char.o(.text)
    __user_libspace                          0x08000a35   Thumb Code     8  libspace.o(.text)
    __user_perproc_libspace                  0x08000a35   Thumb Code     0  libspace.o(.text)
    __user_perthread_libspace                0x08000a35   Thumb Code     0  libspace.o(.text)
    __user_setup_stackheap                   0x08000a3d   Thumb Code    74  sys_stackheap_outer.o(.text)
    exit                                     0x08000a87   Thumb Code    18  exit.o(.text)
    _sys_exit                                0x08000a99   Thumb Code     8  sys_exit.o(.text)
    __I$use$semihosting                      0x08000aa5   Thumb Code     0  use_no_semi.o(.text)
    __use_no_semihosting_swi                 0x08000aa5   Thumb Code     2  use_no_semi.o(.text)
    __semihosting_library_function           0x08000aa7   Thumb Code     0  indicate_semi.o(.text)
    BusFault_Handler                         0x08000be1   Thumb Code     2  stm32f7xx_it.o(i.BusFault_Handler)
    DebugMon_Handler                         0x08000be3   Thumb Code     2  stm32f7xx_it.o(i.DebugMon_Handler)
    Error_Handler                            0x08000be5   Thumb Code     4  main.o(i.Error_Handler)
    FMC_SDRAM_Init                           0x08000be9   Thumb Code   106  stm32f7xx_ll_fmc.o(i.FMC_SDRAM_Init)
    FMC_SDRAM_ProgramRefreshRate             0x08000c53   Thumb Code    18  stm32f7xx_ll_fmc.o(i.FMC_SDRAM_ProgramRefreshRate)
    FMC_SDRAM_SendCommand                    0x08000c65   Thumb Code    38  stm32f7xx_ll_fmc.o(i.FMC_SDRAM_SendCommand)
    FMC_SDRAM_Timing_Init                    0x08000c8d   Thumb Code   164  stm32f7xx_ll_fmc.o(i.FMC_SDRAM_Timing_Init)
    Get_Adc                                  0x08000d3d   Thumb Code    46  adc.o(i.Get_Adc)
    Get_Adc_Average                          0x08000d71   Thumb Code    40  adc.o(i.Get_Adc_Average)
    HAL_ADC_ConfigChannel                    0x08000d99   Thumb Code   432  stm32f7xx_hal_adc.o(i.HAL_ADC_ConfigChannel)
    HAL_ADC_GetValue                         0x08000f59   Thumb Code     6  stm32f7xx_hal_adc.o(i.HAL_ADC_GetValue)
    HAL_ADC_Init                             0x08000f5f   Thumb Code    84  stm32f7xx_hal_adc.o(i.HAL_ADC_Init)
    HAL_ADC_MspInit                          0x08000fb5   Thumb Code    82  adc.o(i.HAL_ADC_MspInit)
    HAL_ADC_PollForConversion                0x08001015   Thumb Code   168  stm32f7xx_hal_adc.o(i.HAL_ADC_PollForConversion)
    HAL_ADC_Start                            0x080010bd   Thumb Code   226  stm32f7xx_hal_adc.o(i.HAL_ADC_Start)
    HAL_DMA2D_ConfigLayer                    0x080011b1   Thumb Code   178  stm32f7xx_hal_dma2d.o(i.HAL_DMA2D_ConfigLayer)
    HAL_DMA2D_Init                           0x08001269   Thumb Code   112  stm32f7xx_hal_dma2d.o(i.HAL_DMA2D_Init)
    HAL_DMA2D_MspInit                        0x080012d9   Thumb Code    30  dma2d.o(i.HAL_DMA2D_MspInit)
    HAL_Delay                                0x08001301   Thumb Code    32  stm32f7xx_hal.o(i.HAL_Delay)
    HAL_GPIO_Init                            0x080013c5   Thumb Code   530  stm32f7xx_hal_gpio.o(i.HAL_GPIO_Init)
    HAL_GPIO_ReadPin                         0x0800160d   Thumb Code    10  stm32f7xx_hal_gpio.o(i.HAL_GPIO_ReadPin)
    HAL_GPIO_WritePin                        0x08001617   Thumb Code    10  stm32f7xx_hal_gpio.o(i.HAL_GPIO_WritePin)
    HAL_GetTick                              0x08001621   Thumb Code     6  stm32f7xx_hal.o(i.HAL_GetTick)
    HAL_IncTick                              0x0800162d   Thumb Code    12  stm32f7xx_hal.o(i.HAL_IncTick)
    HAL_Init                                 0x0800163d   Thumb Code    22  stm32f7xx_hal.o(i.HAL_Init)
    HAL_InitTick                             0x08001655   Thumb Code    54  stm32f7xx_hal.o(i.HAL_InitTick)
    HAL_LTDC_ConfigLayer                     0x08001695   Thumb Code    82  stm32f7xx_hal_ltdc.o(i.HAL_LTDC_ConfigLayer)
    HAL_LTDC_EnableDither                    0x080016e9   Thumb Code    50  stm32f7xx_hal_ltdc.o(i.HAL_LTDC_EnableDither)
    HAL_LTDC_Init                            0x08001721   Thumb Code   242  stm32f7xx_hal_ltdc.o(i.HAL_LTDC_Init)
    HAL_LTDC_MspInit                         0x08001819   Thumb Code   230  ltdc.o(i.HAL_LTDC_MspInit)
    HAL_LTDC_Reload                          0x08001919   Thumb Code    54  stm32f7xx_hal_ltdc.o(i.HAL_LTDC_Reload)
    HAL_MspInit                              0x08001951   Thumb Code    42  stm32f7xx_hal_msp.o(i.HAL_MspInit)
    HAL_NVIC_EnableIRQ                       0x08001981   Thumb Code    26  stm32f7xx_hal_cortex.o(i.HAL_NVIC_EnableIRQ)
    HAL_NVIC_SetPriority                     0x0800199d   Thumb Code    60  stm32f7xx_hal_cortex.o(i.HAL_NVIC_SetPriority)
    HAL_NVIC_SetPriorityGrouping             0x080019dd   Thumb Code    28  stm32f7xx_hal_cortex.o(i.HAL_NVIC_SetPriorityGrouping)
    HAL_PWREx_EnableOverDrive                0x08001a01   Thumb Code   100  stm32f7xx_hal_pwr_ex.o(i.HAL_PWREx_EnableOverDrive)
    HAL_RCCEx_PeriphCLKConfig                0x08001a6d   Thumb Code  1336  stm32f7xx_hal_rcc_ex.o(i.HAL_RCCEx_PeriphCLKConfig)
    HAL_RCC_ClockConfig                      0x08001fa9   Thumb Code   284  stm32f7xx_hal_rcc.o(i.HAL_RCC_ClockConfig)
    HAL_RCC_GetSysClockFreq                  0x080020d9   Thumb Code    88  stm32f7xx_hal_rcc.o(i.HAL_RCC_GetSysClockFreq)
    HAL_RCC_OscConfig                        0x0800213d   Thumb Code   906  stm32f7xx_hal_rcc.o(i.HAL_RCC_OscConfig)
    HAL_SDRAM_Init                           0x080024d5   Thumb Code    66  stm32f7xx_hal_sdram.o(i.HAL_SDRAM_Init)
    HAL_SDRAM_MspInit                        0x08002517   Thumb Code     4  fmc.o(i.HAL_SDRAM_MspInit)
    HAL_SDRAM_ProgramRefreshRate             0x0800251b   Thumb Code    46  stm32f7xx_hal_sdram.o(i.HAL_SDRAM_ProgramRefreshRate)
    HAL_SDRAM_SendCommand                    0x08002549   Thumb Code    60  stm32f7xx_hal_sdram.o(i.HAL_SDRAM_SendCommand)
    HAL_SYSTICK_Config                       0x08002585   Thumb Code    38  stm32f7xx_hal_cortex.o(i.HAL_SYSTICK_Config)
    HAL_TIMEx_Break2Callback                 0x080025ab   Thumb Code     2  stm32f7xx_hal_tim_ex.o(i.HAL_TIMEx_Break2Callback)
    HAL_TIMEx_BreakCallback                  0x080025ad   Thumb Code     2  stm32f7xx_hal_tim_ex.o(i.HAL_TIMEx_BreakCallback)
    HAL_TIMEx_CommutCallback                 0x080025af   Thumb Code     2  stm32f7xx_hal_tim_ex.o(i.HAL_TIMEx_CommutCallback)
    HAL_TIMEx_MasterConfigSynchronization    0x080025b1   Thumb Code   134  stm32f7xx_hal_tim_ex.o(i.HAL_TIMEx_MasterConfigSynchronization)
    HAL_TIM_Base_Init                        0x08002655   Thumb Code    98  stm32f7xx_hal_tim.o(i.HAL_TIM_Base_Init)
    HAL_TIM_Base_MspInit                     0x080026b9   Thumb Code    50  tim.o(i.HAL_TIM_Base_MspInit)
    HAL_TIM_Base_Start_IT                    0x080026f5   Thumb Code   106  stm32f7xx_hal_tim.o(i.HAL_TIM_Base_Start_IT)
    HAL_TIM_ConfigClockSource                0x08002781   Thumb Code   220  stm32f7xx_hal_tim.o(i.HAL_TIM_ConfigClockSource)
    HAL_TIM_IC_CaptureCallback               0x08002861   Thumb Code     2  stm32f7xx_hal_tim.o(i.HAL_TIM_IC_CaptureCallback)
    HAL_TIM_IRQHandler                       0x08002863   Thumb Code   386  stm32f7xx_hal_tim.o(i.HAL_TIM_IRQHandler)
    HAL_TIM_OC_DelayElapsedCallback          0x080029e5   Thumb Code     2  stm32f7xx_hal_tim.o(i.HAL_TIM_OC_DelayElapsedCallback)
    HAL_TIM_PWM_PulseFinishedCallback        0x080029e7   Thumb Code     2  stm32f7xx_hal_tim.o(i.HAL_TIM_PWM_PulseFinishedCallback)
    HAL_TIM_PeriodElapsedCallback            0x080029e9   Thumb Code     6  tim.o(i.HAL_TIM_PeriodElapsedCallback)
    HAL_TIM_TriggerCallback                  0x080029ef   Thumb Code     2  stm32f7xx_hal_tim.o(i.HAL_TIM_TriggerCallback)
    HardFault_Handler                        0x080029f1   Thumb Code     2  stm32f7xx_it.o(i.HardFault_Handler)
    KEY0Scan                                 0x080029f3   Thumb Code    16  my_key.o(i.KEY0Scan)
    KEY1Scan                                 0x08002a03   Thumb Code    20  my_key.o(i.KEY1Scan)
    KEY2Scan                                 0x08002a17   Thumb Code    20  my_key.o(i.KEY2Scan)
    KEY3Scan                                 0x08002a2b   Thumb Code    20  my_key.o(i.KEY3Scan)
    KEY_Scan                                 0x08002a41   Thumb Code   204  my_key.o(i.KEY_Scan)
    LCD_Init2                                0x08002b1d   Thumb Code    20  my_lcd.o(i.LCD_Init2)
    LCD_SetLayer                             0x08002b35   Thumb Code    40  my_lcd.o(i.LCD_SetLayer)
    LTDC_Color_Fill                          0x08002b65   Thumb Code   134  my_lcd.o(i.LTDC_Color_Fill)
    MX_ADC1_Init                             0x08002dc9   Thumb Code    86  adc.o(i.MX_ADC1_Init)
    MX_DMA2D_Init                            0x08002e2d   Thumb Code    60  dma2d.o(i.MX_DMA2D_Init)
    MX_FMC_Init                              0x08002e71   Thumb Code    98  fmc.o(i.MX_FMC_Init)
    MX_GPIO_Init                             0x08002edd   Thumb Code   242  gpio.o(i.MX_GPIO_Init)
    MX_LTDC_Init                             0x08002fe5   Thumb Code   192  ltdc.o(i.MX_LTDC_Init)
    MX_TIM3_Init                             0x080030b5   Thumb Code    98  tim.o(i.MX_TIM3_Init)
    MemManage_Handler                        0x08003121   Thumb Code     2  stm32f7xx_it.o(i.MemManage_Handler)
    My_LTDC_Init                             0x08003123   Thumb Code    14  my_ltdc.o(i.My_LTDC_Init)
    NMI_Handler                              0x08003131   Thumb Code     2  stm32f7xx_it.o(i.NMI_Handler)
    PendSV_Handler                           0x08003133   Thumb Code     2  stm32f7xx_it.o(i.PendSV_Handler)
    SDRAM_Init                               0x08003135   Thumb Code    16  my_sdram.o(i.SDRAM_Init)
    SDRAM_Initialization_Sequence            0x08003149   Thumb Code    72  my_sdram.o(i.SDRAM_Initialization_Sequence)
    SDRAM_Send_Cmd                           0x08003195   Thumb Code    50  my_sdram.o(i.SDRAM_Send_Cmd)
    SVC_Handler                              0x080031cd   Thumb Code     2  stm32f7xx_it.o(i.SVC_Handler)
    SysTick_Handler                          0x080031cf   Thumb Code     4  stm32f7xx_it.o(i.SysTick_Handler)
    SystemClock_Config                       0x080031d5   Thumb Code   152  main.o(i.SystemClock_Config)
    SystemInit                               0x08003275   Thumb Code    12  system_stm32f7xx.o(i.SystemInit)
    TIM3_IRQHandler                          0x08003285   Thumb Code     6  stm32f7xx_it.o(i.TIM3_IRQHandler)
    TIM_Base_SetConfig                       0x08003291   Thumb Code   158  stm32f7xx_hal_tim.o(i.TIM_Base_SetConfig)
    TIM_ETR_SetConfig                        0x0800335d   Thumb Code    18  stm32f7xx_hal_tim.o(i.TIM_ETR_SetConfig)
    UsageFault_Handler                       0x080033c5   Thumb Code     2  stm32f7xx_it.o(i.UsageFault_Handler)
    _is_digit                                0x080033e9   Thumb Code    14  __printf_wp.o(i._is_digit)
    demo_create                              0x080036d1   Thumb Code   328  demo.o(i.demo_create)
    lv_anim_core_init                        0x08004d4d   Thumb Code    34  lv_anim.o(i.lv_anim_core_init)
    lv_anim_create                           0x08004d7d   Thumb Code    68  lv_anim.o(i.lv_anim_create)
    lv_anim_del                              0x08004dc9   Thumb Code    86  lv_anim.o(i.lv_anim_del)
    lv_anim_path_linear                      0x08004e29   Thumb Code    38  lv_anim.o(i.lv_anim_path_linear)
    lv_anim_speed_to_time                    0x08004e4f   Thumb Code    38  lv_anim.o(i.lv_anim_speed_to_time)
    lv_area_get_size                         0x08004e81   Thumb Code    30  lv_area.o(i.lv_area_get_size)
    lv_area_intersect                        0x08004eb7   Thumb Code    82  lv_area.o(i.lv_area_intersect)
    lv_area_is_in                            0x08004f09   Thumb Code    58  lv_area.o(i.lv_area_is_in)
    lv_area_is_on                            0x08004f43   Thumb Code    56  lv_area.o(i.lv_area_is_on)
    lv_area_is_point_on                      0x08004f7b   Thumb Code    50  lv_area.o(i.lv_area_is_point_on)
    lv_area_join                             0x08004fad   Thumb Code    68  lv_area.o(i.lv_area_join)
    lv_area_set                              0x08004ff1   Thumb Code    14  lv_area.o(i.lv_area_set)
    lv_area_set_height                       0x08004fff   Thumb Code    10  lv_area.o(i.lv_area_set_height)
    lv_area_set_pos                          0x08005009   Thumb Code    46  lv_area.o(i.lv_area_set_pos)
    lv_area_set_width                        0x08005037   Thumb Code    10  lv_area.o(i.lv_area_set_width)
    lv_btn_create                            0x08005041   Thumb Code   242  lv_btn.o(i.lv_btn_create)
    lv_btn_get_state                         0x08005175   Thumb Code    14  lv_btn.o(i.lv_btn_get_state)
    lv_btn_get_toggle                        0x08005183   Thumb Code    14  lv_btn.o(i.lv_btn_get_toggle)
    lv_btn_set_state                         0x08005191   Thumb Code    44  lv_btn.o(i.lv_btn_set_state)
    lv_btn_set_style                         0x080051bd   Thumb Code    66  lv_btn.o(i.lv_btn_set_style)
    lv_btnm_clear_btn_ctrl                   0x0800536d   Thumb Code    44  lv_btnm.o(i.lv_btnm_clear_btn_ctrl)
    lv_btnm_clear_btn_ctrl_all               0x08005399   Thumb Code    42  lv_btnm.o(i.lv_btnm_clear_btn_ctrl_all)
    lv_btnm_create                           0x080053c5   Thumb Code   270  lv_btnm.o(i.lv_btnm_create)
    lv_btnm_get_active_btn                   0x08005761   Thumb Code    10  lv_btnm.o(i.lv_btnm_get_active_btn)
    lv_btnm_get_btn_ctrl                     0x0800576b   Thumb Code    34  lv_btnm.o(i.lv_btnm_get_btn_ctrl)
    lv_btnm_get_map_array                    0x0800578d   Thumb Code    10  lv_btnm.o(i.lv_btnm_get_map_array)
    lv_btnm_get_style                        0x08005797   Thumb Code    58  lv_btnm.o(i.lv_btnm_get_style)
    lv_btnm_set_btn_ctrl                     0x080057d1   Thumb Code    44  lv_btnm.o(i.lv_btnm_set_btn_ctrl)
    lv_btnm_set_map                          0x080057fd   Thumb Code   528  lv_btnm.o(i.lv_btnm_set_map)
    lv_btnm_set_style                        0x08005a11   Thumb Code    68  lv_btnm.o(i.lv_btnm_set_style)
    lv_circ_cont                             0x08005dc9   Thumb Code    20  lv_circ.o(i.lv_circ_cont)
    lv_circ_init                             0x08005ddd   Thumb Code    16  lv_circ.o(i.lv_circ_init)
    lv_circ_next                             0x08005ded   Thumb Code    48  lv_circ.o(i.lv_circ_next)
    lv_cont_create                           0x08005f1d   Thumb Code   172  lv_cont.o(i.lv_cont_create)
    lv_cont_get_fit_left                     0x08005fd5   Thumb Code    14  lv_cont.o(i.lv_cont_get_fit_left)
    lv_cont_get_fit_top                      0x08005fe3   Thumb Code    14  lv_cont.o(i.lv_cont_get_fit_top)
    lv_cont_get_layout                       0x08005ff1   Thumb Code    14  lv_cont.o(i.lv_cont_get_layout)
    lv_cont_set_fit4                         0x08006833   Thumb Code   100  lv_cont.o(i.lv_cont_set_fit4)
    lv_cont_set_layout                       0x08006897   Thumb Code    42  lv_cont.o(i.lv_cont_set_layout)
    lv_disp_buf_init                         0x08006951   Thumb Code    30  lv_hal_disp.o(i.lv_disp_buf_init)
    lv_disp_drv_init                         0x08006971   Thumb Code    54  lv_hal_disp.o(i.lv_disp_drv_init)
    lv_disp_drv_register                     0x080069ad   Thumb Code   154  lv_hal_disp.o(i.lv_disp_drv_register)
    lv_disp_flush_ready                      0x08006a59   Thumb Code    12  lv_hal_disp.o(i.lv_disp_flush_ready)
    lv_disp_get_antialiasing                 0x08006a65   Thumb Code    18  lv_hal_disp.o(i.lv_disp_get_antialiasing)
    lv_disp_get_buf                          0x08006a7d   Thumb Code     4  lv_hal_disp.o(i.lv_disp_get_buf)
    lv_disp_get_default                      0x08006a81   Thumb Code     6  lv_hal_disp.o(i.lv_disp_get_default)
    lv_disp_get_hor_res                      0x08006a8d   Thumb Code    30  lv_hal_disp.o(i.lv_disp_get_hor_res)
    lv_disp_get_inv_buf_size                 0x08006ab1   Thumb Code    10  lv_hal_disp.o(i.lv_disp_get_inv_buf_size)
    lv_disp_get_layer_sys                    0x08006abb   Thumb Code    16  lv_disp.o(i.lv_disp_get_layer_sys)
    lv_disp_get_layer_top                    0x08006acb   Thumb Code    16  lv_disp.o(i.lv_disp_get_layer_top)
    lv_disp_get_scr_act                      0x08006adb   Thumb Code    16  lv_disp.o(i.lv_disp_get_scr_act)
    lv_disp_get_ver_res                      0x08006aed   Thumb Code    32  lv_hal_disp.o(i.lv_disp_get_ver_res)
    lv_disp_is_double_buf                    0x08006b11   Thumb Code    18  lv_hal_disp.o(i.lv_disp_is_double_buf)
    lv_disp_is_true_double_buf               0x08006b23   Thumb Code    36  lv_hal_disp.o(i.lv_disp_is_true_double_buf)
    lv_disp_pop_from_inv_buf                 0x08006b47   Thumb Code    24  lv_hal_disp.o(i.lv_disp_pop_from_inv_buf)
    lv_disp_refr_task                        0x08006b61   Thumb Code   262  lv_refr.o(i.lv_disp_refr_task)
    lv_draw_aa_get_opa                       0x08006c6d   Thumb Code    48  lv_draw.o(i.lv_draw_aa_get_opa)
    lv_draw_fill                             0x08006cdb   Thumb Code   114  lv_draw_basic.o(i.lv_draw_fill)
    lv_draw_free_buf                         0x08006d4d   Thumb Code    24  lv_draw.o(i.lv_draw_free_buf)
    lv_draw_get_buf                          0x08006d6d   Thumb Code    50  lv_draw.o(i.lv_draw_get_buf)
    lv_draw_img                              0x08006da9   Thumb Code    80  lv_draw_img.o(i.lv_draw_img)
    lv_draw_label                            0x08006e05   Thumb Code  1070  lv_draw_label.o(i.lv_draw_label)
    lv_draw_letter                           0x08007241   Thumb Code   680  lv_draw_basic.o(i.lv_draw_letter)
    lv_draw_map                              0x08007501   Thumb Code   680  lv_draw_basic.o(i.lv_draw_map)
    lv_draw_px                               0x080077a9   Thumb Code   168  lv_draw_basic.o(i.lv_draw_px)
    lv_draw_rect                             0x08007851   Thumb Code   154  lv_draw_rect.o(i.lv_draw_rect)
    lv_event_get_data                        0x080097b9   Thumb Code     6  lv_obj.o(i.lv_event_get_data)
    lv_event_send                            0x080097e1   Thumb Code    26  lv_obj.o(i.lv_event_send)
    lv_event_send_func                       0x080097fd   Thumb Code   112  lv_obj.o(i.lv_event_send_func)
    lv_font_get_bitmap_fmt_txt               0x08009871   Thumb Code    32  lv_font_fmt_txt.o(i.lv_font_get_bitmap_fmt_txt)
    lv_font_get_glyph_bitmap                 0x08009891   Thumb Code     4  lv_font.o(i.lv_font_get_glyph_bitmap)
    lv_font_get_glyph_dsc                    0x08009895   Thumb Code    10  lv_font.o(i.lv_font_get_glyph_dsc)
    lv_font_get_glyph_dsc_fmt_txt            0x0800989f   Thumb Code   104  lv_font_fmt_txt.o(i.lv_font_get_glyph_dsc_fmt_txt)
    lv_font_get_glyph_width                  0x08009907   Thumb Code    22  lv_font.o(i.lv_font_get_glyph_width)
    lv_group_add_obj                         0x0800991d   Thumb Code    86  lv_group.o(i.lv_group_add_obj)
    lv_group_focus_next                      0x08009975   Thumb Code     8  lv_group.o(i.lv_group_focus_next)
    lv_group_focus_obj                       0x08009985   Thumb Code   154  lv_group.o(i.lv_group_focus_obj)
    lv_group_focus_prev                      0x08009a21   Thumb Code     8  lv_group.o(i.lv_group_focus_prev)
    lv_group_get_click_focus                 0x08009a31   Thumb Code    14  lv_group.o(i.lv_group_get_click_focus)
    lv_group_get_editing                     0x08009a3f   Thumb Code    14  lv_group.o(i.lv_group_get_editing)
    lv_group_get_focused                     0x08009a4d   Thumb Code    14  lv_group.o(i.lv_group_get_focused)
    lv_group_init                            0x08009a5d   Thumb Code     8  lv_group.o(i.lv_group_init)
    lv_group_mod_style                       0x08009a69   Thumb Code    38  lv_group.o(i.lv_group_mod_style)
    lv_group_remove_obj                      0x08009ac1   Thumb Code   124  lv_group.o(i.lv_group_remove_obj)
    lv_group_send_data                       0x08009b3d   Thumb Code    38  lv_group.o(i.lv_group_send_data)
    lv_group_set_editing                     0x08009b63   Thumb Code    70  lv_group.o(i.lv_group_set_editing)
    lv_img_cache_invalidate_src              0x08009ba9   Thumb Code    74  lv_img_cache.o(i.lv_img_cache_invalidate_src)
    lv_img_cache_open                        0x08009bfd   Thumb Code   240  lv_img_cache.o(i.lv_img_cache_open)
    lv_img_cache_set_size                    0x08009cf9   Thumb Code    90  lv_img_cache.o(i.lv_img_cache_set_size)
    lv_img_color_format_get_px_size          0x08009d5d   Thumb Code    52  lv_draw_img.o(i.lv_img_color_format_get_px_size)
    lv_img_color_format_has_alpha            0x08009d91   Thumb Code    38  lv_draw_img.o(i.lv_img_color_format_has_alpha)
    lv_img_color_format_is_chroma_keyed      0x08009db7   Thumb Code    24  lv_draw_img.o(i.lv_img_color_format_is_chroma_keyed)
    lv_img_create                            0x08009dd1   Thumb Code   190  lv_img.o(i.lv_img_create)
    lv_img_decoder_built_in_close            0x08009ea1   Thumb Code    30  lv_img_decoder.o(i.lv_img_decoder_built_in_close)
    lv_img_decoder_built_in_info             0x08009ebf   Thumb Code    94  lv_img_decoder.o(i.lv_img_decoder_built_in_info)
    lv_img_decoder_built_in_open             0x0800a1b9   Thumb Code   216  lv_img_decoder.o(i.lv_img_decoder_built_in_open)
    lv_img_decoder_built_in_read_line        0x0800a291   Thumb Code    94  lv_img_decoder.o(i.lv_img_decoder_built_in_read_line)
    lv_img_decoder_close                     0x0800a2ef   Thumb Code    18  lv_img_decoder.o(i.lv_img_decoder_close)
    lv_img_decoder_create                    0x0800a301   Thumb Code    24  lv_img_decoder.o(i.lv_img_decoder_create)
    lv_img_decoder_get_info                  0x0800a31d   Thumb Code    62  lv_img_decoder.o(i.lv_img_decoder_get_info)
    lv_img_decoder_init                      0x0800a361   Thumb Code    36  lv_img_decoder.o(i.lv_img_decoder_init)
    lv_img_decoder_open                      0x0800a399   Thumb Code   106  lv_img_decoder.o(i.lv_img_decoder_open)
    lv_img_decoder_read_line                 0x0800a409   Thumb Code    38  lv_img_decoder.o(i.lv_img_decoder_read_line)
    lv_img_get_auto_size                     0x0800a6dd   Thumb Code    14  lv_img.o(i.lv_img_get_auto_size)
    lv_img_get_src                           0x0800a6eb   Thumb Code    10  lv_img.o(i.lv_img_get_src)
    lv_img_set_src                           0x0800a6f5   Thumb Code   278  lv_img.o(i.lv_img_set_src)
    lv_img_src_get_type                      0x0800a899   Thumb Code    36  lv_draw_img.o(i.lv_img_src_get_type)
    lv_indev_drv_init                        0x0800a8bd   Thumb Code    34  lv_hal_indev.o(i.lv_indev_drv_init)
    lv_indev_drv_register                    0x0800a8e1   Thumb Code    84  lv_hal_indev.o(i.lv_indev_drv_register)
    lv_indev_get_act                         0x0800a93d   Thumb Code     6  lv_indev.o(i.lv_indev_get_act)
    lv_indev_get_next                        0x0800a949   Thumb Code    16  lv_hal_indev.o(i.lv_indev_get_next)
    lv_indev_get_obj_act                     0x0800a95d   Thumb Code     6  lv_indev.o(i.lv_indev_get_obj_act)
    lv_indev_get_point                       0x0800a969   Thumb Code    28  lv_indev.o(i.lv_indev_get_point)
    lv_indev_get_type                        0x0800a985   Thumb Code     8  lv_indev.o(i.lv_indev_get_type)
    lv_indev_get_vect                        0x0800a98d   Thumb Code    32  lv_indev.o(i.lv_indev_get_vect)
    lv_indev_init                            0x0800a9ad   Thumb Code     6  lv_indev.o(i.lv_indev_init)
    lv_indev_is_dragging                     0x0800a9b3   Thumb Code    28  lv_indev.o(i.lv_indev_is_dragging)
    lv_indev_read                            0x0800a9cf   Thumb Code    50  lv_hal_indev.o(i.lv_indev_read)
    lv_indev_read_task                       0x0800aa01   Thumb Code   284  lv_indev.o(i.lv_indev_read_task)
    lv_indev_reset                           0x0800ab21   Thumb Code    42  lv_indev.o(i.lv_indev_reset)
    lv_indev_reset_long_press                0x0800ab4b   Thumb Code    32  lv_indev.o(i.lv_indev_reset_long_press)
    lv_indev_set_button_points               0x0800ab6b   Thumb Code    10  lv_indev.o(i.lv_indev_set_button_points)
    lv_init                                  0x0800ab75   Thumb Code    72  lv_obj.o(i.lv_init)
    lv_inv_area                              0x0800abc9   Thumb Code   174  lv_refr.o(i.lv_inv_area)
    lv_label_create                          0x0800ac7d   Thumb Code   358  lv_label.o(i.lv_label_create)
    lv_label_get_align                       0x0800b017   Thumb Code    14  lv_label.o(i.lv_label_get_align)
    lv_label_get_body_draw                   0x0800b025   Thumb Code    14  lv_label.o(i.lv_label_get_body_draw)
    lv_label_get_letter_on                   0x0800b035   Thumb Code   338  lv_label.o(i.lv_label_get_letter_on)
    lv_label_get_long_mode                   0x0800b191   Thumb Code    14  lv_label.o(i.lv_label_get_long_mode)
    lv_label_get_recolor                     0x0800b19f   Thumb Code    14  lv_label.o(i.lv_label_get_recolor)
    lv_label_get_text                        0x0800b1ad   Thumb Code    10  lv_label.o(i.lv_label_get_text)
    lv_label_set_align                       0x0800b571   Thumb Code    38  lv_label.o(i.lv_label_set_align)
    lv_label_set_body_draw                   0x0800b597   Thumb Code    44  lv_label.o(i.lv_label_set_body_draw)
    lv_label_set_long_mode                   0x0800b619   Thumb Code   122  lv_label.o(i.lv_label_set_long_mode)
    lv_label_set_recolor                     0x0800b6d1   Thumb Code    38  lv_label.o(i.lv_label_set_recolor)
    lv_label_set_static_text                 0x0800b6f7   Thumb Code    52  lv_label.o(i.lv_label_set_static_text)
    lv_label_set_text                        0x0800b72b   Thumb Code   110  lv_label.o(i.lv_label_set_text)
    lv_list_add_btn                          0x0800b891   Thumb Code   300  lv_list.o(i.lv_list_add_btn)
    lv_list_create                           0x0800bae9   Thumb Code   378  lv_list.o(i.lv_list_create)
    lv_list_get_btn_img                      0x0800bc8d   Thumb Code    68  lv_list.o(i.lv_list_get_btn_img)
    lv_list_get_btn_label                    0x0800bcd9   Thumb Code    68  lv_list.o(i.lv_list_get_btn_label)
    lv_list_get_btn_selected                 0x0800bd29   Thumb Code    10  lv_list.o(i.lv_list_get_btn_selected)
    lv_list_get_btn_text                     0x0800bd35   Thumb Code    20  lv_list.o(i.lv_list_get_btn_text)
    lv_list_get_next_btn                     0x0800bd4d   Thumb Code    46  lv_list.o(i.lv_list_get_next_btn)
    lv_list_get_prev_btn                     0x0800bd7b   Thumb Code    46  lv_list.o(i.lv_list_get_prev_btn)
    lv_list_set_btn_selected                 0x0800bde1   Thumb Code   100  lv_list.o(i.lv_list_set_btn_selected)
    lv_list_set_style                        0x0800be45   Thumb Code   158  lv_list.o(i.lv_list_set_style)
    lv_ll_chg_list                           0x0800c0a9   Thumb Code   104  lv_ll.o(i.lv_ll_chg_list)
    lv_ll_get_head                           0x0800c111   Thumb Code    12  lv_ll.o(i.lv_ll_get_head)
    lv_ll_get_next                           0x0800c11d   Thumb Code    18  lv_ll.o(i.lv_ll_get_next)
    lv_ll_get_prev                           0x0800c12f   Thumb Code    16  lv_ll.o(i.lv_ll_get_prev)
    lv_ll_get_tail                           0x0800c13f   Thumb Code    12  lv_ll.o(i.lv_ll_get_tail)
    lv_ll_init                               0x0800c14b   Thumb Code    20  lv_ll.o(i.lv_ll_init)
    lv_ll_ins_head                           0x0800c15f   Thumb Code    60  lv_ll.o(i.lv_ll_ins_head)
    lv_ll_ins_prev                           0x0800c19b   Thumb Code   102  lv_ll.o(i.lv_ll_ins_prev)
    lv_ll_ins_tail                           0x0800c201   Thumb Code    66  lv_ll.o(i.lv_ll_ins_tail)
    lv_ll_is_empty                           0x0800c243   Thumb Code    18  lv_ll.o(i.lv_ll_is_empty)
    lv_ll_move_before                        0x0800c255   Thumb Code    96  lv_ll.o(i.lv_ll_move_before)
    lv_ll_rem                                0x0800c2b5   Thumb Code   120  lv_ll.o(i.lv_ll_rem)
    lv_mem_alloc                             0x0800c32d   Thumb Code    86  lv_mem.o(i.lv_mem_alloc)
    lv_mem_free                              0x0800c389   Thumb Code    78  lv_mem.o(i.lv_mem_free)
    lv_mem_get_size                          0x0800c3dd   Thumb Code    22  lv_mem.o(i.lv_mem_get_size)
    lv_mem_init                              0x0800c3f9   Thumb Code    24  lv_mem.o(i.lv_mem_init)
    lv_mem_realloc                           0x0800c419   Thumb Code    84  lv_mem.o(i.lv_mem_realloc)
    lv_obj_align                             0x0800c46d   Thumb Code   524  lv_obj.o(i.lv_obj_align)
    lv_obj_align_origo                       0x0800c679   Thumb Code   284  lv_obj.o(i.lv_obj_align_origo)
    lv_obj_allocate_ext_attr                 0x0800c795   Thumb Code    14  lv_obj.o(i.lv_obj_allocate_ext_attr)
    lv_obj_clean                             0x0800c7a3   Thumb Code    38  lv_obj.o(i.lv_obj_clean)
    lv_obj_clear_protect                     0x0800c7c9   Thumb Code    12  lv_obj.o(i.lv_obj_clear_protect)
    lv_obj_create                            0x0800c7d5   Thumb Code   572  lv_obj.o(i.lv_obj_create)
    lv_obj_del                               0x0800ca21   Thumb Code   216  lv_obj.o(i.lv_obj_del)
    lv_obj_get_auto_realign                  0x0800cba1   Thumb Code    10  lv_obj.o(i.lv_obj_get_auto_realign)
    lv_obj_get_child                         0x0800cbab   Thumb Code    14  lv_obj.o(i.lv_obj_get_child)
    lv_obj_get_child_back                    0x0800cbb9   Thumb Code    14  lv_obj.o(i.lv_obj_get_child_back)
    lv_obj_get_click                         0x0800cbc7   Thumb Code    10  lv_obj.o(i.lv_obj_get_click)
    lv_obj_get_coords                        0x0800cbd1   Thumb Code    10  lv_obj.o(i.lv_obj_get_coords)
    lv_obj_get_design_cb                     0x0800cbdb   Thumb Code     4  lv_obj.o(i.lv_obj_get_design_cb)
    lv_obj_get_disp                          0x0800cbe1   Thumb Code    64  lv_obj.o(i.lv_obj_get_disp)
    lv_obj_get_drag                          0x0800cc25   Thumb Code    10  lv_obj.o(i.lv_obj_get_drag)
    lv_obj_get_drag_dir                      0x0800cc2f   Thumb Code    10  lv_obj.o(i.lv_obj_get_drag_dir)
    lv_obj_get_drag_parent                   0x0800cc39   Thumb Code    10  lv_obj.o(i.lv_obj_get_drag_parent)
    lv_obj_get_drag_throw                    0x0800cc43   Thumb Code    10  lv_obj.o(i.lv_obj_get_drag_throw)
    lv_obj_get_ext_attr                      0x0800cc4d   Thumb Code     4  lv_obj.o(i.lv_obj_get_ext_attr)
    lv_obj_get_group                         0x0800cc51   Thumb Code     4  lv_obj.o(i.lv_obj_get_group)
    lv_obj_get_height                        0x0800cc55   Thumb Code    12  lv_obj.o(i.lv_obj_get_height)
    lv_obj_get_height_fit                    0x0800cc61   Thumb Code    28  lv_obj.o(i.lv_obj_get_height_fit)
    lv_obj_get_hidden                        0x0800cc7d   Thumb Code    10  lv_obj.o(i.lv_obj_get_hidden)
    lv_obj_get_opa_scale                     0x0800cc89   Thumb Code    28  lv_obj.o(i.lv_obj_get_opa_scale)
    lv_obj_get_parent                        0x0800cca5   Thumb Code     4  lv_obj.o(i.lv_obj_get_parent)
    lv_obj_get_screen                        0x0800cca9   Thumb Code    12  lv_obj.o(i.lv_obj_get_screen)
    lv_obj_get_signal_cb                     0x0800ccb5   Thumb Code     4  lv_obj.o(i.lv_obj_get_signal_cb)
    lv_obj_get_style                         0x0800ccb9   Thumb Code    88  lv_obj.o(i.lv_obj_get_style)
    lv_obj_get_type                          0x0800cd15   Thumb Code    84  lv_obj.o(i.lv_obj_get_type)
    lv_obj_get_width                         0x0800cd69   Thumb Code    12  lv_obj.o(i.lv_obj_get_width)
    lv_obj_get_width_fit                     0x0800cd75   Thumb Code    28  lv_obj.o(i.lv_obj_get_width_fit)
    lv_obj_get_x                             0x0800cd91   Thumb Code    12  lv_obj.o(i.lv_obj_get_x)
    lv_obj_get_y                             0x0800cd9d   Thumb Code    12  lv_obj.o(i.lv_obj_get_y)
    lv_obj_invalidate                        0x0800cda9   Thumb Code   164  lv_obj.o(i.lv_obj_invalidate)
    lv_obj_is_focused                        0x0800ce4d   Thumb Code    24  lv_obj.o(i.lv_obj_is_focused)
    lv_obj_is_protected                      0x0800ce65   Thumb Code    12  lv_obj.o(i.lv_obj_is_protected)
    lv_obj_move_foreground                   0x0800ce71   Thumb Code    56  lv_obj.o(i.lv_obj_move_foreground)
    lv_obj_realign                           0x0800cea9   Thumb Code    38  lv_obj.o(i.lv_obj_realign)
    lv_obj_refresh_ext_draw_pad              0x0800cecf   Thumb Code    28  lv_obj.o(i.lv_obj_refresh_ext_draw_pad)
    lv_obj_refresh_style                     0x0800ceeb   Thumb Code    28  lv_obj.o(i.lv_obj_refresh_style)
    lv_obj_set_click                         0x0800cf07   Thumb Code    14  lv_obj.o(i.lv_obj_set_click)
    lv_obj_set_design_cb                     0x0800cf15   Thumb Code     4  lv_obj.o(i.lv_obj_set_design_cb)
    lv_obj_set_drag                          0x0800cf19   Thumb Code    28  lv_obj.o(i.lv_obj_set_drag)
    lv_obj_set_drag_parent                   0x0800cf35   Thumb Code    14  lv_obj.o(i.lv_obj_set_drag_parent)
    lv_obj_set_drag_throw                    0x0800cf43   Thumb Code    14  lv_obj.o(i.lv_obj_set_drag_throw)
    lv_obj_set_event_cb                      0x0800cf51   Thumb Code     4  lv_obj.o(i.lv_obj_set_event_cb)
    lv_obj_set_height                        0x0800cf55   Thumb Code    22  lv_obj.o(i.lv_obj_set_height)
    lv_obj_set_hidden                        0x0800cf6b   Thumb Code    56  lv_obj.o(i.lv_obj_set_hidden)
    lv_obj_set_parent                        0x0800cfa3   Thumb Code   100  lv_obj.o(i.lv_obj_set_parent)
    lv_obj_set_pos                           0x0800d007   Thumb Code   130  lv_obj.o(i.lv_obj_set_pos)
    lv_obj_set_protect                       0x0800d089   Thumb Code    12  lv_obj.o(i.lv_obj_set_protect)
    lv_obj_set_signal_cb                     0x0800d095   Thumb Code     4  lv_obj.o(i.lv_obj_set_signal_cb)
    lv_obj_set_size                          0x0800d099   Thumb Code   128  lv_obj.o(i.lv_obj_set_size)
    lv_obj_set_style                         0x0800d119   Thumb Code    20  lv_obj.o(i.lv_obj_set_style)
    lv_obj_set_width                         0x0800d12d   Thumb Code    24  lv_obj.o(i.lv_obj_set_width)
    lv_obj_set_x                             0x0800d145   Thumb Code    24  lv_obj.o(i.lv_obj_set_x)
    lv_obj_set_y                             0x0800d15d   Thumb Code    22  lv_obj.o(i.lv_obj_set_y)
    lv_page_create                           0x0800d1d1   Thumb Code   426  lv_page.o(i.lv_page_create)
    lv_page_focus                            0x0800d5b5   Thumb Code   432  lv_page.o(i.lv_page_focus)
    lv_page_get_anim_time                    0x0800d771   Thumb Code    10  lv_page.o(i.lv_page_get_anim_time)
    lv_page_get_scrl                         0x0800d77b   Thumb Code    10  lv_page.o(i.lv_page_get_scrl)
    lv_page_get_style                        0x0800d793   Thumb Code    52  lv_page.o(i.lv_page_get_style)
    lv_page_glue_obj                         0x0800d7c7   Thumb Code    22  lv_page.o(i.lv_page_glue_obj)
    lv_page_on_edge                          0x0800d7dd   Thumb Code   130  lv_page.o(i.lv_page_on_edge)
    lv_page_scroll_hor                       0x0800dbc1   Thumb Code    74  lv_page.o(i.lv_page_scroll_hor)
    lv_page_scroll_ver                       0x0800dc15   Thumb Code    74  lv_page.o(i.lv_page_scroll_ver)
    lv_page_set_anim_time                    0x0800e093   Thumb Code    12  lv_page.o(i.lv_page_set_anim_time)
    lv_page_set_sb_mode                      0x0800e09f   Thumb Code    76  lv_page.o(i.lv_page_set_sb_mode)
    lv_page_set_style                        0x0800e0eb   Thumb Code   104  lv_page.o(i.lv_page_set_style)
    lv_page_start_edge_flash                 0x0800e385   Thumb Code    86  lv_page.o(i.lv_page_start_edge_flash)
    lv_port_disp_init                        0x0800e3e9   Thumb Code    60  lv_port_disp.o(i.lv_port_disp_init)
    lv_port_indev_init                       0x0800e431   Thumb Code    40  lv_port_indev.o(i.lv_port_indev_init)
    lv_refr_get_disp_refreshing              0x0800e641   Thumb Code     6  lv_refr.o(i.lv_refr_get_disp_refreshing)
    lv_refr_init                             0x0800e6b1   Thumb Code     2  lv_refr.o(i.lv_refr_init)
    lv_style_copy                            0x0800e979   Thumb Code     6  lv_style.o(i.lv_style_copy)
    lv_style_init                            0x0800e981   Thumb Code  1308  lv_style.o(i.lv_style_init)
    lv_tabview_add_tab                       0x0800ee9d   Thumb Code   538  lv_tabview.o(i.lv_tabview_add_tab)
    lv_tabview_clean                         0x0800f0d1   Thumb Code    14  lv_tabview.o(i.lv_tabview_clean)
    lv_tabview_create                        0x0800f0e1   Thumb Code   578  lv_tabview.o(i.lv_tabview_create)
    lv_tabview_get_anim_time                 0x0800f345   Thumb Code    10  lv_tabview.o(i.lv_tabview_get_anim_time)
    lv_tabview_get_sliding                   0x0800f34f   Thumb Code    14  lv_tabview.o(i.lv_tabview_get_sliding)
    lv_tabview_get_style                     0x0800f35d   Thumb Code    76  lv_tabview.o(i.lv_tabview_get_style)
    lv_tabview_get_tab                       0x0800f3a9   Thumb Code    46  lv_tabview.o(i.lv_tabview_get_tab)
    lv_tabview_get_tab_act                   0x0800f3d7   Thumb Code    10  lv_tabview.o(i.lv_tabview_get_tab_act)
    lv_tabview_set_style                     0x0800f3e1   Thumb Code   160  lv_tabview.o(i.lv_tabview_set_style)
    lv_tabview_set_tab_act                   0x0800f481   Thumb Code   502  lv_tabview.o(i.lv_tabview_set_tab_act)
    lv_task_core_init                        0x0800f7c9   Thumb Code    18  lv_task.o(i.lv_task_core_init)
    lv_task_create                           0x0800f7e5   Thumb Code    40  lv_task.o(i.lv_task_create)
    lv_task_create_basic                     0x0800f80d   Thumb Code   114  lv_task.o(i.lv_task_create_basic)
    lv_task_del                              0x0800f889   Thumb Code    34  lv_task.o(i.lv_task_del)
    lv_task_handler                          0x0800f8fd   Thumb Code   200  lv_task.o(i.lv_task_handler)
    lv_task_ready                            0x0800f9d1   Thumb Code    18  lv_task.o(i.lv_task_ready)
    lv_task_set_prio                         0x0800f9e5   Thumb Code    84  lv_task.o(i.lv_task_set_prio)
    lv_theme_get_current                     0x0800fa3d   Thumb Code    12  lv_theme.o(i.lv_theme_get_current)
    lv_tick_elaps                            0x0800fa51   Thumb Code    12  lv_hal_tick.o(i.lv_tick_elaps)
    lv_tick_get                              0x0800fa5d   Thumb Code    16  lv_hal_tick.o(i.lv_tick_get)
    lv_tick_inc                              0x0800fa71   Thumb Code    14  lv_hal_tick.o(i.lv_tick_inc)
    lv_txt_get_next_line                     0x0800fa85   Thumb Code   234  lv_txt.o(i.lv_txt_get_next_line)
    lv_txt_get_size                          0x0800fb7d   Thumb Code   176  lv_txt.o(i.lv_txt_get_size)
    lv_txt_get_width                         0x0800fc2d   Thumb Code   130  lv_txt.o(i.lv_txt_get_width)
    lv_txt_is_cmd                            0x0800fcb5   Thumb Code    58  lv_txt.o(i.lv_txt_is_cmd)
    lv_utils_bsearch                         0x0800fe7d   Thumb Code    76  lv_utils.o(i.lv_utils_bsearch)
    main                                     0x0800fec9   Thumb Code    62  main.o(i.main)
    _fp_init                                 0x080108fd   Thumb Code    10  fpinit.o(x$fpl$fpinit)
    __fplib_config_fpu_vfp                   0x08010905   Thumb Code     0  fpinit.o(x$fpl$fpinit)
    __fplib_config_pureend_doubles           0x08010905   Thumb Code     0  fpinit.o(x$fpl$fpinit)
    AHBPrescTable                            0x08010906   Data          16  system_stm32f7xx.o(.constdata)
    img_bubble_pattern_map                   0x08012d42   Data       224640  img_bubble_pattern.o(.constdata)
    Region$$Table$$Base                      0x08049b00   Number         0  anon$$obj.o(Region$$Table)
    Region$$Table$$Limit                     0x08049b20   Number         0  anon$$obj.o(Region$$Table)
    uwTickFreq                               0x20000008   Data           1  stm32f7xx_hal.o(.data)
    uwTickPrio                               0x2000000c   Data           4  stm32f7xx_hal.o(.data)
    uwTick                                   0x20000010   Data           4  stm32f7xx_hal.o(.data)
    SystemCoreClock                          0x20000014   Data           4  system_stm32f7xx.o(.data)
    lv_font_roboto_16                        0x20000c1c   Data          16  lv_font_roboto_16.o(.data)
    _lv_img_cache_array                      0x20000c40   Data           4  lv_gc.o(.data)
    _lv_task_act                             0x20000c44   Data           4  lv_gc.o(.data)
    _lv_draw_buf                             0x20000c48   Data           4  lv_gc.o(.data)
    lv_txt_encoded_size                      0x20000c68   Data           4  lv_txt.o(.data)
    lv_txt_encoded_next                      0x20000c6c   Data           4  lv_txt.o(.data)
    lv_txt_encoded_prev                      0x20000c70   Data           4  lv_txt.o(.data)
    lv_txt_encoded_get_byte_id               0x20000c74   Data           4  lv_txt.o(.data)
    lv_encoded_get_char_id                   0x20000c78   Data           4  lv_txt.o(.data)
    lv_txt_get_encoded_length                0x20000c7c   Data           4  lv_txt.o(.data)
    indev_button                             0x20000ce8   Data           4  lv_port_indev.o(.data)
    img_bubble_pattern                       0x20000cf0   Data          12  img_bubble_pattern.o(.data)
    hadc1                                    0x20000cfc   Data          72  adc.o(.bss)
    hdma2d                                   0x20000d44   Data          88  dma2d.o(.bss)
    hsdram1                                  0x20000d9c   Data          52  fmc.o(.bss)
    hltdc                                    0x20000dd0   Data         168  ltdc.o(.bss)
    htim3                                    0x20000e78   Data          76  tim.o(.bss)
    LCD                                      0x20000ec4   Data          20  my_lcd.o(.bss)
    lv_style_scr                             0x20000ed8   Data          60  lv_style.o(.bss)
    lv_style_transp                          0x20000f14   Data          60  lv_style.o(.bss)
    lv_style_transp_fit                      0x20000f50   Data          60  lv_style.o(.bss)
    lv_style_transp_tight                    0x20000f8c   Data          60  lv_style.o(.bss)
    lv_style_plain                           0x20000fc8   Data          60  lv_style.o(.bss)
    lv_style_plain_color                     0x20001004   Data          60  lv_style.o(.bss)
    lv_style_pretty                          0x20001040   Data          60  lv_style.o(.bss)
    lv_style_pretty_color                    0x2000107c   Data          60  lv_style.o(.bss)
    lv_style_btn_rel                         0x200010b8   Data          60  lv_style.o(.bss)
    lv_style_btn_pr                          0x200010f4   Data          60  lv_style.o(.bss)
    lv_style_btn_tgl_rel                     0x20001130   Data          60  lv_style.o(.bss)
    lv_style_btn_tgl_pr                      0x2000116c   Data          60  lv_style.o(.bss)
    lv_style_btn_ina                         0x200011a8   Data          60  lv_style.o(.bss)
    _lv_task_ll                              0x200011e4   Data          12  lv_gc.o(.bss)
    _lv_disp_ll                              0x200011f0   Data          12  lv_gc.o(.bss)
    _lv_indev_ll                             0x200011fc   Data          12  lv_gc.o(.bss)
    _lv_anim_ll                              0x20001208   Data          12  lv_gc.o(.bss)
    _lv_group_ll                             0x20001214   Data          12  lv_gc.o(.bss)
    _lv_img_defoder_ll                       0x20001220   Data          12  lv_gc.o(.bss)
    __libspace_start                         0x20051b7c   Data          96  libspace.o(.bss)
    __temporary_stack_top$libspace           0x20051bdc   Data           0  libspace.o(.bss)



==============================================================================

Memory Map of the image

  Image Entry point : 0x080001f9

  Load Region LR_IROM1 (Base: 0x08000000, Size: 0x0004a81c, Max: 0x00100000, ABSOLUTE, COMPRESSED[0x0004a1a8])

    Execution Region ER_IROM1 (Exec base: 0x08000000, Load base: 0x08000000, Size: 0x00049b20, Max: 0x00100000, ABSOLUTE)

    Exec Addr    Load Addr    Size         Type   Attr      Idx    E Section Name        Object

    0x08000000   0x08000000   0x000001f8   Data   RO            3    RESET               startup_stm32f767xx.o
    0x080001f8   0x080001f8   0x00000008   Code   RO        12848  * !!!main             c_w.l(__main.o)
    0x08000200   0x08000200   0x00000034   Code   RO        13076    !!!scatter          c_w.l(__scatter.o)
    0x08000234   0x08000234   0x0000005a   Code   RO        13074    !!dczerorl2         c_w.l(__dczerorl2.o)
    0x0800028e   0x0800028e   0x00000002   PAD
    0x08000290   0x08000290   0x0000001c   Code   RO        13078    !!handler_zi        c_w.l(__scatter_zi.o)
    0x080002ac   0x080002ac   0x00000000   Code   RO        12829    .ARM.Collect$$_printf_percent$$00000000  c_w.l(_printf_percent.o)
    0x080002ac   0x080002ac   0x00000006   Code   RO        12827    .ARM.Collect$$_printf_percent$$00000009  c_w.l(_printf_d.o)
    0x080002b2   0x080002b2   0x00000006   Code   RO        12826    .ARM.Collect$$_printf_percent$$00000013  c_w.l(_printf_c.o)
    0x080002b8   0x080002b8   0x00000004   Code   RO        12867    .ARM.Collect$$_printf_percent$$00000017  c_w.l(_printf_percent_end.o)
    0x080002bc   0x080002bc   0x00000002   Code   RO        12945    .ARM.Collect$$libinit$$00000000  c_w.l(libinit.o)
    0x080002be   0x080002be   0x00000004   Code   RO        12946    .ARM.Collect$$libinit$$00000001  c_w.l(libinit2.o)
    0x080002c2   0x080002c2   0x00000000   Code   RO        12949    .ARM.Collect$$libinit$$00000004  c_w.l(libinit2.o)
    0x080002c2   0x080002c2   0x00000000   Code   RO        12952    .ARM.Collect$$libinit$$0000000A  c_w.l(libinit2.o)
    0x080002c2   0x080002c2   0x00000000   Code   RO        12954    .ARM.Collect$$libinit$$0000000C  c_w.l(libinit2.o)
    0x080002c2   0x080002c2   0x00000000   Code   RO        12956    .ARM.Collect$$libinit$$0000000E  c_w.l(libinit2.o)
    0x080002c2   0x080002c2   0x00000000   Code   RO        12959    .ARM.Collect$$libinit$$00000011  c_w.l(libinit2.o)
    0x080002c2   0x080002c2   0x00000000   Code   RO        12961    .ARM.Collect$$libinit$$00000013  c_w.l(libinit2.o)
    0x080002c2   0x080002c2   0x00000000   Code   RO        12963    .ARM.Collect$$libinit$$00000015  c_w.l(libinit2.o)
    0x080002c2   0x080002c2   0x00000000   Code   RO        12965    .ARM.Collect$$libinit$$00000017  c_w.l(libinit2.o)
    0x080002c2   0x080002c2   0x00000000   Code   RO        12967    .ARM.Collect$$libinit$$00000019  c_w.l(libinit2.o)
    0x080002c2   0x080002c2   0x00000000   Code   RO        12969    .ARM.Collect$$libinit$$0000001B  c_w.l(libinit2.o)
    0x080002c2   0x080002c2   0x00000000   Code   RO        12971    .ARM.Collect$$libinit$$0000001D  c_w.l(libinit2.o)
    0x080002c2   0x080002c2   0x00000000   Code   RO        12973    .ARM.Collect$$libinit$$0000001F  c_w.l(libinit2.o)
    0x080002c2   0x080002c2   0x00000000   Code   RO        12975    .ARM.Collect$$libinit$$00000021  c_w.l(libinit2.o)
    0x080002c2   0x080002c2   0x00000000   Code   RO        12977    .ARM.Collect$$libinit$$00000023  c_w.l(libinit2.o)
    0x080002c2   0x080002c2   0x00000000   Code   RO        12979    .ARM.Collect$$libinit$$00000025  c_w.l(libinit2.o)
    0x080002c2   0x080002c2   0x00000000   Code   RO        12983    .ARM.Collect$$libinit$$0000002C  c_w.l(libinit2.o)
    0x080002c2   0x080002c2   0x00000000   Code   RO        12985    .ARM.Collect$$libinit$$0000002E  c_w.l(libinit2.o)
    0x080002c2   0x080002c2   0x00000000   Code   RO        12987    .ARM.Collect$$libinit$$00000030  c_w.l(libinit2.o)
    0x080002c2   0x080002c2   0x00000000   Code   RO        12989    .ARM.Collect$$libinit$$00000032  c_w.l(libinit2.o)
    0x080002c2   0x080002c2   0x00000002   Code   RO        12990    .ARM.Collect$$libinit$$00000033  c_w.l(libinit2.o)
    0x080002c4   0x080002c4   0x00000002   Code   RO        13037    .ARM.Collect$$libshutdown$$00000000  c_w.l(libshutdown.o)
    0x080002c6   0x080002c6   0x00000000   Code   RO        13055    .ARM.Collect$$libshutdown$$00000002  c_w.l(libshutdown2.o)
    0x080002c6   0x080002c6   0x00000000   Code   RO        13057    .ARM.Collect$$libshutdown$$00000004  c_w.l(libshutdown2.o)
    0x080002c6   0x080002c6   0x00000000   Code   RO        13059    .ARM.Collect$$libshutdown$$00000006  c_w.l(libshutdown2.o)
    0x080002c6   0x080002c6   0x00000000   Code   RO        13062    .ARM.Collect$$libshutdown$$00000009  c_w.l(libshutdown2.o)
    0x080002c6   0x080002c6   0x00000000   Code   RO        13065    .ARM.Collect$$libshutdown$$0000000C  c_w.l(libshutdown2.o)
    0x080002c6   0x080002c6   0x00000000   Code   RO        13067    .ARM.Collect$$libshutdown$$0000000E  c_w.l(libshutdown2.o)
    0x080002c6   0x080002c6   0x00000000   Code   RO        13070    .ARM.Collect$$libshutdown$$00000011  c_w.l(libshutdown2.o)
    0x080002c6   0x080002c6   0x00000002   Code   RO        13071    .ARM.Collect$$libshutdown$$00000012  c_w.l(libshutdown2.o)
    0x080002c8   0x080002c8   0x00000000   Code   RO        12852    .ARM.Collect$$rtentry$$00000000  c_w.l(__rtentry.o)
    0x080002c8   0x080002c8   0x00000000   Code   RO        12869    .ARM.Collect$$rtentry$$00000002  c_w.l(__rtentry2.o)
    0x080002c8   0x080002c8   0x00000006   Code   RO        12881    .ARM.Collect$$rtentry$$00000004  c_w.l(__rtentry4.o)
    0x080002ce   0x080002ce   0x00000000   Code   RO        12871    .ARM.Collect$$rtentry$$00000009  c_w.l(__rtentry2.o)
    0x080002ce   0x080002ce   0x00000004   Code   RO        12872    .ARM.Collect$$rtentry$$0000000A  c_w.l(__rtentry2.o)
    0x080002d2   0x080002d2   0x00000000   Code   RO        12874    .ARM.Collect$$rtentry$$0000000C  c_w.l(__rtentry2.o)
    0x080002d2   0x080002d2   0x00000008   Code   RO        12875    .ARM.Collect$$rtentry$$0000000D  c_w.l(__rtentry2.o)
    0x080002da   0x080002da   0x00000002   Code   RO        12991    .ARM.Collect$$rtexit$$00000000  c_w.l(rtexit.o)
    0x080002dc   0x080002dc   0x00000000   Code   RO        13006    .ARM.Collect$$rtexit$$00000002  c_w.l(rtexit2.o)
    0x080002dc   0x080002dc   0x00000004   Code   RO        13007    .ARM.Collect$$rtexit$$00000003  c_w.l(rtexit2.o)
    0x080002e0   0x080002e0   0x00000006   Code   RO        13008    .ARM.Collect$$rtexit$$00000004  c_w.l(rtexit2.o)
    0x080002e6   0x080002e6   0x00000002   PAD
    0x080002e8   0x080002e8   0x00000040   Code   RO            4    .text               startup_stm32f767xx.o
    0x08000328   0x08000328   0x000000ee   Code   RO        12792    .text               c_w.l(lludivv7m.o)
    0x08000416   0x08000416   0x00000002   PAD
    0x08000418   0x08000418   0x00000028   Code   RO        12796    .text               c_w.l(noretval__2sprintf.o)
    0x08000440   0x08000440   0x00000052   Code   RO        12802    .text               c_w.l(_printf_str.o)
    0x08000492   0x08000492   0x00000002   PAD
    0x08000494   0x08000494   0x00000078   Code   RO        12804    .text               c_w.l(_printf_dec.o)
    0x0800050c   0x0800050c   0x00000188   Code   RO        12823    .text               c_w.l(__printf_flags_ss_wp.o)
    0x08000694   0x08000694   0x00000048   Code   RO        12830    .text               c_w.l(strcpy.o)
    0x080006dc   0x080006dc   0x0000003e   Code   RO        12832    .text               c_w.l(strlen.o)
    0x0800071a   0x0800071a   0x0000008a   Code   RO        12834    .text               c_w.l(rt_memcpy_v6.o)
    0x080007a4   0x080007a4   0x00000064   Code   RO        12836    .text               c_w.l(rt_memcpy_w.o)
    0x08000808   0x08000808   0x00000010   Code   RO        12838    .text               c_w.l(aeabi_memset.o)
    0x08000818   0x08000818   0x00000044   Code   RO        12840    .text               c_w.l(rt_memclr.o)
    0x0800085c   0x0800085c   0x0000004e   Code   RO        12842    .text               c_w.l(rt_memclr_w.o)
    0x080008aa   0x080008aa   0x00000002   PAD
    0x080008ac   0x080008ac   0x00000068   Code   RO        12844    .text               c_w.l(strcmpv7m_pel.o)
    0x08000914   0x08000914   0x00000006   Code   RO        12846    .text               c_w.l(heapauxi.o)
    0x0800091a   0x0800091a   0x000000b2   Code   RO        12857    .text               c_w.l(_printf_intcommon.o)
    0x080009cc   0x080009cc   0x00000030   Code   RO        12861    .text               c_w.l(_printf_char_common.o)
    0x080009fc   0x080009fc   0x0000000a   Code   RO        12863    .text               c_w.l(_sputc.o)
    0x08000a06   0x08000a06   0x0000002c   Code   RO        12865    .text               c_w.l(_printf_char.o)
    0x08000a32   0x08000a32   0x00000002   PAD
    0x08000a34   0x08000a34   0x00000008   Code   RO        12929    .text               c_w.l(libspace.o)
    0x08000a3c   0x08000a3c   0x0000004a   Code   RO        12932    .text               c_w.l(sys_stackheap_outer.o)
    0x08000a86   0x08000a86   0x00000012   Code   RO        12934    .text               c_w.l(exit.o)
    0x08000a98   0x08000a98   0x0000000c   Code   RO        13003    .text               c_w.l(sys_exit.o)
