:020000040800F2
:10000000E0210520E902000831310008F12900084B
:1000100021310008E10B0008C53300080000000092
:10002000000000000000000000000000CD310008CA
:10003000E30B00080000000033310008CF31000856
:100040000303000803030008030300080303000878
:100050000303000803030008030300080303000868
:100060000303000803030008030300080303000858
:100070000303000803030008030300080303000848
:100080000303000803030008030300080303000838
:100090000303000803030008030300080303000828
:1000A0000303000803030008030300080303000818
:1000B0000303000885320008030300080303000857
:1000C00003030008030300080303000803030008F8
:1000D00003030008030300080303000803030008E8
:1000E00003030008030300080303000803030008D8
:1000F00003030008030300080303000803030008C8
:1001000003030008030300080303000803030008B7
:1001100003030008030300080303000803030008A7
:100120000303000803030008030300080303000897
:100130000303000803030008030300080303000887
:100140000303000803030008030300080303000877
:100150000303000803030008030300080303000867
:100160000303000803030008030300080303000857
:100170000303000803030008030300080000000055
:100180000303000803030008030300080303000837
:100190000303000803030008030300080303000827
:1001A0000303000803030008030300080303000817
:1001B0000303000803030008030300080303000807
:1001C0000303000803030008000000000303000805
:1001D00003030008030300080303000803030008E7
:1001E00003030008030300080303000803030008D7
:1001F000030300080303000800F002F800F064F8AD
:100200000AA090E8000C82448344AAF10107DA4571
:1002100001D100F059F8AFF2090EBAE80F0013F05F
:10022000010F18BFFB1A43F001031847D4980400CC
:10023000F49804000A444FF0000C10F8013B13F04E
:10024000070408BF10F8014B1D1108BF10F8015B2F
:10025000641E05D010F8016B641E01F8016BF9D122
:1002600013F0080F1EBF10F8014BAD1C0C1B09D179
:100270006D1E58BF01F801CBFAD505E014F8016BEB
:1002800001F8016B6D1EF9D59142D6D3704700007D
:100290000023002400250026103A28BF78C1FBD88F
:1002A000520728BF30C148BF0B607047642900F077
:1002B000F180632900F0B183002070471FB510F072
:1002C0001DFB1FBD10B510BD00F0B8FB1146FFF7B8
:1002D000F5FF0FF0F9FD00F0D6FB03B4FFF7F2FFD6
:1002E00003BC00F0D9FB00000948804709480047DB
:1002F000FEE7FEE7FEE7FEE7FEE7FEE7FEE7FEE7D6
:10030000FEE7FEE704480549054A064B7047000032
:1003100075320008F9010008E01B0520E0210520E6
:10032000E01D0520E01D052053EA020C00F0698065
:100330002DE9F04B4FF00006002B1FBFB3FA83F5F9
:1003400003FA05F424FA05F65E4012BF1643B2FA2A
:1003500082F502FA05F4C5F120051EBF22FA05FC5C
:1003600044EA0C04203556EA044C4FEA144418BF02
:10037000641C4FF000084FF00009904271EB030C31
:1003800039D3002919BFB1FA81F701FA07F6B0FA9B
:1003900080F700FA07F6C7F120071EBF20FA07FC16
:1003A00046EA0C062037B6FBF4FCA7EB0507103F26
:1003B00007F01F0BCBF120060CFA0BFB2CFA06F60C
:1003C00044BFB3460026202FA4BF5E464FF0000B6B
:1003D0005BEA060C08BF4FF0010B19EB0B09ABFBF6
:1003E000027C48EB0608C01B06FB02CC0BFB03CCCF
:1003F00071EB0C01C1E70B46024641464846BDE899
:10040000F08B13B54FF000004FF00001AFF3008008
:10041000BDE81C40704700000FB41CB5074B06AA8E
:100420007B4469460090059800F0D5FA00206946A3
:1004300000F0E4FA1CBC5DF814FB0000D9050000D4
:1004400070B50C460546012A05D02878800600D5EF
:10045000EA69002302E0012305E05B1C934202D21B
:10046000E05C0028F9D1A869E618C01AA861286ADA
:10047000184428622846AFF3008004E0D5E9012142
:1004800014F8010B9047B442F8D32846AFF300802C
:1004900070BD00002DE9F041064600241068752962
:1004A000314616A510D0AFF30080002802DA404292
:1004B00013A507E031688A0701D512A502E04907B4
:1004C00004D511A5012401E0AFF3008000210A2228
:1004D00006F1240709E0B0FBF2FCB0FBF2F302FBEB
:1004E0001C00303078541846491C0028F3D12346AC
:1004F0002A463046BDE8F04100F00FBA0000000087
:100500002D0000002B000000200000002DE9F05F0E
:10051000894604464FF0000ADFF874B1FB44C0F886
:1005200020A02046E1688847002874D0252806D0FE
:10053000D4E901219047206A401C2062F1E700269F
:100540005F462046E16888472028054607DB312DB5
:1005500005D2781910F8200C08B10643F1E7B0076E
:1005600001D526F00406C4F81CA00027C4F818A082
:100570002A2D09D0284602F037FF38B304EB87084C
:10058000303DC8F8185019E059F8041B204604EB18
:1005900087029161E1688847012F054618D1E0691B
:1005A000002820DA26F020061DE0D8F8180000EB1D
:1005B000800005EB40003038C8F818002046E1689C
:1005C0008847054602F010FF0028EED1012F0AD01F
:1005D0002E2D08D12046E16888477F1C0546022F52
:1005E00046F02006C4DBA069002803DA404246F04A
:1005F0000106A061F00701D026F010066C2D0BD08B
:10060000682D09D04C2D39D06A2D35D0742D35D0B8
:100610007A2D33D016E038E0E1682F46204688472F
:10062000B842054609D16C2F26D04FF48060E168AE
:10063000064320468847054604E06C2F1AD04FF445
:10064000807006430DB3A5F14100192802D820356A
:1006500046F400664A462946204626604E46FFF785
:1006600025FE80B101280BD0F61D26F0070000F111
:10067000080956E74020E4E78020D8E70020D6E7C5
:1006800006F104094DE7284652E7206ABDE8F09FCD
:10069000A295040040EA0103024630B59B0710D141
:1006A0004FF0013400E008C208C91D1B9D4315EA44
:1006B000C41FF8D013F0FF0102F8011B0DD01B0A74
:1006C000F8E711F8013B002B02F8013B05D011F8C7
:1006D000013B002B02F8013BF3D130BD10B5431CA8
:1006E00002E010F8011B71B18107FAD14FF001321D
:1006F00002C88C1A8C4314EAC211F9D0C01A0A0637
:1007000003D0C01E10BDC01A10BD0A0401D0801E47
:1007100010BD0902FCD0401E10BD032A40F23080FB
:1007200010F0030C00F0158011F8013BBCF1020F32
:10073000624498BF11F801CB00F8013B38BF11F8B3
:10074000013BA2F1040298BF00F801CB38BF00F8CA
:10075000013B11F0030300F02580083AC0F0088047
:1007600051F8043B083A51F804CBA0E80810F5E72B
:10077000121D5CBF51F8043B40F8043BAFF300800E
:10078000D20724BF11F8013B11F801CB48BF11F883
:10079000012B24BF00F8013B00F801CB48BF00F853
:1007A000012B704710B5203AC0F00B80B1E818500B
:1007B000203AA0E81850B1E81850A0E81850BFF44B
:1007C000F5AF5FEA027C24BFB1E81850A0E81850EA
:1007D00044BF18C918C0BDE810405FEA827C24BF3E
:1007E00051F8043B40F8043B08BF7047D20728BFCC
:1007F00031F8023B48BF11F8012B28BF20F8023B1B
:1008000048BF00F8012B704702F0FF0343EA0322C0
:1008100042EA024200F002B84FF000020429C0F0A0
:10082000128010F0030C00F01B80CCF1040CBCF122
:10083000020F18BF00F8012BA8BF20F8022BA1EB74
:100840000C0100F00DB85FEAC17C24BF00F8012B59
:1008500000F8012B48BF00F8012B70474FF0000251
:1008600000B5134694469646203922BFA0E80C50A6
:10087000A0E80C50B1F12001BFF4F7AF090728BF81
:10088000A0E80C5048BF0CC05DF804EB890028BFFD
:1008900040F8042B08BF704748BF20F8022B11F026
:1008A000804F18BF00F8012B704700004FF0013C4B
:1008B00050F8042B51F8043B9A4215D1A2EB0C03DB
:1008C000934313EACC130BD150F8042B51F8043B9B
:1008D0009A4209D1A2EB0C03934313EACC13E7D05D
:1008E0004FF00000704700BFD01A01BAB1FA81F191
:1008F00001F0180122FA01F0CB40C1F12001DBB276
:10090000C0B2C01A2CFA01F3D11A914311EAC311F3
:10091000E6D170477047704770472DE9F0470D46A4
:1009200099469246044600F124080168880604D5D9
:10093000E06921F01001216000E00120A84201DD02
:10094000471B00E00027A1697A1902EB0900081A89
:10095000A0612078C00602D42046AFF300800026B4
:1009600008E0D4E901211AF806009047206A401CEB
:10097000761C20624E45F4DB2078C0060AD520465E
:10098000AFF3008006E0D4E9012130209047206ACF
:10099000401C2062381EA7F10107F4DC07E0D4E90F
:1009A000012118F805009047206A401C2062281E8B
:1009B000A5F10105F3DC2046AFF3008020780006A6
:1009C00002D50220BDE8F0870120FBE701694A1C3F
:1009D00002610878704700B58FB0CDE90131002180
:1009E000059105497944CDE9031011466846FFF7A2
:1009F0008DFD0FB000BD0000E5FFFFFF0A6802F8A3
:100A0000010B0A60704710B5436913B1AFF3008062
:100A100001E0FFF715FD012010BD127800F124015F
:100A20000A7000224A700122EDE711684FF0FF3290
:100A3000E9E70000004870477C1B05207546FFF77A
:100A4000F9FFAE4605006946534620F0070085468B
:100A500018B020B5FFF756FCBDE820404FF0000667
:100A60004FF000074FF000084FF0000B21F0070196
:100A7000AC46ACE8C009ACE8C009ACE8C009ACE8D9
:100A8000C0098D46704710B50446AFF3008020467C
:100A9000BDE81040FFF721BC01491820ABBEFEE7BE
:100AA00026000200704700004A496FF0706210B5DE
:100AB000D1F8043323F44033C1F80433D1F80433BC
:100AC00044682343C1F8043301684B6823F48073FE
:100AD0004B60016803694C6844EA03234B6001687A
:100AE0004B6823F040734B60016884684B68234374
:100AF0004B6001688B6823F400638B600168C468F5
:100B00008B6823438B60816AD14201688A6822F036
:100B100070628A6001680DD0836A8A681A438A60AD
:100B200001688A6822F040528A600168C36A8A6854
:100B30001A4302E08A6822F040528A6001688A689B
:100B400022F002028A60016882698B6843EA4202ED
:100B50008A6090F820100029016811D01E4A4B6865
:100B600043F400634B6001684B6823F460434B60BF
:100B70000168446A4B6802EB443213434B6003E064
:100B80004A6822F400624A600168144BCA6A22F47F
:100B90007002CA620168848BCA6A03EB04531A4369
:100BA000CA6201688A6822F400728A60016890F85B
:100BB00030208B6843EA42228A6001688A6822F406
:100BC00080628A60016840698A6842EA80208860A1
:100BD00010BD00000020014000E0FFFF0000F0FF1A
:100BE000FEE7704772B6FEE7F0B5D1E90843CD697C
:100BF0000A68C2B10268254322F4F84213431D4338
:100C00000560D1E90125D1E903364C692A434568DD
:100C1000334389691A43EB0B2243DB030A431A432C
:100C200042600020F0BDD1E9012ED1E9036CD1E989
:100C3000057142EA0E0246EA0C0632433A430A4381
:100C400001682A4322431A436FF30E010A430260EC
:100C5000E7E7426943F6FE739A4342EA4101416184
:100C60000020704770B591E81C00C9686FF01F053F
:100C700006691A4305EB441444EA41210A4306EA93
:100C800045431A430261002070BD00002DE9F04F7A
:100C90008B8A6FF00F05264C4FF07F4BD1F80C90EC
:100CA00004EB03536FF0FF044FEA042A1AB386687B
:100CB0004FEA09321F4FA2F580521A433E40324399
:100CC0008260D1E900278E68521E05EB07150F8A56
:100CD0002A43C56804EB06240E7E0AEB0743224331
:100CE0001A430BEB06610A4305F070431A43C260D6
:100CF0000020BDE8F08F91E804110F4E521E0F8ABC
:100D000005EB08152A4304EB0C2C06EB09350E7E87
:100D100042EA0C022A4385680AEB074422431A433D
:100D20000BEB06610A4305F070431A438260DFE76C
:100D30000000F0FFFF0F0FFF00F0FFFF1FB50121C4
:100D4000072200238DE80F000848694600F024F8C8
:100D5000064800F0B3F905480A2100F05BF90348A2
:100D600000F0FAF804B080B210BD0000FC0C0020C6
:100D70002DE9F04100250E4607462C4605E0384691
:100D8000FFF7DCFF641C0544E4B2B442F7D3B5FBC3
:100D9000F6F080B2BDE8F081F8B50025009590F836
:100DA0003C20012A1DD0012280F83C20664C0723FC
:100DB000D6070A68092A22D9B24220D007680A3A1F
:100DC00002EB420CFA6803FA0CF39A43FA600A68E1
:100DD000A24208D102680B7AD76847EA0363D3605E
:100DE00022E00220F8BD07680A3A8B6802EB420253
:100DF000D7F80CC0934043EA0C03FB6014E007688B
:100E000002EB4202D7F810C093402CEA030CC7F85B
:100E100010C003680F788A68D3F810C007EB470743
:100E2000BA4042EA0C021A614A681F23072A16D206
:100E30000768521E02EB820C7A6B03FA0CF39A439A
:100E40007A6303680F790A887F1ED3F834C092B2A0
:100E500007EB8707BA4042EA0C025A632DE00768A5
:100E60000D2A15D2D21F02EB820C3A6B03FA0CF357
:100E70009A433A6302680F790B88FF1FD2F830C09B
:100E80009BB207EB8707BB4043EA0C03136314E0F4
:100E90000D3A02EB820CFA6A03FA0CF39A43FA62F7
:100EA00003680F790A880D3FD3F82CC092B207EB84
:100EB0008707BA4042EA0C02DA62244A0368934286
:100EC00008D10B68B34205D1D2F8043323F44003B0
:100ED000C2F80433036893420ED10B68122B0BD176
:100EE000D2F8043323F40003C2F80433D2F80433F5
:100EF00043F48003C2F804330368934220D10B68A3
:100F0000A34201D0112B1BD1D2F8043323F4800368
:100F1000C2F80433D2F8043343F40003C2F80433B4
:100F20000968A1420CD10A490A4A0968B1FBF2F1E9
:100F300001EB8101490000E0491E00910029FBD12D
:100F400080F83C500020F8BD120000100020014045
:100F50001400002040420F000068C06C704770B55C
:100F600004004FF0000503D0206C002610B107E00C
:100F7000012070BD204600F01DF8666484F83C60D6
:100F8000206CC00610D4206C20F4885040F0020081
:100F900020642046FFF788FD6664206C20F0020084
:100FA00040F00100206400E0012584F83C60284600
:100FB00070BD000010B586B0044614216846FFF7E6
:100FC0004DFC1149206888421BD11048016841F44A
:100FD00080710160006800F4807005900B4814383F
:100FE000016841F00101016000680321002200F066
:100FF0000100059020208DE807000548694600F0B3
:10100000E1F906B010BD0000002001404438024064
:10101000000002402DE9F041044600680D4600271B
:10102000816849050BD58068C00508D5206C84F817
:101030003C7040F0200020640120BDE8F08100F009
:10104000EFFA064613E0681C11D025B100F0E8FA6B
:10105000801BA8420BD920680068800707D4206C49
:1010600084F83C7040F0040020640320E5E7206829
:1010700000688007E7D521686FF012000860206CD7
:1010800040F4007020642068816811F0405F13D143
:10109000A16989B9C16A11F4700F02D08068400556
:1010A0000AD4206C20F480702064206CC00403D427
:1010B000206C40F0010020640020BEE718B500213C
:1010C000009190F83C20012A07D0012280F83C20B2
:1010D00002689368DB0702D011E0022018BD946813
:1010E0002F4B44F0010494602E4A1268B2FBF3F2D5
:1010F00002EB420200E0521E0092002AFBD103687C
:101100009A68D20741D0026C40F20164A24342F4D3
:10111000807202645A68520505D5026C22F40052AE
:1011200042F480520264026CD20404D5426C22F074
:101130000602426400E041646FF022041A4A80F81B
:101140003C101C60D2F80413C90607D00168914214
:101150000AD18B6813F0405F02D005E000680BE015
:101160008B6843F080438B60D2F80413C90614D413
:1011700000680E49884210D1816811F0405F0CD19F
:10118000816841F08041816007E0016C41F010010D
:101190000164416C41F001014164002018BD000070
:1011A00040420F00140000200020014000220140B6
:1011B000F0B590F85020012A2ED001EB4102012514
:1011C00080F85050022380F8513000EBC202254CC9
:1011D000178E168DB2F834C0536A3F05203243EAA9
:1011E000064647EA4C570A2B46EA070616D0092B53
:1011F00014D0137B46EA03630029016813D0CE693B
:10120000A6431E43CE61016813680B6151680A2929
:101210001BD0092919D01DE00220F0BDD36803F0CE
:101220007F433343E8E74E6AA6431E434E6201689C
:1012300013688B6151680A2901D009290AD1D16844
:10124000026821F07F41916204E0D168026821F0D8
:101250007F411162002180F8515080F850100846FB
:10126000F0BD00000F0033FF70B5040004D094F807
:101270005100002510B106E0012070BD204684F821
:10128000505000F029F8022084F85100D4E90003FE
:101290000121026822F440321A4302602068A368E8
:1012A000426B22F007021A4342632068E368026C33
:1012B0006FF30D021A4302642068228AA38A466BE8
:1012C000120542EA435226F440131A43426365650D
:1012D00084F85110002070BD08B5006806498842A6
:1012E00008D10648016841F400010160006800F47B
:1012F0000000009008BD000000B0024030380240FD
:1013000070B5044600F08CF90546601C02D0044814
:101310000078044400F084F9401BA042FAD370BD69
:1013200008000020F0B587B014216846FFF796FA50
:101330001D480168002935D1012101601B48016861
:1013400041F001010160006802240025694600F0B7
:101350000100059003264FF63F000C278DE8F100B1
:10136000134800F02FF80D2069468DE8F100114870
:1013700000F028F848F2371069468DE8F1000E4871
:1013800000F020F84FF6837069468DE8F1000B48B5
:1013900000F018F84CF2037069468DE8F100084837
:1013A00000F010F807B0F0BD00000020383802400F
:1013B00000140240000802400018024000100240E1
:1013C000000C02402DE9F84FDFF80CB20124032590
:1013D0004FF00F0A00220BF1040E00BF0B6804FA55
:1013E00002F63340B34278D10F7907F00307012F9B
:1013F00001D0022F1AD187684FEA4209D1F80CC0F8
:1014000005FA09F827EA08070CFA09FC4CEA070C68
:10141000C0F808C0476891F804C0B743CCF3001C7B
:101420000CFA02FC4CEA070CC0F804C00E79F64333
:10143000B6070BD0C6684FEA420C8F6805FA0CF865
:1014400026EA080607FA0CF73743C7600E7906F05C
:101450000306022E12D1D6084FEA427800EB860628
:1014600000960F69D6F820904FEAD8660AFA06FC73
:10147000B74029EA0C063743009E37620F790668A9
:101480004FEA420C07F0030705FA0CF807FA0CF7CD
:1014900026EA0806374307604E6816F4403F1CD022
:1014A0004E4E376847F480473760366822F00308AD
:1014B000970706F480460096494E3F0F4644B146D2
:1014C000D6F80868DFF81C810AFA07FC404526EACE
:1014D0000C0603D14FF0000C41E076E0DFF808C1C4
:1014E000604502D14FF0010C39E0DFF800C16045E2
:1014F00002D14FF0020C32E0DFF8F4C0604502D1B7
:101500004FF0030C2BE0DFF8ECC0604502D14FF048
:10151000040C24E0DFF8E0C0604502D14FF0050C78
:101520001DE0DFF8D8C0604502D14FF0060C16E090
:10153000DFF8CCC0604502D14FF0070C0FE0DFF8B8
:10154000C4C0604502D14FF0080C08E0DFF8B8C015
:10155000604502D14FF0090C01E04FF00A0C0CFA83
:1015600007FC4CEA060CC9F808C84F68DBF80060B5
:10157000FF0226EA030600D51E437746CBF800603B
:10158000D1F804C0DEF800605FEA8C2C26EA03067E
:1015900000D51E43DFF840C03E60ACF1040C4F683C
:1015A000DCF80060BF0326EA030600D51E430A4F9D
:1015B000CCF80060083FD1F804C03E685FEACC3C3C
:1015C00026EA030600D51E433E60521C102AFFF493
:1015D00005AFBDE8F88F0000083C014044380240E8
:1015E00000300140000002400004024000080240B8
:1015F000000C02400010024000140240001802409B
:10160000001C024000200240002402400069084003
:1016100000D0012070470AB1816170470904FBE7DF
:101620000148806870470000080000200248816877
:10163000027811448160704708000020032010B533
:1016400000F0CCF90F2000F005F800F081F900203F
:1016500010BD000070B50D4D04464FF47A700C4A71
:1016600029781268B0FBF1F0B2FBF0F000F08AFFCD
:1016700048B9102C07D200222146501E00F08EF9E6
:1016800000206C6070BD012070BD000008000020CB
:10169000140000202DE9F041044690F8A000164601
:1016A0000F4601281DD0012584F8A050022084F89F
:1016B000A10006EB860000EBC600342204EB80009C
:1016C0003830FFF76FF832463946204601F094FA79
:1016D000216800204D6284F8A15084F8A000BDE884
:1016E000F0810220FBE7000010B590F8A01001295E
:1016F00011D00A49012280F8A020022380F8A130ED
:101700000B6843F480340C60002380F8A12080F83B
:10171000A030184610BD022010BD0000186801401E
:101720002DE9F041040004D094F8A100002518B17F
:1017300007E00120BDE8F081204684F8A05000F0C9
:101740006BF83448022184F8A110012202CC8B6985
:1017500023F070438B6194E84A001943E3681E4309
:1017600054F8043D31439E693143996121688B6887
:1017700003408B602168A68AA7698B683B4343EAD4
:1017800006438B602168CB680340CB602168A38B44
:10179000276ACE683E4346EA0346CE6021680B695D
:1017A00003400B612368A68CA76A1969394341EA93
:1017B0000641196121684B6903404B612068A38D84
:1017C000266B4169314341EA03414161236894F842
:1017D000351094F83600DE6A000406F07F46DE62BB
:1017E000236840EA012094F83460D96A3143014308
:1017F000D9622068416B41F006014163206881692C
:1018000041F001018161C4F8A45084F8A1200020B6
:1018100090E7000000F800F0F0B5ABB004461421EA
:1018200024A8FFF71BF890216846FFF717F8344902
:101830002068884261D10224082000900025860398
:1018400068464FF482710522CDE905140123CDE9E4
:101850000725CDE90A3600F009F908B1FFF7C2F90A
:101860002848016841F080610160006800F08060F4
:10187000299024481438016841F48071016001689E
:1018800001F480712991016841F020010160016833
:1018900001F020012991016841F080010160016897
:1018A00001F080012991016841F040010160006868
:1018B00024A9032600F0400029900E2740F2F7608B
:1018C00081E8F1001048FFF77DFD24A94FF4806006
:1018D00081E8F1000D48FFF775FD24A94FF47E4023
:1018E00081E8F1000A48FFF76DFD24A94FF40C6070
:1018F00081E8F1000748FFF765FD2BB0F0BD00005F
:1019000000680140443802400020024000140240B8
:10191000001C02400018024030B590F8A020012AB7
:1019200013D0012280F8A020022380F8A13050F8C3
:10193000A03B00245D6B45F008055D6350F8A03CBA
:10194000596242700470204630BD022030BD000054
:101950000A4808B5016841F080510160006800F054
:10196000805000900548001D016841F480410160ED
:10197000006800F48040009008BD0000403802403C
:10198000002809DB410900F01F028900012001F154
:10199000E0219040C1F80001704700000E4BF0B408
:1019A0001B680D46C3F30223C3F10706042E00D9BA
:1019B0000426191D072901D2002300E0DB1E0124A3
:1019C00004FA06F19C40491E2940641E99401440C7
:1019D0002143F0BC01F0F7BC0CED00E0064900F03B
:1019E000070210B54FF6FF040868044B204040EA98
:1019F00002201843086010BD0CED00E00000FA055D
:101A00001848F8B5016841F0805101600068164C33
:101A100000F080500090206840F480302060FFF794
:101A2000FFFD4FF47A76054605E000BFFFF7F8FDAD
:101A3000401BB0420FD86068C003F7D5206840F45F
:101A400000302060FFF7ECFD054606E0FFF7E8FDFB
:101A5000401BB04201D90320F8BD60688003F5D572
:101A60000020F8BD40380240007000402DE9F84FDA
:101A700004460078DFF824944FF000063746C0078C
:101A80000ED0D9F8001021F40001C9F80010D9F8DF
:101A90000010626B1143C9F80010606B00B9012699
:101AA000FE4D2068843500030ED5E16B286820F4D4
:101AB000401008432860E06BB0F5801F01D010B1E2
:101AC00002E0012600E0012720684FF4800BC002ED
:101AD0000CD5216C286820F4400008432860206C55
:101AE000584501D1012601E000B901272068C10154
:101AF00000D50126800666D5E8483830016841F0F7
:101B0000805101600068DFF898A300F080500090D9
:101B1000DAF8001041F48071CAF80010FFF780FD78
:101B2000804605E0FFF77CFDA0EB080064287DD827
:101B3000DAF80000C005F5D5DFF8608308F1680821
:101B4000D8F8000010F440702AD0218E01F44071C2
:101B5000814225D0D8F80010D8F8002021F4407137
:101B600042F48032C8F80020D8F8002022F48032F5
:101B7000C8F80020C8F80010D8F80000C0070FD03F
:101B8000FFF74EFD824607E0FFF74AFDA0EB0A0192
:101B900041F288308142CAD8D8F800008007F3D5D6
:101BA000206BC0F3012103297ED0D9F8001021F465
:101BB000F811C9F80010228ED8F80010C2F30B02F9
:101BC0001143C8F800102078C00607D5286820F017
:101BD000807028602868A16B084328602188AF487E
:101BE0008830490405D5626E016821F44031114303
:101BF00001602188090405D5A26E016821F4402105
:101C0000114301602168C90305D5E26E016821F422
:101C10004011114301602168890305D5226F0168D5
:101C200021F4400111430160217800E034E14906CC
:101C300005D5626C016821F0030111430160217830
:101C4000090605D5A26C016821F00C011143016061
:101C50002188C90505D5E26C016821F030011143E6
:101C600001602188890505D5226D016821F0C00138
:101C7000114301602188490505D5626D016821F491
:101C80004071114301602188090505D5A26D0168E5
:101C900021F44061114301602188C90407D5E26D38
:101CA000016821F4405100E068E01143016021889F
:101CB000890405D5226E016821F440411143016079
:101CC0002168490205D5A26F016821F080611143A6
:101CD000016021684FF0006A890209D5E26F01684E
:101CE00021F0006111430160E16F514500D10127EE
:101CF00021680A0700D50127490305D5626F0168ED
:101D000021F04071114301602168090206D5D4F821
:101D10008020016821F08051114301602168490150
:101D200006D5D4F88420016821F0005111430160E8
:101D30002068000106D5D4F88810286820F00070CB
:101D4000084328602068C00006D5D4F88C102868A5
:101D500020F0806008432860DFF84891012E02D00F
:101D6000206880017ED5D9F800004E4620F08060C2
:101D7000C9F80000FFF754FC80460FE04A4AD9F842
:101D80000030104023F4F8120243C9F8002012E793
:101D9000FFF746FCA0EB080064287DD830680001FE
:101DA000F6D421783D487C30C90712D0616B81B9E7
:101DB000237A62680168D0F800C09201C1F3014142
:101DC00042EA0142CCF3036142EA016141EA037154
:101DD000016021680A0303D5E26BB2F5801F04D0CD
:101DE000C9021AD5216C594517D16368016894F866
:101DF0000CC002689B01C1F3014143EA0141C2F3F7
:101E0000027241EA0C6141EA027101602968626A6A
:101E100021F01F01521E114329602168C90110D50C
:101E2000238A62680168D0F800C09201C1F303619F
:101E300042EA034242EA0162CCF3027142EA0171D2
:101E40000160216889010CD56168228A237B94F89E
:101E500008C0890141EA024141EA036141EA0C718B
:101E6000016000E011E03168B04641F0806131600E
:101E7000FFF7D6FB064604E0FFF7D2FB801B642881
:101E80000AD8D8F800000001F6D5E7B3D9F8000069
:101E90004E4620F0805009E07BE000000838024008
:101EA0000070004000380240FFFCFF0FC9F800003E
:101EB000FFF7B6FB074604E0FFF7B2FBC01B642840
:101EC00067D83068C0438000F6D5216835480A03DA
:101ED00001D5E26B1AB1C9021DD5216CD9B963696C
:101EE0000168277E02689B01C1F3014143EA014377
:101EF000C2F3027143EA076242EA01710160296894
:101F00006FF0FF0300E04BE0A26A21F4F85103EB0D
:101F10000222114329602168890212D5E16F5145DF
:101F20000FD1238C6269016807689201C1F30361D4
:101F300042EA034242EA0162C7F3027142EA0171D6
:101F400001602178090716D561690268D0F800C0E0
:101F50008B01277FC2F30362CCF3014143EA0141C5
:101F600041EA026141EA077101602868E16A20F4F0
:101F7000403008432860306840F080503060FFF700
:101F80004FFB044608E000BFFFF74AFB001B642834
:101F900002D90320BDE8F88F3068C0438000F3D435
:101FA0000020F7E7883802402DE9F04705000F468A
:101FB00063D0444E306800F00F00B84209D2306858
:101FC00020F00F0038433060306800F00F00B84256
:101FD00053D128683C4C810712D5400703D52068AF
:101FE00040F4E05020602878000703D5206840F4D2
:101FF00060402060A968206820F0F000084320605D
:102000002878C0072AD0304968680839012810D0DC
:102010000968022810D0890700292EDA216821F0EA
:10202000030101432160FFF7FBFA804641F2883942
:102030000DE009688903EFE78901EDE7FFF7F0FAA2
:10204000A0EB0801494502D90320BDE8F087686884
:10205000216801F00C01B1EB800FEFD1306800F086
:102060000F00B8420BD9306820F00F0038433060C1
:10207000306800F00F00B84201D00120E5E7287871
:10208000400705D5E968206820F4E0500843206047
:102090002878000706D52869216821F4604141EAC3
:1020A000C000206000F018F82168084AC1F303114D
:1020B000515CC8400649086006480068FFF7CAFA44
:1020C0000020C2E7003C024008380240060901082F
:1020D000140000200C000020154910B515480968AF
:1020E00011F00C0213D01449042A0FD0082A0ED183
:1020F0000F4C241F2268236802F03F025B0207D5C1
:102100002068C0F38810A0FB010106E0084610BD5E
:102110002168C1F38811A1FB00010023FEF704F937
:102120002168C1F30141491C4900B0FBF1F010BD29
:10213000083802400024F40040787D012DE9F84F72
:1021400004004FF000076ED02078DFF87CA3AAF1DE
:102150000408C007A8F104054CD0DAF80010504676
:10216000C1F38101012908D00068C0F38100022871
:102170000AD1D8F80000400206D52868800339D576
:1021800060680028DFD035E06068B0F5803F0BD094
:1021900010B1B0F5A02F11D0286820F4803028604D
:1021A000286820F4802002E0286840F4803028600D
:1021B000606890B1FFF734FA06460AE0286840F4F8
:1021C00080202860F0E700BFFFF72AFA801B642810
:1021D00072D828688003F7D50CE0FFF721FA06468D
:1021E00005E000BFFFF71CFA801B6428F0D82868C0
:1021F0008003F7D42078800742D5DAF800105046E3
:1022000011F00C0F08D00068C0F3810002280BD138
:10221000D8F80000400207D42868800718D5E06885
:10222000012800D114E04AE1E0680028286817D0AE
:1022300040F001002860FFF7F3F9064605E000BF13
:10224000FFF7EEF9801B0228C2D828688007F7D56F
:102250002069296821F0F80141EAC00028600FE0F8
:1022600020F001002860FFF7DBF9064605E000BF1B
:10227000FFF7D6F9801B02281ED828688007F7D4FC
:102280002078000729D5904861696C300029814683
:10229000016812D041F001010160FFF7C1F9064663
:1022A00005E000BFFFF7BCF9801B022804D8D9F86D
:1022B00000008007F6D510E089E021F001010160FF
:1022C000FFF7AEF9064604E0FFF7AAF9801B0228E3
:1022D0007DD8D9F800008007F6D4207840076BD568
:1022E000DFF8E49109F13809D9F80000C0000BD4F7
:1022F000D9F8001041F08051C9F80010D9F8000059
:10230000012700F08050009070480168C90512D480
:102310000168834641F480710160FFF781F9064648
:1023200005E000BFFFF77CF9801B64284FD8DBF87D
:102330000000C005F6D5644EA068683601280AD0B2
:1023400008B1052811D0306820F0010030603068F5
:1023500020F0040002E0306840F001003060A06826
:10236000A0B1FFF75DF983460CE0306840F004004F
:102370003060F0E7FFF754F9A0EB0B0141F2883031
:10238000814268D830688007F4D50EE0FFF748F93D
:10239000834607E0FFF744F9A0EB0B0141F28830D8
:1023A000814258D830688007F4D42FB1D9F8001092
:1023B00021F08051C9F80010A069E0B3DAF80010EC
:1023C000C1F3810102294DD00228286800E042E0D3
:1023D00020F08070286003D0FFF722F904463DE02A
:1023E000FFF71EF9064604E0FFF71AF9801B0228E2
:1023F00031D828688001F7D4D4E90921DFF8D0C0AA
:10240000D4E9070694F830304F0894F82C10304384
:102410000CEB074444EA8212104340EA016040EAB0
:102420000370C8F80000286840F080702860FFF74B
:10243000F7F8044605E044E0FFF7F2F8001B022835
:1024400009D828688001F7D53BE000BFFFF7E8F81E
:10245000001B022802D90320BDE8F88F28688001FC
:10246000F4D42EE00128D8F8000028D0E16900F467
:1024700080028A4223D1216A00F03F028A421ED1A3
:10248000626A47F6C0710140B1EB821F17D1A16AA1
:102490004FF0FF3200F4403302EB5101B3EB014F38
:1024A0000DD194F82C1000F07062B2EB016F06D1E0
:1024B00094F8301000F0E040B0EB017F01D0012033
:1024C000CAE70020C8E7000008380240007000405A
:1024D0000000FFFF70B504000D4603D094F82C00F7
:1024E00010B107E0012070BD002084F82D002046C7
:1024F00000F011F8022084F82C002068211DFEF75E
:1025000073FBD4E900022946FEF7C0FB012084F8E2
:102510002C00002070BDFEF705BF10B5044690F8F2
:102520002C00022804D094F82C00012801D00120AE
:1025300010BD022084F82C002068FEF78AFB0120E1
:1025400084F82C00002010BD70B5044690F82C00D3
:102550000D46022804D0012803D0052801D001200F
:1025600070BD022084F82C002068FEF77BFB2868F1
:10257000022805D05FF0010084F82C00002070BD17
:102580000520F9E7401EB0F1807F10B501D301208E
:1025900010BD4FF0E02460610F21601700F013FFC1
:1025A0000020A0610721216110BD7047704770476E
:1025B000F0B590F83C20012A3BD01F4E012480F852
:1025C0003C40022280F83D2002681C4D5368B24214
:1025D000D2F808C001D0AA4203D14F6823F4700397
:1025E0003B430F6823F070031F4357600268B242F9
:1025F00013D0B2F1804F10D0114B9A420DD0114B35
:102600009A420AD0104B9A4207D0AA4205D00F4BEB
:102610009A4202D00E4B9A4204D189682CF0800372
:1026200019439160002180F83D4080F83C10084635
:10263000F0BD0220F0BD0000000001400004014098
:102640000004004000080040000C00400040014031
:102650000018004010B5040003D094F83D0010B1FC
:1026600007E0012010BD002084F83C00204600F067
:1026700023F8022084F83D002068211D00F008FEA8
:10268000012084F8480084F83E0084F83F0084F874
:10269000400084F8410084F8420084F8430084F844
:1026A000440084F8450084F8460084F8470084F824
:1026B0003D00002010BD000008B500680B498842AD
:1026C00012D10B48016841F002010160006800224C
:1026D000012100F0020000901D20FFF75FF9BDE826
:1026E00008401D20FFF74CB908BD00000004004061
:1026F0004038024090F83D10012901D00120704778
:10270000174A022180F83D100168CB6843F00103AD
:10271000CB600068904214D0B0F1804F11D01149C5
:1027200088420ED0104988420BD01049884208D008
:102730000F49884205D00F49884202D00E4988428D
:1027400007D181680D4A1140062906D0B1F5803FB6
:1027500003D0016841F001010160002070470000D2
:10276000000001400004004000080040000C004050
:102770000004014000400140001800400700010033
:1027800070B5044690F83C000025012817D0334B63
:10279000012684F83C60022084F83D00226890689D
:1027A000184020F47F4090600868502838D00DDC35
:1027B00020284FD005DC90B3102811D14AE0022028
:1027C00070BD302846D040280AD13BE060282FD089
:1027D00070280DD0B0F5805F03D0B0F5005F12D047
:1027E000012584F83D60002084F83C00284670BD37
:1027F0004A682068D1E9021300F0B0FD20688168C2
:1028000041F0770109E04A682068D1E9021300F03D
:10281000A5FD2068816841F480418160E1E719E00D
:10282000CA684968206800F0AAFD2068502106E0C7
:10283000CA684968206800F0B3FD2068602100F094
:1028400096FDCEE7CA684968206800F098FD2068C8
:102850004021F4E7226801461046F0E788FFFEFFBA
:10286000704770B50446006800250169C9438907AF
:1028700015D4C168C943890711D4EA1E0261012138
:102880002177206880698007204602D0FFF7E8FFA3
:1028900004E000F0A7F8204600F0A5F825772068AE
:1028A0000169C943490717D4C168C943490713D40B
:1028B00002216FF00402026121772068806910F420
:1028C000407F204602D0FFF7CBFF04E000F08AF8FB
:1028D000204600F088F8257720680169C943090778
:1028E00016D4C168C943090712D404216FF0080245
:1028F000026121772068C0698007204602D0FFF777
:10290000AFFF04E000F06EF8204600F06CF8257789
:1029100020680169C943C90617D4C168C943C906FB
:1029200013D408216FF01002026121772068C0697A
:1029300010F4407F204602D0FFF792FF04E000F041
:1029400051F8204600F04FF8257720680169C94307
:10295000C90708D1C168C943C90704D1891E0161EB
:10296000204600F041F820680169C943090609D4EE
:10297000C168C943090605D46FF080010161204692
:10298000FFF714FE20680169C943C90509D4C1686D
:10299000C943090605D46FF4807101612046FFF731
:1029A00004FE20680169C943490609D4C168C943C6
:1029B000490605D46FF040010161204600F017F888
:1029C00020680169C94389060BD4C168C9438906D7
:1029D00007D46FF0200101612046BDE87040FFF789
:1029E000E6BD70BD7047704701200DF041B87047DB
:1029F000FEE7012010B500F023F8012800D00020E8
:102A000010BD012010B500F01BF8022801D00020F5
:102A100010BD012010BD012010B500F011F80328F1
:102A200001D0002010BD012010BD012010B500F024
:102A300007F8042801D0002010BD012010BD0000BF
:102A40002DE9F047314C0128DFF8C4804FF40057DE
:102A5000DFF8C0904FF001062F4D1DD02078A0B1B7
:102A600008212846FEF7D2FDC0B104212846FEF712
:102A7000CDFD98B139464046FEF7C8FD70B1012141
:102A80004846FEF7C3FD012808D008212846FEF776
:102A9000BDFD012826D037E02670E1E70A20FEF7C9
:102AA0002FFC0020207008212846FEF7AFFD80B1E2
:102AB00004212846FEF7AAFD70B139464046FEF7CC
:102AC000A5FD58B101214846FEF7A0FD012807D019
:102AD0001AE00120BDE8F0870220FBE70320F9E7B8
:102AE0000420F7E704212846FEF790FD01280BD1CA
:102AF00039464046FEF78AFD012805D101214846A6
:102B0000FEF784FD00B926700020E3E718000020DE
:102B10000008024000000240001C024010B500F016
:102B200000FB034900208874BDE8104000F002B8A3
:102B3000C40E002009494FF0020210B510B101285F
:102B400005D009E04FF04043C1E9022303E0044C03
:102B50000023C1E902340A74487410BDC40E002079
:102B6000005802C02DE9F047204D0026204CDDF82A
:102B700020A02F6847F400072F602660A2EB000812
:102B80001C4DC8F1EF0297B232464FF40019D5F848
:102B900008C0C4F81CC026612764266826F0010618
:102BA0002660C4F80CA0C1EB0116591AEB6800EBC3
:102BB00006162D7C4FF48030491C05FB063300EBD4
:102BC0000840E36301436164206840F00100206035
:102BD00002E0521C4A4502D260688007F9D5A0681D
:102BE00040F00200A060BDE8F087000030380240ED
:102BF00000B00240C40E00202DE9FE4F814600685F
:102C0000882493468D888C2204EBCB178A46C368B0
:102C10009421BE46C459C3F30B432B4404F47044BF
:102C20001F04019702EBCB1240F80E4001EBCB13CF
:102C3000DAF800709C214FF0AC0C01EBCB1440F2A1
:102C4000077102910CEBCB11D9F800C09825002038
:102C5000CDF800C0A02605EBCB15DCF80CC006EBC8
:102C6000CB16CCF30B4C0CF1010C07EB0C08DDF888
:102C700000C0019F48EA07084CF80E80D9F80070A0
:102C8000BAF80CC0B846FF68C7F30A0767444FEAB2
:102C9000074E58F8027007F4704C48F802C0D9F893
:102CA00000C0DAF80870DCF80C80C8F30A0808F1F4
:102CB0000108B84448EA0E084CF80280D9F8002010
:102CC000D75827F00707D750D9F80070DAF8102046
:102CD000FA509AF831209AF818304FEA022C9AF8F4
:102CE0003220120442EA0362D9F800301F59185109
:102CF0009AF8303043EA0C031343D9F800201351FB
:102D0000D9F80020535923F0FF035351D9F800207C
:102D1000DAF814305351D9F800209359029CA34398
:102D20009351D9F80030DAE9072422439A51D9F8AF
:102D3000002053585050D9F80020DAF824005050A1
:102D4000DAF81000C8B301283AD004283AD0022893
:102D500038D0032836D0072834D00120D9F80030E5
:102D6000B02505EBCB11B42284245D5802EBCB12C5
:102D700005F0E0255D50DAE9003504EBCB14EB1AE1
:102D8000BAF8285043434543D9F80000DB1C43EA16
:102D900005434350D9F8000081586FF30A01815070
:102DA000D9F80000DAF82C108150D9F80000015948
:102DB00041F001010151BDE8FE8FFFE70420CDE79E
:102DC0000320CBE70220C9E77FB516480024144949
:102DD0000125009401942A04029403940160C0E93F
:102DE000012404618461104980F82040C0E90A147C
:102DF000C561C46080F830404561FEF7B0F808B1A5
:102E0000FDF7F0FE05206946CDE90005054802946E
:102E1000FDF7C2FF002801D0FDF7E4FE7FBD0000F2
:102E200000200140FC0C00200100000F0F48002191
:102E30000D4A10B5C0E900218160C1608163C163A2
:102E4000016441648164C164FEF70EFA08B1FDF7C4
:102E5000C9FE06480121FEF7ABF9002803D0BDE802
:102E60001040FDF7BFBE10BD00B00240440D002071
:102E7000F0B587B01C216846FDF7F0FC1648002528
:102E80000822144F01264FF0400E0221C0E90075C0
:102E9000C0E90262102404610C03C0F814E04FF48E
:102EA000C07CC0E906C58F020762CE020623C0E9D6
:102EB00009648DE80E0004250393CDE904510691C1
:102EC0006946FFF707FB002801D0FDF78BFE07B02E
:102ED000F0BD0000400100A09C0D0020F0B587B0BF
:102EE00014216846FDF7BAFC3948016841F0040135
:102EF0000160016801F004010591016841F48071ED
:102F00000160016801F480710591016841F02001C0
:102F10000160016801F020010591016841F0800124
:102F20000160016801F080010591016841F0010133
:102F30000160016801F001010591016841F00201A1
:102F40000160016801F002010591016841F0400152
:102F50000160016801F040010591016841F0100134
:102F60000160016801F010010591016841F008015C
:102F7000016000680022174F032100F0080005904F
:102F80003846FEF748FB0025694601240294600399
:102F9000CDE900051048FEF715FA02260F488DE826
:102FA00070006946FEF70EFA0C206946CDE900056F
:102FB0000B480294FEF706FA03206946CDE90004A7
:102FC000CDE902463846FEF7FDF907B0F0BD000036
:102FD0003038024000040240000802400000024075
:102FE000001C0240F0B59BB034216846FDF736FC6A
:102FF00034210DA8FDF732FC2B484FF08051294EAB
:10300000002440F24F1E40F23F170F2240F2511CA5
:103010000660052344604F2584601126C0E9034102
:1030200040F25711C0E90BE100F1140181E8EC1006
:1030300080F8344080F8354080F83640FEF770FB69
:1030400008B1FDF7CFFDF0204FF4A0718506CDE962
:103050000040CDE90A0107A8022704970723CDE91C
:1030600002414FF4C062694680E82C00FF260E48FA
:10307000CDE905648DF8304000228DF831408DF89F
:103080003240FEF707FB08B1FDF7ACFD0648FEF73E
:103090002BFB07490548086002210348FEF73CFC6A
:1030A0001BB0F0BD00680140D00D0020C303C00379
:1030B0003069014010B588B018480024164940F224
:1030C000374200946323019402940394049405947A
:1030D000069480E81600C0E903348461FFF7BAFA69
:1030E00008B1FDF77FFD4FF4805000900B48694612
:1030F000FFF746FB08B1FDF775FD084804A90494E5
:103100000694FFF755FA08B1FDF76CFD0348FFF789
:10311000F1FA08B010BD000000040040780E002055
:10312000FEE710B5FFF75EFFBDE81040FFF77EBE7B
:10313000FEE7704710B5FFF79BFEBDE81040014861
:1031400000F002B89C0D0020002301221846114611
:1031500010B500F01FF80120FEF7D2F8002301227D
:103160001846022100F016F8002308221846032111
:1031700000F010F80122042100204FF40C7300F03D
:1031800009F8BDE81040024840F23731FFF7C5B9F1
:103190009C0D00201FB54FF0000410B1012802D093
:1031A00002E0102400E008240748CDE902234FF490
:1031B0008052CDE900146946FFF7C6F9002800D017
:1031C000012004B010BD00009C0D00207047FEF7E8
:1031D0002DBA000030B593B034216846FDF73EFBB0
:1031E00014210DA8FDF73AFB2048016841F08051F9
:1031F0000160006800F0805012901D48016841F4A1
:103200004041016000680224192300F440401290FC
:10321000012008934FF4D87582050104CDE90642D8
:10322000CDE909540B94CDE9000168460C94FEF7F2
:1032300085FF08B172B6FEE7FEF7E2FB08B172B691
:10324000FEE70FAD00214FF4A0524FF4805385E804
:103250000E000F20CDE90D0407210DA8FEF7A4FEF6
:10326000002801D072B6FEE713B030BD40380240EE
:10327000007000400248016841F47001016070472D
:1032800088ED00E00148FFF7ECBA0000780E00205E
:10329000F0B5274B4FF0804E264D02689842264EDF
:1032A000264F274C09D0704507D0A84205D0B04220
:1032B00003D0B84201D0A04205D1D1F804C022F019
:1032C00070024CEA020298421BD0704519D0A84205
:1032D00017D0B04215D0B84213D0A04211D0194D2A
:1032E000A8420ED0184DA8420BD0184DA84208D0C5
:1032F000174DA84205D0174DA84202D0164DA8423E
:1033000003D1CD6822F440722A434D6922F0800235
:103310002A43026098428A68C2620A68826201D0C7
:10332000A04201D10969016301214161F0BD0000A2
:10333000000001400004004000080040000C004074
:1033400000040140004001400044014000480140A9
:1033500000180040001C00400020004042EA032208
:1033600083680A4323F47F410A438260704782687E
:1033700022F070020A4342F007018160704710B5E5
:10338000036A046A23F00A0324F0010404628469D6
:103390000B4324F0F00141EA02118161036210BD88
:1033A00010B5036A23F0100303628369046A23F4EF
:1033B000704324F0A00443EA0232826144EA01111E
:1033C000016210BDFEE7090700284FEA116104DB26
:1033D00000F1E02080F80014704700F00F0000F1C9
:1033E000E02080F8141D704730380A2801D20120EF
:1033F00070470020704700002DE9F04100250E467F
:1034000007462C460AE000BF56F8240019A1FDF734
:103410004DFA08B16D1CADB2641CA4B256F824007C
:10342000FDF75CF90028EFD1384609F00FFC04469F
:103430004068002610B108F0A7FF6660A06810B1D0
:1034400008F0A2FFA660E80008F070FF606038B1E5
:10345000680008F06BFFA06018B1616811B102E06C
:10346000FEE7FEE700256900FDF7D6F92584BDE8F3
:10347000F08100000A00000030B5044690F82000FA
:10348000194D89B0810717D4C10701D0410713D561
:10349000242221466846FDF785F91448214608F0A4
:1034A00009FF204608F070FF012028700398C0B182
:1034B00001466846884714E0E18BC207C1F100016C
:1034C00061830ED0410702D4A18B49426183D4E9C4
:1034D00004328110491CC4E9042361F3820084F89A
:1034E0002000287809B030BD380C002008120020D8
:1034F00070B5224808F00CFE06E0086A20F00800CB
:1035000008621E4808F00AFE0100F6D11C4D6868EA
:103510000CF09EFA064623E000202870206A01077E
:1035200022D4618B40F008022262881900B26083C5
:10353000002819DB218B884200DD61832046A168C9
:103540008847626812B101B220689047B4F91A0046
:10355000218B884202DB2046FFF78EFF287818B1C6
:10356000064808F0D5FD03E00448214608F0D6FDE2
:103570000400D1D10CF072FA686070BD081200200E
:10358000380C002002280FD0032810D0042812D0B5
:10359000401EC1EBC101B1FBF0F00849C0B2085CAC
:1035A00010FB02F0000A70470448093801E00348A4
:1035B000C01F405CF4E70148001FFAE75B090108FF
:1035C0002DE9F0410024144E0D46274607E034B1A2
:1035D000012C07D0022C08D0032C13D108E0FFF7F0
:1035E00008FA07E0FFF70DFA04E0FFF714FA01E02C
:1035F000FFF71BFA30B160B2002807DB0121A97385
:10360000307004E0641CE4B2042CE0D3AF73307873
:10361000A8600020BDE8F081E40C00202DE9F04115
:103620000446001D08F074FDE66A054666B12046B2
:1036300006F046FA08E0201D294608F06FFD07460F
:103640002846FFF7EBFF3D46002DF4D1002220462F
:10365000132106F0C5F8204606F0B4F800212046F4
:1036600001F0B2FB002007F06FF9002705461AE0D1
:10367000686BA04202D0A86BA04202D1284607F096
:103680004FFAE86BA04200D1EF63686DB04206D1FB
:1036900007F064F9A04202D1284607F041FA284613
:1036A00007F052F90546002DE2D120682146001DA1
:1036B00008F000FEE3690022114620469847606A40
:1036C00008B108F061FE2046BDE8F04108F05CBE9C
:1036D0002DE9F843002003F0D9F90646002003F055
:1036E00005FA8046002003F0F8F9002106F070FB8F
:1036F0004949074606F0FEFFB00001B2384609F01E
:1037000015FD0421384609F0BFFC444944480BF03C
:1037100033F9444D284602F081FB414C0090BDF83E
:1037200000006080284602F079FB00900025BDF87B
:103730000000A08004F13C00E5823B4925830BF0AA
:103740001BF904F13C003949057285813C300BF0CE
:1037500013F904F1780036497F22C58002720A68A5
:103760000092BDF80020A4F87A204A680092BDF8C3
:103770000020A4F87C2085818868009004F18000F6
:10378000BDF800100183002003F0A7F900210BF021
:10379000A7FC04464246314609F07EFC606A816817
:1037A000384609F0FEFB6A1F3846002109F02BFC61
:1037B00020A120460BF072FB20A1064620460BF00C
:1037C0006DFB174A0221054620460BF009FE134AFD
:1037D000012120460BF004FE114A032120463C3211
:1037E0000BF0FEFD0E4A0421204678320BF0F8FD66
:1037F0000B4A052120463C320BF0F2FD084A062117
:10380000204678320BF0ECFD30460DF01BF82846D0
:10381000BDE8F84301F086B9F00C0020C80F002085
:10382000501A0520B77F4800B8100020F41000207F
:10383000342D0108416C61726D00000056656869A5
:10384000636C6500F8B5054600920B8848888A8845
:10385000CE8884B2D11A861B98B28AB22146B3B2FE
:10386000FFF780F92846BDE8F84003F0F5B870B5D9
:103870000C46054609F0EAF904842846BDE8704084
:1038800009F092BA10B50446006809F0DFF910F8A3
:10389000281F21F01E0101702068BDE8104009F0CA
:1038A00083BA00000749096848B104C801F580419E
:1038B00000EB5200021D8A4200D3002070470846E8
:1038C000704700004C0C00208A0710B502D021F090
:1038D0000301091D02680B1DB3EB520F00D1510803
:1038E000B1EB520F0CD0021D0A44136823F0010300
:1038F00013600468C1EB5404241F64F35F03136076
:10390000026861F35F02026010BD2DE9F0470546D1
:1039100090F8580091468A46C0075AD10026EC68B4
:103920000127B8467CB995F85800C0F30010401E36
:1039300030424ED1B8F1000F4BD05146284688474F
:1039400000270446B8460EB9260042D037B14A4691
:10395000214628469047B04204463AD0002C4FF00A
:103960000107E0D0206809F089F90028DAD1E86879
:10397000A0422ED080B1006800221021C369984770
:10398000E86800220D21006805F02AFF012820D1F7
:10399000E868006809F008FAEC60002220680F214E
:1039A000C3699847E86800220C21006805F018FFF9
:1039B00001280ED1E86800680CF0DCFAE8680068BD
:1039C00009F0F2F9A969002903D02846BDE8F047BB
:1039D0000847BDE8F08770B588B00E46044609F088
:1039E00035F902A90546204609F0F2F8002425E041
:1039F000686800EBC4000168009140680190BDF860
:103A00000010BDF808000144ADF80010BDF8022018
:103A1000BDF80A100A44ADF80220BDF80420104495
:103A2000ADF80400BDF8060008443146ADF80600C4
:103A3000684601F0A2FA20B9641CA4B2288CA04206
:103A4000D6D8288CA04201D14FF6FF7408B020468A
:103A500070BD10F0070000D1012070472DE9FC4730
:103A60000F0006D0C4686069B84204D1A069BDE8FF
:103A7000FC870020FBE7002104220EE0A36801EB95
:103A8000810002EB800553F82030F81A0190A368FA
:103A90005B5B83420AD2491C89B2608AC0F3090089
:103AA0008842EBD80020C4E90570E2E701EB81050C
:103AB000A06812224FF0060802EB85010026425C46
:103AC000910711D002F003014FF00C0A012910D028
:103AD000DFF8A0C002294FF010034FF0080112D008
:103AE000D243920727D041E008EB8501405A019963
:103AF00007E00AEB850108EB85024158805A019ADC
:103B0000895C461832E003EB8502CDF800C001EB7A
:103B100085090223825A50F8091001A80CF0AEF969
:103B200020B3A16808EB850351F80920C95A801A0F
:103B300001EB50061AE003EB8502CDF800C001EB63
:103B400085090223825A50F8091001A80CF096F951
:103B500060B1A2680AEB850108EB850352F80950B1
:103B60005158401BD25A4008085C16183046C4E928
:103B700005767CE73D0801087CB5C3680025588AB6
:103B8000DC6880042DD4A36801EB022013F0407F91
:103B900004D0C3F30161012911D02EE0266823F07F
:103BA0007F4217490223ADF8040001A80091314675
:103BB0000CF064F908B3801B616840080FE02668C8
:103BC00004231049CDE90010A068314620F07F425F
:103BD00001A80CF053F980B1801B616800090D56F3
:103BE0000BE06368585C995C38B131B1637B401E6F
:103BF0002268491E10FB0320455628467CBD000064
:103C0000074A0008F34900080021A0F13002092A00
:103C100001D8D1B216E0612801D32038C0B24138B2
:103C200006280FD2DFE800F0030507090B0D0A2173
:103C300008E00B2106E00C2104E00D2102E00E213A
:103C400000E00F21084670472DE9FE4F85690446C4
:103C50004FF0000903E0284609F024F805462846FD
:103C600008F0EAFF18B1002DF5D1BDE8FE8F002D58
:103C7000FBD0284608F0D6FF0028F6D0284608F0EA
:103C8000D6FF218A0646B4F90C70608AB4F90EC0DA
:103C9000394494F8243009B2634A6044218200B266
:103CA0005FEAC37860821CD15FEAC67808D0002939
:103CB00000DC4942D2F8048098F81480414508DAC3
:103CC000B107D2D5002800DC40425168097D884206
:103CD000CBDB43F001004FF0010984F82400C10759
:103CE000C3D017B9BCF1000FBFD050689046C06870
:103CF00002F0DEFE0290B5F9100001902846B5F9F9
:103D000012B008F0CFFF09F02FF80090284608F015
:103D1000C9FF08F09FFF8246284609F039F8074698
:103D2000284609F03BF8032E0ED0F1071FD0B9F159
:103D3000000F02D0208A384407B2A089384401B26B
:103D4000284609F0FFF920E0B9F1000F05D0228ADA
:103D5000618A3A44084417B200B2E289A189024458
:103D6000C81901B2284612B209F04DF90DE0B107A9
:103D70000BD5B9F1000F02D0618A084400B2E18985
:103D8000084401B2284609F0E9F994F824008007B4
:103D900015D4EB690D21D8F8042028469847204611
:103DA00000F0B4FD00287FF460AF0022284608210F
:103DB00005F016FD204600F0A9FD0028F3D194F887
:103DC000240040F0020084F82400B5F91020019985
:103DD0008A42E8D1B5F912205A45E4D120F0020018
:103DE00084F82400284608F05DFF08F0BDFF044673
:103DF000284608F057FF08F02DFF0146009884423E
:103E0000D1D15145CFD1D8F804004446C06802F062
:103E10004FFE62680299411AD06803B089B2BDE8CA
:103E2000F04F02F090BE00001C0000202DE9FF4181
:103E3000044690F8240080070BD5E56903E0284686
:103E400008F030FF0546284608F0F6FE18B1002DB0
:103E5000F5D1BDE8FF81002DFBD0284608F0F1FE2A
:103E6000584FE0B1284608F0E2FE7A680646A18A7B
:103E70006420537DC3F1640311FB03F191FBF0F166
:103E800009B2A1820029517DE38AC1F1640113FBCB
:103E900001F191FBF0F000B2E0821ED11CE094F839
:103EA00024000E2120F0020084F82400EB6928464B
:103EB0007A68984700222846092105F091FC20469F
:103EC00000F024FD0028C4D104B0284600220921B6
:103ED000BDE8F04105F084BCF0B36946284608F01F
:103EE00077FE284608F054FFA18A08440FFA80F8AC
:103EF000284608F053FFE18A032E084401B206D099
:103F0000F0070AD04146284609F01CF90AE00A46A3
:103F10004146284609F077F804E0B00702D5284664
:103F200009F01CF902A9284608F052FEBDF900006C
:103F3000BDF90810884202D0A08A002889D1BDF9B5
:103F40000200BDF90A10884202D0E08A002880D120
:103F500094F82410002000E01AE021F0020184F817
:103F60002410A0810E21E081A082E0822846EB6926
:103F70007A689847204600F0C9FC0028A3D10022A7
:103F80002846092105F02CFC204600F0BFFC60E724
:103F900094F824000E2120F0020084F82400EB693C
:103FA00028469847204600F0B1FC0028EFD10022B7
:103FB0002846092105F014FC04B02046BDE8F04174
:103FC00000F0A4BC1C0000202DE9F84F0D46897BB1
:103FD000044690F84C0001294FF0000822D0010758
:103FE00009D520F0080121F0010184F84C10C4F833
:103FF000448084F82080A87B94F8207084F8200006
:1040000068686062D4F854905FEA09007ED005F0D9
:104010001DFDDFF894A20028CAF8000076D0A87B26
:1040200018B142E0000771D4E5E7484605F007FD06
:104030000028B5F90C001ED000280FDA4FF000065A
:1040400006E000BF4FF01401484605F077FD761CEE
:10405000B5F90C004042B042F4DC26E025DD002634
:1040600004E01321484605F069FD761CB5F90C0003
:10407000B042F6DC19E000280CDA4FF0000603E04D
:10408000484605F0CDFC761CB5F90C004042B04224
:10409000F6DC0AE009DD002603E0484605F06AFC8C
:1040A000761CB5F90C00B042F7DC484605F0CEFCB2
:1040B00000285646CAF8000028D0AA7B04F11C0A42
:1040C000012A01D0EAB3EAE017B1012F27D0E6E0D8
:1040D0008DF800801221C3696A4698470BF0BEFC38
:1040E0006064484605F0ABFC9DF800108143EAD1BE
:1040F000306800220721C3699847504600F006FC4B
:10410000002803D100223068114600E084E005F069
:1041100067FB504600F0FAFB00287DD1BFE094F821
:104120004C00C00779D1606C0BF092FCE18A8842A8
:1041300073D98DF80080122130686A46C3699847A8
:1041400000E028E09DF8000060B1484608F079F8EA
:10415000E0B9484605F073FC80F00101484605F0DF
:1041600000FD13E0306800220B21C36998475046D8
:1041700000F0CCFB00284FD130680022042105F06C
:104180002FFB504600F0C2FB002845D194F84C00AC
:1041900040F0010081E0012F3FD18DF80080122115
:1041A000C36945466A4698479DF80000B0B399F840
:1041B0005800800794F84C004FEAC07063D518B1DE
:1041C000484608F03EF850B3306800220A21C3691F
:1041D0009847504600F09AFB002862D130680022D0
:1041E000032105F0FDFA504600F090FB002858D15D
:1041F00030680022062105F0F3FA504600F086FBF5
:1042000000284ED130680022072105F0E9FA504617
:1042100000F07CFB002803E043E040E006E037E0EC
:104220003FD10A21484605F089FC31E03068002280
:104230000A21C3699847504600F068FB002830D136
:1042400094F84C00C00704D130680022032105F027
:10425000C7FA504600F05AFB002822D130680022ED
:10426000062105F0BDFA504600F050FB002818D199
:1042700030680022072105F0B3FA504600F046FBF3
:1042800000280ED104E018B90121484605F069FC68
:1042900094F84C00656420F0010084F84C00C6F8E6
:1042A0000080BDE8F88F00001C0000202DE9F047D9
:1042B0000E46897B0027044690F84C00012923D044
:1042C000010706D520F0090084F84C00676484F8E3
:1042D0002070D4F854805FEA08007AD005F0B6FB6D
:1042E0006E4D0028286074D0736804F11C09616A5F
:1042F0006362B37B94F8202084F82030B37B012BD9
:1043000005D0002B7DD0C5E0000762D4E1E712B1F3
:10431000012A3BD0BEE00BF0A1FB606471680A2962
:1043200009D01B2918D0092920D00B2926D04046B6
:1043300005F004FCAEE00A21404605F0FFFB2868CA
:1043400000220721C3699847484600F0DFFA002899
:104350003FD10022114605E01B21404605F0EEFB4F
:1043600000221221286805F03BFA48E0002140466F
:1043700005F0F7FB404605F0FDFA40E0002140461D
:1043800005F0EFFB404605F04BFB38E094F84C009D
:10439000C00721D1606C0BF05BFBE18A884294F886
:1043A0004C0017D940F0010084F84C0070680A28CE
:1043B00070D10BF053FBA064002228680B21C36965
:1043C0009847484600F0A2FA002864D10022042150
:1043D000C8E760E0C0075DD0A06C0BF039FB218B13
:1043E000884257D90BF03AFBA06471680A290ED0B5
:1043F0000929BBD00B29C1D0404605F09FFB484698
:1044000000E011E000F082FA002844D142E0286880
:1044100000220C21C3699847484600F077FA00282B
:1044200039D1002205219DE7012A33D10A29716083
:1044300029D1C36900229847484600F067FA00284E
:1044400029D194F84C00C00709D128680022032123
:1044500005F0C6F9484600F059FA00281BD1286833
:104460000022062105F0BCF9484600F04FFA00286A
:1044700011D128680022072105F0B2F9484600F062
:1044800045FA002807D194F84C00676420F0010039
:1044900084F84C002F60BDE8F08700001C0000206D
:1044A0002DE9F041974D04468069286094F830105A
:1044B00009077DD46968CE6838B194F8241089075B
:1044C0001DD4102108F0CEFCC8B9304602F0F5FA30
:1044D0000146204600F026FA286080B9304602F0F6
:1044E000F4FA0146204600F01DFA286038B930463B
:1044F00002F0F3FA0146204600F014FA2860A6699B
:104500002868864258D0A088E188208161819EB1C8
:10451000F36909216A6830469847204600F0F6F9A9
:10452000002845D100223046022105F059F92046E5
:1045300000F0ECF900283BD12868A061E061C0B32D
:104540000BF08CFAA062002094F83010064621F09F
:10455000010184F8301094F8241021F0030184F84C
:10456000241020826082A081E081286807E000BFDB
:1045700090F83010890600D5064608F093FB002815
:10458000F6D116B1304608F073FC286807216A6836
:10459000C3699847204600F0B9F9002808D10022E5
:1045A0002868114605F01CF9204600F0AFF901E03B
:1045B0007FE001E000287CD1B4F91400B4F91610B2
:1045C000A288238900EB8000E68801EB81016789DE
:1045D000D21A13B2A381F61B32B2E28140F3CF00AC
:1045E00041F3CF01E1820028A08202DA00F101004C
:1045F00002E002DDA0F10100A082002902DA01F14F
:10460000010102E002DDA1F10101E182A08A00EBDB
:104610006300A082E08A00EB6200E0822868002844
:104620006DD0C3694FF008016A689847204600F0D2
:104630006DF9002863D128680022012105F0D0F827
:10464000204600F063F9002859D12046FFF7FCFA14
:10465000204600F05BF9002851D194F8240080072F
:104660004DD494F83000C0072CD1A06A0BF0F0F9BB
:104670006A68D18A88421BD928680B21C369984788
:10468000204600F043F9002839D12868002204218F
:1046900005F0A6F8204600F039F900282FD194F84B
:1046A000300040F0010084F830000BF0D7F9E062F0
:1046B00000E024E094F82400800720D494F830002F
:1046C000C0071CD0E06A0BF0C3F96A68118B8842FE
:1046D00015D928680C21C3699847204600F016F9BF
:1046E00000280CD128680022052105F079F8204621
:1046F00000F00CF9002802D10BF0B0F9E062BDE83F
:10470000F08100001C0000202DE9F04790F83010E7
:1047100004464FF0000908070BD5C4F8189021F0A3
:104720000801C4F81C90C4F82890C4F82C9084F8B0
:104730003010664DA069002828607DD0102108F057
:1047400091FB002828686A684FF00A01C3690ED0FF
:104750009847204600F0DAF800286ED194F824003B
:10476000800726D494F83000C0070ED017E0984791
:10477000204600F0CBF800285FD194F83000C00745
:104780000DD194F82400800709D428680022032161
:1047900005F026F8204600F0B9F800284DD1286829
:1047A0000022062105F01CF8204600F0AFF8002892
:1047B00043D128680022072105F012F8204600F0B6
:1047C000A5F800287FD1204600F0A0F800287AD173
:1047D0002868002708F03CFA20218046286808F065
:1047E00041FBC8B92E680CE0304608F05BFA0600C1
:1047F00012D0202108F036FB70B9304608F028FAB4
:104800008046B8F10000EFD036B105F011F918B1CB
:104810000127304605F0B6F8206A2968884218D08A
:10482000BFB900220D2104F0DBFF204600F06EF836
:10483000002848D1002201E036E044E0A0690C21C4
:1048400004F0CEFF204600F061F800283BD1286834
:104850002062204600F05AF8002834D12D6803E089
:10486000284608F01FFA0546284608F0E5F910B179
:10487000002DF5D112E08DB1284608F0E2F968B1BB
:1048800094F82400800709D5002228460A2104F064
:10489000A7FF204600F03AF8002814D1C4F8189079
:1048A000C4F82890C4F82C90E06900280BD094F844
:1048B0003000800707D42046FFF7B8FA2046BDE84D
:1048C000F04700F023B8BDE8F08700001C0000208E
:1048D00090F84C20910715D500214163816322F0A7
:1048E0000302C16390F8403023F0030380F84030A6
:1048F000416481648185C1850186418680F84C20B0
:1049000001480160704700001C00002090F8300052
:10491000810702D5024A00211160C0F340007047B0
:104920001C0000202DE9F0410C460746011D002522
:1049300004F1100000F021FB10B3201D07F0E8FB8C
:1049400009E001463846FFF7EDFF050018D1201DAC
:10495000314607F0E3FB0600F3D1204608F033F9B7
:1049600070B1264609E0304608F088F908B136B142
:1049700006E0304608F096F90646002EF3D12546AB
:104980002846BDE8F08130B505460C46A1F57F40CC
:10499000FF3887B02BD0284608F058F9406800EB64
:1049A000C4000168009102A940680190284608F0FF
:1049B0000FF9BDF80010BDF808000144ADF8001073
:1049C000BDF80220BDF80A100A44ADF80220BDF877
:1049D00004201044ADF80400BDF806000844ADF80A
:1049E0000600284608F0FCF8694606F0EDF807B026
:1049F00030BD03880A88934201D0981A70474088D6
:104A00004988401A704703780A78934201D0981A6F
:104A1000704740784978401A7047000070B5032904
:104A200092B06BD108F03EF908F03CF905460AF067
:104A30004FFB0021284606F021F91422044650219C
:104A400008F02AFB0121284606F092FD0F20009075
:104A50006FF00906204602223346002107F006FDCA
:104A600027A1204606F061FE0021284606F006F93F
:104A700028220446642108F00FFB0121284606F095
:104A800077FD1E203346022200900021204607F0C9
:104A9000EDFC14210520FCF76BF900EE100A9FEDE8
:104AA0001A2B9FED1B1AB8EE400B5626029620EEED
:104AB000020BB7EEC00BFCEEC00A10EE900A82B2F9
:104AC00000EE902A0A20F8EE600A30EE600A20EE2E
:104AD000010ABDEEC00A10EE101A91FBF0F591FB31
:104AE000F0F300FB15100BA1CDE900302E2303A835
:104AF000FBF792FC03A9204606F017FE12B070BD2A
:104B000042617474657279006666666666664A3FDD
:104B10000000C842256425632564256425630000E0
:104B200070470000F8B50646002001F0AFFF604A6C
:104B300000210546304609F0D8FA5D4A0121304689
:104B400009F0D3FA0021304609F0A9FA59495A4828
:104B500009F012FF032140F23332332361F31F12B5
:104B60001846194601F076F9534C002100900123B4
:104B7000BDF80000343C00907F22BDF8000024F80E
:104B8000360F0091BDF8007067804C4F4A48FF68AF
:104B90000097BDF8007027818381C273C1800146F0
:104BA0003C3009F0E9FED8229621552001F052F957
:104BB00000909022BDF800006221A087372001F00C
:104BC00049F90090F122BDF80000D521E087BB2013
:104BD00001F040F900903848BDF800104C300182D7
:104BE0000021304606F080FF0446304608F032F8D7
:104BF000400001B2204608F0ADF92946204608F0F1
:104C000095FA2F4A0021204607F01CF92C4A012171
:104C1000204607F017F9284A0421204607F012F928
:104C2000254A052120463C3207F00CF90F20009060
:104C3000002320460222194607F018FC21A2204634
:104C400022A106F025FE224908F082F921A2204681
:104C500024A106F01DFE244908F07AF923A220467B
:104C600027A106F015FE204908F072F925A220467A
:104C700029A106F00DFE1C4908F06AF927A220467A
:104C80002BA106F005FE184908F062F929A220467A
:104C90002AA106F0FDFD144908F05AF928A2204681
:104CA00029A106F0F5FDBDE8F8400F4908F050B91C
:104CB000500F0020B8100020041B0520342D0108DF
:104CC0008C0F00204261747465727900EF89830053
:104CD0001D4A000844726976696E672074696D65C3
:104CE00000000000EF809C00214B00085375727695
:104CF00065696C6C616E63652063616D65726100EE
:104D0000EF80BE005769746820656E67696E652024
:104D100068656174696E6700EFA3BF0053746174C6
:104D2000696F6E617279206169722D636F6E000028
:104D3000EF81800054656D702E000000EF83A700A6
:104D400054696D6500000000EF83B300084824211A
:104D500010B507F0FAF90AF081FE06490023032294
:104D600048601E21BDE8104003480AF03BBD00002A
:104D700008120020380C0020F134000870B541689A
:104D8000044611B1206800F01FF80D4807F0E7F95C
:104D9000050014D094F820002422214620F00400BD
:104DA00084F820002846FBF7FDFC6A681AB1298ABE
:104DB000286809B2904703490120087070BDFEE7DA
:104DC00008120020380C00202DE9F04700268A4602
:104DD0008146134807F09CF9DFF848800127044614
:104DE00018E00F48214607F099F921680546494522
:104DF0000FD16168514502D0BAF1000F09D10848BE
:104E0000214607F057FA204607F0BEFA012688F837
:104E100000702C46002CE4D13046BDE8F08700003D
:104E200008120020380C0020028BB0F91A108A42B8
:104E300002D14FF4806102E0890291FBF2F1D0E9E6
:104E40000423981A484302EBA02000B270478B1A43
:104E5000002B00DC531A4FF47A714B4393FBF0F0B4
:104E6000B0F5803F02D34FF6FF7001E000B901209A
:104E700080B27047C1884088081A401C00B2704751
:104E800010B5B0F90410B0F90020B0F90630B0F94F
:104E90000240881A401C191B491C484310BD8188D8
:104EA0000088081A401C00B2704781880088081AE0
:104EB000401C00B2704770B5B1F90040B2F9003043
:104EC0009C4200DD23460380B1F90250B2F9024052
:104ED000A54200DD2C464480B1F90460B2F90450CB
:104EE000AE4200DA35468580B1F90610B2F90620E7
:104EF000914200DB1146C180AB424FF0010001DC62
:104F00008C4200DD002070BD10B5B0F900300022E9
:104F1000B1F90040A34212DBB0F90230B1F902400E
:104F2000A3420CDBB0F90430B1F90440A34206DC23
:104F3000B0F90600B1F90610884200DC01221046E3
:104F400010BDB0F90020B1F904309A4213DCB0F979
:104F50000420B1F900309A420DDBB0F90220B1F91A
:104F600006309A4207DCB0F90600B1F90210884217
:104F700001DB012070470020704710B5B0F90040F8
:104F80000022B1F90030A3420EDBB0F90440A34285
:104F90000ADCB1F90210B0F90230994204DBB0F931
:104FA0000600814200DC0122104610BD10B5B1F9A7
:104FB0000040B2F900309C4200DA23460380B1F988
:104FC0000240B2F902309C4200DA23464380B1F934
:104FD0000440B2F904309C4200DD23468380B1F9DD
:104FE0000610B2F90620914200DC1146C18010BDC6
:104FF00010B5029C018042808380C48010BD42882D
:10500000491E1144C1807047034670B580881C88D2
:10501000DD885E88001B1980401C5A80AA1B01B2E3
:105020001846521C14B200F006F821461846BDE896
:105030007040FFF7E4BF0288491E11448180704729
:105040002DE9F0410D46074600F068FF060003D049
:10505000384C206808B104E0FEE7304607F02AFE2D
:105060002060606818B9304607F0B7FD60601C2109
:10507000304607F08FFB04002ED0207E2E49616061
:1050800020F00F002D49A1602D49E1602D492161DB
:105090002D4961612D492076304607F0FBFF2C49F0
:1050A000304607F037FFC5B1284607F0CFFD027E36
:1050B000217E62F302012176027ED20862F3C301EF
:1050C0002176011D1422201DFBF76CFB304607F0F2
:1050D0000CFF3046BDE8F081FEE71FB101213046EC
:1050E00001F0D9FB0121304607F00DFF0AF0A6FCC4
:1050F000050019D02A690021304600F05FF86A697E
:105100000121304600F05AF8AA690221304600F029
:1051100055F8EA690321304600F050F82A6A042164
:10512000304600F04BF8D4E76168304607F0F4FFF2
:10513000CFE70000800C0020B8100020F410002001
:10514000301100206C110020A8110020015200082D
:1051500055510008022A10B505D0054B5B6822B1F5
:10516000012A02D002E0002010BD9847012010BDA6
:10517000800C002010B507F069FD007E00F00700EC
:1051800010BD10B507F062FD007EC0F3C00010BD79
:1051900070B50C46054607F059FD017E01F0070287
:1051A000A2420AD064F30201017600EB8400416858
:1051B0002846BDE8704007F0AFBF70BD70B514461B
:1051C0000D46064607F042FD052D0DD2DFE805F03D
:1051D000030507090B00446006E0846004E0C46036
:1051E00002E0046100E04461017E01F0070100EB90
:1051F000810041683046BDE8704007F08DBF000077
:105200002DE9F84F564B91460D4683461B6898474B
:105210000128044679D1584607F018FD074658463C
:10522000FFF7AFFF072D064610D0092D2AD0082D15
:105230001FD00A2D4FF001084FF0000A1ED0112D8B
:1052400058D0002D01D0062D7AD085E0387E410758
:1052500004D000F00700022802D07DE0012104E024
:10526000032102E0002100E002215846FFF790FFF1
:1052700072E0484605F09DFB20B96DE0484605F018
:1052800098FB38B1387E00F007000128EAD00328E7
:10529000EAD061E0CDF800A05546387E00F0070066
:1052A000012800D116B1032806D006E00021584697
:1052B000FFF76EFF00954FE016B1012807D00EE012
:1052C00002215846FFF764FFCDF8008044E036B174
:1052D00002215846FFF75CFFCDF8008026E0032846
:1052E00001D01EBB38E04EB300215846FFF750FFF7
:1052F00000951BE099F80000132807D0112805D06D
:10530000142809D0122807D026E026E05846FFF7D7
:1053100038FF0028DCD11FE05846FFF732FF68B1A4
:1053200000215846FFF734FFCDF800A00E216A4651
:10533000584604F055FA012804460ED10CE0FFE768
:105340000020494651F820201AB1401CC0B207285D
:10535000F8D304A249F820202046BDE8F88F0000C9
:10536000800C00206C765F62746E000070B515468C
:105370000C46064607F06AFC018CA1420BD98068F6
:1053800030F81410A94320F8141021463046BDE827
:105390007040FFF7F8BA70BD2DE9F0410E460746A0
:1053A00007F054FC0024054606E032462146384604
:1053B000FFF7DCFF641CA4B2288CA042F5D8BDE83E
:1053C000F08100002DE9F0410F4607F003FA0600D6
:1053D00003D0404D686808B104E0FEE7304607F0AE
:1053E00069FC68602821304607F0D4F904001BD01E
:1053F000002020844FF6FF716184A1846060A0606A
:10540000206094F8260020F0030084F8260032483B
:10541000E06032482061324860613248A061324821
:10542000E061286808B104E0FEE7304607F0D5FBEC
:10543000286030462D4907F02DFE2D49304607F0F3
:1054400069FD9FB1384607F001FC00F10C01142200
:1054500004F10C00FBF7A6F9384600F097F9014675
:10546000304600F0CBF93046BDE8F0817822304676
:10547000B42107F011FE17493046083100F0BEF99B
:105480000AF0DCFA04001FD054F89C2F00213046AB
:1054900000F0BEFA62680121304600F0B9FAA26855
:1054A0000221304600F0B4FAE2680321304600F0F1
:1054B000AFFA22690421304600F0AAFA6269052198
:1054C000304600F0A5FACEE70A49304607F024FE40
:1054D000C9E70000880C0020B8100020F41000205C
:1054E000301100206C110020A8110020555A00082E
:1054F000F9540008401000202DE9F04F81469648ED
:10550000022A8B469DB0036801D02AB11FE11DB06D
:105510004846BDE8F04F184748469847484607F0C8
:1055200095FB0546484607F0C7FB1A90484607F02A
:10553000ABFB18A91B90484607F04AFB95F82600DC
:10554000002634463746C00700D001274FF0040A32
:10555000F9E0641CA4B2286880A150F82400FBF78D
:10556000A5F90028F5D0A86810F81600C0F3C0000F
:1055700000287DD16868BDF8602000EBC600BDF84A
:1055800062300168069140680790BDF81800BDF8C8
:105590001CC08118ADF818106244ADF81C20521AD6
:1055A000BDF81A00BDF81E10521C1844ADF81A00C0
:1055B0001944ADF81E10081A401C12B2049200B231
:1055C0000390A86810F81600C0F3C011C0F3401093
:1055D00008B1052114E0688CB04200D039B1B04266
:1055E00000D131B1B04206D029B1032108E0012138
:1055F00006E0022104E0B042F9D10029F7D00421ED
:10560000484600F0C8F88046014609A809F0B4F9F8
:105610009DF83200C10640D51A99B9F91220B1F9A6
:105620001630BDF91A101A448A4203D120F0020044
:105630008DF832001A98B9F91610B0F91820BDF992
:105640001E00891A814205D19DF8320020F0010028
:105650008DF832004CB128686FF0030101EB840132
:1056600040583EA1FBF722F938B99DF8320000E01E
:1056700065E020F004008DF8320029680AEB840010
:105680000858017819B135A1FBF710F928B99DF830
:10569000320020F008008DF832001B9B09AA06A8F2
:1056A000594602F0D5F898F80000C00701D0DDF89F
:1056B0006880BDF86400BDF86010401AB8F92A107F
:1056C000401CD8F8242000B20297CDE900102868C9
:1056D000B8F9283050F8241008A80AF04FFABDF99C
:1056E00020300498BDF81810C01ABDF9222000EB34
:1056F000D07001EB60010398ADF818101944801ABE
:10570000ADF81C10594600EBD07CBDF81A0000EB38
:105710006C00ADF81A0083184FF6FF720020ADF848
:105720001E30CDE90202CDE90420286842461B9BC9
:1057300050F82400CDE9000706A801F063FB761CB1
:10574000641CB6B2A4B2288CB0423FF604AF1DB0C0
:105750000120BDE8F08F0000880C00200A00000046
:1057600010B507F073FA808C10BD70B515460C4665
:1057700007F06CFA018CA14201D8002070BD80684E
:1057800030F814002840F9D0012070BD10B507F0A2
:105790005DFA006810BD70B500240D46064607F09E
:1057A00055FA062D12D2DFE805F003080A0C0E1098
:1057B000304607F081FA044608E0C46806E0046950
:1057C00004E0446902E0846900E0C469204670BDD9
:1057D00070B515460C46064607F038FA018CA14212
:1057E0000BD9806830F81410294320F81410214692
:1057F0003046BDE87040FFF7C6B870BD2DE9F34FE5
:105800000C0087B07ED0079807F020FA0668814622
:10581000A6421AD0AEB1002505E000BFFBF746F85E
:1058200078B96D1CADB256F82500017829B154F84D
:1058300025100A78002AF1D103E054F825000078F9
:1058400018B107982146FDF7D7FDC9F8004000219F
:105850000798FFF7A0FF0546079807F085FA6A8BBF
:105860000146A88B891A081A00B20690079807F01B
:10587000F1F9B5F9161000262B8B4FF00108401AEC
:105880000191C01A00B203900CE000BF54F826004A
:105890005EA1FBF70BF818B908F1010000F0FF0852
:1058A000761CF6B254F82600FAF718FF0028EDD15E
:1058B000EA8BC8F1010003990026274610FB02106D
:1058C00000B290FBF8F0401E00B202904FF00008CA
:1058D00044460BE0D9F80800311930F81100FEF702
:1058E000B8F8641C40441FFA80F8A4B247A157F8E6
:1058F0002400FAF7DBFF38B157F82400FAF7EEFE80
:10590000002800E07FE0E5D157F82400007838B99E
:1059100001990398401A298B401E084400B2029056
:10592000E4B3B5F91E10C4F1010206984FF0000B64
:10593000DA4602FB0102DDE901100844049010B2CE
:10594000059048E0D9F8080030F81600FEF781F815
:105950000599B5F91EC0B5F91A2010FB01F00BFB33
:1059600001F190FBF8F091FBF8F10AFB0C23BCF17C
:10597000000FA0F10100194409B200B20FD18A4210
:105980000DD0049A6FF0030312B200920A18D9F8EE
:10599000040003EBC60113B2415E07E01DE0049A68
:1059A00012B200920A18D9F8040013B2019A00EB5F
:1059B000C600FFF71DFBD9F8080030F81600FEF707
:1059C00048F800EB0B01761C0AF101001FFA81FB7D
:1059D000B6B21FFA80FAA245B4D3DDE90110EA8B12
:1059E0000844104400B2019057F82400FAF776FEFC
:1059F00018B107EB84073F1D68E7079809B0BDE8B9
:105A0000F04F07F0D1B909B0BDE8F08F0A000000EF
:105A100070B514460D46064607F018F9062D18D243
:105A2000DFE805F003090B0D0F1121463046BDE8F4
:105A3000704007F071BBC46006E0046104E044619B
:105A400002E0846100E0C4613046BDE8704007F0C8
:105A5000ABB970BD2DE9FC5FD84B91460F4683462C
:105A60005B689847012806467DD1584607F0EEF856
:105A70000446E7B1042F21D0022F1FD0072F4FF685
:105A8000FF7520D0082F46D00A2F70D00C2F6CD075
:105A9000092F6BD0102FFCD00F2F4FF0000875D0BE
:105AA000112F74D0122F73D0062F72D082E160684C
:105AB00006F06AFCA06806F067FC7BE101685846C6
:105AC000FFF79CFE76E104F039FF074604F05AFF29
:105AD000012804D0384604F055FF032812D1694646
:105AE000484604F041FF69465846FDF774FF618C53
:105AF00007465846FEF747FFA7843946584667844D
:105B0000FEF741FFA08CA842D0D0A16831F8100068
:105B1000C0F3002177E06946484604F025FF694656
:105B20005846FDF758FF618C0746B94218D04846E1
:105B300005F00BF8618CA94202D05846FEF723FF0E
:105B4000AF420DD0A08C0E2101AA0190584603F05F
:105B500047FE0128064603D139465846FEF713FF93
:105B60006784A78426E126E101E044E04EE0618CF1
:105B7000A9429BD0A26832F81100C0F38013ABB1E8
:105B8000C0F3C01333B120F0800005E041E05CE0D9
:105B9000FFE002E140F0800022F8110094F82600B6
:105BA000800703D5618C58460AF0ADF9618C5846E0
:105BB000FEF7E9FE584607F04BF803F047FF58455B
:105BC00000D06584A18CA06830F81100C0F30021DA
:105BD0000029C7D0C0F3401100290BD1C0F3C00089
:105BE000002807D1A08C0E2101AA0190584603F08D
:105BF000F7FD0646DEE0A08CA84206D0A16831F889
:105C00001000C0F300110029E4D0D3E0658485843E
:105C100045E004F093FE074604F0B4FE012802D0EC
:105C2000042809D048E001A9384604F09DFE01A9E6
:105C30005846FDF7D0FE24E0584607F009F803F077
:105C4000FEFE80BB6584608C28E099F80000132874
:105C50000AD0142817D012284FF002094FF0040779
:105C600022D011285CD0A5E0608CA84202D1A4F813
:105C7000228001E0401C6084208C618C401E8142A7
:105C8000E1DB6084DFE7608CA84203D14046A4F8E2
:105C9000228002E008B1401E608480B2A084584691
:105CA00007F082F886E007E000215846FFF773FD11
:105CB000628C8246AA4202D1A4F82280C3E76168BE
:105CC0004B46B946258C07EBC207104631F832C067
:105CD000CF5BA7EB0C077F1C47F34E0767443FB22F
:105CE00019E000BF03EBC00C03EBC20831F90CC094
:105CF00031F90880C4450CDD31F930C0BC4508DC01
:105D000009EBC00CBAF91A8031F90CC0C444BC4587
:105D100003DA401C80B28542E4D88542B1D892E7CC
:105D200000215846FFF737FD628C8446AA42C3D053
:105D3000616807EBC2054B46B946B4F922004D5BDA
:105D400031F83270ED1B6D1C45F34E053D442DB20C
:105D500018E000BF03EBC00703EBC208CF5F31F9C7
:105D6000088047450CDA31F93070BCF91A80A7EB8E
:105D70000807AF4204DC09EBC007CF5FAF4204DA8B
:105D8000401E00B20028E5DA5DE70028BFF653AFF9
:105D900059E7012189F800100CE05FF00000494646
:105DA00051F820201AB1401CC0B20728F8D304A231
:105DB00049F820203046BDE8FC9F0000880C0020F8
:105DC0006C765F62746E6D00B0F90210B0F900007D
:105DD000814201DC012070470020704710B502802D
:105DE00000244480C2F101030B8010BD10B542882D
:105DF0000124521C13B24380B1F90020002A03DCB5
:105E000004EB4300104407E00288521E0280981AF7
:105E10000A8804EB40001044088010BDC2B2C0F3F1
:105E2000072108B5C0F3074000F014F80090BDF852
:105E3000000008BD08B5D2088908BDF80030C008C8
:105E400062F3040361F34A1360F3CF23ADF800302B
:105E500098B208BD08B5D2088908BDF80030C0085E
:105E600062F3040361F34A1360F3CF23ADF800300B
:105E700098B208BDF8B589B2C2F1FF04CD0ABDF8E9
:105E80000030C1F3451680B201F01F0115FB04F587
:105E900016FB04F611FB04F1C0F34517C40A00F029
:105EA0001F0014FB025417FB026510FB0211220AAB
:105EB000280A62F3CF23090A60F34A1361F304034B
:105EC000ADF8003098B2F8BDF8B589B2C2F1FF0460
:105ED000CD0ABDF80030C1F3451680B201F01F01B4
:105EE00015FB04F516FB04F611FB04F1C0F345178E
:105EF000C40A00F01F0014FB025417FB026510FBDC
:105F00000211220A280A62F3CF23090A60F34A1316
:105F100061F30403ADF8003098B2F8BD2DE9F0410B
:105F20000E46074606F056FC050003D0264C2068B6
:105F300008B104E0FEE7284606F0BCFE206002211E
:105F4000284606F027FC284606F080FE041E2DD0C9
:105F50006178207821F00F01617020F0FF001B496B
:105F60002070284607F096F816B3304606F06EFE0D
:105F7000027801462078120962F3051020700A7831
:105F8000920962F3871020704B78627863F3010204
:105F900062704B789B0863F383026270097861F347
:105FA00003002070284606F0A0FF2846BDE8F081D7
:105FB000002FFAD009F042FD08B1C16800E00449A1
:105FC000284607F0A9F8F0E7AC0C0020C1680008EB
:105FD0004010002010B506F039FE0078C0F3011023
:105FE00010BD10B506F032FE407800F0030010BD81
:105FF00010B506F02BFE007800F00F0010BD2DE963
:10600000F843044606F058FE00268046201D374619
:1060100006F07EF814E006F031FE68B90421284647
:1060200006F020FF40B9284606F014FEB8F81E100E
:106030003844761C084407B22946201D06F06EF845
:106040000500E8D1002E3BD0B8F81E000121381A17
:1060500005B2204607F018F805EBD5704010404215
:1060600006B2201D06F06BF822E006F007FED8B954
:106070000421284606F0F6FEB0B9284606F0EAFDEF
:1060800000EBD0702146002306EB60001A4600B2F8
:106090000090284606F0EAF9284606F0DBFDB8F83D
:1060A0001E103044084406B22946201D06F03FF871
:1060B0000500DAD12046BDE8F843012106F084BB93
:1060C000BDE8F8832DE9F8438046FFF791FF0546C8
:1060D000404606F0F1FD022D044610D0032D11D0EC
:1060E000042D12D0002601254046012106F0CCFFE8
:1060F000B4F9169008F1040006F021F827E0B4F98D
:106100001A60F0E700260225EEE7A08B0325404247
:1061100006B2E9E706F0B2FDA0B90421384606F060
:10612000A1FE78B933462A4641463846CDF800905C
:1061300006F09CF9384606F08DFDE28B4844104489
:106140000FFA80F9394608F1040005F0F0FF070066
:10615000E0D14046BDE8F843012106F035BB000020
:106160002DE9F84F804606F0A7FD0446404606F0AC
:10617000FBFD00210746404606F017FD06F0F4FD42
:1061800000210546404606F010FD06F063FD01467D
:10619000B4F91A00B4F91C203B1AB4F91E009A1A7B
:1061A000431992FBF3F39EB2012E06D9531906FB55
:1061B0001533721E93FBF2F206E007EBD77205EB84
:1061C000D5735210A2EB6302084400B2009017B2DC
:1061D0004046012106F058FFB4F91AA008F1040066
:1061E000B4F916B04FF0000905F0A9FF2BE000BF8D
:1061F00006F044FD10BB0421284606F033FEE8B942
:10620000012E5A4608D95146284606F0FCFE0AEBF4
:1062100007000FFA80FA03E03946284606F0F3FE3D
:1062200009F101001FFA80F9B14507D300994FF039
:106230000009B4F91AA059440FFA81FB294608F164
:10624000040005F074FF0500D2D14046BDE8F84FC8
:10625000012106F0B9BA2DE9FC5F804606F02CFD5D
:106260000746404606F080FD019008F10400B7F9AA
:1062700016A005F064FF04006FD00121404606F02F
:1062800003FF2546798BBA8B4FF000094E468818DC
:106290000FFA80FB284606F0F1FC78BB0421284663
:1062A00006F0E0FD50BB284606F05EFD00EB0B015A
:1062B0000198814208DD5DB3E6B308F10400294688
:1062C00005F02CFF054624E0284606F04DFDFA8B2C
:1062D000584410440FFA80FB284606F0BBFC4845A2
:1062E000494601DA084602E0284606F0B3FC0821D8
:1062F0008146761C284606F0B5FD48B908F1040031
:10630000294605F014FF054606B90446002DC1D103
:10631000A6B1012E22D0022E27D0B7F91E20711E61
:1063200002FB16B0019A00B2B7F91A60101AB0FB5E
:10633000F1F000E004E00FFA80FB78E0002D7ED061
:106340000023414602222846CDF800A006F08EF830
:10635000284606F07FFC81466CE082E0002341463F
:1063600002222046CDF800A036E0264608F10400BF
:10637000314605F0DCFE8346304606F0F5FC044667
:10638000584606F0F1FC0199204400B20322081A95
:1063900090FBF2F004B2304606F05CFCA9EB000082
:1063A0002346012200EBD0710AEB6100414600B2A6
:1063B0000090304606F05AF8584606F04BFCA9EB20
:1063C0000000032200EBD0710AEB6100614200B2D1
:1063D00000900BB24146584606F048F829E02046A6
:1063E00006F04CFCD8B90421204606F03BFDB0B9BC
:1063F000204606F02FFCA9EB00003346012200EBFB
:10640000D0710AEB6100414600B20090204606F0D0
:106410002DF8204606F0A8FC5844304406B2AC42A1
:1064200007D008F10400214605F081FE0446002C47
:10643000D5D125B1FA8B0AEB0900104400E00AE03F
:106440000FFA80FA294608F1040005F070FE0400F6
:1064500025467FF417AF4046BDE8FC5F012106F0FA
:10646000B3B9BDE8FC9F2DE9F8438046FFF7C0FDB6
:106470000546404606F020FC052D044610D0062DAA
:1064800011D0072D12D0002501264046012106F02B
:10649000FBFDB4F91A9008F1040005F050FE26E067
:1064A000B4F91650F0E700250726EEE7208B042606
:1064B000404205B2E9E706F0E1FB98B9042138460D
:1064C00006F0D0FC70B94B4632464146384600953E
:1064D00005F0CCFF384606F047FCE28B48441044F8
:1064E0000FFA80F9394608F1040005F020FE070094
:1064F000E1D14046BDE8F843012106F065B900004E
:106500002DE9FF5F074606F0A1FB8146007810F0F9
:10651000300F08D1800906D199F80100810702D116
:1065200010F00C0F7ED0384606F0C6FB0546384604
:1065300006F0B8FB834606F0BFFB0346DBF8140009
:10654000DBF810405E8B998BDA8A2644411A1B8B4C
:1065500066F30F0461F30F0002EB2442C3EB20410A
:1065600062F31F4461F31F4002A98046384606F0DB
:106570002FFB6946384606F02BFB381D05F061FEFF
:1065800080F001005FEA000A55D047F61841ADF8E7
:1065900000104842ADF80400ADF80210ADF8060056
:1065A000381D05F0B5FD2AE006F068FB18BBB6F90A
:1065B0001000BDF90010814200DA0846ADF8000075
:1065C000B6F91200BDF90210814200DA0846ADF8B2
:1065D0000200B6F91410BDF90400884200DC084638
:1065E000ADF80400B6F91600BDF90610814200DDD1
:1065F0000846ADF80600381D314605F08FFD06004F
:10660000D2D1BDF80000698B401AADF80000BDF88A
:106610000400A98B0844ADF80400BDF80200E98A23
:10662000401A00E0BCE0ADF80200288BBDF806106F
:106630000844ADF8060099F80000DDE90256C0F301
:106640000110012804D0022805D0032813D105E049
:10665000BDF800000DE064F30F050CE0BAF1000F87
:1066600006D0BDF9000021B2884202DB084600E0F6
:1066700020B260F30F0599F800008009012804D0CA
:10668000022805D0032815D105E0BDF804000FE06D
:1066900068F30F060EE0BAF1000F07D0BDF9040051
:1066A0000FFA88F1884203DC084601E00FFA88F00F
:1066B00060F30F0699F8010000F00300012804D0F0
:1066C00002281CD0032805D10FE0BDF8020000BF4E
:1066D00060F31F4599F80100C0F38100012810D034
:1066E000022850D0032811D142E0BAF1000F06D0A1
:1066F000BDF9020021148842EADB0846E8E72014CD
:10670000E6E7BDF8060000BF60F31F46B7F91000CA
:1067100029B288420ED1B7F912002914884209D152
:10672000B7F9140031B2884204D1B7F91600311418
:10673000884235D0384606F037FB3D6138467E61E9
:1067400006F032FBFB69022102AA38469847DBF8C3
:106750001C30012158463A469847384606F020FA40
:1067600010B1384606F0A0FB381D05F0D1FC15E04D
:10677000BAF1000F07D0BDF906104FEA2840814258
:10678000C2DD0846C0E74FEA2840BDE7E3690022C2
:1067900003219847381D214605F0C0FC0400F5D1BF
:1067A000BDE8FF9F70B50546FFF722FC00210446B7
:1067B000284606F0FAF900282CD0002C2AD0012C0B
:1067C00014D0022C17D0032C15D0042C13D0052C78
:1067D00016D0062C14D0072C12D0082C15D0092C5A
:1067E00018D12846BDE87040FFF7BABC2846BDE87E
:1067F0007040FFF704BC2846BDE87040FFF762BC5C
:106800002846BDE87040FFF72EBE2846BDE8704020
:10681000FFF721BD70BD08B5134600920A4600F08F
:1068200008F808BD08B5134600920A4600F001F8C2
:1068300008BD2DE9F0411C4615460E468046069FD0
:1068400006F0B2FA404606F001FA0178C1F30112EF
:10685000B2420BD1B5EB911F08D1427802F003038D
:10686000A34203D1C2F38102BA4212D066F30511EA
:10687000002265F387110170417864F3010167F329
:1068800083014170D8F81C304046BDE8F041012139
:106890001847BDE8F08170B50C46054606F0D6F9FC
:1068A000017801F00F02A24209D064F303010170E4
:1068B000EB692846BDE8704000220121184770BDF1
:1068C000204B2DE9F0411B6814460D4607469847BA
:1068D0000128064633D1042D08D0012D06D0022D03
:1068E0000BD0032D05D0062D1CD027E03846FFF72E
:1068F00059FF3846FFF704FE20E0384606F034FA28
:10690000A1882288891A491C09B28842EED13846EA
:1069100006F0A0F9E1886288891A491C09B2884208
:10692000E4D10BE05FF0000154F8210018B1491CDC
:10693000C9B20729F8D304A044F821003046BDE8C5
:10694000F0810000AC0C00206C765F636F6E740009
:106950002DE9F0411E4617460D4604461C21F9F765
:106960007DFFC4E90057C4E90256BDE8F08100008C
:1069700038B520210446F9F771FF0020E060F022CD
:1069800022804FF4A071618007496060A2680968A5
:10699000009122F00201BDF8002041F00101A28324
:1069A000A160606138BD0000202D010870B505466A
:1069B000254805F0D4FB040017D020222946F9F71A
:1069C000F1FE202104F59E70F9F748FF4FF4807125
:1069D00004F13C00F9F742FF442104F1240005F0E2
:1069E000B4FB1A4D286808B101E0FEE72C600020D6
:1069F0002E6801462C60C4F85C0105F0EBFE002116
:106A00002063084605F0E6FE00216063084605F0B5
:106A1000E1FEA0630E49606B06F07EFB0C49A06BA3
:106A200006F07AFB206B06F0BFF90A4803221E210C
:106A300023462E6008F0D6FE206218B108F0C8FF89
:106A4000204670BDFEE70000F01100202C0C002055
:106A5000140F0020616B00084068816921F001017A
:106A60008161704718B904480068002802D0007A94
:106A700000F00100704700002C0C002040687047B7
:106A800001480068704700002C0C002010B907482E
:106A9000006828B1017A890704D4B0F90000704772
:106AA000F0207047B0F90200704700002C0C002065
:106AB000B0F85C01C0F30900704710B518B9FFF7D2
:106AC000DFFF002800D0806B10BD10B518B9FFF7AC
:106AD000D7FF002800D0406B10BD10B518B9FFF7E4
:106AE000CFFF002800D0006B10BD000010B9074890
:106AF000006828B1017A890705D4B0F9020070470F
:106B00004FF4A0707047B0F9000070472C0C0020C3
:106B10004068016819B1406808B101207047002041
:106B20007047024600B50088518810FB01F31046FB
:106B3000FFF7EEFF28B15068C068984201D10120EC
:106B400000BD002000BDB0F85C21C2F309028A42FA
:106B500001D2002100E0511AC0F85C11704700001A
:106B60002DE9F84F044608F079FF0090E0683E4CAC
:106B7000606007F09FFD07F03DFD6068B0F85C11B4
:106B800089056CD0A246FFF7CCFFE8B3DAF8040021
:106B90005546FFF773FF044607F07EFEA069C00765
:106BA000FCD1A16820688946814200D16068804696
:106BB0006868FFF76BFF00240746AA462BE00A1916
:106BC00092F83C212ABB01EBC401B1F93E50B1F966
:106BD0003C00B1F8402017FB0501101A401C00B220
:106BE0004E004FEA400B0AE008EB06015A4609EB5B
:106BF0000600F9F792FD6D1C2DB206EB4706DAF898
:106C0000040000EBC40000E00DE0B0F94200A8422F
:106C1000EADA641CA4B2DAF80410B1F85C21C2F319
:106C20000902A242CBD8DAF804004FF4807154462E
:106C30003C30F9F713FE6068202100F59E70F9F7EB
:106C40000DFE60680021C0F85C11806938B10098C1
:106C500008F0FEFE01466068226883699847BDE837
:106C6000F84F00F073B8000030000020002810B585
:106C70000AD0082809DA094B03EB800050F8040C0D
:106C8000405C10FB02F0000A10BD0124430004EB3D
:106C90004100504390FBF3F0C0B210BD3C00002017
:106CA00070B515460E46044607F0CAFCFFF7DAFE3B
:106CB000B4EB660F04DBC6F34F040CB1641EA4B240
:106CC000B4EB650F04DBC5F34F0424B1641EA4B21A
:106CD0000CB1201A84B2204670BD30B5102B1C4672
:106CE00087B0154630D3FB2C00D9FF240A46014655
:106CF00001A8FEF7E0F8002826D007F0A1FCFFF776
:106D0000BDFEBDF804102B46028A891AADF80C109E
:106D1000BDF80610428A891AADF80E10BDF80810A9
:106D2000028A891AADF81010BDF80A10428A891A31
:106D3000ADF81210818A028A8068891A0094491C71
:106D400009B203AA09F086F907B030BD10B5054CA9
:106D50002068002805D005F017FB034900202060BB
:106D6000086010BD480C0020380000200C4910B508
:106D70000C4C0B682268984201D8104610BD086080
:106D80003AB10146104605F047FB00282060F5D1D6
:106D9000FEE705F0CBFA00282060EFD1FEE7000007
:106DA00038000020480C0020F0B587B007460E469A
:106DB0004FF000044FF6FF750C98D2B100903846A2
:106DC00003F0E2FB002812D10B4AFF23314638467C
:106DD00000F03EFDCDE9045408A0074ACDE90004C7
:106DE000FF233146CDE90245384600F00BF807B0E5
:106DF000F0BD014AFF23EAE7C80F00204E6F0A6486
:106E0000617461002DE9FF4FA3B082461546DDE9AC
:106E10003087DDF8D490B807506A049007D4BAF8E8
:106E20000410BAF80000081A401C00B20EE0B5F9D0
:106E30002A0047F618418DE88300B5F9283007A8E5
:106E40006A6A414608F09AFEBDF91C000590049854
:106E5000BAF800106B8D027A32981A4400284FF06D
:106E6000000012900FFA82FBADF80C10BAF9021074
:106E7000ADF80E1009D03298329AB0F90200B2F98A
:106E8000002012920144ADF80E10B9F1000F4FF03E
:106E900000044FF0FF321ED0E8B9BAF90210D9F859
:106EA0000830581A002800DCC81ACBF100014FF452
:106EB000806303EB4101884201DDC9F80020D9F865
:106EC0000000002807DBB9F804200446BDF80E10C6
:106ED0008818ADF80E00009708EB0400B5F92820DB
:106EE000DDE9041308F0CEFD06192CE0009708EB4D
:106EF0000600B5F92820DDE9041308F0C3FD344687
:106F0000BDF80E10061901EB0B0000B2ADF80E0033
:106F1000B9F1000F13D010F5806F10DBD9F8000025
:106F200000280CDAC9F80040BDF90E10BAF90200C9
:106F3000091AC9F80410BAF90210C9F8081018F8AB
:106F40000400002870D02498BDF90E10B0F902207A
:106F500001EB0B009042C9DB780716D5311B009777
:106F6000B5F9283089B2049A08EB040008F05EFEF7
:106F700081465046FDF793FFA0EB0900BDF80C10C9
:106F800000EBD07001EB600014E0380714D5311B22
:106F90000097B5F9283089B2049A08EB040008F08C
:106FA00045FE81465046FDF77AFFBDF80C20A0EB68
:106FB00009001044ADF80C002698FF2895F82C0025
:106FC00003D0269910FB01F0000A0E900020994989
:106FD0000C9013A807F0D0FC688CADF85000ADF809
:106FE0004E001EE1329828B1BDF80C1012980844EA
:106FF000ADF80C004FF000090994C3E08E4C09A9CC
:1070000040462268904709990790226808EB0100E2
:10701000002190470246F80710D00798232804D093
:10702000B9F1010F1CD009E000E1B9F1000F0BD05C
:10703000B9F1010F0DD0B9F1020F0FD0296AB9F1E2
:10704000020F0A9156D057E0099880B20C900120A7
:1070500011E0296A4FF000090A914DE000200AE092
:107060000798202808D109990C98081A072804D0F5
:10707000288C0D900220814684E00C990020414428
:107080000A6800928988ADF804108DF806009DF812
:107090000100FCF7B9FD04469DF80000FCF7B4FDC3
:1070A00004EB00139DF803000693FCF7ADFD0446C6
:1070B0009DF80200FCF7A8FD04EB00199DF80500FF
:1070C000FCF7A2FD04469DF80400FCF79DFD069B1D
:1070D00004EB0012BDF800104FEA9900DB08D2085B
:1070E00062F3040160F34A1163F3CF21ADF800109D
:1070F00088B2BEE70D980A900799049802F003FC45
:1071000004B233984FF6FF71884226D034988842F3
:1071100023D04A4A404609991268904733998842D9
:107120001BDD3499884218DCBDF80C00ABF101037B
:10713000BDF80E10621EADF80000ADF80210194443
:107140002B8D18440E9B1044ADF80400ADF80610CA
:1071500013AA2499684600F07BFB0E980190BDF8B5
:107160002800079B049A2499ADF8000003A800F0BA
:1071700067F8002C06DD298DBDF80C0001440819C4
:10718000ADF80C000998B042FFF438AF009708EB57
:107190000600B5F928208146DDE9041308F072FCE9
:1071A000BAF8002034467907ADF80C2000EB04064D
:1071B00015D5311B0097B5F9283089B2049A484695
:1071C00008F034FD81465046FDF769FEA0EB09004A
:1071D000BDF80C1000EBD07001EB600013E0380735
:1071E00013D5311B0097B5F9283089B2049A484667
:1071F00008F01CFD81465046FDF751FEBDF80C20FD
:10720000A0EB09001044ADF80C00BDF80E1001EB26
:107210000B00249900B2ADF80E00B1F906108842B7
:1072200004DC18F8040000287FF4DCAE27B0BDE8C9
:10723000F08F0000041000206C0C0020780C00205F
:107240002DE9F04F9FB01746A7A2044698460E4678
:107250002998A6A3A6A1102810681D9019AD18683A
:107260001E900FC985E80F006FD32998FB2801D91C
:10727000FF202990002F68D0002342460FA93846EE
:1072800002F008FB002860D0387A797A62889DF88D
:107290003F30A0EB010C624424889DF94050D21A83
:1072A0009DF9410063199DF84210101A1DB204B2F5
:1072B000012942D0022943D0042947D0082944D1CA
:1072C00000204FF0FF0908904146384602F0E0FAEE
:1072D00000280A9039D09DF83E10B6F900002944E4
:1072E000814232DBB6F90400A8422EDB9DF83F0054
:1072F000B6F902102044884227DBB6F90600A04206
:1073000023DB07F09DF91190FFF7B8FB878A8046D1
:10731000B0F910E09DF842309DF83E10A7EB0E0743
:10732000B6F900207F1CD0F808A038B211FB03FC8E
:10733000AA4205900DDC00220CE080211DA801E08E
:10734000C0211EA889460890BEE7CAE0F02119A80E
:10735000F8E7521BB6F904004F190FFA82FB874277
:1073600001DD411B491CB6F9020009B20E91A04291
:1073700001DC002000E0001B9DF83F10B6F906205C
:1073800000B20E19964201DD111B491CB8F91220FA
:1073900000FB0CF7A61A059ADDF814C009B20D908F
:1073A00006FB025210FB0CB6A2EB0E02BDF8A000C9
:1073B00015910AEB420113901BFB037001EB460A87
:1073C00084E000BF29FA06F05F46129067E00A9851
:1073D000C6F1080102789DF842000B1A12990A4082
:1073E000DA4046D02999FF2922D0082825D00898CC
:1073F000815C299841430A0A1198D0F814C0BCF165
:10740000000F1DD01398ADF804000D9802920119D9
:10741000B8F81200081A00B20090B8F810007919F4
:107420000A1AD8F8081013B2059A1198E04720E01C
:107430000828E1D00898825CDEE74A43120ADBE7BD
:10744000BAF80000BDF8A010884212D0FB2A01D97A
:1074500013990CE0102A0CD9BAF80000ADF804001A
:1074600001992898FEF706FD0090BDF80010AAF8D3
:1074700000100AF1020A9DF84200C0F10801B14271
:1074800005DD1299821996B2C140129105E00A9861
:10749000CDF84890401C0A9000267F1C3FB20E9801
:1074A000874294DB9DF83E30A0EB0B010E989DF8CF
:1074B00042201B1A05985B44471A0D9803FB026192
:1074C000401C00B20D9088B20AEB470A0A9900F0FE
:1074D000070601EBD0010A9115990D988842FFF635
:1074E00071AF1FB0BDE8F08F00FF00000055AAFF8C
:1074F00000112233445566778899AABBCCDDEEFF94
:107500002DE9F04F102B994695B01446054674D3DB
:10751000B9F1FB0F01D94FF0FF090A4606A8294629
:10752000FDF7C9FC002868D01F9808B1032700E0C8
:107530000227AB88B5F90000B5F902201B1ABDF986
:107540001A105B1C1BB212938A4203DA891A594340
:1075500001FB0744BDF91810884202DA081A00FB43
:10756000074407F06DF80A90FFF788FABDF8182075
:107570000546038ADDE91E010843A2EB030109B2B7
:10758000ADF81810BDF81A20688AA2EB0000BDF80B
:107590001C2006B2ADF81A60288AA2EB0000ADF8F4
:1075A0001C00BDF81E30A0EB0102688A02F1010246
:1075B0000FFA82F8A3EB0000ADF81E00AA8A2B8A0E
:1075C000A868A2EB030202F1010212B2039216FBB9
:1075D00002F200EB420000EB410A04D1B9F1FF0FC7
:1075E00001D1219850B100210E91DDE92002FEF772
:1075F00041FC0C90BDF91A00CFE02AE00A984069DE
:1076000050B3B24621E0002616E000BF16FB07404B
:107610000088CDF800A00A9AADF80400BDF8180063
:10762000CDF80890D2F814C0304403B2A968039A88
:107630000A98E047761C36B24645E7DB12990AF114
:1076400001000FFA80FA11FB0744BDF91E005045F6
:10765000D9DA15B0BDE8F08F4FEA48050CE0504686
:1076600021462A46F9F759F81298761C039936B242
:1076700010FB07440AEB410ABDF91E00B042EEDAE6
:10768000E7E700267DE01F98CDF80490002816FB60
:1076900007400ED04278017801EB0221ADF80010CE
:1076A0008078C0B3FF2807D000FB09F0000A0190E2
:1076B00002E00088ADF800001E9828B10A98818B7E
:1076C000BDF8000088425AD0219850B30E98BDF8FA
:1076D000001080B2884207D000980E900146DDE984
:1076E0002002FEF7C7FB0C900A98D0F814C001984E
:1076F000BCF1000F03D00290BDF830101BE0FF2852
:107700000AD00AEB46000D900088ADF808000C98EE
:10771000DDE9012127E032E0BDF830102AF816102B
:107720002DE00A98D0F814C00198BCF1000F0FD0DA
:10773000BDF800100290ADF80410BDF81800CDF8A7
:1077400000B03044A96803B2039A0A98E04716E0F3
:10775000FF280FD00AEB46000D900088ADF8080016
:107760000299DDE90002FEF785FB0090BDF80010EC
:107770000D9803E0BDF800100AEB46000180761C6E
:1077800036B24645FFF67FAF12990BF1010000B209
:1077900011FB074403990AEB410ABDF91E10834609
:1077A0005945BFF66EAF54E72DE9FF4184B00D4651
:1077B00006460E9C102C32D3FB2C00D9FF24B2F9C4
:1077C0000000B0422BDCB2F90400B04227DBB2F972
:1077D0000200A84223DCB2F90600A8421FDB06F033
:1077E0002FFF8046FFF74AF9B0F812C0838A028A59
:1077F000A5EB0C05BDF81C102DB2A3EB020CD8F8BC
:107800001470B21A13B20CF1010C0FFA8CF24FB1D2
:107810000294ADF80410009581684046B84708B05E
:10782000BDE8F08115FB02328068FF2C00EB4205B9
:107830000CD028882246ADF8000000990798FEF782
:1078400019FB0090BDF800002880E8E72980E6E7F2
:107850002DE9F0410546C0880F461E46144669884A
:10786000401A401C00B201283DDBA8882988401A34
:10787000401C00B2012836DB608A18B13946284620
:1078800001F0F8FB39462846FDF75BFB00282AD0BB
:10789000207A10280DD9334622463946284601F071
:1078A0004FFBE08828B1334622463946284600F08F
:1078B00034FFA089002816D0A07B002813D0E07BDD
:1078C000102810D3334622463946284600F041FDA1
:1078D000E088002807D03346224639462846BDE8CE
:1078E000F04100F002B8BDE8F0812DE9FF4FA7B0EC
:1078F0000546D08898461646049006F0A1FEFFF78C
:10790000B1F87289B8F1FF0FB6F90C100746ADF85F
:107910005420B47B5BD0F27B12FB08F0000A491EB6
:1079200009B2CDE90D1017B1481E00B20D90A9881B
:1079300028886A88091AE888491C801A401C09B2FC
:1079400002B20498FFF7ACF904900246A88829888F
:10795000801AC01B00B209900B9060F30F096B886E
:1079600060F30F08E888801A3A44114409B2C01B3A
:107970001344049A00B20C901BB2139360F31F4897
:10798000CDF8188061F30F0BCDE91A13CDE917106C
:1079900061F30F0A12B260F31F4B904663F31F4A64
:1079A00063F31F4924A903A8FEF718FA049A0D9857
:1079B000101A02B2151E00DA002225A90AA8FEF745
:1079C0000DFA002005951990CDE91080C3E2F07BF7
:1079D000A5E7BDF92A30BDF92820934203DA811AC0
:1079E00009B2049104E0411A09B20491491E09B296
:1079F0001D91002F7DD0109988427BD0BDF90E10CB
:107A000000250D911099119A61F30F000D998A1AB2
:107A1000119961F31F40089010B21090D1E00E9AB6
:107A20000128294602DDFBF7ADFD05E0FFF71EF951
:107A300001460E98401AC0B21F90E00761D020079F
:107A40002ED51F9800900698089920900214229233
:107A5000091421911144289A29440FFA81FC0899AC
:107A6000119108446146401C0FFA80F87089ADF806
:107A700098004046269BFFF797FE229A11991F987F
:107A80000A440090DDE92001521C014470894B1921
:107A9000ADF8780011B2289A18B21E9BFFF784FE49
:107AA00060072ED51F984FEA2B422192009008982C
:107AB00080461044289A401C0FFA80FC4FEA284068
:107AC00011907189ABEB0000401BADF8981000B22B
:107AD000269B6146FFF768FE1F980090219A119837
:107AE00073890244ADF88830511909B2ABEB080034
:107AF00001E0F2E06DE0401E229B00B2289AFFF701
:107B000053FEA0075AD560072DD508991F980090FD
:107B10004FEA2A4009141E90401A22910899401BEE
:107B200000B2289A8846AAEB0101491E0FFA81FC8F
:107B30007189ADF898100146269B6046FFF734FE28
:107B40001F9800901E9822997289A0EB0800AAEB5A
:107B50000101ADF844204B1B289A401E01B218B217
:107B6000119BFFF721FE200728D51F984FEA2941D6
:107B70000090089822918046081A401E01B24FEAF0
:107B800028401E9072894844ADF89820284400B2DD
:107B9000269B289AFFF708FE1F98009022991E98AE
:107BA0007289091AADF8442009EB0800119B491BA2
:107BB000289A401C09B200B2FFF7F6FD10986D1C20
:107BC0002DB28542FFF62BAFBDF90C0010900D9839
:107BD0001190BDF92810059881427ED0BDF90E1094
:107BE00000250D9101461F91199A61F30F000D991F
:107BF0008A1A19991E9161F31F40804610B20590B0
:107C0000C1E00E9A0128294606DDFBF7BBFC0146C0
:107C10000E98401AC0B201E0FFF728F81990E0076B
:107C200026D0200711D51998009006987389ADF8D1
:107C300088300214229B02EB284240445119289AB2
:107C4000401E09B200B2FFF7AFFD600710D51998CA
:107C5000ABEB2841009008EB2B4072894B1B401E78
:107C6000ADF8882001B2289A18B2229BFFF79CFD3C
:107C7000A00727D5600712D519984FEA2A4200902D
:107C8000A2EB28437289AAEB0800ADF88820591BA3
:107C9000401C229B09B2289A00B2FFF785FD2007FD
:107CA00010D51998C8EB2943009009EB2840718939
:107CB0005B1C2844ADF8881019B2229B00B2289AA8
:107CC000FFF772FD1E981F992844081A012857D003
:107CD000E0072BD0200714D500E05CE01998009055
:107CE000069872890146ADF8882008EB2040289A52
:107CF00001EB28414B19401E01B218B2229BFFF73D
:107D000053FD600712D519984FEA2B42009002EB01
:107D100028427389ABEB08005119ADF88830401C3C
:107D2000229B09B2289A00B2FFF73EFDA00727D593
:107D3000600710D51998C8EB2A410090AAEB28409B
:107D40007289401BADF88820491C09B2229B00B201
:107D5000289AFFF729FD200712D519984FEA2942E2
:107D60000090A2EB2842738909EB0800511BADF883
:107D70008430401E219B09B2289A00B2FFF714FDFF
:107D800005986D1C2DB28542FFF63BAFBDF928006A
:107D900005900D981990E00761D020072ED5BDF809
:107DA0000C00DDE90B511D9A2844ADF80800821A39
:107DB000BDF80E00ADF8042088460844ADF8060072
:107DC0000E9B159A2899ADF80A0001A8FEF785FFC9
:107DD000BDF80E0004992844ADF80400ADF8080081
:107DE000BDF80C000E9B4044ADF80A00411AADF8F6
:107DF0000610159A01A82899FEF76FFF60072ED587
:107E0000BDF80E00DDE917510E9B281AADF80400ED
:107E1000ADF808008846BDF80C0008441D99ADF87F
:107E20000A00411AADF80610159A01A82899FEF724
:107E300054FFBDF80C000499281AADF80400014461
:107E4000BDF80E00ADF808104044ADF806000E9BDA
:107E5000159A2899ADF80A0001A8FEF73EFFA00781
:107E60006BD5600733D5BDF90E0018990A18139920
:107E7000091A8A4213DDBDF80C201A980E9B821A4B
:107E80001D98ADF804201044ADF80800ADF80610B8
:107E900001A8ADF80A10159A2899FEF71EFFBDF843
:107EA0000E101A980E9B401AADF80400ADF80800A9
:107EB000BDF80C101398401A0499ADF8060001445F
:107EC000ADF80A10159A01A82899FEF706FF2007B9
:107ED00033D5BDF80E1009980E9B0844ADF8080084
:107EE000ADF80400BDF80C001B9D291A1D98ADF8D3
:107EF00006100844159A2899ADF80A0001A8FEF763
:107F0000ECFE06980114BDF90E000144281A8142C6
:107F100013DDBDF80C2009990E9B1144049AADF8AD
:107F200008108A1AADF80420ADF80600159A2899B1
:107F3000ADF80A0001A8FEF7D0FE24A903A8FDF7BA
:107F400055FFBDF92A00BDF92810884203DA25A99A
:107F50000AA8FDF74BFFBDF90E10BDF90C008142D8
:107F60007FF737AD002F7ED0109900270C91BDF818
:107F70000E0061F30F051199411A11980FFA81F85B
:107F8000089060F31F45B8E00E9A3946FEF76EFE82
:107F90000E99081AE107C0B2179054D0200729D5CE
:107FA0001798009006980D90014602141392281419
:107FB00011901044289A38440FFA80FC48197189AE
:107FC000401CADF8601000B2189B6146FFF7ECFB57
:107FD000179800900D991198139A01447089CB1944
:107FE000ADF854002A44521C11B2289A18B2159BBD
:107FF000FFF7DAFB600726D517984FEA2B41009070
:108000004819401C159101B228140D907289ABEBF0
:108010000000ADF86020C01B00B2189B289AFFF743
:10802000C3FB1798009015990D9872890144ADF81B
:108030002C20ABEB05000B9B401E289A394409B25B
:1080400000B2FFF7B1FBA00755D560072AD51798F6
:108050004FEA2A420B92009028141590101AC01B68
:108060000FFA80FC00E071E17189AAEB0500401E67
:10807000ADF8601000B2189B289A6146FFF794FB98
:108080001798009015980B9AAAEB00017089521B63
:10809000ADF83400CB1B521E11B2289A18B20D9BBA
:1080A000FFF782FB200726D517982A144FEA2941AB
:1080B0001591009009EB02000D92491B7289491E2F
:1080C000ADF86020384409B2189B00B2289AFFF737
:1080D0006BFB17980D9A1599009009EB0500891A0A
:1080E0007289ADF82C20C91B401C0B9B09B2289A41
:1080F00000B2FFF759FB7F1C3FB240464745FFF6F1
:1081000043AF0C990898081A002801DC0898401A17
:10811000404551D11098E10760F30F050E984FEAE2
:108120005007109860F31F4522D020070ED50698FF
:108130000097728905EB2041ADF82C2000EB25401B
:108140000B9B09B2289A00B2FFF72EFB60070FD5F0
:1081500000974FEA2B42708902EB2542ABEB0503F7
:10816000ADF82C0011B2289A18B20B9BFFF71CFB3C
:10817000A00721D560070DD50097C5EB2A4071896E
:10818000AAEB2542ADF82C1001B210B20B9B289A35
:10819000FFF70AFB20070FD500974FEA29427189A4
:1081A000A2EB2542ADF8241009EB050011B2099BA2
:1081B00000B2289AFFF7F8FA059800270890BDF852
:1081C0002A1060F30F0519980590091A60F31F45EE
:1081D00008B2A8460990B6E00E9A3946FEF746FD69
:1081E0000D90E00726D0200711D50D980090069835
:1081F000021402EB284372894044ADF84020D9199B
:10820000109B401E289A09B200B2FFF7CDFA600712
:1082100010D50D98ABEB2841009008EB2B407289EC
:10822000CB1B401EADF8402001B2289A18B2109B1B
:10823000FFF7BAFAA00727D5600712D50D984FEAC5
:108240002A420090A2EB28437289AAEB0800ADF8FD
:108250004020D91B401C109B09B2289A00B2FFF79E
:10826000A3FA200710D50D9809EB28410090C8EB20
:1082700029407289CB19401CADF8402001B2289AE0
:1082800018B2109BFFF790FA059808993844081A1D
:10829000012855D0E00729D0200712D50D9800906D
:1082A000069873890146ADF8403008EB2040109BDA
:1082B00001EB2841CA19401E01B210B2289AFFF7FB
:1082C00073FA600712D50D984FEA2B43009003EB29
:1082D00028437289ABEB0800ADF84020D919401C47
:1082E000109B09B2289A00B2FFF75EFAA00727D5C3
:1082F000600710D50D98AAEB28410090C8EB2A40E2
:108300007389CA1B401CADF8403001B2109B10B2FB
:10831000289AFFF749FA200712D50D984FEA29430A
:108320000090A3EB2843728909EB0800ADF83420D4
:10833000D91B401E0D9B09B2289A00B2FFF734FAF0
:1083400009987F1C3FB28742FFF646AF2BB0BDE8CD
:10835000F08F2DE9FF4FB2F8068085B01D4691469B
:10836000044606F06DF9FEF77DFBA18807462288DA
:10837000FF2DE688A1EB0200B4F802C000F1010075
:10838000B9F90C30A6EB0C0201B299F80F0002F11A
:10839000010212B202D010FB05F0000AB9F80AC0BF
:1083A00099F80E605B1E1DB24FF0000A0390404624
:1083B000ADF808C0FEF774FCA842804606DAA5EBCB
:1083C00008012846C91B0FFA81FA02E008EB0700F2
:1083D00000B2B9F8061049B1B107618800F1010097
:1083E0000FFA80FB69D501EB0B0068E0B00712D5EE
:1083F0002088ADF80000A088ADF804006088ADF8D2
:1084000002006088DDE902232844ADF806000699E1
:108410006846FEF762FC300721D5A088B107A0EBC3
:108420000500ADF80000A088ADF80400B4F9021012
:1084300001D5681C00E000200844ADF80200F107F7
:10844000B4F9061001D0681C00E00020081AADF84D
:10845000060006996846DDE90223FEF73EFC700738
:1084600020D52088B107ADF8000020882844ADF859
:108470000400B4F9021001D5681C00E00020084493
:10848000ADF80200F107B4F9061001D0681C00E055
:108490000020081AADF8060006996846DDE90223B7
:1084A000FEF71BFCF0077ED02088ADF80000A08806
:1084B000ADF80400E088401B21E101EB0800ADF8B5
:1084C0000200E188F00702D0A1EB0B0001E0A1EB74
:1084D0000800ADF8060070070BD52088DDE90223FF
:1084E0004119ADF804100699ADF800006846FEF792
:1084F000F4FB30070BD5A088ADF80400411BADF8A4
:10850000001006996846DDE90223FEF7E6FB2188A4
:10851000B2075944A1EB0A00ADF80000A188A1EB15
:108520000B0101EB0A00ADF804000CD56088ADF832
:1085300002006088DDE902232844ADF806000699B0
:108540006846FEF7CAFBF0070BD0E088ADF80600DE
:10855000411BADF8021006996846DDE90223FEF7DB
:10856000BCFBBAF1000F75D0B00739D5700719D52B
:10857000218808EB0702ADF80010781C218811440F
:10858000ADF80410628802EB08010844ADF802005F
:108590006088DDE902232844ADF8060006996846A4
:1085A000FEF79BFB00E0B5E0300719D5A288781CE8
:1085B000A2EB0801C91BADF80010A188ADF80410AA
:1085C000628802EB08010844ADF802006088DDE92A
:1085D00002232844ADF8060006996846FEF77DFBA5
:1085E000F00737D0700719D5218808EB0700ADF8E0
:1085F000001021880844ADF80400E088401BADF865
:108600000200E188DDE90223A1EB0800C01B401E47
:10861000ADF8060006996846FEF75FFB300719D5EE
:10862000A188A1EB0800C01BADF80000A088ADF840
:108630000400E088401BADF80200E188DDE9022378
:10864000A1EB0800C01B401EADF806000699684665
:10865000FEF743FBB9F8060000285BD116F0060FC1
:1086600013D02088ADF8000020883844ADF804000D
:108670006088ADF802006088DDE902233844ADF877
:10868000060006996846FEF728FB16F00A0F13D07D
:10869000A088C01BADF80000A088ADF80400608879
:1086A000ADF802006088DDE902233844ADF8060029
:1086B00006996846FEF711FB16F0050F13D02088C7
:1086C000ADF8000020883844ADF80400E088C01BF5
:1086D000ADF80200E088ADF8060068460699DDE9CD
:1086E0000223FEF7FAFA16F0090F13D0A088C01B78
:1086F000ADF80000A088ADF80400E088C01BADF81C
:108700000200E088ADF8060068460699DDE902231C
:10871000FEF7E3FA09B0BDE8F08F2DE9FF4FAFB0E7
:10872000044699463198B0F806A005F089FFFEF797
:1087300099F93199B9F1FF0F4988ADF804101F90EC
:108740003198406802903198007A02D010FB09F00D
:10875000000AE1886288A3888A1A2188521C039043
:1087600010B2591A8146491C024609B25046FEF71A
:1087700097FA1190A388E188A3EB000C2288091ACC
:108780001F986388091AACEB000000B20B900A90A6
:108790000C9060F30F06DDF87CC060F30F081198B1
:1087A00060440244184400B21B901C9060F31F46C2
:1087B0000590B34616B266F30F0566F30F0760F334
:1087C0001F45AA460DB210952EA9249565F31F47A3
:1087D0002097259665F31F481198CDF8248002B2A2
:1087E0001AA89046FDF7FAFABDF86A00291809B2EE
:1087F00000912844BDF8681002B20C98084403B2F6
:10880000701A01B212A8FCF7F3FBBDF86800291832
:1088100009B20091BDF86A102A180C9812B20844E7
:1088200003B2711A09B221A8FCF7E2FBBDF86A1085
:108830001C98401A00B200900598401ABDF86810C4
:1088400002B20A984318701A01B21BB21DA8FCF7B5
:10885000CFFBBDF868101C98401A00B20090059834
:10886000401ABDF86A1002B20A98084403B2711A9D
:1088700009B218A8FCF7BCFB00200590BAE11F98CC
:1088800000287ED0BDF968104145FAD01198A0EBC0
:108890000800C0EB0021BDF96A00B1FBF9F10A90B4
:1088A000059FC01B00B20690CDB2DDE901102A463B
:1088B000FDF70AFB27902A46DDE90101FDF704FBDD
:1088C00000252890A8E0039A0128294603DDFAF73D
:1088D00059FE064604E0FEF7C9F90399081AC6B224
:1088E000249B0B9A03EB08010D93D0190096491CA9
:1088F00016922844289B09B2309A00B2FEF754FF22
:1089000020980096289B01142B9101EB08002099D8
:108910001591401CC91B309A491B00B20FFA81FC0B
:1089200001466046FEF740FF4FEA2A411C91A1EB49
:108930000800279BAAEB0701309A401E0096491BAE
:1089400000B20FFA81FC01466046FEF72DFF4FEAA8
:108950002B410791A1EB0800279B0BEB0701309AF5
:10896000401E0096294400B20FFA81FC0146604681
:10897000FEF71AFF05991198401A2844C0EB002110
:1089800000E051E0B1FBF9F0C0B204900246DDE92D
:108990000101FDF799FA0D9B2990D819169A2844E0
:1089A000299B01B2009602EB0800309A401C00B2ED
:1089B000FEF7FAFE2B99299BC81915992844309A7D
:1089C0000FFA80FC0096A1EB08006146401E00B241
:1089D000FEF7EAFE049ADDE90110FDF775FA1C992D
:1089E0002990C81B299B401B309A01B20096AAEB24
:1089F0000800401E00B2FEF7D7FE07990BEB0800F7
:108A0000401C299BCA1B0096511B309A09B200B228
:108A1000FEF7CAFE6D1C2DB206988542FFF653AFD5
:108A2000BDF968800A9805900027BDF96A003E46A6
:108A300010993D46BDF94A200144914200D00126DB
:108A4000BDF96810109ABDF986300A449A4200D0E8
:108A500001251B9ABDF97630101A984200D00127E3
:108A6000BDF96200511A814219D00299BDF8042063
:108A700089B28A4201D1019A0CE0B4F90610081AB1
:108A8000C0EB0020B0FBF9F0C2B2DDE90101FDF757
:108A90001BFA0246039B309918A8FEF71EF9DFB1B6
:108AA0000298BDF8041080B2814201D1019A0EE013
:108AB000B4F90600BDF97610401AC0EB0021B1FBF5
:108AC000F9F0C2B2DDE90101FDF7FEF90246039BB0
:108AD00030991DA8FEF701F9DEB10298BDF8041027
:108AE00080B2814201D1019A0EE0B4F90600BDF9CD
:108AF0004A10401AC0EB0021B1FBF9F0C2B2DDE927
:108B00000101FDF7E1F90246039B309912A8FEF737
:108B1000E4F8DDB10298BDF8041080B2814201D1C1
:108B2000019A0EE0B4F90600BDF98610401AC0EBB8
:108B30000021B1FBF9F0C2B2DDE90101FDF7C4F992
:108B40000246039B309921A8FEF7C7F8BDF86A10CA
:108B500024980E9008440B9F00B20090BDF8680066
:108B6000109E259D3B1831440AB2281A01B21BB24F
:108B700012A8FCF73DFABDF868100E98084400B240
:108B80000090BDF86A0031440AB239180BB2281AB5
:108B900001B221A8FCF72CFABDF86A104FEA2B406D
:108BA0000E904FEA2A47401A5E4600B20090BDF888
:108BB0006800791A55460BEB000213B20AB2AAEB11
:108BC000000001B21DA8FCF713FABDF868100E985A
:108BD000401A00B20090BDF86A00791A0AB2311842
:108BE0000BB2281A01B218A8FCF702FA2EA91AA88B
:108BF000FDF7FCF81AA8FDF7E7F800287FF43FAE70
:108C00000298BDF8046085B2AE4201D1019A0EE02F
:108C1000B4F90610BDF96200081AC0EB0021B1FBDF
:108C2000F9F0C2B2DDE90101FDF74EF90246039BFE
:108C3000309918A8FEF751F8BDF96210BDF9760019
:108C4000814215D0AE4201D1019A0CE0B4F9061070
:108C5000081AC0EB0021B1FBF9F0C2B2DDE9010155
:108C6000FDF732F90246039B30991DA8FEF735F84F
:108C7000AE4201D1019A0EE0B4F90600BDF94A10E6
:108C8000401AC0EB0021B1FBF9F0C2B2DDE90101ED
:108C9000FDF71AF90246039B309912A8FEF71DF85A
:108CA000BDF94A10BDF98600884215D0AE4201D107
:108CB000019A0CE0B4F90610081AC0EB0021B1FBD0
:108CC000F9F0C2B2DDE90101FDF7FEF80246039BAF
:108CD000309921A8FEF701F81F9800287DD011983F
:108CE0002188801C0844ADF86000A1881198081AFA
:108CF0003099801EADF864006088ADF8620060882D
:108D0000ADF8660031984088ADF8100018A8DDE98C
:108D10000332FDF7E2FFE088ADF86200E088ADF8CD
:108D200066003198039B3099426818A8FDF7D5FF7B
:108D3000119868F30F05A0EB08010598C1EB01221B
:108D4000BDF86A10B2FBF9F260F31F451590081ADE
:108D500000B20B90DDE90110D4B22246FDF7B4F861
:108D600028902246DDE90101FDF7AEF800242790A6
:108D700092E0039A2146FDF779FF03992F14279B70
:108D8000081AC6B209980096239001140D9129443F
:108D9000309A3844491C204409B200B2FEF704FD61
:108DA0002098279B309A00140C9028440096401C71
:108DB00001B220981B90C01B001B00B2FEF7F4FC10
:108DC0004FEA2A401F90401B0096401E289B01B28C
:108DD000AAEB0700001B00B200E0AEE0309AFEF7FD
:108DE000E3FC4FEA2B401690401B0096401E289B48
:108DF00001B2309A0BEB0700204400B2FEF7D4FC1E
:108E000005991198401A2044C0EB0021B1FBF9F0FC
:108E1000C0B204900246DDE90101FDF755F80D9955
:108E20002990C81900962044299B01B22398309AB2
:108E30002844401C00B2FEF7B7FC0C98299B38442C
:108E4000309A2044009601B21B98401B401E00B28D
:108E5000FEF7AAFC049ADDE90110FDF735F8299028
:108E60001F98299BC01B309A001B009601B2AAEBE9
:108E70000500401E00B2FEF797FC1698299BC11B07
:108E8000309A0BEB05000096091B401C09B200B29A
:108E9000FEF78AFC641C24B20B988442FFF669AF8B
:108EA0001598A8EB0000002802DC1598A0EB08003C
:108EB0000B99884241D14446C8EB0421B1FBF9F03B
:108EC000C5B2DDE901102A46FCF7FEFF07462A4637
:108ED000DDE90101FCF7F8FF06460398309A3346B6
:108EE00045080998009504EB204001B209982044F8
:108EF00000B2FEF759FC20983346309A009504EBF7
:108F0000204001B22098001B00B2FEF74DFCC4EBDC
:108F10002A41309AAAEB04003B4609B2009500B200
:108F2000FEF742FCC4EB2B41309A0BEB04003B46AE
:108F300009B2009500B2FEF737FC33B0BDE8F08F00
:108F40002DE9FF4FB2F806A083B0984615460446B7
:108F500005F076FBFDF786FD6A880746ADF8002030
:108F6000B8F1FF0FE1886288A3882688A1EB02018F
:108F700001F10101D5F80490A3EB06000EB200F157
:108F8000010001B22BD02A7A12FB08F0000A324607
:108F900083465046FDF784FE06EBD671B0EB610FB9
:108FA0002BDC22881FFA89F1ADF80420A288ADF8E5
:108FB0000820BDF800208A42618821D1014409B20D
:108FC000ADF80610E288101A00B2ADF80A00EA887F
:108FD0006AB137B1891CADF80610801E05E0287A09
:108FE000D5E7491CADF80610401EADF80A00009AFE
:108FF00001A804995B46FDF770FE07B0BDE8F08F4D
:10900000E2880144EB880FFA81F8101A05B263B1C7
:109010002FB108F102080FFA88F8AD1E04E008F13C
:1090200001080FFA88F86D1E2DB2B8F1000F1EDA94
:109030004FF000081BE000BFADF806804946ADF8D0
:109040000A80B4F90600A0EB0800C0EB0020B0FBDA
:10905000F6F0C2B20098FCF737FF0499024601A867
:109060005B46FDF73AFE08F101080FFA88F8A845BB
:10907000E2DDC2E72DE9FC410588984643880F46AA
:1090800081881646C2880446491BF088D21A491CBA
:10909000521C09B212B280B2FDF702FE05B220687E
:1090A0000090694660680190BDF800002844ADF862
:1090B0000000BDF80400401BADF804003846FBF783
:1090C00023FF00281ED12068694600906068019047
:1090D000BDF802002844ADF80200BDF80600401BB0
:1090E000ADF806003846FBF70FFF00280AD1307DA7
:1090F000012809D0002805D143463246394620468A
:1091000000F009F8BDE8FC81434632463946204666
:1091100000F00AF9F6E72DE9FF4F99B098460646A8
:1091200005F08EFAFDF79EFC1B9BB5883788F18809
:109130007288EF1BDB887F1C03901B98458A881A76
:10914000401C02B239B298B2FDF7AAFD014603985D
:109150002B1800EB400250180FFA80FA0AF10400B5
:109160001DB220F00301EA1C4F0002F0FC0038445D
:10917000FDF7FCFDC1195246049113A9079005A8FB
:10918000FCF72CFE11E0BDF916200798BDF814106D
:1091900020F81210BDF914200798BDF8161020F819
:1091A000121013A905A8FCF721FE05A8FCF70CFE78
:1091B0000028E8D11B98B8F1FF0F05D0007A10FB0A
:1091C00008F0010A00200AE0017AFBE72A1A049F4E
:1091D000431C4A435208B2FBF5F23A5418B2A84273
:1091E000F4DB3388F188B2885344A1EB0A06039973
:1091F00018B20B90711A491C60F30F0908B20C9059
:10920000A2EB0A0212B260F31F49CDF828900026A3
:10921000CDE90F2059E00B98821B0F9812B21692DD
:10922000811907980FB2594662F30F010C9A30F971
:10923000160067F30F041597109B0244034462F372
:109240001F4163F31F448B464EB1079901EB460162
:1092500031F9021C081A0FFA80F9002731E00020CA
:10926000F9E7B9F1000F43D00498A7EB0901C25DFB
:10927000405C104440081B9A00904FEA2B41189123
:109280008046169813691A9AFEF78EFA0A9821B248
:1092900000B281421899584601F1010161F31F4063
:1092A000834608DD1B9A2114CDF8008015981369B8
:1092B0001A9AFEF779FA20147F1C401CBFB260F3A3
:1092C0001F44AF42CDDB761C36B25645A3DD0B9A68
:1092D0000C98521CADF8202000EB0A010F98ADF855
:1092E0002210401EADF824000024ADF8261016E030
:1092F0000498C05DBFE704981A99035D1B98026942
:1093000008A8FDF7EAFCBDF82200641CA4B2401CCA
:10931000ADF82200BDF82600401CADF82600AC4296
:10932000E9DB1DB0BDE8F08F2DE9FF4FA3B09946F2
:10933000804605F085F9FDF795FB2599B8F80450AE
:10934000B8F80060B8F80620CB88A91B0546259818
:10935000B8F80240491C09B2B0F91270101B401C49
:1093600002B298B2FDF79CFC01460120294400EBB3
:1093700047020FFA81FA0AEB07000A9014B2001DA7
:10938000E11C20F0030021F00301460006EB8101FF
:1093900001910844FDF7EAFC019901440791811904
:1093A0000D9131460290F7F737FA1DA9524606A8EB
:1093B000FCF714FD12E000BFBDF91A200298BDF8B9
:1093C000181020F81210BDF918200298BDF81A10D4
:1093D00020F812101DA906A8FCF708FD06A8FCF746
:1093E000F3FC0028E8D12598B9F1FF0F08D0017AE5
:1093F00011FB09F05FEA1020002114FB04F20BE0DE
:10940000007AF9E7631A43435B02B3FBF2FC0D9B5E
:109410004E1C43F821C031B2A142F3DBB8F804205E
:10942000B8F80610A2EB0A00B8F80040421BB8F8E2
:109430000230A1EB0A000AEB0501401B0C440B446F
:1094400011B2139100B2129122B20E9219B2CDE96B
:109450000F1008900024CDE90B12F5E000263546E8
:109460000A98A84235DB7B4218B2002127E0221877
:1094700005D5029A32F814C0AAEB0C020AE0524554
:109480001FDCDDF808C03CF812C0029A32F8142044
:10949000ACEB0202521B12B29A4203DA984210D18C
:1094A00001260EE0BA4202DD0D9A126804E0A7EB35
:1094B000020C0D9A52F82C20401C00B21144B84204
:1094C000D5DD0798090A002E415505F10105ADB219
:1094D000C6D00F98A0EB040110980EB2179600EBBF
:1094E00004020B9812B2A0EB040003B2CDE91532CE
:1094F0000298129930F8140000EB010C1C990CF141
:10950000010C6CF30F0166F31F411C91139900EBE2
:109510000106494606F1010666F30F014FF0010608
:1095200062F31F4189460C99A1EB00025946A2F152
:10953000010262F30F0163F31F418B460899214436
:109540000AB20E991492A1EB00011998A1F1010140
:1095500061F30F0062F31F4019906AE00C990FFA53
:109560008BF01E9088420DDA0B991598884209DA23
:109570000798259A1599805D009013691E98249A82
:10958000FEF712F9199801B20E981F9181420DDA77
:1095900008991498884209DD0798259A805D009003
:1095A000136914991F98249AFEF7FEF81C9801B2CB
:1095B0001298209181420DDD0F991798884209DA9F
:1095C0000798259A1799805D009013692098249A2E
:1095D000FEF7EAF813990FFA89F0219088420DDD21
:1095E00010991698884209DD0798259A1699805D8A
:1095F000009013692198249AFEF7D6F8DDE9201C23
:109600004A46DDE91E300CF1010C491C6CF30F02D7
:109610009146199A401E761C60F30F021C985B1E3F
:109620001992B6B261F30F001C90584663F30F0015
:109630008346AE4292D32CB9079B4046DDE9241203
:1096400000F00AF8641C24B20A98A042BFF606AFE4
:1096500027B0BDE8F08F00002DE9F04790B09946A3
:1096600016468A46044604F0EBFFFDF7FBF9A18895
:1096700005462388E788B4F802C0C91AF288491C55
:10968000A7EB0C00B6F91280401C03B290B21A4648
:1096900009B2FDF705FBA38841196A1EA3EB050C6F
:1096A0000CF1010CADF820C060884B19ADF824C056
:1096B00001271844ADF82200E088401A401BADF89D
:1096C000260020881044ADF81800B4F802C0ADF8A8
:1096D0001C009C44ADF81AC0E088401A401BADF84D
:1096E0001E0020881844ADF8100060880244ADF8D0
:1096F0001220A088401A401BADF81400ADF81620C7
:1097000020881844ADF80000E088421B521CADF8D8
:109710000220A088401A401BADF80400ADF80620D6
:1097200044E000BF19F8074008A8326951462346B3
:10973000FDF7D3FABDF8200023465146401CADF892
:109740002000BDF82400401CADF82400326906A8B2
:10975000FDF7C3FABDF8180023465146401EADF888
:109760001800BDF81C00401EADF81C00326904A8AA
:10977000FDF7B3FABDF8120023465146401EADF87E
:109780001200BDF81600401EADF81600326968469A
:10979000FDF7A3FABDF802007F1C3FB2401CADF8F4
:1097A0000200BDF80600401CADF806004745B9DDD3
:1097B00010B0BDE8F08700000148806870470000E5
:1097C0002400002005490122496804E00B68834217
:1097D00000D10A7189680029F8D17047240000205F
:1097E00030B438B1846913460A460146204630BC7D
:1097F00000F004B830BC0120704700002DE9FE43A2
:109800001A4C064600209846009191468DF80400B7
:109810000D460290606800B10290C4F804D0A768B9
:10982000C4F8088001F08AF818B182680AB1494684
:10983000904716B149462846B047A76060688068DF
:1098400060609DF8040060B975B195F830000006BD
:109850000AD5286840B142464946FFF7C1FF0128B2
:1098600002D00020BDE8FE830120FBE72400002099
:1098700010B5C468FAF7F2F8002808D0616811EB57
:10988000C00004D000682168C0F31300084410BD74
:109890004268104730B40468A44630BC60472DE9E4
:1098A000F047C56899460C4680461146FAF7D6F847
:1098B000071E26D0E868002650B149464046FAF710
:1098C000CDF8020004D039464046FAF755F906466D
:1098D0006868298A00EBC70071430268120D02EB29
:1098E00021110831090921804179E1700179A170C4
:1098F00081792171C0796071688AC0F38220A0717A
:109900000120BDE8F0871CB513460A466946FFF7FB
:10991000C1FF002801D0BDF800001CBD70B50600D5
:109920000C4625D002F0F4FB05E00868A0421FD0E9
:10993000304602F0F3FB0100F7D1E06A30B1204677
:1099400003F084FA10B1E06A00F0A1F83046E66254
:1099500002F056FC05000AD030462C6002F0D8FB1D
:10996000A84205D13046BDE8704000F090B8FEE74F
:1099700070BD0000014A0249F9F7C7BF1DC10008C8
:1099800011C1000870B5060048D0F46A002C45D01B
:1099900094F85800C00741D10021204600F0E1F8BA
:1099A000204602F0B5FB37E02868B04230D1E068CD
:1099B00080B1006800221021C3699847E068002246
:1099C0000D210068FFF70CFF012827D1E06800682F
:1099D00003F0EAF9002DE56020D0286800220F216D
:1099E000C3699847A16909B120468847E068002209
:1099F0000C210068FFF7F4FE01280FD1E068006831
:109A000003F0D2F9E0680068BDE8704006F0B2BA31
:109A10002946204602F082FB0500C5D170BD00003A
:109A2000014A0249F9F771BF2FC100083FC1000880
:109A3000002803D090F85800C0F380007047002839
:109A400003D090F85800C0F340007047002803D0BE
:109A5000C068002800D000687047000001485C2101
:109A600002F073BB1412002070B504461C3005468A
:109A700004F082FF94F85800800701D5626900E085
:109A8000226912B1294620469047284670BD70B51C
:109A9000044690F8580040F01001C0F3001584F817
:109AA00058100807204602D4FFF764FF01E0FFF7D3
:109AB000B7FF94F8580065F3041084F8580070BD9F
:109AC0002DE9F041C46A0546002C30D0E06800283A
:109AD0002DD00068A84215D1204602F019FBE1689C
:109AE00088420CD1204602F02AFB0146E068814200
:109AF00005D1006800221021C369984702E0204682
:109B0000FFF7C5FFE06800270068A84200D1E760C2
:109B1000204602F0FDFA0EE030683146A8422046A9
:109B200007D102F0C7FB304602F02EFCEF62BDE821
:109B3000F08102F0F3FA0600EED1F8E713B5FFF773
:109B400085FF04000BD0E369112101AA9847012881
:109B500004D10B21204601AAFFF742FE1CBD0120C3
:109B60001CBD70B5044690F85800C0F340028A420C
:109B700019D061F3410084F858002046FFF766FFD2
:109B800005000BD0EB6900220F219847E068002206
:109B90000C210068FFF724FE012804D12846BDE807
:109BA000704003F001B970BD2DE9F04180461248C4
:109BB000104F0025066817E005EB850006EBC00492
:109BC0006068404502D0B8F1000F0BD110B12046BB
:109BD00000F08DFB24212046F6F740FE2821204688
:109BE000F6F73CFE6D1CADB238888542E4D3BDE883
:109BF000F08100005C000020400C00202DE9F041C5
:109C000005463A480E460088002864D038490022AC
:109C1000384F09680BE000BF02EB820301EBC3037E
:109C20005C6ABC4201DD641E5C62521C92B28242DC
:109C3000F2D3002218E000BF02EB820301EBC30362
:109C40005B68AB420ED102EB82024FF47A7301EBF8
:109C5000C204A769626A3A4462629A4200DD6362A2
:109C600024B141E0521C92B28242E5D301220C465B
:109C70000CE000BF02EB8203676A01EBC303D3F879
:109C800024C0BC4500DA1C46521C92B28242F1D379
:109C9000606810B1204600F02AFB05F0DFFE0027C7
:109CA0008046324629462046A76100F075FB18B170
:109CB000A069676288B117E0204600F018FB2421F4
:109CC0002046F6F7CBFD28212046F6F7C7FD4FF0DA
:109CD000004060620020BDE8F081404605F0B8FE1B
:109CE000A06108B90120A0612046F4E75C000020D3
:109CF000400C0020010000802DE9F041154C064683
:109D0000206828B10020FFF74FFF206802F03CFBDD
:109D100006EB8600C00002F009FB206018B10E4F70
:109D200000253E8010E0FEE7206805EB8506242133
:109D300000EBC600F6F792FD2068282100EBC60074
:109D4000F6F78CFD6D1CADB238888542ECD3BDE8CA
:109D5000F0810000400C00205C0000200146002043
:109D60000F290AD2DFE801F009090909080A080CDD
:109D70000E10120C0E1012001020704718207047A1
:109D80000120704702207047042070470820704768
:109D90000C2801464FF000000BD006DC022908D049
:109DA000052906D00B2905D103E00D2901D00E2984
:109DB00000D101207047C11E0020082906D2DFE82B
:109DC00001F00405050404040404012070470000A8
:109DD0002DE9F0410F46804602F0FCFC050003D05F
:109DE0002B4C206808B104E0FEE7284602F062FF31
:109DF00020601021284602F0CDFC040031D0207BE9
:109E00000026266020F0F80040F00300207328466A
:109E100002F0AAFF2081284602F01CFF217B60810E
:109E2000A68041F00400E6801A492073284603F01A
:109E300031F91949284603F06DF89FB1384602F010
:109E400005FF027B217B920862F382012173016886
:109E5000284600F04FFC284603F047F82846BDE8A6
:109E6000F081FEE70021284603F04DF8207BB8F191
:109E7000000F04D0002140F00400207303E00749E4
:109E800020F004002073284603F046F9E6E70000BE
:109E9000B00C00200DA8000831A40008C80F002055
:109EA00070B50C6A0D46002C08D0206808B102F08D
:109EB0006BFA204602F068FA0020286270BD70B587
:109EC00014460D46084600F0E7FC10B1022815D0F4
:109ED00022E0296801F01F00001F0B281CD2226815
:109EE000880A60F3942222602868400D60F35F5274
:109EF0002260287860F3040222600BE020680121D0
:109F000061F39420C0F3140000F5001020F01F004E
:109F10000B302060012070BD002070BD2DE9F04F96
:109F20000546174655A0994687B00C4654A20368CB
:109F300054A104930020126805924EC9DDF840A098
:109F40008DE84E00A968098E89B2CAB2090A09E0F3
:109F500000EB400303EB0A0C401C0AF8032000B29C
:109F60008CF801104845F3DB287C002600F01F0028
:109F7000FFF7F4FE03464FF0010C2A6900210CFAAA
:109F800003FC02F01F080846ACF1010C1FFA8CFC20
:109F9000B8F10B0F09D0B8F10C0F17D0B8F10D0FB5
:109FA00026D0B8F10E0F39D134E0C2F38A2046072B
:109FB0004FEAD00200D0521C04F0070001EBE4018C
:109FC00012FB071104AEC0F1070027E0C2F38A209C
:109FD00082074FEA900000D0401C01EBA40104F07E
:109FE0000302062410FB071105AEA4EB420015E0A6
:109FF000C2F38A20C2074FEA500000D0401C6E46D0
:10A0000001EB640104F00102042410FB0711A4EB2E
:10A01000820003E0C2F38A2111FB07412A7B1AB1B7
:10A02000002007B0BDE8F08F6A684FF0000B92681F
:10A0300054185946C3F108024FFA82FE1AE000BFD5
:10A0400014F80B200CFA00F82F7C02EA0802C24038
:10A0500007F01F070E2F00D0B25C01EB410808EBA0
:10A060000A07C01A40B20028BA7001DA641C7046B0
:10A07000491C09B24945E3DB0120D2E700FF00009B
:10A080000055AAFF00112233445566778899AABB70
:10A09000CCDDEEFF2DE9FF5F0546007C16460C4641
:10A0A0000E9F00F01F00FFF759FE02464FF0010C13
:10A0B0002B6900210CFA02FC03F01F080846ACF1E2
:10A0C000010C1FFA8CFBB8F1070F09D0B8F1080F8B
:10A0D00017D0B8F1090F26D0B8F10A0F3BD134E000
:10A0E000C3F38A214B074FEAD10100D0491C00EB92
:10A0F000E40011FB060004F007030830C3F1070178
:10A1000029E0C3F38A218B074FEA910100D0491C53
:10A1100000EBA40011FB0600062104F0030310303D
:10A12000A1EB430117E0C3F38A21CB074FEA5101AA
:10A1300000D0491C00EB640011FB0600042104F070
:10A1400001034030A1EB830105E0C3F38A2010FB3B
:10A15000064000F580602C7BD5F820A01CB10020C3
:10A1600004B0BDE8F09F6B68C2F108044FF000092D
:10A170004FFA84FE9B680344484618E013F80940F0
:10A1800007EB40060BFA01F804EA0804DAF800507D
:10A19000A1EB020CCC404FFA8CF105EB44040029F2
:10A1A0002488348001DA5B1C7146401C00B2039C99
:10A1B000A042E3DB0120D3E7F8B50C46097B024659
:10A1C00001293CD0207C002500F01F00042818D075
:10A1D000052816D0062814D0072817D0082815D02F
:10A1E000092813D00A2811D00B284ED00C284CD0A7
:10A1F0000D284AD00E2848D021461046FFF750FEC1
:10A200001DE0E9BB6068806860613FE0FFF7A6FD84
:10A210000126216A864029B9042002F087F82062CD
:10A2200060B105607000276A02F080F83860207B1A
:10A23000012804D060688268002024E0FEE7002046
:10A24000F8BD00BF02EB800112F820E04B784FEA26
:10A25000DE0E91F802C0BDF800109B084FEADC0C3E
:10A260006EF3040163F34A116CF3CF21ADF80010D3
:10A2700089B200913B68BDF8001003EB400300E099
:10A2800003E0401C1980B042DCD365610120F8BDB9
:10A29000F8B5087C1D4616460C46DDE9063200F08E
:10A2A0001F010020042913D0052911D006290FD041
:10A2B0000B290ED00C290CD00D290AD00E2908D05C
:10A2C00007290DD008290BD0092909D00A2907D060
:10A2D000F8BD3146204600922A46FFF71FFEF8BD22
:10A2E0003146204600922A46FFF7D4FEF8BD0146CB
:10A2F0000068002803D0C268002A00D010477047C9
:10A30000054810B501F02BFF28B100210160416024
:10A310008160C16010BDFEE7201200202DE9F041F0
:10A320000746086800250E4620F0E00008600B484C
:10A3300001F0EEFE0CE0236800252BB132463946D1
:10A3400098470128054605D00448214601F0E6FE5D
:10A350000400F0D12846BDE8F08100002012002062
:10A360000848102110B501F0F0FEFFF7C9FF40B119
:10A370000549016005494160054981600549C160A1
:10A3800010BDFEE720120020BF9E0008B9A1000802
:10A3900091A20008A19E00082DE9F04104468846DC
:10A3A0004046C4E9011200F077FA207300271548EF
:10A3B0003E46276201F0ACFE19E02B689BB168684D
:10A3C00088B104F110024146284698470128064604
:10A3D00009D1E76121466761284625606A68904790
:10A3E000012806460AD00748294601F097FE0500D5
:10A3F000E3D11EB924212046F6F730FA3046BDE8F5
:10A40000F0810000201200202DE9FC4105680E4675
:10A410000021089FAC683CB1CDE9003713460146E6
:10A4200032462846A04701460846BDE8FC810000A8
:10A430002DE9F04397B015468946804602F03CFC72
:10A440000746404602F002FC022D044608F11006C1
:10A4500001D0E5B137E0007B0021C243920714D060
:10A4600000F00302022A10D00422B2EBD00F03D076
:10A470000122B2EBD00F04D131464846FAF744FD31
:10A480000146084617B0BDE8F0830020FAE760896E
:10A49000C8B12089B8B1404602F0F6FB06A90546CE
:10A4A000404602F095FB217B01F0030001280CD00F
:10A4B00089070AD002284ED000223B464946304642
:10A4C0000095FCF771FC0120DCE7BDF81800A188BD
:10A4D000401AADF81800BDF81A00E188401AADF82E
:10A4E0001A00ADF8060061890844401E2AE000BF4A
:10A4F000BDF81800ADF8040021890844401E0FE0A3
:10A50000009501A822683B464946FCF74DFCBDF882
:10A51000041020890144ADF80410BDF80810084467
:10A52000ADF80800BDF90400BDF91C108842E7DB56
:10A53000BDF8060061890844ADF806006189BDF8E0
:10A540000A000844ADF80A00BDF90600BDF91E1066
:10A550008842CDDBB7E708A8394604F00DFA3A8EF9
:10A5600000204FF6FF71ADF8402008AA2B46CDE938
:10A570000410CDE902012168CDE9001006A8494682
:10A58000FCF740FC9FE700002DE9FF4F93B0174612
:10A590001D4606460246209C0EA81499FAF78BFC2D
:10A5A000002830D095F83300FF2C01D06043000A1A
:10A5B00029460A903846FFF721FB040024D0207C6E
:10A5C00000F01F00FFF7F7FB8246207C00F01F0021
:10A5D000FFF7DEFB0746E069D0B13F4AFF2314993D
:10A5E0003046FDF735F900204FF6FF713A4AFF2358
:10A5F000CDE90201CDE90410E169CDE9001014991B
:10A600003046FCF7FFFB65E0002017B0BDE8F08F97
:10A6100062696AB195F8320003903046298ECDE91F
:10A6200000A7ADF808100A9B1499FCF769FF51E0E8
:10A63000BDF83C00BDF83810401A401C0FFA80FBF2
:10A640000BEB4B00FCF792FB81460E98109001211A
:10A650000F98119010A8FAF7D2FCBDF83820308876
:10A660007188BDF93A60121A701A11B206910FFA88
:10A6700080F82BE006995B4642462046CDF80090D4
:10A68000FFF7C2FE012803D02046FFF730FEBBE7EC
:10A6900095F832004A46039010A8298ECDE900A70C
:10A6A000ADF808100A9B1499FCF72AFFBDF8421078
:10A6B00008F101000FFA80F8BDF84600761C491C2D
:10A6C000ADF8421036B2401CADF84600BDF93E0070
:10A6D000B042CFDA012098E7C80F002010B502F091
:10A6E000B5FA007BC0F3800010BD10B502F0AEFAE1
:10A6F000006810BD2DE9F04385B081460E4608463E
:10A7000000F0CAF80546484602F0A0FA032D0446B8
:10A710004FF0000809D004A93046FFF7FFFDBDB196
:10A72000012D21D0022D1FD054E0207B00F003002A
:10A73000022801D0012802D1206801F025FE217BEA
:10A74000C4F8008041F00301217305B0BDE8F08337
:10A75000207B00F00300012801D0022802D12068EC
:10A7600001F012FE266035E02068B04214D0217B53
:10A7700001F00301012901D0022901D101F004FEF9
:10A780003046F5F7ABFF401C01F0D0FD070006D0C6
:10A790003146F5F77FFF2760022D01D01AE0FEE772
:10A7A000484602F089FAB0F92A2047F618433146A4
:10A7B0008DE80C01B0F92830426A03A805F0DEF9F3
:10A7C000BDF80C200498BDF80E1062F3942061F3DC
:10A7D0005F500490217B049865F30101C0F38A2245
:10A7E0002281430D638160F3C70148462173FFF75F
:10A7F00075FF30B1B4F90A204846B4F9081002F0E8
:10A800004BFC484602F0D0FA9FE700001F4B2DE9B1
:10A81000F0411B6815460F468046984701280646BA
:10A8200031D1404602F012FA044627B1042F13D06A
:10A83000062F1BD026E0207B00F00300012801D06A
:10A8400002281FD1206801F09FFD207B002121609C
:10A8500040F00300207315E0207B00F00300022885
:10A8600010D121684046FFF745FF0BE05FF0000084
:10A8700055F8201019B1401CC0B20728F8D304A124
:10A8800045F820103046BDE8F0810000B00C0020F3
:10A890006C765F696D6700004FF0030130B100789E
:10A8A000A0F120015F2903D80120704708467047B6
:10A8B000802801D3022070470020704770B51C210A
:10A8C0000446F5F7CBFF002525700A2323751422D3
:10A8D00062754FF4C871E1826420208370BD00006E
:10A8E00070B50546C06820B9FCF7CAF80028E860D2
:10A8F0001ED0104801F033FC04001AD05C21F5F79B
:10A90000ADFF1C2229462046F5F74CFF94F84C1069
:10A91000002020650322606541F00201A065234606
:10A92000054884F84C101E2104F05CFF206120468D
:10A9300070BDFEE7FC11002001AA00080148406834
:10A94000704700001C00002018B10146024801F0C9
:10A95000E5BB014801F0DCBBFC11002001480068A8
:10A96000704700001C0000200278012A05D0032A4D
:10A9700003D04FF0FF30088002E0028C0A80408C48
:10A9800048807047002800D0007870474FF00002E0
:10A9900020B10378012B04D0032B02D00A804A8017
:10A9A0007047028D0A80408D48807047002000F07B
:10A9B000B7B8002805D00178012903D0032901D0B8
:10A9C0000020704790F84000C0F34000704710B579
:10A9D00000220A604A608A60CA600378012B02D0B4
:10A9E000022B05D006E0038C0B80438C4B8001E0EA
:10A9F000436A4B6043680BB198470246104610BD4E
:10AA00002DE9FF41454DC0686860C16800295ED0EE
:10AA1000F9F75EFF686890F84C00400757D40026AD
:10AA200068686946FFF7D3FF07466868F9F750FF83
:10AA30002E6069689DF80E000128087705D0087817
:10AA4000042808D1BDF80C0088B305F007F8696840
:10AA5000C968C1F8600168680178012906D0022937
:10AA600037D0042939D003293CD029E00446006DB1
:10AA700078B1B4F92420BDF900108A4205D1B4F9A7
:10AA80002620BDF902309A4203D0BDF9022002F01F
:10AA9000BAFABDF80000217F2084BDF80200012928
:10AAA000608405D104F11C00F9F7FAFC04E014E01D
:10AAB00004F11C00F9F728FE208C618CA084E1844D
:10AAC0006868F9F705FF002FAAD16E602E60BDE817
:10AAD000FF816946F9F7EAFBF2E768686946F9F72A
:10AAE00073FAEDE702990446806D30F821200220C8
:10AAF000A16D2284029AB4F9243000EB8202B4F9E9
:10AB000020008342895E6184D2D1B4F92600884254
:10AB1000CED19DF80E000128CAD1C3E71C00002049
:10AB200010B568B190F84C1041F0020180F84C105B
:10AB300010BD00BF90F84C1041F0020180F84C109D
:10AB4000FFF702FF0028F5D110BD10B5044690F8BC
:10AB50004C0020F0010084F84C00443404F07EFFE7
:10AB6000606004F07BFF206010BD0278032A00D1F2
:10AB70008165704710B5114C207800281DD101F077
:10AB80003BFC04F021FEFAF7E1F8FEF767FF03F063
:10AB9000F7FE03F08DFD0A484FF4B27101F0D5FACB
:10ABA00008485C2101F0D1FAFFF700FFFFF7D8FB5E
:10ABB0000120FFF7A1F80120207010BD2400002023
:10ABC000F0110020FC1100207FB504000E4603D1D7
:10ABD000FBF756FF040022D04FF00005EEB1ADF8B0
:10ABE0000050ADF80250FBF751FF401EADF80400D5
:10ABF0002046FBF77BFF401E6A463146ADF8060053
:10AC000002A8FAF758F9002809D022691AB11A489F
:10AC100002A94068904700260CE0C0F85C517FBD57
:10AC200004EBC6013C3102A8FAF76EF90028F6D110
:10AC3000761CB6B2B4F85C01C0F30900B042EFD89C
:10AC4000B4F85C01C0F30900202806D204EBC00070
:10AC50000299C1630399016405E0C4F85C5100994D
:10AC6000E16301992164B4F85C01C0F30900401C60
:10AC7000C4F85C017FBD0000300000202DE9F041E8
:10AC80000F4601F0A7FD060003D0564C206808B11E
:10AC900004E0FEE7304602F00DF820602021304647
:10ACA00001F078FD304601F0D1FF04004DD0A27FC5
:10ACB0000020E37F4FF6FF7122F0480520602181DC
:10ACC00023F0010225F03705A5771923A3836081BE
:10ACD000411EA08122F00202A061C4E9041060605C
:10ACE00030464149E27702F015F94049304602F01A
:10ACF000D1F95FB3384601F0A9FF0546384600F0A8
:10AD000047FA0146304600F087FC384600F047FA23
:10AD10000146304600F0DCFC384600F083F901467D
:10AD2000304600F038FC384600F075F901463046F0
:10AD300000F01EFCA87F0007384618D400F036FA51
:10AD40000146304600F0F1FC17E0FEE700213046F6
:10AD500002F0D9F80021304600F05EFC24A1304614
:10AD600000F0E3FC0021304602F0D6F936E000F0B6
:10AD70001DFA0146304600F0BEFCA87F00F0070037
:10AD8000022810D1286801F029FB0146206801F053
:10AD900043FB2060A0B1286801F020FB296802462F
:10ADA0002068F5F7BAFCE87F80070AD5686840B1EB
:10ADB000F5F794FC82B26168304600F002FC02E0D4
:10ADC000FEE768686060E97FE07F490861F3410061
:10ADD000E07728892081304602F087F83046BDE8C8
:10ADE000F0810000B40C0020F9AD000899B700080C
:10ADF00054657874000000002DE9F04F022A8B465C
:10AE00008FB0824601D022B1F1E000200FB0BDE842
:10AE1000F08F01F051FF0646504601F035FF0BA9B7
:10AE20000790504601F0D4FE504601F011FFFEF7A6
:10AE30000DFE504505D1079B0BA832465946FCF73D
:10AE400007FD504601F002FF0446C07FC00724D032
:10AE50006946504601F0BCFEBDF80000718B401AF7
:10AE6000ADF80000BDF80400B18B0844ADF8040053
:10AE7000BDF80200F18A401AADF80200BDF80600E4
:10AE8000318B0844ADF80600504601F0FDFE034644
:10AE9000324659466846FCF7DBFCA17F0025480690
:10AEA00000D50125080601D545F00205C1F30110C2
:10AEB000012801D145F00405022801D145F008051B
:10AEC00047F6184901F00701032901D0042918D1D8
:10AED000012801D0022814D1B6F92A100AA8CDE918
:10AEE00000190295B6F928302168726A04F046FE0E
:10AEF000504601F039FFBDF92810884201DA25F0EB
:10AF00000C05A07F04F1100700F00700042805D00D
:10AF1000504601F09FFEB0F5806F00DA00274FF633
:10AF2000FF7804F10A013246CDE90218CDE9048721
:10AF300020685946CDE90005079B0BA8FBF762FF87
:10AF4000A07F00F00700042851D1B6F92A100DA8FF
:10AF5000CDE900190295B6F928302168726A04F02B
:10AF60000DFE504601F000FFBDF9341000270DF131
:10AF7000280988421DDA2022706A1146FEF7C3FCB8
:10AF8000618900EB4000BDF834201144324608448A
:10AF9000ADF82800A0895946ADF82A00CDE90298FD
:10AFA000CDE904872068CDE90005079B0BA8FBF7D6
:10AFB00029FF504601F04EFEBDF93610884216DAE0
:10AFC0006089ADF82800706AA28911443246007A7F
:10AFD000CDE902980844ADF82A00CDE9048720683D
:10AFE0005946CDE90005079B0BA8FBF70BFF012095
:10AFF0000CE710B501F02AFE0446C07F800703D598
:10B00000606808B101F0C0F9E07F0021616020F0C4
:10B010000200E07710BD10B501F018FE807FC0F38C
:10B02000011010BD10B501F011FEC07F00F001004D
:10B0300010BD00002DE9F34F85B0059800F0B6F87B
:10B040000746059801F002FE002483460598254630
:10B0500001F08AFE0390059801F02EFE80469BF8D1
:10B060001E00A1464E46D8F824A042069AF80810C1
:10B07000049100D50126010601D546F00206C0F371
:10B080000111012901D146F0040640071BD147F602
:10B090001840039017E000963819B8F92820514657
:10B0A000039B04F0EFFC01460698049B0D44B0F9A5
:10B0B000022009EB0300824208DDB8F82A102C4672
:10B0C00008440FFA80F9385D0028E4D19BF81E107F
:10B0D0004FF00009C1F30110012815D1291B00967A
:10B0E000B8F9283089B23819524604F09FFD8146DC
:10B0F000059801F039FE00EBD07109EBD9704910C9
:10B10000A1EB60000FFA80F9019400208DF808008F
:10B110004DB36D1E0198A84225D8DFF86CB001A987
:10B120003846DBF800209047009000210198DBF8BA
:10B130000020384490478346F00706D00198395CD8
:10B1400002A804F0B7FD0028E4D100995A46504601
:10B15000FEF7D9FB00EB09020698B0F9001010B217
:10B16000814209DA01943846084A019912689047E9
:10B1700007B080B2BDE8F08FB8F82810019C0844F1
:10B180000FFA80F9C6E700006C0C0020780C002054
:10B1900010B501F05BFD807F00F0070010BD10B519
:10B1A00001F054FD807FC0F3801010BD10B501F098
:10B1B0004DFD006810BD00002DE9F04F8DB08146B7
:10B1C00001F044FD0446006800287CD04FF0FF30B9
:10B1D0002061484601F0C8FD0646484601F06CFD76
:10B1E000A17F0546476A480701D147F618464FF048
:10B1F00000004A0600D50120090601D540F00200F2
:10B20000B5F92A1000913A46CDE90160B5F9283028
:10B2100003A8216804F0B2FCA07F410710D0DFF83A
:10B22000C8A200F00700DFF8C4B203284FF00008FE
:10B230000ED0042867D002287ED001287DD04DE1B1
:10B24000BDF90E204846BDF90C1001F025FF45E17F
:10B250009DF830002022CDF81090464640F00300C3
:10B260008DF83000CDE906A8CDF820801146686A37
:10B27000FEF749FBB5F928304FF47A72A18B00250F
:10B280001844504390FBF1F000EB4000ADF82C0067
:10B290004142ADF82E004846ADF82A1001F064FD99
:10B2A000BDF90C10884218DA484601F05DFDBDF981
:10B2B0000C10CDF814B0401A0990DDE90812A08BEB
:10B2C00009B212B200E00CE1F9F7C1FDADF82800B7
:10B2D00004A8F9F753FD012504E084494846F9F72D
:10B2E00073FD6681484601F0B5FCBDF90E10884239
:10B2F00067DAEDBB484601F0ADFCBDF90E10411A0E
:10B30000387A081A66E09DF830002022CDF81090B7
:10B31000464620F00100CDF8208040F002008DF874
:10B320003000686A1146FEF7EEFAB5F928304FF49E
:10B330007A72A18B184401E05CE0CAE05043CDE989
:10B3400006A690FBF1F0ADF82C600025ADF82E605C
:10B3500000EB4001C1EB0040ADF82A00484601F087
:10B3600003FDBDF90C1088421DDA2022114600E0D1
:10B3700027E03846FEF7C7FABDF90C1000EB400095
:10B38000CDF814B0084440420990DDE90812A08BC2
:10B3900009B212B2F9F75BFDADF8280004A8F9F77D
:10B3A000EDFC012504E051494846F9F70DFD6681A1
:10B3B000484601F04FFC0146BDF90E00814200DA1B
:10B3C0002DB14B494846F9F7FFFCA68186E0397A52
:10B3D000084440420990DDE908124548059009B249
:10B3E000A08B12B2F9F733FDADF8280004A8F9F7E5
:10B3F000C5FC73E0484601F02DFCBDF90E104FF678
:10B40000FF76884205DA3B492068096888470328A7
:10B4100001D8268162E0484601F0A6FC2E220646AD
:10B42000686A1146FEF76FFA298D0844A0EB800088
:10B430003044ADF80000484601F00CFCADF80200C5
:10B44000696AB5F92A20097A114490FBF1F201FBEF
:10B450001201401AADF80200698D401A6946ADF834
:10B4600002004846FFF7E6FD234A02902068029951
:10B4700012689047DFF884B00027DFF884A0054603
:10B480003E460190206801990844DBF80010884787
:10B49000DAF80020384401A9C7B220689047761C2A
:10B4A000032EEFD920683A464119484600F089F842
:10B4B000A0B100202E2122682B18401C0328D15453
:10B4C000F9D32268ED1C0298C01C02F80580208187
:10B4D00004E0BDF90E10484601F03CFD484601F07D
:10B4E00063FC0DB0BDE8F08F294E0008A5B600083A
:10B4F000BBB600087C0C0020740C0020680C0020F7
:10B500006C0C00202DE9F041804601F09FFB0546C0
:10B51000807F00F00700022825D129894FF6FF77A8
:10B52000B94220D0114AC91E2868126890470024E9
:10B530000646404601F08AFBC17F890701D5406875
:10B5400005E0001D03E0035D641C8B54E4B2296830
:10B5500032198B5C002BF6D13219005D88544046BD
:10B56000FFF747FD2F81BDE8F0810000740C00203B
:10B5700070B50C46054601F069FB817FC1F30112ED
:10B58000A24207D064F3051181772846BDE87040D8
:10B5900001F00ABC70BD70B50C46054601F056FBC3
:10B5A000C17F01F00102A2420AD064F30001C17719
:10B5B000284601F08CFC2846BDE8704001F0F4BB41
:10B5C00070BD2DE9F04115460E46074601F03EFBE1
:10B5D00004463846FFF70DFD042D11D9681C00F014
:10B5E000A5FE0028606015D02A463146F5F795F88B
:10B5F000616800204855E07F40F00200E07708E0F5
:10B60000E07F2A46314620F00200E077201DF5F762
:10B6100084F80120BDE8F08170B50D46064601F0C2
:10B6200015FB1C4904463046F9F7CEFB1A49304653
:10B63000F9F7CAFB19493046F9F7C6FB18493046F5
:10B64000F9F7C2FB00216181032DA1810CD0042DEB
:10B650000AD0052D08D0A07F20F08000A07700F050
:10B660000700022804D00BE0A07F40F08000F5E73F
:10B670002089A0F57F41FF3902D03046FFF742FF15
:10B68000A07F65F30200A0773046BDE87040FFF769
:10B6900093BD000045D100085DD10008A5B60008A3
:10B6A000BBB6000870B50C46054601F0CFFA4481E0
:10B6B0002846BDE8704001F077BB70B50C460546E2
:10B6C00001F0C4FA84812846BDE8704001F06CBBEB
:10B6D00070B50C46054601F0B9FA817FC1F38012BE
:10B6E000A24207D064F3861181772846BDE87040F6
:10B6F000FFF762BD70BD70B50D46064601F0A6FAB3
:10B700000446807F000705D4206818B100F03CFE95
:10B710000020206025B1A07F256040F00800A077C0
:10B720003046BDE87040FFF747BD2DE9F0410D46BA
:10B73000064601F039FB304601F088FA04462DB385
:10B740002068A84208D1F4F7C9FF411C206800F026
:10B7500063FE2060D0B9FEE72846F4F7BFFF074636
:10B7600020687F1C30B1A17F090703D400F00CFED4
:10B7700000202060384600F0D9FD206058B12946ED
:10B78000F4F788FFA07F20F00800A0773046BDE8DE
:10B79000F041FFF711BDFEE7394B2DE9F0411B6881
:10B7A00015460F46044698470128804665D1204635
:10B7B00001F04CFA064647B1042F2AD0022F10D0D0
:10B7C000052F2DD0062F4CD056E0B07F000704D4B3
:10B7D000306800F0D9FD002030602046FFF709FCFA
:10B7E0004AE0A08A218A2A88401AA988401C891A1E
:10B7F000491C00B209B288420BD1E08A618A6A888A
:10B80000401AE988401C891A491C00B209B28842D2
:10B8100032D02046FFF776FE2046FFF7CDFC2BE026
:10B82000C07FC00728D0204601F046FAB4F9341092
:10B83000B0F91A20914200DC1146A186B0F91C2013
:10B84000914200DC1146A186B0F91620914200DC3D
:10B850001146A186B0F91800814200DC0146A1869C
:10B860000AE0002055F8201019B1401CC0B207288A
:10B87000F8D304A145F820104046BDE8F08100004F
:10B88000B40C00206C765F6C6162656C0000000097
:10B890002DE9F04791460F46824601F0D7F9B0F8FE
:10B8A00048100446491CA0F8481000215046F9F7FA
:10B8B000C7FB424E0546F06818B9284601F0FAF970
:10B8C000F0600021226B2846F9F778FC626B0121B9
:10B8D0002846F9F773FCA26B02212846F9F76EFCA3
:10B8E000E26B03212846F9F769FC226C0421284603
:10B8F000F9F764FC0121284601F065FF062128467E
:10B90000FAF7C9FF022128460122FAF784FF102125
:10B91000284601F0B9FB2A49284601F0BBFBAFB12C
:10B9200000212846FEF754FA80463946FEF7E2FE2B
:10B93000616C404601F0F0FB0021404601F0E3FA63
:10B94000306818B9404601F0B5F93060B9F1000F20
:10B9500022D0206B418B808B0F1A28460021FFF7E5
:10B960008DF980464946FFF7E0FE0021404601F090
:10B97000CAFA04214046FFF74FFEA98AB8F8100022
:10B98000081AC01B01B2404601F0D0FB706818B91C
:10B99000404601F08FF97060504601F059F9B4F853
:10B9A0004810012907D1FEF751F8504503D1294627
:10B9B000504600F015FA2846BDE8F087B80C002084
:10B9C000C5B900082DE9F047DFF818910D46044687
:10B9D000D9F80C309847012806467DD10A2D04D0AD
:10B9E000092D5AD0002D66D079E0204601F05AF991
:10B9F00001F058F9804601F029F9074690F82E0029
:10BA000020F0020087F82E00404601F021F9FEF7F1
:10BA10001DF840451DD1FEF791FFFEF7CAFFC0B9E2
:10BA200000210DE0F9F7A6FB012802D0032802D07F
:10BA300005E0002100E002212846F9F7A9FB29468C
:10BA4000404600F09AF90500ECD12146404600F04E
:10BA5000C7F9C9F81040FEF771FFFEF7AAFF48BB0F
:10BA600097F84A00C0073AD02546204601F01AF957
:10BA700001F018F90021074600F068F90446AC42CD
:10BA800001D1022100E00021F9F782FB214638466E
:10BA900000F05CF90400F2D121E0204601F002F947
:10BAA00001F000F901F0D2F890F82E1021F0020117
:10BAB00080F82E1013E0204601F0F4F801F0F2F8BF
:10BAC000054600F031F9A04209D12146284600F090
:10BAD0003DF90146284600E002E000F081F93046D9
:10BAE000BDE8F087B80C00202DE9F041884601F050
:10BAF0006FFB050003D05B4CA06808B104E0FEE7D3
:10BB0000284601F0D7F8A0605421284600F042FEF4
:10BB1000E8B155490163554941635549554A816327
:10BB20000021C263544AC0E9102180F84A10A0F8ED
:10BB30004810C16401652846504901F0ABFAB8F1DC
:10BB4000000005D001F082F80021044665E0FEE720
:10BB50006421284602F09DFA02262846012401F0BD
:10BB60000CFE22463146FAF756FEB42228467821CA
:10BB700001F092FA0324284601F0FFFD2146FAF76E
:10BB80008AFE0221284602F08AFA03F057FF0400D9
:10BB900028D0D4F80421002104F58274284600F04E
:10BBA00051F962680121284600F04CF9A26802218F
:10BBB000284600F047F9E2680421284600F042F9DF
:10BBC00022690521284600F03DF9626906212846D0
:10BBD00000F038F9A2690721284600F033F9E2693C
:10BBE000082106E0264A0021284600F02BF9254AC4
:10BBF0000121284600F026F930E0002700F046F841
:10BC000010B1FEF772FD0746304600F093F8024689
:10BC100039462846FFF73CFE3146404600F096F88C
:10BC20000600EAD1226B0421284600F00BF9626B72
:10BC30000521284600F006F9A26B0621284600F0EF
:10BC400001F9A26B0721284600F0FCF8226C0821BC
:10BC5000284600F0F7F8284601F047F92846BDE8E5
:10BC6000F0810000B80C0020B8100020F410002073
:10BC7000301100206C110020A8110020E5BE000842
:10BC8000500F00204010002001F072BDF0B50021DF
:10BC9000074689B000F089FF041E17D06E4669463A
:10BCA00001F038F85FF0000556F8250038B108A11A
:10BCB000F4F7FCFD48B16D1CEDB2082DF4D321461C
:10BCC000384600F072FF0400E9D1204609B0F0BD0B
:10BCD0006C765F696D670000F0B50021074689B09A
:10BCE00000F063FF041E17D06E46694601F012F89B
:10BCF0005FF0000556F8250038B108A1F4F7D6FD2D
:10BD000048B16D1CEDB2082DF4D32146384600F041
:10BD10004CFF0400E9D1204609B0F0BD6C765F6CA1
:10BD20006162656C0000000010B500F08FFF006DCF
:10BD300010BD000010B5FFF7CFFF18B1BDE81040EF
:10BD4000FFF734BA004810BD24BD000870B50C469A
:10BD500001F013FD0546214600F02EFF040006D138
:10BD600070BD2146284600F027FF040003D000F0F4
:10BD70001BF80028F5D0204670BD70B50C4601F0C8
:10BD8000FCFC0546214600F010FF040006D170BD02
:10BD90002146284600F009FF040003D000F004F813
:10BDA0000028F5D0204670BD30B589B0694600F056
:10BDB000B1FF00244FEA0D0555F8240038B106A163
:10BDC000F4F774FD30B1641CE4B2082CF4D3002005
:10BDD00009B030BD0120FBE76C765F62746E000035
:10BDE00070B50D46064600F031FF0446006D68B19F
:10BDF000F9F7C0F9012802D0032803D006E0206D2E
:10BE0000002101E0206D0221F9F7C2F92800256523
:10BE100017D0E564F9F7AEF910B1022803D006E0B7
:10BE2000206D012101E0206D0321F9F7B1F93046C1
:10BE3000FFF72AFFC2B2216D3046BDE8704001F025
:10BE4000B9BB70BD2DE9F04117460D46804600F0A4
:10BE5000FDFE00260446092D24D2DFE805F0050882
:10BE60000B0E15171A1D200000213A4607E001218C
:10BE70003A4604E002213A4601E003213A464046B0
:10BE8000BDE8F04102F031B9276315E00126676390
:10BE900012E00226A7630FE00326E7630CE0042606
:10BEA000276409E0052D07D0042D05D0062D03D009
:10BEB000072D01D0082D12D100214046FFF75DFF6C
:10BEC00004EB8604054608E0226B3146F9F776F963
:10BED00029464046FFF751FF0546002DF4D1BDE845
:10BEE000F08100002DE9F0416C4F16460C4680466B
:10BEF000BB6898470128054675D10A2C12D0072C3B
:10BF000010D0082C0ED00B2C0CD00C2C0AD00F2CDF
:10BF100060D0102C68D0122C67D0112C72D0062C57
:10BF200071D0B7E0FEF70AFD0746FEF72BFD0228A9
:10BF300008D0042821D1404600F08AFEFDF77FFD9D
:10BF400000281AD0002104E0F9F714F9012805D0DF
:10BF500031464046FFF711FF0600F5D1404600F09C
:10BF600075FE002E09D0072C08D0082C09D00B2C08
:10BF70000AD00C2C0BD00A2C0CD08BE000221146DE
:10BF800023E00022012120E0002204211DE0002204
:10BF900005211AE0C66497F84C00C00705D10022BD
:10BFA00030460321FDF71CFC05463846FEF701FD2F
:10BFB00038B9012D6ED1002230460621FDF710FC64
:10BFC0000546012D66D1002207213046FDF708FC09
:10BFD00005465FE0FEF7B2FCFEF7D4FC042805D06E
:10BFE000396989BB08E056E016E020E0404600F0E1
:10BFF0002FFEFDF724FD38B1404600F027FEC16C4E
:10C0000011BB03E016E03AE0002127E000214046A2
:10C01000FFF79CFE014621E000214046FFF7E0FECD
:10C02000002440463C6100F011FE046532E001202E
:10C0300030702FE03078132807D0122805D014284C
:10C0400010D011280ED025E008E0404600F0FEFD9B
:10C05000016D91B14046FFF779FE0BE04046FFF7D6
:10C06000BFFE17E0404600F0F1FD016D29B14046EA
:10C07000FFF783FE0100F1D10CE00021EAE7002088
:10C0800056F8201019B1401CC0B20728F8D304A1FB
:10C0900046F820102846BDE8F0810000B80C0020CA
:10C0A0006C765F6C6973740070B51E4615460C465D
:10C0B000114600F0FFF8AEB100222946204603F0F9
:10C0C00048FF62682946204603F032FF616819B1D3
:10C0D0002A46204603F03DFFA0686560002800D195
:10C0E000A56070BDA2682946204603F032FF0022F9
:10C0F0002946204603F01CFFA16819B12A462046B4
:10C1000003F016FF6068A5600028EAD1656070BD85
:10C110004FF0000100B141680846704702004FF03F
:10C12000000003D01068091D084400687047020031
:10C130004FF0000002D010680844006870474FF0CC
:10C14000000100B1816808467047002242608B07F9
:10C15000826002D021F00301091D0160704770B5B3
:10C1600004460068083000F0E1F8050013D0002212
:10C170000146204603F0EDFE62682946204603F0A2
:10C18000D7FE616819B12A46204603F0E2FEA06896
:10C19000656000B9A560284670BD2DE9F041070033
:10C1A0000D462BD055B3FFF7B3FFA84204D1384654
:10C1B000FFF7D5FF04461EE03868083000F0B6F8F7
:10C1C00004001BD029463846FFF7B1FF0646224639
:10C1D0000146384603F0ACFE32462146384603F0AD
:10C1E000B8FE22462946384603F0B3FE2A462146C9
:10C1F000384603F09DFE2046BDE8F0810020FBE7B5
:10C2000070B504460068083000F090F8050013D0BF
:10C2100000220146204603F08BFEA26829462046F4
:10C2200003F097FEA16819B12A46204603F080FE6C
:10C230006068A56010B102E0002070BD656028460E
:10C2400070BD28B1416809B9806808B10020704705
:10C25000012070472DE9F04116460D46B1420746D0
:10C2600026D01EB11146FFF762FF01E0FFF767FF1E
:10C270000446A5421CD02946384600F01BF82A4641
:10C280002146384603F054FE22462946384603F03C
:10C2900060FE2A463146384603F05BFE32462946A8
:10C2A000384603F045FE06B9BD60002C00D17D6024
:10C2B000BDE8F08170B50D460446FFF729FFA8429E
:10C2C0004FF000030AD129462046FFF727FF011E41
:10C2D000606001D0002224E0A36070BD2046FFF71B
:10C2E0002EFFA842294620460CD1FFF720FF011E51
:10C2F000A06005D02046BDE87040002203F018BEC3
:10C30000636070BDFFF713FF064629462046FFF71E
:10C3100005FF054602463146204603F009FE324637
:10C3200029462046BDE8704003F013BE70B50500F5
:10C3300011D0A80702D025F003052D1D0026344694
:10C340002046F7F7AFFA040019D0206800262946E6
:10C35000C20702D00CE00B4870BDB1EB500F07D8FC
:10C360002046F7F7B1FA2068261D40F00101216050
:10C37000002EE5D0AA2229463046F4F745FA304689
:10C3800070BD0000500C002010B5044612488442D5
:10C3900020D0002C1ED0204600F020F8BB22014601
:10C3A0002046F4F731FA54F8040C20F0010044F868
:10C3B000040D20460AE00268D1070BD121684B0822
:10C3C00003EB5202121D62F35F012160F7F76AFA74
:10C3D0000028F0D110BD0000500C0020002803D030
:10C3E0000449884201D10020704750F8040C4008ED
:10C3F00070470000500C0020054943F6FC720548C8
:10C400000860016821F0010162F35F01016070477B
:10C410004C0C00202C12002070B504000A4604D0F9
:10C42000201F0078C00700D100242046FFF7D6FF68
:10C430009042054601D1204670BDAA4206D2201F77
:10C4400011460446F7F740FA201D70BD1046FFF76D
:10C450006DFF060008D03CB135B12A462146F4F7FD
:10C460005CF92046FFF790FF304670BD2DE9F041A2
:10C470001F4616460D460446DDF8188000F088FC7D
:10C480000246204600F08AFC05B92568152E2DD2FB
:10C49000DFE806F00B1A1C2D363A4953555F6170E0
:10C4A0007E80939DC3C8CDD2E500284600F05CFC99
:10C4B0000246204600F058FC02EBD27100EBD0702F
:10C4C0004910A1EB600042E000220EE0284600F097
:10C4D0004BFC0246204600F047FC02EBD27100EB19
:10C4E000D0704910A1EB600002B2002075E0284630
:10C4F00000F03AFC0246204600F036FC111A6AE0D1
:10C500000022B0E000B268E0284600F02DFC0246B0
:10C51000204600F029FC02EBD27100EBD0704910EC
:10C52000A1EB600007E0284600F01EFC0246204612
:10C5300000F01AFC101A02B295E0002280E02846B2
:10C5400000F012FC0246204600F00EFC101A02B267
:10C5500076E0002217E0284600F006FC024620465E
:10C5600000F002FC02EBD27100EBD0704910A1EB9D
:10C57000600007E0284600F0F7FB0246204600F086
:10C58000F3FB101A02B2204600F064FB4042B9E708
:10C5900000220EE0284600F0E7FB0246204600F0AD
:10C5A000E3FB02EBD27100EBD0704910A1EB60000D
:10C5B0000BE0284600F04EFB0FE0284600F0D4FBCD
:10C5C0000246204600F0D0FB101A02B2F1E72046E6
:10C5D00000F0CAFB41420AB20020B5F810C0216841
:10C5E0006B8ABC44624408EB030C0B8A6044498AA2
:10C5F000D21A401A11B202B2204600F004FD84F8AB
:10C600004060A787A4F83E80A56394F8410020F01D
:10C61000020084F84100BDE8F081204600F0A4FB50
:10C62000404294E7204600F09FFB404283E72846C3
:10C6300000F09AFB024658E7284600F095FB0246B8
:10C64000284600F007FB0346204600F003FB03EBFF
:10C65000D37100EBD0704910A1EB600052E728467F
:10C6600000F082FB0246284600F0F4FA034620461A
:10C6700000F0F0FA181A45E72DE9F0479946904680
:10C680000D460446DDF820A000F082FB024620465D
:10C6900000F084FB0346204600F066FB00EBD07000
:10C6A0004710204600F0D6FA00EBD070461005B9CE
:10C6B0002568B8F1150F19D2DFE808F00B655B6744
:10C6C000383A424C4E655B67383A42654C38674EA3
:10C6D0004200284600F048FB00EBD070C7EB60003A
:10C6E0003EE003B202E0714202B20BB2298A206836
:10C6F0006E8A494411440AEB0602068A1A44408AAB
:10C70000891B101A02B2204609B200F07CFC84F8A2
:10C710004080A4F83C90A4F83EA0A56394F84100A2
:10C7200040F0020084F84100BDE8F08778420BE059
:10C73000284600F019FB00EBD070C7EB600003E067
:10C74000284600F011FBC01B02B2284600F082FA16
:10C75000801BC6E7784203E0284600F005FBC01BBB
:10C7600002B2284600F076FA00EBD070C6EB60000B
:10C77000B7E7284600F0F8FA00EBD070C7EB60008E
:10C7800002B27042ADE77842ADE7284600F0ECFA1D
:10C79000C01BA8E710B50446406AFFF73DFE606283
:10C7A00010BD70B50021054600F0FFF9044608E011
:10C7B0002146284600F0F9F90646204600F030F9F7
:10C7C0003446002CF4D170BD90F832208A4380F8B2
:10C7D000322070472DE9F04106000D464FF0FF086A
:10C7E0004FF0000724D0301DFFF7B9FC040064D0DF
:10C7F00044212660201DFFF7A8FC308A2082708A21
:10C800006082308A3C30A082708A2830E082A7861D
:10C8100084F84070A787E787A76394F8410020F069
:10C82000010084F8410003F009F9E0B3806846E0B4
:10C83000FAF726F900287DD02430FFF790FC040099
:10C8400021D044212760201DFFF77FFC2782002094
:10C850006782FAF71BF9401EA0820020FAF746F91A
:10C8600094F84110401EE082A78621F0010184F86F
:10C870004070A787E787A76384F8411003F0DEF8CC
:10C8800010B1006801E0FEE76148A0626148E06124
:10C890006148206294F8300094F83120A76122F0BA
:10C8A000FC02E76200E009E084F8327020F0FF004B
:10C8B00084F8338084F8312018E0FEE75748A062FE
:10C8C0005448E0615448206294F8300094F83120D4
:10C8D000A76120F0FE00E76242F0030284F83120F5
:10C8E00040F0010084F8327084F83380002D6762D4
:10C8F00084F830007AD02969216169696161A88E64
:10C90000A08695F8400084F84000A88FA087E88FA3
:10C91000E087A86BA06395F8410094F8411060F39C
:10C92000000184F84110A869A06195F8301094F8CE
:10C93000300000E06AE061F3000084F8300095F810
:10C940003010490861F3410084F8300095F8311047
:10C9500094F8312061F3010284F8312095F8301009
:10C96000890861F3820084F8300095F83010C90816
:10C9700061F3C30084F8300095F83010090961F3C1
:10C98000041084F8300095F83010490961F345101F
:10C9900084F8300095F83010C90961F3C71084F8A5
:10C9A000300095F83010890961F3861084F8300062
:10C9B00095F8320084F8320095F8330084F833009B
:10C9C000A86AA062E86A10B12146FCF7A7FF2868B0
:10C9D00068B166B1284600F0E1F90246284600F049
:10C9E000D7F90146204600F00EFB06E004E00022E5
:10C9F0002046114600F007FB3EB1F36901212246B3
:10CA000030469847204600F0CFF92046BDE8F08137
:10CA1000D80E002075D10008F9CA000804100020C3
:10CA20002DE9F041044600F0BFF9E76A17B120464E
:10CA3000FDF746F800212046F8F7C6F9201DFFF75C
:10CA400067FB054608E0201D2946FFF767FB064601
:10CA50002846F6F7E3FD3546002DF4D100222046A6
:10CA60001321FCF7BDFE2046FCF7ACFE266856B14C
:10CA7000301D2146FFF71EFC0020FDF765FF05462F
:10CA80004FF0000821E0204600F0AAF824302146AB
:10CA9000F0E7686BA04202D0A86BA04202D1284602
:10CAA000FEF73EF8E86BA04201D1C5F83C80686D06
:10CAB000B84206D1FDF752FFA04202D12846FEF748
:10CAC0002FF82846FDF740FF0546002DE1D1E36928
:10CAD0000022114620469847606A08B1FFF754FCCF
:10CAE0002046FFF751FC26B1F369002201213046B0
:10CAF00098470020BDE8F0817CB5022A0E4600F17F
:10CB00001005044601D0DAB348E029463046F8F76C
:10CB1000FBF9002836D0204600F0CEF8017AFB2938
:10CB20002FD3B0F90650A5F5F840183829D0206960
:10CB30006946009060690190BDF800002844ADF896
:10CB40000000BDF80400401BADF804003046F8F7C3
:10CB5000DBF9002816D020696946009060690190D1
:10CB6000BDF802002844ADF80200BDF80600401BE5
:10CB7000ADF806003046F8F7C7F9002802D00DE0FE
:10CB800001E000207CBD00F097F80246204600F04E
:10CB90007BF8034631462846FAF75AFE01207CBD51
:10CBA00090F8410000F00100704700F1040009B165
:10CBB000FFF7B4BAFFF7ACBA00F1040009B1FFF710
:10CBC000B6BAFFF7BCBA90F8300000F00100704729
:10CBD00002690A60406948607047006A7047000057
:10CBE00070B5016809B100F05FF805460C48FFF721
:10CBF0008FFA12E004F124000646FFF789FA06E0F6
:10CC0000A94201D1204670BD3046FFF787FA0100E6
:10CC1000F6D103482146FFF781FA0400EAD170BD3E
:10CC2000F011002090F83000C0F34000704790F8F9
:10CC3000310000F00300704790F83000C0F3C000EE
:10CC4000704790F83000C0F380007047406A70472A
:10CC5000C06A7047C18A408A081A401C00B27047F7
:10CC600010B5044600F028F802462046FFF7F2FF10
:10CC7000D18A128B401A801A00B210BD90F8300091
:10CC8000C0F300107047000008E000BF90F83010BB
:10CC9000490602D590F83300704700680028F5D1A6
:10CCA000FF20704700687047014600680028FBD1EC
:10CCB00008467047C069704770B5856A06464DB929
:10CCC000346805E0A06A10B10078C0070FD024686E
:10CCD000002CF7D1F06A40B1FCF7B8FEB04204D1A5
:10CCE000F06A2946FCF7C0FE054675B10EE0E56A1C
:10CCF0002846FCF7ABFEA04205D1A16A2846FCF706
:10CD0000B3FE0546E6E7A56AE4E7014D284670BD97
:10CD1000C80F002030B50D4604462021284689B0B2
:10CD2000F3F79CFD20216846F3F798FDE36906219F
:10CD30006A462046984700224FEA0D0454F8220024
:10CD400018B1521CD2B2082AF8D3002308E0D11A35
:10CD5000581C04EB810151F8041C45F82310C3B2A0
:10CD60009342F4D309B030BD818A008A081A401C6E
:10CD700000B2704710B50446FFF79EFF02462046FA
:10CD8000FFF7F2FF518B928B401A801A00B210BD50
:10CD90000168008A098A401A00B270470168408A17
:10CDA000498A401A00B270477CB5054690F83000B9
:10CDB000C0F30010002848D12846FFF775FF04464D
:10CDC000FFF70EFF0646F9F788FEA04209D030466D
:10CDD000F9F77BFEA04204D03046F9F76EFEA04280
:10CDE00033D1A98E01202C682A6900926A690192C8
:10CDF000BDF80020521AADF80020BDF80220521AEA
:10CE0000ADF80220BDF804200A44ADF80420BDF8B6
:10CE100006201144ADF806100FE000BF694604F18A
:10CE200010020846F8F747F800280ED094F83010A2
:10CE3000C1F30011002908D12468002CEED100288C
:10CE400003D069463046FDF7BFFE7CBD10B50446F1
:10CE5000C06A28B1FCF7FAFDA04201D1012010BD43
:10CE6000002010BD90F83200084000D0012070472B
:10CE700070B504680546201DFFF74AF9A84212D094
:10CE80002046FFF791FF01232A46211D201DFFF7B1
:10CE90000BF9E36901212A46204698472046BDE860
:10CEA0007040FFF781BF70BD38B590F84120B0F9F0
:10CEB0003E40B0F93C30816B950790F840200094DB
:10CEC00002D5FFF7D9FB38BDFFF7D0FA38BD10B552
:10CED0000446002005210246A0862046E3699847C3
:10CEE0002046BDE81040FFF75FBF10B50446FFF7CE
:10CEF0005BFFE36900220421204698472046BDE8F5
:10CF00001040FFF751BF90F8302061F3000280F825
:10CF1000302070470162704710B50C00034602D004
:10CF20000121FFF7F0FF93F8300064F3410083F82C
:10CF3000300010BD90F8302061F3C30280F830203B
:10CF4000704790F8302061F3820280F830207047FB
:10CF5000816170470A46034610B5FFF705FFBDE83B
:10CF600010400146184600F097B870B5044690F896
:10CF700030000D46C00602D42046FFF715FF94F896
:10CF8000300065F3041084F83000C10602D4204656
:10CF9000FFF70AFF206822460121C369BDE87040FF
:10CFA00018472DE9F041054600680C46002828D0B6
:10CFB000002C26D02846FFF7F7FE2846FFF7E8FEAC
:10CFC00080462846FFF7EAFE2F680123211D06460A
:10CFD000381D2A46FFF768F83246414628462C603D
:10CFE00000F011F8FB690022012138469847E369F7
:10CFF00001212A46204698472846BDE8F041FFF720
:10D00000D3BEBDE8F0812DE9FC4106681746028ACF
:10D010000446438A308AB6F812C00844821A0CEBE0
:10D020000701C81A11B200B261F30F0560F31F4582
:10D0300009B9002826D02046FFF7B6FE206929B29C
:10D0400000902A1460690190208A638AA78A0844A4
:10D05000B4F816C0134420827D1863820CEB0207DB
:10D06000A5822046E78202F09AFFE36902216A4620
:10D0700020469847F36901212246304698472046CA
:10D08000FFF792FEBDE8FC8190F832200A4380F859
:10D0900032207047C16170477CB515460E46044684
:10D0A000FFF762FEB04204D12046FFF7D3FDA8424D
:10D0B00031D02046FFF778FE2069761E00906D1E65
:10D0C00060696A460190208A618A3044A0822944BE
:10D0D000E182E369022120469847206818B1C369BC
:10D0E000012122469847201DFFF712F807E0EB695F
:10D0F000002203219847201D2946FFF70FF805005D
:10D10000F5D12046FFF750FE94F84100C00702D049
:10D110002046FFF7C9FE7CBD10B50446816202F0CF
:10D1200060FF2046BDE81040FFF7DFBE10B50B469C
:10D130000446FFF78FFD02462046BDE81040194621
:10D14000FFF7AABF10B50B460446FFF727FE0246BD
:10D150002046BDE810401946FFF755BF0A46034672
:10D1600010B5FFF715FEBDE8104001461846FFF761
:10D170004ABF00002DE9F041012615460C4607463E
:10D18000FFF79AFD012C06D0052C0BD0042C11D0F2
:10D19000062C13D014E001213846FFF763FE78B166
:10D1A00000260DE0B0F91200B7F93410884207DD0F
:10D1B000B88605E03846FFF78AFE01E002A0286045
:10D1C0003046BDE8F08100006C765F6F626A000057
:10D1D000F8B50F460646F8F7A1FE050003D0674CE8
:10D1E000606808B104E0FEE72846FFF763FD606071
:10D1F000206818B92846FFF7F0FC20603021284647
:10D20000FFF7C8FA04005AD05D484FF4C87CA0600C
:10D210005C4860620020237F94F8282094F82E1048
:10D2200023F01F03A4F82CC00C33606021F003012D
:10D23000208422F01F0084F82E10237784F8280021
:10D24000E7B33846FFF702FD416806462846F8F77F
:10D2500065FE4D496060FFF71DFF307FC0F382011E
:10D26000284600F01CFF0021384600F092FA002109
:10D270000246284600F039FF0121384600F089FABD
:10D2800001210246284600F030FF0221384600F016
:10D2900080FA02210246284600F027FF3B49284633
:10D2A000FFF7F8FE3A492846FFF734FE2846FFF715
:10D2B0001CFE284600F0D3FA2846F8BD00E0FEE741
:10D2C00000212846F8F72AFE2F496060FFF7E2FEAA
:10D2D00030496068FFF71EFE60680121FFF71CFE01
:10D2E00060680121FFF72DFE60681221FFF7CCFE78
:10D2F00003200090032360681A461946F9F799FA4B
:10D3000025496068FFF724FE20492846FFF7C2FE42
:10D310001F492846FFF7FEFD207FC0F38201284603
:10D3200000F0BDFE02F08AFB04001AD096B1D4F8DA
:10D33000DC200021284600F0D8FED4F8E0200121AE
:10D34000284600F0D2FED4F8E4200221284600F05E
:10D35000CCFEAEE762680021284600F0C6FE0F4A08
:10D36000EDE70F4A0021284600F0BFFE044A0121E4
:10D37000284600F0BAFE0A4AE7E70000CC0C00207D
:10D38000401000200410002069DC000855E100086E
:10D39000A5D30008E9E8000817000108140F0020D1
:10D3A0007C100020F0B5022A1546A5B00F460446B1
:10D3B0000ED0002100F0EDF9014604A801F0DCFADE
:10D3C00004F110064FF000003DB1012D0FD0EDE04B
:10D3D000774B1B68984725B0F0BDADF81C00204680
:10D3E000FFF752FC04AA034639463046DCE0ADF8AC
:10D3F00022008DF818002046FFF746FC04AA0346D9
:10D4000039463046FAF724FA2046FFF71FFC054656
:10D41000007FC10727D08008400724D4E868139014
:10D4200028691490BDF84C00218A0844ADF84C00DE
:10D43000BDF84E00618A0844ADF84E00BDF85000BA
:10D44000218A0844ADF85000BDF85200618A0844B2
:10D45000ADF852002046FFF717FCAA68034613A850
:10D460003946FAF7F5F9287F810727D58008400764
:10D4700024D468691390A8691490BDF84C00218ADF
:10D480000844ADF84C00BDF84E00618A0844ADF880
:10D490004E00BDF85000218A0844ADF85000BDF898
:10D4A0005200618A0844ADF852002046FFF7ECFBB9
:10D4B000AA68034613A83946FAF7CAF92046FFF7C7
:10D4C00053FC06462046FFF7C5FB95F828108A074F
:10D4D00013D5208AA6EB8601801BADF80000A08A38
:10D4E0003044ADF80400608A2A8C10440844ADF83A
:10D4F0000200608A298C084431E04A0713D5208A4B
:10D5000006EB4601801BADF80000A08A3044ADF860
:10D510000400E08A2A8C801AADF80200E08A2A8C86
:10D520000844801A1BE00A0707D5A28A00EB4003D3
:10D53000298C1344521A591A07E0C90636D5218A94
:10D54000A0EB80022B8C19440A44ADF80020ADF802
:10D550000410618A091AADF80210E18A0844ADF896
:10D56000060095F82800C10605D4010703D48107F9
:10D5700001D440071AD5696A15A801F0FDF947F6EC
:10D580001841ADF85A102A8C0F209DF85C1011FB41
:10D5900002F191FBF0F08DF85C002046FFF774FB80
:10D5A00015AA034639466846FAF752F9012012E7F0
:10D5B000CC0C00202DE9F74F8AB08B460A98FFF774
:10D5C00045FB684904460A98F7F7FEFB66490A9846
:10D5D000F7F7FAFB63496068F7F7F6FB62496068A2
:10D5E000F7F7F2FB0A98002100F0D3F801218146F9
:10D5F0000A9800F0CEF861688046BBF81200498AAC
:10D60000401A07B25846FFF725FB05466068FFF74A
:10D61000C5FB06460A98FFF71DFBF11901EB050251
:10D62000C1F10001A2EB00030AB219B2854201DC8C
:10D63000002A03DC854207DD8A4205DAB8F81610B5
:10D64000B9F816007A1A0FE0854201DC002903DCE4
:10D6500085420CDD8A420ADBB9F81830411BB8F864
:10D660001820D01838444042801A084406B2616835
:10D67000BBF81000098A401A0FFA80FA5846FFF7E3
:10D6800073FB05466068FFF783FB07460A98FFF7C0
:10D690006BFB07EB0A0101EB0502C1F10001A2EBF4
:10D6A00000030AB219B2854201DC002A03DC85427C
:10D6B00009DD8A4207DAB8F81A10B9F81A20AAEB7D
:10D6C0000100101A11E0854201DC002903DC8542CB
:10D6D0000DDD8A420BDBB9F81C30411BB8F81C2069
:10D6E000134403EB0A004042801A084407B20C9826
:10D6F00068B30A9800F03CF848B30025ADF81A501A
:10D700006068FFF74BFBCDE904060A9800F030F89B
:10D71000ADF8180003959DF8200020F003008DF867
:10D72000200060680090114802900F480190684600
:10D73000F7F724FB6068FFF72BFBCDE904070948E6
:10D7400001906846F7F71AFB0DB0BDE8F08F6068EE
:10D750003146FFF703FD60680DB03946BDE8F04F74
:10D76000FFF7F0BC45D100085DD10008294E000844
:10D7700010B5FFF76BFA808D10BD10B5FFF766FA94
:10D78000406810BD10B5FFF7F8FFBDE81040FFF787
:10D79000EBBA70B500240D460646FFF757FA35B1CF
:10D7A000012D06D0022D09D0032D0AD108E0304604
:10D7B00000E04068FFF780FA044602E0846800E079
:10D7C000446A204670BD70B50C460546FFF7B2FBB3
:10D7D00021462846BDE87040FFF79EBB7FB50D4649
:10D7E0000646FFF769FA04463046FFF7C6FF02A96E
:10D7F000FFF7EEF969463046FFF7EAF9A80708D5C2
:10D80000B4F91620BDF90210BDF90A001144814295
:10D8100020D0280708D5B4F91810BDF90600BDF9C5
:10D820000E20401A904215D0E80708D0B4F91A200B
:10D83000BDF90000BDF90810104488420AD06807FD
:10D840000BD5B4F91C20BDF90410BDF90C00891AE0
:10D85000814202D1012004B070BD0020FBE72DE918
:10D86000F04F87B00546FFF7F1F904462846FFF769
:10D8700023FA064660680390FFF776FA059003984E
:10D88000FFF7E8F904902846FFF76EFA804628462D
:10D89000FFF7E0F90746A068B6F91C10B0F91E00C2
:10D8A000884200DD0146B6F918208946904200DC26
:10D8B0001046217F824611F01C0F7ED0C1F38200FA
:10D8C000012802D141F0030020772846FFF788F9AC
:10D8D0000290207FC0071FD0E0680090206901906F
:10D8E000BDF80000298A0844ADF80000BDF8020028
:10D8F000698A0844ADF80200BDF80400298A08448A
:10D90000ADF80400698ABDF806000844ADF80600C9
:10D9100002986946FDF758F9207F80071FD5606996
:10D920000090A0690190BDF80000298A0844ADF874
:10D930000000BDF80200698A0844ADF80200BDF895
:10D940000400298A0844ADF80400698ABDF806007D
:10D950000844ADF8060002986946FDF735F9207FC6
:10D96000C0F38200022804D1FCF7E8FFFDF721F89C
:10D9700038B3B6F91A10B6F91C00A8EB0102131A55
:10D98000059A934227DBC9F1000108EB410001B27F
:10D9900004F10C008346F7F74EFBA068C18B008BA7
:10D9A000791A081A494602B25846F7F72DFB217F2B
:10D9B000C1F3820003280BD000E006E0022807D064
:10D9C0004BE0207F20F00300207707B0BDE8F08F08
:10D9D00021F0010040E0C9F100020B18059808EBA6
:10D9E0004201184401FB08F191FBF0F000B2072856
:10D9F000834601DA07208346014604F10C000690B5
:10DA0000F7F719FB0398FFF7C3F90146B6F91A00B7
:10DA1000ABEB0803091A03EB49025143B6F91C208A
:10DA2000024405980244A2EB080091FBF0F101EBDF
:10DA3000090001B2A068C28B008BBA1A101A02B298
:10DA40000698F7F7E1FA217FC1F38200032801D09D
:10DA5000022802D141F001002077B6F91610B6F97C
:10DA600018007A1A131A049A93421EDBCAF10000B6
:10DA700007EB400001B204F114000646F7F7BFFAC5
:10DA8000A068C18B828BA8EB0100801A524601B2BC
:10DA90003046F7F7B9FA217FC1F38200032801D09D
:10DAA000022845D121F0020041E0CAF100020B1822
:10DAB000049907EB42001944784390FBF1F000B25F
:10DAC0000728814601DA07208146014604F1140047
:10DAD0008346F7F794FA0398FFF760F90146A068C8
:10DAE000A9EB0703B0F91820891A03EB4A02B6F92B
:10DAF00018305143B6F916201344049A1A44838B04
:10DB0000D21B91FBF2F202EB0A010AB2C18BA8EB25
:10DB10000100C01A01B25846F7F776FA217FC1F327
:10DB20008200032801D0022802D141F002002077B0
:10DB3000207FC0071FD0E068009020690190BDF8E9
:10DB40000000298A0844ADF80000BDF80200698A87
:10DB50000844ADF80200BDF80400298A0844ADF875
:10DB60000400698ABDF806000844ADF80600029872
:10DB70006946FDF729F8207F80077FF526AF6069A9
:10DB80000090A0690190BDF80000298A0844ADF812
:10DB90000000BDF80200698A0844ADF80200BDF833
:10DBA0000400298A0844ADF80400698ABDF806001B
:10DBB0000844ADF8060002986946FDF705F804E749
:10DBC00010B58AB00C46FFF7D8FD0090FFF7E0F8DB
:10DBD00003190022C821CDE904030C4801900C4828
:10DBE000CDE902029DF82000ADF81A2020F00300D4
:10DBF000ADF81C20ADF818108DF820006846ADF87F
:10DC00001E20F7F7BBF80AB010BD000045D1000890
:10DC1000294E000810B58AB00C46FFF7AEFD009003
:10DC2000FFF7BCF803190022C821CDE904030C4812
:10DC300001900C48CDE902029DF82000ADF81A20B1
:10DC400020F00300ADF81C20ADF818108DF820006E
:10DC50006846ADF81E20F7F791F80AB010BD000035
:10DC60005DD10008294E00082DE9F74FFF4B96B013
:10DC700093460F4616985B68984701280F907DD110
:10DC80001698FFF70FF80646FFF716F805463046D8
:10DC9000FEF7DCFF022F044602D00E2F6FD0F4E116
:10DCA0001698FFF775F80B901698FFF777F84FF076
:10DCB00000090A90169803A9CA46FEF789FF01A930
:10DCC0003046FEF785FF1698BBF800306F8BB5F82D
:10DCD0001CC0018A428ABBF80200C91AB5F8168036
:10DCE000121A2B8B08B20D9010B20C9008EB0302A5
:10DCF00010B2119007EB0C0130460FFA81F8FEF7D5
:10DD0000D1FF0690FCF71AFE07A90746FCF73EFE76
:10DD100094F82E00C10743D0800741D43846FCF761
:10DD200048FE68BBBDF91E00002808DDB5F91630B5
:10DD3000BDF90610BDF90E20194491420AD0002801
:10DD40002EDAB5F91820BDF90A10BDF91200891AAA
:10DD5000814225D1BDF91C00002808DDB5F91A2043
:10DD6000BDF90410BDF90C30114499420ED00028C1
:10DD700016DAB5F91C20BDF9081002E086E123E1AE
:10DD80000EE0BDF91000891A814209D10698FEF70C
:10DD900089FF28B194F82E0040F0020084F82E008C
:10DDA00003A8F7F782F800EB080701A8F7F77DF85A
:10DDB00087420CDCB5F91A00BDF90420BDF90C103E
:10DDC00002448A4262D04FF001090B905EE094F861
:10DDD0002E0080070ED5BDF91C100D98814255D13B
:10DDE000BBF800104FF00109BDF80420881A00B2FA
:10DDF0000B904BE0B5F91C20BDF90810BDF91000DF
:10DE0000891A814221DD01A8F7F74FF8074603A8D8
:10DE1000F7F74BF8A98B3A1A94F828004FF001094C
:10DE2000511A09B20B91C20730D0C1062ED4010796
:10DE30002CD481072AD4400728D4304600F0A2FA17
:10DE400094F8280040F008001EE0B5F91A10BDF95A
:10DE50000420BDF90C000A44824217DA94F8280025
:10DE60004FF001090B91C10710D0C1060ED4010774
:10DE70000CD481070AD4400708D4304600F082FA57
:10DE800094F8280040F0100084F8280003A8F6F762
:10DE9000F1FF1199471801A8F6F7ECFF87420CDC57
:10DEA000B5F91600BDF90620BDF90E1002448A42EC
:10DEB00062D04FF0010A0A905EE094F82E008007CD
:10DEC0000ED5BDF91E100C98814255D1BBF8021039
:10DED0004FF0010ABDF80620881A00B20A904BE004
:10DEE000B5F91820BDF90A10BDF91200891A81424E
:10DEF00021DD01A8F6F7BEFF074603A8F6F7BAFF33
:10DF0000298B3A1A94F828004FF0010A511A09B2E5
:10DF10000A91C20730D0C1062ED401072CD4810744
:10DF20002AD4400728D4304600F02CFA94F8280070
:10DF300040F004001EE0B5F91610BDF90620BDF949
:10DF40000E000A44824217DA94F828004FF0010AC2
:10DF50000A91C10710D0C1060ED401070CD4810765
:10DF60000AD4400708D4304600F00CFA94F8280090
:10DF700040F0020084F8280059EA0A0020D01698E0
:10DF8000DDE90A21FFF73FF894F82E00800717D546
:10DF9000BAF1000F08D00698FEF700FF0C9908446C
:10DFA00001B20698FFF7DAF8B9F1000F08D0069829
:10DFB000FEF7EEFE0D99084401B20698FFF7C2F88D
:10DFC0003046FFF74CFC60E0217F94F82E00C1F34F
:10DFD0008201022920F0020084F82E0055D130463B
:10DFE000FEF7FEFD0546207FC00723D0E0680190C4
:10DFF00020690290BDF80400318A0844ADF804009D
:10E00000BDF80600718A0844ADF80600BDF80800A6
:10E01000318A0844ADF80800718ABDF80A00084446
:10E02000ADF80A0001A92846FCF7CEFD207F20F0BC
:10E0300001002077207F800727D560690190A069C3
:10E040000290BDF80400318A0844ADF80400BDF820
:10E050000600718A0844ADF80600BDF80800318A50
:10E060000844ADF80800718A02E00000CC0C0020E2
:10E07000BDF80A000844ADF80A0001A92846FCF7DB
:10E08000A3FD207F20F0020020770F9819B0BDE893
:10E09000F08F10B50C46FEF7D9FD848510BD70B524
:10E0A0000C460546FEF7D2FD017FC1F38202A24273
:10E0B0001AD0042C12D0052C13D0520701D544F0ED
:10E0C000040464F3840101F0FC0101772846FFF7A2
:10E0D000C6FB2846BDE87040FEF766BE41F0100161
:10E0E000F1E721F01001EEE770BD2DE9F041154692
:10E0F0000F460646FEF7AAFD044647B1012F09D098
:10E10000022F0DD0032F00D14562BDE8F0812946D2
:10E11000304601E040682946BDE8F041FEF7FCBF0B
:10E12000A56004F10C00B5F91E10F6F768FFA068B1
:10E13000B0F91E1004F11400F6F77DFF3046FFF72A
:10E140008EFB3046FEF7C3FE3046BDE8F041FEF7D9
:10E150002BBE00002DE9F05F874B14460F460546A5
:10E160005B6898470128804679D12846FEF76EFD06
:10E17000012F06460CD0042F5FD0022F75D0052F3B
:10E180006FD0112F6ED0122F6DD0062F6CD0EFE014
:10E1900001212846FFF7FDFA83462846FFF7EDFAEE
:10E1A000F7F718FF82462846FFF7E7FAF7F719FF57
:10E1B0000021814605E002213846FEF753FE38B1C2
:10E1C00039462846FEF7F1FC0746002FF3D1CFE091
:10E1D0003C4628462146FEF7E8FCB5F910100746F4
:10E1E000B4F9100088420ED1BAF1010F02D0BAF191
:10E1F000030F08D1BBF81A1008442082BBF81A009C
:10E20000A18A0844A082B4F91200B5F9121088421C
:10E210000ED1B9F1010F02D0B9F1030F08D1BBF84B
:10E22000161008446082BBF81600E18A0844E082B8
:10E2300071682046FEF7B5FEC7E77068022100F15D
:10E240001002C3699847307FC10701D1800702D50A
:10E250002846FFF704FB2846FEF739FE88E088E0F1
:10E2600003E026E038E074E076E0706800287FD0B4
:10E270002846FEF779FD07462046F6F716FE874248
:10E2800008D12846FEF7E6FC07462046F6F7F2FDE1
:10E2900087426DD07068022100F11002C36998476F
:10E2A000307FC10701D1800762D52846FFF7D7FA32
:10E2B0005EE0B068B5F93410B0F91C00404281420C
:10E2C00000DAA886B068B5F93410B0F918004042F9
:10E2D00081424DDAA8864BE02068122817D0112819
:10E2E00028D013280AD014281BD041E0C11700EB16
:10E2F000917081102846FFF78DFC39E02846FFF722
:10E3000041FA04462846FEF72FFD844204DC2846E5
:10E31000FEF7A0FC4042E9E72846FEF725FD404213
:10E320000FE02846FFF72EFA04462846FEF71CFDAC
:10E33000844203DC2846FEF78DFCD7E72846FEF72B
:10E3400013FDC11700EB917081102846FFF738FCD0
:10E350000EE0012020700BE05FF0000054F8201068
:10E3600019B1401CC0B20728F8D304A144F820100A
:10E370004046BDE8F09F0000CC0C00206C765F703A
:10E380006167650010B58AB00446FEF75FFC90F83F
:10E390002800C0071FD00F2200204FF49671CDE94E
:10E3A00004020E4ACDE900420D4A02920D4A039240
:10E3B0009DF82020ADF81A0022F00202ADF81C10E2
:10E3C00042F00102ADF818108DF82020ADF81E00C3
:10E3D0006846F6F7D3FC0AB010BD00006F3800089D
:10E3E000294E0008853800080E4A4FF4963300B5D0
:10E3F000A2F5163189B0A1F11C00F8F7A9FA684618
:10E40000F8F7B6FAF020ADF8000007484FF4A07115
:10E4100003900648ADF8021001906846F8F7C6FA76
:10E4200009B000BD48AA0220453800082C5200203F
:10E4300000B587B06846FCF741FA03208DF800006C
:10E44000054801906846FCF74BFA044948600449C6
:10E45000FCF78BFB07B000BDC1350008E40C0020C1
:10E46000222D01082DE9FC47474C06466068F8F765
:10E4700058FB4FF0000A90B16068F8F7FFFAA0F877
:10E4800010A0074660685546F8F700FB411EB982A8
:10E490007D826068F8F72AFB411EF9826EE06068B1
:10E4A000A146F8F7EBFA31880446B088F288411AA1
:10E4B0007388491CD01A401C0DB207B2D9F8040069
:10E4C000F8F714FB0146B6F90600814205DCD9F8DD
:10E4D0000400F8F70BFB401E00B2E1688046B1FB78
:10E4E000F5F5BD4200DD3D46D9F80400006910B3E2
:10E4F0006A1EADF800A017B2ADF804A0ADF802A0F6
:10E500006946ADF80670D9F8040002699047BDF875
:10E510000600BDF80210401A401C00B2A84205DDFA
:10E520007F1E3FB2002FEBD1BDE8FC87002FFBD050
:10E53000BDF906506D1CB6F902004FF0000910E05D
:10E54000328809B222824145B288A2826082E18289
:10E5500001DDA4F816803046B4F9169000F016F8E4
:10E5600038B24719791E4145EADDC845DCD031880B
:10E570002182B188A1826082A4F816803046BDE86D
:10E58000FC4700F003B80000300000207CB5184CB8
:10E5900006466068F8F772FA05466068F8F7B8FA58
:10E5A00010B9A869C007FCD105F1100231466846D0
:10E5B000F6F781FC6068F8F790FA0146684600F0CB
:10E5C00045F8694600F042F96068F8F77EFA694656
:10E5D00000F03CF96068F8F770FA694600F036F927
:10E5E0006068F8F79EFA002801D100F055F97CBD6B
:10E5F0003000002070B5114D00200446286014E062
:10E60000011991F83C1179B900EBC4003C30FFF7D7
:10E6100029FF6868816939B100EBC4003C30F6F726
:10E620002FFC296808442860641C6868B0F85C11F5
:10E63000C1F30901A142E3D870BD00003000002001
:10E640000148406870470000300000202DE9F0418B
:10E6500000250C4610310746F6F756FC28B394F80F
:10E660003000C00621D4201DFDF752FD09E001460F
:10E670003846FFF7EBFF050017D1201D3146FDF7A7
:10E680004DFD0600F3D12046FEF716FB007AFF2869
:10E690000BD1236A022239462046984728B12046EA
:10E6A000FEF7F2FAFF2800D125462846BDE8F081A2
:10E6B000704700002DE9FC41DFF8B88000254FE0ED
:10E6C000294491F83C11E1BB00243FE0011991F885
:10E6D0003C11B9BBA54238D000EBC40100EBC5002A
:10E6E0003C303C31F6F72DFC60B37068B04600EB6F
:10E6F000C40200EBC50168463C313C32F6F756FCDB
:10E700006846F6F7BDFB0646D8F8040000EBC500E6
:10E710003C30F6F7B5FB0746D8F8040000EBC40020
:10E720003C30F6F7ADFB384486420ED2D8F80410E0
:10E73000009A01EBC5002144C263019A02640120E2
:10E7400001E00CE001E081F83C01641CD8F8040011
:10E750004646B0F85C11C1F30901A142B6D86D1C60
:10E76000D8F80410B1F85C21C2F30902AA42A7D874
:10E77000BDE8FC813000002070B5044690F8300000
:10E780008AB00E46C0065FD4A58E69462046FEF7C5
:10E790001FFABDF800006A463146401BADF8000084
:10E7A000BDF80200401BADF80200BDF8040028448B
:10E7B000ADF80400BDF806002844ADF8060004A832
:10E7C000F6F779FB00283FD0236A002204A92046EF
:10E7D000984769462046FEF7FBF906A86A46314687
:10E7E000F6F769FB58B3201DFDF7A9FC25E002A947
:10E7F000FEF7EEF9A88E02AABDF80810091AADF8C6
:10E800000810BDF80A10091AADF80A10BDF80C106E
:10E810000144ADF80C10BDF80E100844ADF80E0020
:10E8200006A908A8F6F747FB18B108A92846FFF77C
:10E83000A3FF201D2946FDF77AFC0500D7D1236AE6
:10E84000012204A9204698470AB070BD70B50500A2
:10E850000E4604D10F484068F8F73FF905463146A7
:10E86000FFF78AFF0FE0201D2946FDF760FC051E1B
:10E8700003D03146FFF780FFF5E7236A01223146D6
:10E880002046984725462846FEF70CFA0400EAD1B0
:10E8900070BD00003000002070B5124D6868F8F7B8
:10E8A000EDF804466868F8F733F910B1A069C007BD
:10E8B000FCD1A06940F00100A0616868C3681BB189
:10E8C00004F11001A26898472068002806D061680A
:10E8D000002903D0A268824201D1A16070BDA0606E
:10E8E00070BD0000300000202DE9F05F214E022AAB
:10E8F00014468B460546336803D02CB1012C34D026
:10E9000034E0BDE8F05F1847FEF7D6F980462846A8
:10E91000FEF7C8F98146FEF7CFF907464846FEF7ED
:10E9200097F98246387AC0B9B889B0B95046FBF732
:10E930008DF8484511D141465046FBF795F8014600
:10E94000007A48B9888938B97F220A720120888103
:10E950005046FBF789F80146A962336822465946BA
:10E9600028469847C5F8288000E098470120BDE870
:10E97000F09F0000CC0C00203C22F1F713BF0000F8
:10E980002DE9F843FE4C0025FE4EFF2003274FF0F3
:10E990000F09FF214FF001082570207230680090A8
:10E9A000BDF80000608070680090BDF80000A08095
:10E9B000E5806583A583E5822583E7830095BDF81F
:10E9C00000206281E173A58184F80E90B268009204
:10E9D000BDF800202282302284F81480104665821F
:10E9E00084F82C101146F7F725FA0090D822BDF8CC
:10E9F0000000962120845520F7F71CFA0090022190
:10EA0000BDF80000E04A6084FF2062622022258574
:10EA10006185114684F833001046F7F70BFA009031
:10EA20002022BDF8000011462086FF2084F83250D5
:10EA300084F838001046F7F7FDF900902146BDF83C
:10EA40000000A0860220E08601F1F00084F8395031
:10EA5000FFF792FF04F1F000014647838783C782E6
:10EA600007833C30FFF788FFF02211461046F7F786
:10EA7000E1F904F580740090BDF80000F022114621
:10EA8000A4F84C002E341046F7F7D4F90090F02289
:10EA9000BDF800001146E0851046F7F7CBF900906D
:10EAA000D822BDF80000962160865520F7F7C2F9FC
:10EAB0000090A4F13E01BDF800002080608001F1CB
:10EAC0007800FFF759FF202211461046F7F7B2F9F8
:10EAD000009004F15200BDF800102022018111467F
:10EAE0001046F7F7A7F9009004F15200BDF80010A6
:10EAF0002022018311461046F7F79CF9009004F19B
:10EB00005200BDF8001004F13A074022818304202E
:10EB1000F1680091BDF80010A18731690091BDF83E
:10EB20000010E1871146F8801046F7F783F900904E
:10EB30004C21BDF80000A4F84400A7F80C80F9733C
:10EB4000394601F13C00FFF717FFE022114610465D
:10EB5000F7F770F9009004F15200BDF80010E022C0
:10EB6000A0F8441011461046F7F764F9009004F13C
:10EB70005200BDF80010C022A0F8541011461046F3
:10EB8000F7F758F9009004F15200BDF80010C722C1
:10EB9000A0F858109A216B20F7F74CF9009004F177
:10EBA0005200BDF800108B22C18459212B20F7F7A9
:10EBB00041F9009004F15200BDF800104222018595
:10EBC0002C211520F7F736F9009004F15200BDF81A
:10EBD0000010C185A0F19001A0F5A270FFF7CCFE56
:10EBE000A4F1F200014680F80080858105723C3076
:10EBF000FFF7C2FEA4F1B600014645838583C582B6
:10EC000005833C30FFF7B8FEA4F17A0000F13C0127
:10EC1000C58300F59670FFF7AFFED022A2217620C3
:10EC2000F7F708F9009004F15200BDF800105D22DA
:10EC3000A0F862103A211920F7F7FCF8009004F1CF
:10EC40005200BDF80010B2340422A0F864100A216A
:10EC5000E2800623A4F81A902822A4F81C900B2026
:10EC6000E18221831921E383F7F7E4F80090A4F10E
:10EC70006000BDF80010FF22A0F86A10B221A4F8CD
:10EC80000C80E17370690090A4F16000BDF8001081
:10EC9000A0F87010114610466582F7F7CBF82034C3
:10ECA0000090BDF80000FF22114624F81E0B10460C
:10ECB000F7F7C0F8009007F17801BDF8000024F8DC
:10ECC0000E0C01F13C00FFF757FE94226221332025
:10ECD000F7F7B0F800903C22BDF800002621208014
:10ECE0001020F7F7A7F80090C622BDF80000B52164
:10ECF0006080A420F7F79EF80090C622BDF80000BF
:10ED0000B521E083A420F7F795F80090C622BDF85E
:10ED10000000B521E085A420F7F78CF8009007F1FA
:10ED20007801BDF80000608601F17800FFF724FE4D
:10ED3000222211210A20F7F77DF800909022BDF8D9
:10ED400000006221A0873720F7F774F800900D22A9
:10ED5000BDF800000721E0870120F7F76BF800906D
:10ED6000F422BDF80000DD21A4F84400C820F7F724
:10ED700061F80090F422BDF80000A4F85A0005E004
:10ED8000D80E0020180901081C0C0020DD21C82025
:10ED9000F7F750F807F58C740090BDF80000F422E6
:10EDA000DD212081C8201634F7F744F80090A4F143
:10EDB0003E01BDF8000024F80A0CA01EFFF7DCFDA0
:10EDC000272214210220F7F735F800907022BDF8B1
:10EDD00000004C2120802B20F7F72CF80090C62251
:10EDE000BDF80000B5216080A420F7F723F800905B
:10EDF000C622BDF80000B521E083A420F7F71AF879
:10EE00000090C622BDF80000B521E085A420F7F7E8
:10EE100011F80090A4F1B601BDF80000608601F180
:10EE2000F000FFF7A9FDD82211461046F7F702F8C7
:10EE30000090D822BDF800001146A0871046F6F7D2
:10EE4000F9FF00909022BDF800001146E0871046BF
:10EE5000F6F7F0FF00907022BDF800001146A4F80C
:10EE600044001046F6F7E6FF00907022BDF800005F
:10EE70001146A4F85A001046F6F7DCFF6A340090F9
:10EE8000BDF800007022114620801046F6F7D2FF30
:10EE90000090BDF80000A080BDE8F8832DE9F047A0
:10EEA0000E468046FDF7D2FE002104468068FEF73C
:10EEB0008FF98146A068FDF7CDFE05464046FDF777
:10EEC00053FF01462A464846FEF7E6F80321484626
:10EED000FFF7E5F8784A00214846FFF706F9764A39
:10EEE00001214846FFF701F9744DA86818B9484652
:10EEF000FDF7E0FEA860E86828B94846FEF73DFC4B
:10EF0000FDF7D8FEE86048466D49FEF7C3F848466D
:10EF1000FEF733FC6B49FEF7BDF83046F1F7DEFB38
:10EF2000401CFDF703FA050012D03146F1F7B2FBA1
:10EF3000E08AA17E401C80B2E082C1F3411141B160
:10EF4000012906D0022908D0032906D0E0680AE08A
:10EF5000FEE78100E068091D02E0E268C10010469A
:10EF6000FDF75AFAE06060B1A17E6FF00302C1F3D1
:10EF7000411139B1012905D002290DD0032920D131
:10EF80000AE0FEE7E38A50A102EB83028550E28AA1
:10EF9000E06840F8221014E0E18A01292ED06FF0D9
:10EFA0000B0707EBC10149A63B1D4650E68A46A068
:10EFB000E16803EBC603CD50E38AE16802EBC302CC
:10EFC00088502068FDF742FE00260660E168206850
:10EFD000F6F714FCA18A10222068F6F7F9FB2068E6
:10EFE000FDF76AFE0546A07EC0F3411058B1012826
:10EFF00009D002282DD003284ED12AE0056032A086
:10F00000E1684860DDE74046FDF7AEFE0146E08A74
:10F01000B5F91E20C0F10103B5F91A70B5F91CC08D
:10F0200002FB0311C91BA1EB0C0191FBF0F007B22D
:10F0300060683946FEF77AF8B5F91E00A28AC3194E
:10F04000B5F91A10606803FB021109B2FEF77AF8ED
:10F0500022E02068FDF7FEFDB5F9162003462F8B50
:10F06000E08A9B1AB5F91E10DB1BC0F10107A58AC7
:10F070001BB207FB01331BB293FBF0F0401E03B23F
:10F08000C818194605FB002005B26068FDF762FF4D
:10F0900060682946FEF762F8E08A012800D1A6825E
:10F0A000404601F017FAA18A0022404600F0E8F934
:10F0B0004846BDE8F0870000140F0020D40C002063
:10F0C0007504010811040108000000000A00000096
:10F0D00010B5FEF752FBBDE81040FDF762BB000023
:10F0E0002DE9F8438846FDF775FB060003D08D4CEB
:10F0F000606808B104E0FEE73046FDF7DBFD6060C4
:10F100001C213046FDF746FB040039D0A17E0025C6
:10F11000A5824FF49670258221F07E01658241F030
:10F120000101A5606560256020833046A1767E4997
:10F13000FDF7B0FFB8F1000023D0FDF787FD258271
:10F140000746658201683046F6F73CF92060796829
:10F15000FDF740FB60603046B968F6F7DFFEA0605F
:10F16000388B20830420FDF7E1F80028E0607DD093
:10F170006EA10160E1682068F6F740FB0024C7E05B
:10F18000FEE70420FDF7D2F80028E0606FD067A109
:10F1900001603046E582FDF785FDFDF761FD07461C
:10F1A0003046FDF77FFDFDF7E5FD3A460146304666
:10F1B000FDF772FF00213046F6F7B0FE0021A06097
:10F1C0003046F6F7FFF800212060FDF703FB606092
:10F1D0002D212068FDF7BEFE52492068F6F70EFB90
:10F1E00053492068FDF7B4FE60683C21FDF79EFF9F
:10F1F000009500230422D4E90010FDF737F9606878
:10F200000021FDF780FEA06800220121F7F70AFB2C
:10F21000A0680521F7F73FFB4649A068FDF77CFF92
:10F220003046FDF717FD07462068FDF713FD381A35
:10F2300001B2A068FDF78EFE0095002321680C2224
:10F24000A068FDF713F900F0F9FB040027D0D4F80B
:10F250003821002104F59C74304600F0C1F8626842
:10F260000121304600F0BCF8022101E027E015E062
:10F27000A268304600F0B4F8E2680321304600F09E
:10F28000AFF822690421304600F0AAF8626905212E
:10F29000304600F0A5F8A26906210CE0FEE7264AF8
:10F2A0000021304600F09CF8244A0221304600F04C
:10F2B00097F8234A0121304600F092F82EE0FEE74D
:10F2C000F86850F824103046FFF7E8FD81462146E3
:10F2D000404600F069F800210546FEF75AFA002181
:10F2E00002464846FEF701FF01212846FEF751FA83
:10F2F000012102464846FEF7F8FE02212846FEF7A5
:10F3000048FA022102464846FEF7EFFE641CA4B20A
:10F31000F88AA042D4D83046FDF7E7FD3046BDE874
:10F32000F8830000D40C002085F6000800000000DF
:10F330008F0101088C0F0020C80F0020140F00203F
:10F340000410002010B5FDF781FC008B10BD10B536
:10F35000FDF77CFC807E00F0010010BD70B500243C
:10F360000D460646FDF772FC072D0DD2DFE805F0CD
:10F37000040C080E111417003046FDF79DFC02E046
:10F38000006800210DE00446204670BD00680121A0
:10F3900007E00068022104E00068032101E0006842
:10F3A0000421F6F7F8F9EEE770B50E46FDF74EFCCE
:10F3B000002405468068214604E0AA68641CA4B2C3
:10F3C00001461046FDF7F8FB08B1B442F5D1B4424E
:10F3D00000D0002070BD10B5FDF738FC808A10BD4C
:10F3E0002DE9F04115460E460746FDF72FFC072E86
:10F3F000044643D2DFE806F004230A0E14181C006A
:10F4000029463846BDE8F041FDF786BE2068002158
:10F410002A4602E0206801212A46F6F7F9FA28E098
:10F42000206802212A4606E0206803212A4602E0DD
:10F43000206804212A46BDE8F041F6F7E9BA606881
:10F440002946FDF769FEA07EC0F3411030B10128C6
:10F4500004D0022808D003280BD105E0B5F91E100E
:10F460006068FDF777FD04E0B5F91E106068FDF7F0
:10F470005DFE3846BDE8F04101F02CB8BDE8F081F2
:10F480002DE9F04F89B092460D468146FDF7DEFB2F
:10F4900004468068FDF710FC8046E08AA84201D847
:10F4A000401E85B2A18A20688022F5F75FFFA07E0A
:10F4B000A582C0F3411030B1012804D002280DD03C
:10F4C000032820D157E04846FDF74EFCB8F91E202E
:10F4D000B8F91A10104400FB05105BE02068FDF736
:10F4E00043FC06464846FDF73FFC07462068FDF70B
:10F4F0003BFCB8F91E103A1AB8F91A00114401FB86
:10F500000500301A07B2DFF87081DFF870B1BAF188
:10F51000000F4FF0000640D04846FFF713FFD8B366
:10F52000A0680090A068FDF733FC0597CDE9036063
:10F53000CDE9018BADF81A60208BADF818009DF86D
:10F540002000ADF81C6020F003008DF82000684614
:10F55000ADF81E60F5F712FC2068FDF7ADFB07461D
:10F56000A07EC0F34110E8B101281BD0022824D0AE
:10F5700003282ED121E04846FDF7F6FB0646206819
:10F58000FDF7F2FBB8F91E10321AB8F91A0011444F
:10F5900001FB05004042B5E7FFE7A0683946FDF7EB
:10F5A000D1FDD9E76068FDF7DFFBB7F91E20B7F999
:10F5B0001A10104400FB051009E06068FDF74AFBD3
:10F5C000B7F91E20B7F91610104405FB00100FFA0A
:10F5D00080F9BAF1000F0ED0208B60B16068009006
:10F5E000A07EC0F34110D8B1012819D002281FD045
:10F5F000032824D11CE0A07EC0F3411030B10128C3
:10F6000004D0022807D003282DD104E060684946C1
:10F61000FDF798FD27E060684946FDF79FFD22E071
:10F620006068FDF7B5FBCDE90409CDF8048006E07C
:10F630006068FDF7B3FBCDE9040911480190CDE9FD
:10F6400002B6ADF81A60208BADF818009DF82000C6
:10F65000ADF81C6020F003008DF820006846ADF87E
:10F660001E60F5F78BFBA18A8022206809B0BDE8F7
:10F67000F04FF6F7ADB8000045D10008294E00085C
:10F680005DD100084C4B2DE9F0475B6815460E46EE
:10F69000814698470128074679D14846FDF7D6FAB2
:10F6A00004464FF0000876B1022E22D00A2E3BD03D
:10F6B0000F2E4FD0102E4DD0112E4BD0122E68D0C1
:10F6C000062E69D074E0002504E00846FCF75CFED5
:10F6D0006D1CEDB2E06850F825100A78002AF4D1CC
:10F6E000FCF752FEC4F80C80C4F80080C4F808800F
:10F6F0005EE0806800285BD04846FDF735FBA988AE
:10F700002A88891A491C09B2884209D14846FDF75E
:10F71000A1FAE9886A88891A491C09B2884247D047
:10F72000484600F0D7FE43E0FBF708F9FBF72AF95B
:10F73000022807D004283BD14846FDF789FAFAF79A
:10F740007EF918B3FAF738F8062102462068FAF76E
:10F7500047F82DE0206818B1C3692A46314698471A
:10F760000F2E25D1FBF7EAF8FBF70CF9042805D199
:10F770004846FDF76DFAFAF762F938B12068FDF7EF
:10F7800065FAA0F822802068FDF70EFB10E010E07B
:10F79000FFE7012028700BE05FF0000055F8201013
:10F7A00019B1401CC0B20728F8D304A145F82010B5
:10F7B0003846BDE8F0870000D40C00206C765F74FA
:10F7C00061627669657700000448142110B5FCF782
:10F7D000BCFC03490120087010BD0000E4110020AA
:10F7E000540C00202DE9F0411F4690460D46064678
:10F7F00000F00CF8040008D0A6604146256000F037
:10F80000F1F82046E760BDE8F081FEE770B51C48DE
:10F81000FCF77EFC050005D11948FCF7A0FC0400AC
:10F8200017D1FEE7287C294600F00700032814487A
:10F8300006D8FCF7B2FC040001D02DB109E0FEE7C8
:10F84000FCF76CFC0500EDD10D48FCF7D9FC040079
:10F8500014D00025A5604FF4FA702060207C20F0C1
:10F860000700C01C20F00800207400F0F7F8E560E5
:10F870000121606003480171204670BDFEE7000071
:10F88000E4110020540C002010B50446014607483E
:10F89000FCF710FD2046FCF777FD05480068A04204
:10F8A00002D104490120C87010BD0000E4110020FD
:10F8B000440C0020540C002070B50025044640681C
:10F8C00000F0C6F82168814214D800F0C7F80A4D4C
:10F8D000014661600020E8702871A16819B12046D6
:10F8E0008847E87828B9207C000702D52046FFF732
:10F8F000CBFF0125284670BD540C00202DE9F041B6
:10F90000304CA07800285BD10120A0702078002620
:10F91000002854D000F0A2F82B4D0027E060E670DC
:10F920002A482671FCF7F4FB286026E02748FCF7FC
:10F93000F5FB80462868017C4A0720D0B84204D1F4
:10F9400000274046C5F8008017E001F007010529AF
:10F950000AD027B13A7C02F00702914206D9FFF79C
:10F96000ABFF18B12F68DAE7FFF7A6FFE07830B9F0
:10F97000207920B94046C5F800800100D6D1E06862
:10F9800000F066F8216908442061A06800F060F882
:10F990004FF4FA71884212D3206964225043B0FBBD
:10F9A000F1F0C0B26070642801D9002001E0C0F11C
:10F9B000640060702546266100F050F8A860A670CB
:10F9C000BDE8F081540C0020440C0020E41100201C
:10F9D00010B5044600F042F82168401A401E6060ED
:10F9E00010BD000070B50546007C0E4600F0070013
:10F9F000B04220D01048FCF78BFB11E0207C00F0D7
:10FA00000700B04208D8AC4204D00B482246294631
:10FA1000FCF720FC34B10AE007482146FCF77EFBE6
:10FA20000400EBD1044800222946FCF713FC287C93
:10FA300066F30200287470BDE411002002480078CB
:10FA4000002800D001487047EC0C0020C8180520A1
:10FA500010B5044600F002F8001B10BD0349012256
:10FA600048680A700B78002BFBD07047300C0020E0
:10FA7000034900220A704A68104448607047000039
:10FA8000300C00202DE9FF4F83B09B460700DDF8C6
:10FA9000409015D00498002813D05FEA897001D5F2
:10FAA00047F6184B324E002000900190451E8DF80D
:10FAB000080001A97268824638469047044650E023
:10FAC000002007B0BDE8F08F019801A90090A04682
:10FAD00072683846904704465FEAC97004D002A8AD
:10FAE000414600F0E7F878BBB8F10A0F40463CD039
:10FAF000B8F10D0F0FD0224601460498F9F703FF25
:10FB000001460AEB01000FFA80FADA4513DD681CA2
:10FB100006D0009508E00A2C27D1019880B2D0E7E2
:10FB2000B2686946384690470098F0B972686946ED
:10FB30003846904719E00020424608E00DA31B5CC0
:10FB4000934202D1009D06E00BE0401CC0B209A325
:10FB50001B5C002BF2D121B105990AEB01000FFAD1
:10FB600080FA0098385C0028AED10098D6E70000F3
:10FB7000680C0020202C2E3B3A2D5F002DE9FF4F12
:10FB800081B004464FF000000F00DDF838A0DDF82A
:10FB900040902080608043D00398002840D05FEAE6
:10FBA000897002D547F618400F90039800252E461D
:10FBB00090F808801EE0CDF8009078190F9B8346DE
:10FBC000DDE90312FFF75EFF6188064401EB0800E0
:10FBD00050446080711BCDF8009089B25846DDE931
:10FBE000032300F023F8B4F90010814200DB08463B
:10FBF00035462080785D0028DDD15DB1781910F898
:10FC0000010C0A2801D00D2804D1628808EB0A00F3
:10FC100010446080B4F9020028B1A0EB0A006080B3
:10FC200005B0BDE8F08FA4F80280F9E72DE9FC5F8C
:10FC300007001E4691460D46DDF830A009D0B9F107
:10FC4000000F06D00020009004468DF804002DBB64
:10FC50002BE00020BDE8FC9FDFF854806946384661
:10FC6000D8F80420904783460098D8F80420002153
:10FC70003844904780465FEACA7004D001A85946CC
:10FC800000F018F850B9424659464846F9F73BFE8D
:10FC900000B2002802DD2044304404B20098A8429B
:10FCA000DAD3002C01DDA01B04B22046D2E700000D
:10FCB000680C0020027823294FF0000302D0012AAB
:10FCC0000ED012E032B1012A4FF0000104D0022A16
:10FCD00004D00AE0012106E0017006E00123FBE701
:10FCE000202901D10221017001231846704700002C
:10FCF0002DE9F0410024084F0E468046254605E0D8
:10FD0000396808EB040088476D1C0444B542F7D3FA
:10FD10002046BDE8F0810000680C0020F8B50746D9
:10FD2000074E00200D460446009004E072686946C4
:10FD300038469047641C0098A842F7D32046F8BD87
:10FD4000680C0020F8B50024074E054620460094B4
:10FD500005E072686946284690470098641C285C54
:10FD60000028F6D12046F8BD680C002078B504467E
:10FD70004FF00005009501B969460A68A05C0306CA
:10FD800001D405463AE006260223B6EB501F09D1FE
:10FD9000521C0A60C006A45C400D2AE004F03F0338
:10FDA0001D182BE00E26B6EB101F05D1521C0A6061
:10FDB0000007A55C000C12E01E26B6EBD00F1DD18B
:10FDC000521C0A604007A55CC00AB3EB951F13D113
:10FDD000521C0A6005F03F06A55C00EB0630B3EB51
:10FDE000951F09D1521C0A6005F03F05A45C00EB89
:10FDF0008510B3EB941FD1D0002078BD521C28464B
:10FE00000A6078BDF8B50746086800250E4E401E0A
:10FE10000C46086002E0042D13D220683168384493
:10FE2000884718B9216861B1491E21606D1C0028FE
:10FE3000EDB2F0D02068694600903846726890476D
:10FE4000F8BD0020F8BD0000680C00200078010615
:10FE500011D50621B1EB501F01D1022070470E21B0
:10FE6000B1EB101F01D1032070471E21B1EBD00F61
:10FE700001D1042070470120704700002DE9F047B0
:10FE80001E4614460D468246DDF8209015E000BF60
:10FE90004FEA54084A46504608FB065739469047F1
:10FEA000002808DD44F30000C0EB540407EB06050E
:10FEB000A4F1010401E005DA4446002CE8D1204613
:10FEC000BDE8F0873846FBE7F1F7B8FBF3F782F9B6
:10FED000F3F704F8F3F786F8F2F7CAFFF2F7A6FF94
:10FEE000F3F7E8F8F2F770FFF3F724F9F2F716FEEC
:10FEF000FAF740FEFEF778FAFEF79AFAF3F7E8FB16
:10FF0000FFF7FCFCFCE770B580220D460646F5F7CE
:10FF10002CFC802104463046F5F73EFA002C06D032
:10FF200029463046BDE870408022F5F751BC70BDCF
:10FF300007B5002909D000680B1D029A0421184456
:10FF400022B10A4602A9F0F7E8FB0EBDF0F764FC07
:10FF50000EBD07B5002907D000680422029B0844A3
:10FF60001BB102A9F0F7D9FB0EBD1146F0F754FC06
:10FF70000EBD000010B5002407E000BF90F830105F
:10FF8000890600D50446FCF78DFE0028F6D1002C2A
:10FF900004D02046BDE81040FCF76ABF10BD2DE933
:10FFA000F04115460E460746001DFCF7B1F814E077
:10FFB000208A618AA38A3044E28A29442082334419
:10FFC00061822A44A38231462046E2822A46FFF714
:10FFD000E6FF381D2146FCF7A1F80400E8D1BDE892
:10FFE000F08170B50021054609E0A06A60B1007893
:10FFF000C00702D02046FFF7F4FF21462846FCF751
:020000040801F1
:10000000D4FD0400F1D170BD2046FFF7EAFF204681
:10001000FCF76BFFF1E770B50C46FCF743FE0546B5
:100020006CB1012C0BD0022C09D0072C07D0032C6B
:1000300005D0062C03D0042C01D0052C08D1F9F7EB
:10004000BBFB024621462846BDE87040F9F7C8BB15
:1000500070BD00002DE9FF4F83B014468846DDF8DF
:1000600040B0FEF7EDFABDF818A08146406910B324
:10007000B4F9006018E000BFB4F902500EE000BF10
:10008000CDF808B04846ADF804A033460095424686
:10009000D9F814700399B8476D1C2DB2B4F9060055
:1000A000A842EDDA761C36B2B4F90400B042E3DAC5
:1000B00007B0BDE8F08F6188BBF1FF0F039811FB1B
:1000C00008F100EB410509D0069800215A4600913D
:1000D000F5F7D0FE0190B4F9027053E0B4F90000D6
:1000E00005E005EB4002411C08B2A2F800A0B4F9FB
:1000F00004108142F5DAA28805EB4806B4F9000045
:100100006188121A05EB4009520402F500321714F7
:10011000491C0DB20CE000BFB4F900003A46494654
:1001200006EB4000F0F7F9FA6D1C2DB206EB48061D
:10013000B4F90600A842EFDABAE700BFB4F90060EC
:1001400018E000BF35F81600BDF8001088420AD04C
:1001500005EB46005A460088ADF800000099069865
:10016000F5F788FE019005EB4601BDF80400761C0A
:1001700036B20880B4F90400B042E3DA7F1C3FB223
:1001800005EB4805B4F90600B842D7DA90E7F8B5B0
:100190000629054626D1F5F7E3FA0446A0F57F4087
:1001A000FF381FD080212846F5F7F6F88022214637
:1001B0002846F5F70DFB2846FCF774FD0546FFF7CA
:1001C0000AF90122064621462846FFF759F9284632
:1001D000FFF701F98642009004D00E216A462846B6
:1001E000F9F7FEFAF8BD0000FEB50E460746FCF72B
:1001F0002DFD0546807E20F00E00A8763046FDF7E6
:10020000BCFA0121FCF788FEFAF798FB02A9044624
:10021000FAF7AAFB69462046FAF7B8FB00206422E9
:1002200009E000BF01EB810308441B0193FBF2F1DD
:1002300000B2ADF80010BDF900100029F2D1318AEA
:100240003A8A891A084404B23046FCF78DFD2044EE
:1002500006B23846FCF788FD00EBD07040108442AF
:10026000AC8A02DD4CB1641E06E0864205DAE88AFB
:10027000401EA04201DD641CA4B23846FFF7ABF873
:100280000122054621463846FFF7FAF83846FFF7BF
:10029000A2F88542019004D00E21384601AAF9F750
:1002A0009FFAFEBD10B5FCF7D1FC0446FAF746FBF9
:1002B00004F11001BDE81040FAF756BB2DE9F843F0
:1002C0000E468146FCF7C2FC0446FAF737FB694646
:1002D000FAF74AFBBDF80010228ABDF80230658AA1
:1002E0008F1AA07E6FF00902591B3DB209B20307B5
:1002F0002DD40A2D01DA954229DC40F00200A076C7
:1003000001213046FDF76AFA08B1002D06DC042110
:100310003046FDF763FAA0B1002D12DAA07E410746
:1003200005D4BDF800102182BDF80210618240F0B2
:100330000400A0763046FDF720FA0021FCF7ECFD22
:1003400011E0A07E410711D420F004000AE00A2940
:1003500001DA914204DC20F0040040F00A0001E0E0
:1003600020F00200A076A07E40072ED5A068FCF702
:100370000FFDBDF80010228A0844801A01B2A0685F
:10038000FCF7E0FEBDF800002082BDF802006082AC
:100390002068FCF791FC0546A07EC0F34110B0B187
:1003A000012814D0022801D003280ED16068FCF780
:1003B00051FCB5F91E10A38A0844B5F9162003FBB9
:1003C000002001B26068FCF7C9FEBDE8F8836068F0
:1003D000FCF7CAFC07466068FCF76EFC804648469E
:1003E000FCF7C2FCB6F91020B9F91010B5F91E30AF
:1003F000511ADA19A38A514391FBF0F1B8F91A00A6
:1004000002FB03026068511A09B2FCF79BFEDCE7AD
:10041000174B2DE9F041DB680C460646984701284A
:10042000054623D13046FCF73DFC0646FCF73AFC76
:10043000FCF738FC0746FEF78AFFB0B1072C06D060
:10044000082C09D00A2C0CD0092C0AD00DE031461A
:100450003846FFF727FF08E031463846FFF72EFF02
:1004600003E031463846FFF7BFFE2846BDE8F0817D
:10047000D40C0020164B2DE9F0419B680C46064633
:1004800098470128054620D13046FCF70BFCFCF7C5
:1004900009FC0746FEF75BFFB0B1072C06D0082C1D
:1004A00009D00A2C0CD0092C0AD00DE03146384670
:1004B000FFF7F8FE08E031463846FFF7FFFE03E09D
:1004C00031463846FFF790FE2846BDE8F08100002F
:1004D000D40C00202DE9F8438146FCF7B7FB044615
:1004E0004846FCF741FC01462068FCF71FFEA07E51
:1004F0000025C00616D520680121FCF736FD60688E
:100500000121FCF732FD4846FCF7A4FB0146A06838
:10051000FCF720FD00230095A06801221946FBF797
:10052000A5FF32E1E08A0028FBD020680021FCF71B
:100530001CFD60680021FCF718FD02214846FEF70B
:100540000DFF032106464846FEF708FF0746A07E3A
:10055000C0F3411030B1012804D002281BD0032879
:1005600039D118E04846FCF7FFFB0146E08AB6F9AE
:100570001E20C0F10108B6F91A30B6F91CC002FB02
:100580000811C91AA1EB0C0191FBF0F001B26068EF
:10059000FCF7CCFD1FE04846FCF75CFB01462068F9
:1005A000FCF7D8FC2068FCF755FBF38AB6F818C0B6
:1005B000E18AC01AB6F91E20A0EB0C00C1F10103BC
:1005C00000B203FB020000B290FBF1F0401E01B24A
:1005D0006068FCF7BFFCA07EC0F3411030B1012879
:1005E00004D0022811D0032820D10EE0786AF98ABD
:1005F0003A8BF38A007A378B1A4408441044384403
:1006000001B22068FCF7A6FC10E0786A00224121C4
:10061000F9F779F9718B7A8BBB8B0844B78BD118BA
:100620000844384401B22068FCF780FDA07EC0F386
:10063000411030B1012804D002280CD0032811D178
:1006400009E04846FCF706FB07462068FCF702FB7A
:10065000381A01B203E04846FCF7FCFA0146A068EC
:10066000FCF778FCA07EC0F3411030B1012816D011
:1006700002283FD003283CD151E000230095206898
:1006800001221946FBF7F2FE0095002321680C2297
:10069000A068FBF7EBFE00230095042210E0002386
:1006A0000095A06801221946FBF7E0FE00950023A3
:1006B000A1680C222068FBF7D9FE002300950122D7
:1006C000D4E90010FBF7D2FEA06800220121F6F762
:1006D000A9F8A0680521F6F7DEF84846FCF7BAFA53
:1006E00006462068FCF7B6FA301A01B2A068FCF79B
:1006F00031FC4AE000230095206801221946FBF7EF
:10070000B5FE2068FCF730FB009501220346A06887
:100710004946FBF7ABFE00230095032210E00023BF
:100720000095206803221946FBF7A0FE00950023E0
:10073000A06801224946FBF799FE0023009501229B
:10074000D4E90010FBF792FEA06800220121F6F721
:1007500069F8A0680521F6F79EF84846FCF704FB07
:1007600007462068FCF700FB381A01B2A068FCF7C6
:10077000DDFC4846FCF76EFA01462068FCF7EAFB10
:10078000B6F91E106068FCF7D1FCA06800212CE0CF
:10079000FCF790FA2849884225D1A07EC0F3411089
:1007A00030B1012804D002280CD003281BD109E065
:1007B000A068FCF74FFA07464846FCF7D5FA3A46D8
:1007C00001460DE0A068FCF745FA80464846FCF774
:1007D000CBFA07462068FCF7C7FA381A424601B23E
:1007E0003046FCF759FCA0683146FCF7DEF90600FC
:1007F000CED1A07EC10618D4C0F3411030B101287B
:1008000008D002280AD003280FD103E00023009566
:10081000042206E000230095012202E00023009557
:100820000322D4E90010FBF721FEA18A4846BDE867
:10083000F8430022FEF724BE7504010800880988E9
:10084000401A704738B500210546FAF717FA142206
:1008500004465021FCF720FC01212846FAF788FEC7
:100860000F2000900222204600216FF00903FBF7C1
:10087000FDFD1AA12046FAF758FF00212846FBF794
:1008800033F9194A00210446FBF7DCFA164A022123
:100890002046FBF7D7FA144A01212046FBF7D2FA8B
:1008A000124A04212046FBF7CDFA114A05212046C1
:1008B000FBF7C8FA502220461146FCF7EDFB6420F6
:1008C00000900023204602221946FBF7CFFD204668
:1008D000BDE8384007A208A1FAF7DABF416C61729F
:1008E0006D2074696D650000140F0020B8100020A1
:1008F000F410002020000000EF8981004FF04070CC
:10090000E1EE100A70470000000000000000010244
:100910000304060708090000FFFF0000FFFF0000B6
:1009200010840000FFFF000018C600001084804003
:10093000C02A80D420609FDF1A4C80B2E615406A3E
:1009400094BFEA12375B80A4C8ED103050708FAFAF
:10095000CFEFD250E6963CEBB97D32FAF2DBBF9E88
:10096000754C2845ADACACACAC9B9B7900359D007B
:10097000E2C4E2D3E0D2C0B100006005100002F092
:100980000F200005C02F000129A27C200CEFFEFFE4
:10099000E3000F20C500002F00F200147D45F42075
:1009A0005CEECEFC8000B608900000E30B60000116
:1009B000F00E30000000200000000E40000005F89E
:1009C00010001DFCEE3007F200DB00AC0007F00861
:1009D000F20002001EE820000019EFA10000006FE5
:1009E000B00510007F00F70006F10AE524EC001ABC
:1009F000FFFB100001F2000000091000006720005A
:100A000000000CA8E10010001F00A603D0002E007B
:100A1000970D40000D74E37A0000029A42E1000055
:100A200000000B60100000005C1CEE400001E27A48
:100A300004E0000980A701F0001D008A04E0000026
:100A4000001CDE50000000001000000575000000D2
:100A5000BFBEB00002F502F30003F403F20000EBA6
:100A60003E9000004FF8000001CFF500400BD19FF1
:100A700032F22F500BE8F01F5001DF800BD314DF50
:100A8000A001AFFFA5F700002000003F3F3E290076
:100A900008000AC005E100D7004F1009C000CA00D5
:100AA0000E8000E8000D9000CA0008D0003F200032
:100AB000C80003F20007D0000500630004E200084C
:100AC000C0000F5000AC0005F1003F4001F5000FE1
:100AD0006001F5003F4005F000AB001F4009B00683
:100AE000D1004100000006000001F000431F032870
:100AF000FDFDF700BF90004F5F200B60A8000000D5
:100B0000000001610000003F30000003F30000110D
:100B10004F51106FFFFFFF61446F74410003F300FA
:100B200000003F30000003D300000B40F63F39B017
:100B30000000466608CCC166BC0000001600000735
:100B4000C00000D600003F100009A00000E4000033
:100B50005D00000C700002F100008B00000E5000E0
:100B600004E00000A900000000157510002EEBEE57
:100B7000100AE101E900E80008E00F60006F01F5EC
:100B80000005F11F50005F11F50006F00F70007EA8
:100B900000DA000AC006F615F60009FFF9000000A9
:100BA0001000000001404AFBAFADB300BB000BB02A
:100BB00000BB000BB000BB000BB000BB000BB000D3
:100BC000BB00168500004EDBEE200EA001EA02F30A
:100BD0000009D0000000BA0000004F3000002E9045
:100BE00000001DB000000CC000000BD100000AF492
:100BF000333310FFFFFFF60016750004FDBED10E63
:100C0000A001E8093000BB000000E900067CD1002B
:100C10000CDF90000002E90000009E3F40009D0DA7
:100C2000D315F701BFFF8000001000000003600033
:100C30000001EF000000BFF000005F8F00001E66A3
:100C4000F0000AC06F0004F206F000D7006F007FCA
:100C5000DCCEFC8355559F53000006F00000006F6A
:100C600000056666600EFEEEE00F5000001F3000CB
:100C7000003F4561004FFEFF4027101CE0000004CC
:100C8000F3000002F5AB0004F34F613DC006EFFC3A
:100C9000200001100000014300009FF8000BE40059
:100CA000004F300000AB266100DDFCEE30EE200C82
:100CB000D0F80005F1D90003F2AD0006F03F914EE7
:100CC0009005EFFA00000110002666666615CCCC90
:100CD000CDF30000008D0000000F50000007E00081
:100CE0000000E70000006F1000000D90000005F20A
:100CF000000000CB0000004F3000000BC0000000DF
:100D0000057500002EEBEE100AE001E900DA000A9A
:100D1000C00AD000DA002EB7BE2001BECFB100BCA1
:100D2000001DB01F60006F01F70007F00AE414EA2D
:100D3000001AFFFA1000001000000016850003FEE4
:100D4000BFB00CC004F51F5000BB2F30008D1F60DA
:100D5000009E0AE306FE01CFFBAC000220C90000A2
:100D600005F200249F70009EB50066BC00000000E4
:100D70000066BC000660BC0000000000000000B47B
:100D80000F63F39B0000000000500007EF018EF995
:100D900025FC60004ED7100006DFA300004CF000D9
:100DA00000038AAAAA78AAAAA700000004666664BB
:100DB000BEEEEE905000000EE8100016DFA300001B
:100DC0003AF90006CF739FE810FD600003000000B1
:100DD00000476200AFCEF43F400CC140008E0000DF
:100DE0000CB00009F20007F40000F800002C3000FD
:100DF0000000000007100002F400000000000000E6
:100E0000001210000000006DFDEE8000000AC4001A
:100E100002AC00009B000000099002F1005B93000F
:100E2000E1099007D58E00A50D401F205C00770FCB
:100E3000106C007B00781F00A9008900881F10A893
:100E400000A800B50E308D04FA03E00B701DFC4EB7
:100E5000DD3004E1001000100000AC1000000000C4
:100E60000008EA77AB000000001578510000000090
:100E700036000000000CF300000002FE90000000AD
:100E80008D6F0000000E71F5000004F20AB0000042
:100E9000AC005F20001F8333F80007FFFFFFE00076
:100EA000DA00003F403F400000DA09E0000007F1AF
:100EB000466653000AFDDEFC00AD0003F80AD000D0
:100EC0000CB0AD0001E90AE889EC10AFAABEC20A75
:100ED000D0000CC0AD00007F0AD00009E0AD44484E
:100EE000F80AFFFFD7000001686100006FEBEF60B8
:100EF00003F80009F20BE00000F70F900000320F3A
:100F0000700000001F700000000F800000000EA0A5
:100F100000008508F10002F601EC314DD0002BFFF6
:100F2000FB100000020000466640000AFDDFF700EB
:100F3000AD0006F70AD00008F1AD00002F5AD0002E
:100F400000F8AD00000F8AD00000F7AD00003F4A66
:100F5000D0000CD0AD446CF30AFFFE9200466666EA
:100F600062AFDDDDD6AD000000AD000000AD0000D9
:100F700000AE777750AFBBBB80AD000000AD000086
:100F800000AD000000AD333332AFFFFFF8466666B8
:100F900062AFDDDDD5AD000000AD000000AD0000AA
:100FA00000AD444420AFFFFF90AD000000AD000055
:100FB00000AD000000AD000000AD000000000168C1
:100FC0006200006FDBEF7004F80008F30BE0000034
:100FD000D80E900000000F800000000F7004AAA738
:100FE0000F900388EB0DB00000CB07F30000CB009F
:100FF000DE5126F90019FFFE8000000210004400B7
:10100000000260AD000007F1AD000007F1AD000087
:1010100007F1AD000007F1AE77777BF1AFBBBBBD49
:10102000F1AD000007F1AD000007F1AD000007F1E0
:10103000AD000007F1AD000007F1359F9F9F9F9F16
:101040009F9F9F9F9F9F00000053000000E90000AA
:1010500000E9000000E9000000E9000000E90000EC
:1010600000E9000000E9120000E97F0001F73FA25B
:101070002BF205EFFD4000011000450000163AD0AC
:10108000001DD1AD000CE10AD00AF300AD09F40057
:101090000AD7F70000AFFED0000AF72FA000AD007E
:1010A0006F600AD000AF30AD0000DD0AD00002FA58
:1010B00044000000AD000000AD000000AD000000E5
:1010C000AD000000AD000000AD000000AD0000006C
:1010D000AD000000AD000000AD333330AFFFFFF3D3
:1010E000462000000264AF9000000AFAAFF0000052
:1010F0001FFAACF600007FCAABAD0000D9CAAC3F06
:101100003004F3CAAC0D900AC0DAAD06F01F50DA15
:10111000AD00F67E00DAAD009DD800DAAD003FF2FA
:1011200000DAAD000CB000DA4500000260AF6000EC
:1011300006F1AFF10006F1AEEB0006F1AD5F50062F
:10114000F1AD0AE106F1AD01EA06F1AD006F56F12D
:10115000AD000BE7F1AD0001FFF1AD00006FF1ADA7
:1011600000000CF100016861000005FFCFF60003EC
:10117000F90009F300AE00000EA00E9000009E00E2
:10118000F7000007F01F6000006F10F8000008F083
:101190000DB00000AD008F20001F8000DD524DE13A
:1011A0000001AFFFB10000000200000046665300DE
:1011B0000AFDDEFE50AD0001BF2AD00001F6AD00F1
:1011C000001F6AD00008F3AFAABDF80AE8886200E1
:1011D000AD0000000AD0000000AD0000000AD00001
:1011E000000000016861000006FFCEF50004F80071
:1011F00009F200BD00000E900F800000AD01F60066
:101200000008F02F5000007F01F7000009F00EA049
:101210000000BC009F10002F7001ED525DD0000255
:10122000BFFFF5000000021BF70000000008704639
:101230006653000AFDDEFC20AD0003EB0AD0000877
:10124000F0AD00008F0AD0003EB0AFCCEFB10AE69F
:1012500069F200AD000DB00AD0005F40AD0000CCD7
:101260000AD00004F500057730002DFCCFA00BD18B
:10127000003F70F80000AB0CD10000003EF94000C8
:101280000017DFE50000003AF51400000CC3F5007C
:1012900000BD0BE5227F7008EFFE7000001100001A
:1012A00036666666618DDDFEDDD20000F800000066
:1012B00000F800000000F800000000F80000000046
:1012C000F800000000F800000000F800000000F83E
:1012D00000000000F800000000F8000053000016B5
:1012E0002E900002F5E900002F5E900002F5E90063
:1012F000002F5E900002F5E900002F5E900002F5DD
:10130000E900003F4BD00006F24FA225EA005DFF46
:10131000F800000010000045000000457F2000009C
:10132000EA1F800004F40BD0000AE005F3000F80F0
:1013300000E8005F20009E00BC00003F31F6000086
:101340000D96F1000007EBB0000001FF5000000017
:10135000BE0000360000350000454F2000AF1000F1
:10136000DA1F6000FF5001F60DA004FBA004F20993
:10137000E008C6E008E005F10D71F20CA001F51FD0
:1013800030D70F6000D96E008B3F20009CA9004F22
:101390007E00005FE5000FDB00002FF0000BF70080
:1013A000000EB00006F30026200002620DD0000CF3
:1013B000E104F7006F5000AF21EB00001EBAF1000E
:1013C0000005FF60000001FF2000000AFEB00000E1
:1013D0004F66F50000EC00BE1009F3002FA03F801F
:1013E0000007F445000002626F40000BE10DD000E1
:1013F0003F6004F500BD0000BD03F500003F5CC088
:1014000000000AFF30000001FB00000000F80000AF
:101410000000F800000000F800000000F8000016CE
:1014200066666643DDDDDEFA0000008F3000003FB7
:101430007000000DC0000009F2000004F600000179
:10144000EB000000AE1000006F5000001FC44444C9
:1014500045FFFFFFFFDFF1DA30D900D900D900D90D
:1014600000D900D900D900D900D900D900D900D9B4
:1014700000DEC1677034000005F100000E6000005E
:101480009C000003F200000C8000006E000001F5DB
:1014900000000AB000004F100000E7000008D00074
:1014A000002F40EFF028F006F006F006F006F006F8
:1014B000F006F006F006F006F006F006F006F0BDC5
:1014C000F067700015000008F30000EE90005E5F0A
:1014D000000C80E602F207D013001400FFFFFFF3B8
:1014E000222222202E8004F300330027970005FBE0
:1014F0009ED10B9001F6000012E802AFEDF80DB19D
:1015000000E81F5000E80EC33BF804EFF9DB0001D0
:101510000000E8000000E8000000E8000000E838F3
:101520008300EDDADF40EC000CD0E80005F1E800C4
:1015300003F3E80004F2E90007F0EF615F90E9CF00
:10154000FB00000110000017960003FC9DE10CB0A9
:1015500000D91F5000454F3000003F3000000F7091
:10156000006708F415F6009FFF70000010000000EF
:10157000008D0000008D0000008D0028848D04FD8A
:10158000ADED0CC000CD1F50008D3F30008D2F40C1
:10159000008D0F80009D08F515FD00AFFC9D00013A
:1015A00010000016971002EDAED10CC001E81F50DC
:1015B000009C3FFFFFFE3F6333320F80000009F6BF
:1015C00012C8008FFFA100002000000020005EF87C
:1015D00000EA1002F40039F9705BFBA003F4000389
:1015E000F40003F40003F40003F40003F40003F434
:1015F000000028943604FDADDE0CC000CE1F600054
:101600008E3F30008E2F40008E0F80009E08F51513
:10161000FE00AFFCBE000110AC077003F703EFEF54
:10162000A000034200E800000E800000E800000E69
:10163000838830EDDADF3ED000E9E8000BBE8000A1
:10164000BBE8000BBE8000BBE8000BBE8000BB54B3
:10165000CB0055CACACACACACACACA006300E900CE
:1016600000006400D900D900D900D900D900D90000
:10167000D900D900D900E86EF32520E8000000E881
:10168000000000E8000000E8001730E801DC00E896
:101690000CD100E9CD1000EFFB0000EE6F7000E808
:1016A00007F400E800BE10E8001EB0CACACACACAE1
:1016B000CACACACACACACA633883038840EDDADF15
:1016C0009EACF6EB000EF200BCE8000BC0008EE80A
:1016D000000BB0008EE8000BB0008EE8000BB000ED
:1016E0008EE8000BB0008EE8000BB0008E633883EC
:1016F0000EDEADF3ED000E9E8000BBE8000BBE8059
:1017000000BBE8000BBE8000BBE8000BB0001797E1
:1017100010002EDADF400CC000BE01F50003F33FDD
:1017200030001F52F40001F40F80006F208F514EE3
:10173000A0008FFF90000002000063498300EDDAF3
:10174000EF40EC000CD0E80006F1E80003F3E800FD
:1017500004F2E80008F0EE415F90EBCFFB00E801F7
:101760001000E8000000E80000003200000000283F
:10177000843604FD9DED0CC000CD1F50009D3F3010
:10178000009D2F40009D0F80009D09F515FD00BFB5
:10179000FDBD0001109D0000009D0000009D0000A7
:1017A000002363591EDFC2ED100E8000E8000E809A
:1017B00000E8000E8000E800000038850006FBAF5E
:1017C000C00E9003F40CC2000002CFD81000026DCE
:1017D000E2192001F60EB216F302CFFE60000010EF
:1017E000000270006F106AF849CFA606F1006F1072
:1017F00006F1006F1006F1004F4100CFA0001073FA
:1018000000055E8000BBE8000BBE8000BBE8000B5B
:10181000BE8000BBD9000BBAE327FB2DFFBCB00193
:101820001000460000726F1005F20F600AB00AB097
:101830000F6004F14F1000E69A00009BE500003FA6
:10184000E000000D90004600044000646F000EE0D0
:1018500000F61F403FF204F10C808AB708C008D0A0
:10186000D56C0C8003F3F11F2F3000ECB00CBE00E0
:1018700000AF6007F900005F2002F5003710027228
:101880000EA00BD004F46F3000ADE800001FE000A4
:10189000005FF40001E8AD000AE01E905F4006F42E
:1018A000560001727F1007F11F600CB00CB01F5082
:1018B00006F16F0001F6BA0000ACF400005FE00032
:1018C000000E9000001F4000008D00004EF400004C
:1018D00015200000177777712BBBBEF100003F7019
:1018E0000001EB00000BE100007F300003F7000077
:1018F0001EC333315FFFFFF6000040000BD1007EB6
:101900001000CA0000D90000D90000F8003BE20036
:101910006FB00002F60000D90000D90000CA000034
:10192000AD00002F800002A133A8A8A8A8A8A8A8ED
:10193000A8A8A8A8A8A810310008F30009E0004F43
:101940002003F3003F3001F50009E6004FB00F809F
:1019500002F4003F3003F3006F003E800860000097
:1019600031000003EFF7006CCA06FB7E783003BC41
:1019700070000000000003730000000049EFFB004E
:101980000005AFFFFFFB00005FFFFFFFFB00006FE4
:10199000FFFFFFFB00006FFFFFC78B00006FFB61C5
:1019A000006B00006C0000006B00006B0000006B1F
:1019B00000006B0002658B00006B009FFFFB0011B5
:1019C0006B00EFFFFA5EFFEB003CFEA1FFFFFB00A8
:1019D0000000007FFFE40000000000330000000072
:1019E00000399999999999999940EB9EE999999912
:1019F000DF9AF1F209900000006B00F2F52B9000E5
:101A000000006D23F2FFFF900000006FFFF2F30A69
:101A1000900000006C01F2F209900000007B00F2DF
:101A2000FDBFFBBBBBBBEFBCF2F96DD6666666CEF5
:101A300068F2F209900000006B00F2F74C90000091
:101A4000006D45F2FEDF900000006FEEF2F20990AB
:101A50000000006C00F2F209900000007C00F2CE61
:101A6000DFFDDDDDDDFFEEE0044444444444444456
:101A7000106999208999999996FFFF84FFFFFFFFCC
:101A8000FFFFFF94FFFFFFFFFFADDD41CDDDDDDD9B
:101A9000DA0000000000000000CFFF62EFFFFFFF50
:101AA000FCFFFF94FFFFFFFFFFFFFF83FFFFFFFF30
:101AB000FF3666105666666663366610566666665C
:101AC00063FFFF83FFFFFFFFFFFFFF94FFFFFFFFA9
:101AD000FFCFFF62EFFFFFFFFC0000000000096086
:101AE0000000000000BFF6000000000BFFFC0250E9
:101AF0000000BFFFE33FF8000BFFFE30DFFF80BFB9
:101B0000FFE3005FFFFDFFFE300005FFFFFFE30086
:101B100000005FFFFE3000000005FFE20000000053
:101B2000005C20000000033000005004FF5000BFA4
:101B3000C0EFFF50CFFF77FFFFDFFFE207FFFFFFA0
:101B4000E20008FFFFE20000BFFFFF5000BFFFFF01
:101B5000FF50BFFFE9FFFF4DFFE208FFF61DE20067
:101B600007F80000000000000000009600000000E0
:101B70000004FF000000001504FF02500002DF74A3
:101B8000FF0CFA000CFF34FF07FF806FF404FF0026
:101B90009FF1BFA004FF000EF7EF6002FE000AFAFB
:101BA000FF4000210009FADF700000000CF99FD00F
:101BB0000000003FF42FFA000001DFD008FFC5232A
:101BC0007EFF30008FFFFFFFF4000003AFFFE9103E
:101BD0000000000011000000000004991000000047
:101BE0001209FF40300002EE7EFFB9FA000AFFFF43
:101BF000FFFFFF5001EFFFFFFFFB0013FFF812BFD5
